:400000000080002011000000712900007129000008B5044B1A6803F53F5302331A6002F0C1FC00BFFA46004010B5054C237833B9044B13B10448AFF300800123237010BD84
:40004000D081FF1F00000000A08C0000084B10B51BB108490848AFF300800848036803B910BD074B002BFBD0BDE81040184700BF00000000D481FF1FA08C0000C880FF1F9A
:400080000000000000F1080343604FF0FF328260C360036100230360704700BF00230361704700BF43684B609A688A609A68516099600861036801330360704730B40D6866
:4000C000B5F1FF3F01D1026907E000F1080200E01A4653681C68A542FAD253684B6099608A605160086103680133036030BC704703694268816891608268416851605A68CD
:40010000904201D182685A6000220261186801381860704706480068006880F3088862B661B6BFF34F8FBFF36F8F00DF00BF000008ED00E04FF0807340F8043C40F8081C01
:40014000034B40F80C3C40F8202C4038704700BFA1010000074B19680868B0E8F00F80F30988BFF36F8F4FF0000080F311884EF00D0E7047C082FF1F4FF08052034B1A607B
:40018000BFF34F8FBFF36F8F704700BF04ED00E0EFF311804FF0A00181F311887047002008B5FFF7F5FFFEE708B5FFF7F1FF044A136801331360BFF34F8FBFF36F8F08BDDD
:4001C000CC80FF1F80F31188704700BF08B5044A1368013B136013B90020FFF7F3FF08BDCC80FF1FEFF30980BFF36F8F0D4B1A6820E9F00F10602DE908404FF0A00080F3BE
:40020000118800F01DFD4FF0000080F31188BDE8084019680868B0E8F00F80F30988BFF36F8F7047C082FF1F08B5FFF7B1FF00F0C7FB18B14FF08052024B1A600020FFF7C4
:40024000C1FF08BD04ED00E0034A044B1A600722043B1A60704700BFCF01010014E000E008B5094B1A6842F460021A601A6842F060421A60FFF7E8FF0022044B1A60FFF7E2
:4002800049FFFFF78DFF00BF20ED00E0CC80FF1F10B50446FFF788FFA26BE36B9A4201D1012400E00024FFF791FF204610BD00BF10B50446FFF778FFA36B0BB9012400E0D5
:4002C0000024FFF783FF204610BD00BF38B504461546026C3AB903685BBB406800F004FE002363602CE06DB9806806F081FCA268236C1344A360626893421CD32368A360E0
:4003000000201DE0C06806F073FC236C5B42E2681A44E26021688A4202D262681344E360022D0AD1A36B53B1A36B013BA363002006E0002004E0002002E0002000E00020D8
:40034000A36B0133A36338BD026C72B110B5C3681344C3604468A34201D30368C3600C46C168204606F044FC10BD704710B50446FFF71AFF0BE0636A63B104F1240000F0C4
:40038000E1FC08B100F04EFDA36C013BA364A36C002BF0DC4FF0FF33A364FFF717FFFFF703FF0BE0236963B104F1100000F0CAFC08B100F037FD636C013B6364636C002BA9
:4003C000F0DC4FF0FF336364FFF700FF10BD00BF38B504460D46FFF7E7FE2168E26B236C03FB021060600020A063A160013A02FB0313E3604FF0FF336364A36455B9236950
:4004000083B104F1100000F09DFC01280AD1FFF7B3FE07E004F11000FFF734FE04F12400FFF730FEFFF7D2FE012038BD70B506460D4619B100FB01F0013000E000204C30FB
:4004400000F0BEFD044658B10DB9206002E000F14C030360E663256401212046FFF7B8FF204670BDF0B585B004460F4601921E460025FFF799FEA26BE36B9A4201D3022EBC
:4004800016D1324639462046FFF720FF636A43B104F1240000F056FC012805D1FFF76CFE02E008B1FFF768FEFFF790FE012042E0019B1BB9FFF78AFE00203CE01DB902A800
:4004C00000F07AFC0125FFF781FE00F06FFAFFF76BFE636CB3F1FF3F01D100236364A36CB3F1FF3F01D10023A364FFF76FFE01A902A800F06BFCC0B92046FFF7C9FE70B11E
:40050000019904F1100000F0EFFB2046FFF72EFF00F0D8FA0028ACD1FFF72EFEA9E72046FFF724FF00F0CEFAA3E72046FFF71EFF00F0C8FA002005B0F0BD00BF38B54C201A
:4005400000F03EFD0446C8B10025456005608560C56085630123C36305644FF0FF33436483641030FFF78EFD04F12400FFF78AFD2B462A4629462046FFF774FF204638BDE9
:400580002DE9F04104460F4690461D46FFF700FE0646A26BE36B9A4201D3022D1BD12A4639462046FFF792FEA36CB3F1FF3F0DD1636A93B104F1240000F0C4FB78B1B8F161
:4005C000000F0ED00124C8F800400BE0A36C0133A364012406E0002404E0012402E0012400E001243046FFF7EDFD2046BDE8F081F0B585B004460F4601921E460025FFF713
:40060000D3FDA36B33B3E56839462046FFF79CFE96B9A36B013BA363236813B900F0A8FC6060236993B104F1100000F08BFB01280CD1FFF7A1FD09E0E560636A33B104F131
:40064000240000F07FFB08B1FFF796FDFFF7BEFD01204BE0019B1BB9FFF7B8FD002045E01DB902A800F0A8FB0125FFF7AFFD00F09DF9FFF799FD636CB3F1FF3F01D10023BA
:400680006364A36CB3F1FF3F01D10023A364FFF79DFD01A902A800F099FB08BB2046FFF707FEB8B1236833B9FFF77EFD606800F0C1FBFFF78BFD019904F1240000F014FB05
:4006C0002046FFF753FE00F0FDF9002897D1FFF753FD94E72046FFF749FE00F0F3F98EE72046FFF743FE00F0EDF9002005B0F0BD10B50446FFF758FDA46BFFF767FD204604
:4007000010BD00BF094B9B6A1B680BB9012300E0002323B14FF0FF32044BDA627047034B9A6AD268D2685268DA627047EC81FF1F10B50446006B00F09DFC204600F09AFCF3
:4007400010BD00BF70B506460C4619B9800000F037FC044654B1502000F032FC054608B1046304E0204600F085FC00E0002525B1B200A521286B06F046FA284670BD00BF3C
:4007800070B504461546002306E0C85CE21882F83400CA5C12B101330B2BF6D9002384F83F30042D00D90425E562256400266664201DFFF773FC04F11800FFF76FFC2461E2
:4007C000C5F10505A5616462A66484F84C6070BD70B5002407E004EB8402930010481844FFF750FC0134042CF5D90E4C04F194063046FFF747FC04F1A8052846FFF742FCD1
:4008000004F11400FFF73EFC04F1BC00FFF73AFC2046FFF737FCA662C4F8D05070BD00BF1C82FF1FEC81FF1F38B50F4BD3F8D4205060D3F8D830984208D20B4BD3F8D000CE
:40084000D3F8D4100431FFF739FC38BD0446064DA86AD5F8D4100431FFF730FCEB6A9C4200D2EC6238BD00BFEC81FF1F2DE9F04782B080468A46164699460B9F0C99104636
:40088000FFF760FF002854D00446036B06F18045013D03EB850525F0070500960D9B0A9A5146FFF76DFF4A4641462846FFF742FC206007B13C60FFF777FC284BD3F8DC2041
:4008C0000132C3F8DC20D3F8D4304BB9234BC3F8D440D3F8DC30012B10D1FFF779FF0DE01E4BD3F8E0304BB91C4BD3F8D430DB6A0A9A9A4202D3194BC3F8D440174BD3F847
:40090000E4200132C3F8E420E26A012505FA02F0D3F8E8100143C3F8E810303302EB82029000211D1844FFF7BDFBFFF74FFC2C4601E04FF0FF34012C0CD1084BD3F8E030BA
:4009400043B1064BD3F8D430DB6A0A9A9A4201D9FFF712FC204602B0BDE8F087EC81FF1F00B585B00023039302930193009364220B490C48FFF77AFF01280DD1FFF708FC04
:40098000094B4FF0FF32DA620122C3F8E0200022C3F8D820FFF764FC05B05DF804FB00BFB08C0000390C0000EC81FF1F034AD2F8F0300133C2F8F030704700BFEC81FF1F14
:4009C0002DE9F0413E4BD3F8F030002B67D13C4BD3F8D8200132C3F8D820D3F8D880B8F1000F0CD19A6AD3F8D0109962C3F8D020D3F8F4200132C3F8F420FFF783FE304BC9
:400A0000DB6A984503D200273DE0012700E000272B4B9B6A1B680BB9012300E0002323B14FF0FF32264BDA622DE0254B9B6ADB68DC686368984502D2214AD36223E0261D07
:400A40003046FFF755FBA36A1BB104F11800FFF74FFBE36A012202FA03F1194DD5F8E8200A43C5F8E82005F1300003EB83039A0031461044FFF716FBE26AD5F8D430DB6A7F
:400A80009A42C2D2C4E70E49D1F8D430DB6A03EB83039A000A44136B012B08D808E0084AD2F8F8300133C2F8F830002700E00127034BD3F8FC3003B101273846BDE8F081A6
:400AC000EC81FF1F70B5FFF76FFB304BD3F8F020013AC3F8F020D3F8F030002B4FD12B4BD3F8DC303BBB00244CE0284C236ADD6805F11800FFF7FCFA2E1D3046FFF7F8FAD8
:400B0000EB6A012202FA03F1D4F8E8200A43C4F8E82004F1300003EB83039A0031461044FFF7C0FAEA6AD4F8D430DB6A9A4202D30122C4F8FC20154B5B69002BD5D1134B52
:400B4000D3F8F8306BB911E0FFF73AFF18B101220E4BC3F8FC200D4AD2F8F830013BC2F8F8300A4BD3F8F830002BEDD1074BD3F8FC30012B05D1FFF7FFFA012402E0002425
:400B800000E00024FFF722FB204670BDEC81FF1F10B5F8B10446FFF709FF114BD3F8D8201444D3F8D4000430FFF7A2FA60B90C4BD3F8D420D16A012202FA01F1D3F8E82020
:400BC00022EA0102C3F8E8202046FFF72DFEFFF779FF00E0002008B9FFF7CEFA10BD00BFEC81FF1F38B51FE0FFF7E0FE114BD3F8BC40FFF767FFBCB1FFF7D6FA0D4CD4F801
:400C0000C830DD68281DFFF773FAD4F8DC30013BC4F8DC30D4F8EC30013BC4F8EC30FFF7D5FA2846FFF784FD024BD3F8EC30002BDAD138BDEC81FF1F08B5FFF7D3FFFCE75B
:400C4000284BD3F8F03023B10122264BC3F8FC20704710B5234B0022C3F8FC20D3F8D4301B6B1A68B2F1A53F0BD15A68B2F1A53F07D19A68B2F1A53F03D1DB68B3F1A53F71
:400C800007D0184BD3F8D400D3F8D410343100F0ABFC144AD2F8E830B3FA83F3DBB2C3F11F039800C418A10011444C6B64684C6302F130011844820008320A44944206D117
:400CC000606803EB83018A0006490A445063054903EB83039A000A44536BDB68C1F8D43010BD00BFEC81FF1F38B50D46144CD4F8D4101831FFF7E2F9D4F8D4000430FFF72D
:400D0000F7F958B9D4F8D420D16A012202FA01F1D4F8E82022EA0102C4F8E820B5F1FF3F06D10748D0F8D4100431FFF7BBF938BD034BD3F8D8002844FFF776FD38BD00BFFB
:400D4000EC81FF1F38B5C368DC6804F118052846FFF7CEF9164BD3F8F030B3B9251D2846FFF7C6F9E36A012202FA03F11048D0F8E8200A43C0F8E820303003EB83039A002F
:400D800029461044FFF78EF903E029460948FFF789F9E26A064BD3F8D430DB6A9A4204D90120034BC3F8FC0038BD002038BD00BFEC81FF1F0082FF1F034BD3F8F4200260C5
:400DC000D3F8D83043607047EC81FF1F38B504460D46FFF7E9F9124BD3F8D8202B68B3F1FF3F14D020680E49D1F8F410884202D061688A420DD26168501A83420BD98A1A24
:400E000013442B602046FFF7D7FF002404E0002402E0012400E00124FFF7D8F9204638BDEC81FF1F0122024BC3F8FC20704700BFEC81FF1F002851D038B50246C36A284955
:400E4000D1F8D410C96A8B4247D28169002906DB2349D1F8D410C96AC1F105018161506903EB830399001F4B1944884201D1012300E0002363B31546141D2046FFF738F953
:400E800080B9EA6A02EB82018B0015490B441B6B43B9012303FA02F2D1F8E83023EA0202C1F8E8200E48D0F8D430DB6AEB62012202FA03F1D0F8E8200A43C0F8E8203030AF
:400EC00003EB83039A0021461044FFF7EBF838BD034BD3F8D430DB6AD36238BD704700BFEC81FF1F1C82FF1F002838D038B50346426C013A4264C06A196C884231D092BB56
:400F00001C461D1D2846FFF7F3F880B9E26A02EB82018B0015490B441B6B43B9012303FA02F2D1F8E83023EA0202C1F8E820236CE362C3F10502A261012404FA03F10B4853
:400F4000D0F8E8200A43C0F8E820303003EB83039A0029461044FFF7A5F8204638BD00207047002038BD002038BD00BFEC81FF1F064BD3F8D4302BB1044BD3F8D420536C61
:400F800001335364014BD3F8D4007047EC81FF1F094A22F00702094BC3F838290020C3F83C0947F6F871C3F84419C3F84009516003F5146313607047F482FF1FB4F9FF1FB0
:400FC00070B50446FFF7F2FC264BD3F848392BB9FFF7DEFF0122234BC3F8482934B1083414F0070F02D024F007040834621E47F6F6739A422BD81B49D1F8383901F6381122
:4010000001E0194613465A68944202D91A68002AF7D1154A93421CD00D6808351A680A605A68121B102A0CD91E1972605C6074680E4900E011460A6850688442FAD83260E1
:401040000E6059680A4A13685B1A136002E0002500E00025FFF736FD0DB900F0C9FA284670BD00BFB4F9FF1FF4020020EC020020D080FF1FD0B170B50546A0F10806FFF79F
:4010800095FC55F8044C0A4A00E01A46136859688C42FAD845F8083C166055F8043C054A11680B441360FFF70DFD70BD704700BFEC020020D080FF1F704700BF70B582B098
:4010C00000268DF80760354602F058FC044602F04DFC00EB4400C0B2864216D0032806D1022E04D19DF8073001338DF80730032808D1012E08D19DF80730013B8DF80730B6
:40110000064602E0064600E006460135ADB2312D0FD99DF907305BB100231A460DF1070106480068FFF79EF900258DF8075000E000250320FFF72CFDC6E700BFA40300200E
:4011400070B50646134B1D780021587802F0E0FD012001F073FD45F0FC0002F035FE05F00F0545F00C04204602F02EFE44EA0614E4B244F0040002F027FE012001F05EFD07
:4011800004F0FB0002F020FE012001F057FD02F0FFFD70BDD480FF1F38B50546184B1C780021587802F0B4FD012001F047FD44F0010002F009FE04F0FD0040F0010002F0E2
:4011C00003FE002001F03AFD04F00D0343F00104204602F0F9FD44EA0514E4B244F0040002F0F2FD012001F029FD04F0F90002F0EBFD012001F022FD02F0CAFD38BD00BF89
:40120000D480FF1F08B5012001F018FD08BD00BF10B50446FFF7F6FF2009FFF7BDFF04F00F00FFF7B9FF10BD38B505460078012404E0FFF7EDFF285D0134E4B20028F8D1A5
:4012400038BD00BF10B50446FFF7DCFF2009FFF777FF04F00F00FFF773FF10BD08B5282001F0D6FC0320FFF76BFF052001F0D0FC0320FFF765FF0F2001F0CAFC0320FFF764
:401280005FFF012001F0C4FC0220FFF759FF052001F0BEFC0620FFF7D5FF0E20FFF7D2FF2C20FFF7CFFF0820FFF7CCFF0120FFF7C9FF0C20FFF7C6FF0320FFF7C3FF05201A
:4012C00001F0A6FC08BD00BF08B50C20FFF7BAFF0122014B1A7008BD0003002008B5054B5B7823B9FFF7BAFF0122024B5A70FFF7EBFF08BD0003002008B5032819D8DFE851
:4013000000F002070D1381F08000FFF79BFF08BDA1F14000C0B2FFF795FF08BDA1F16C00C0B2FFF78FFF08BDA1F12C00C0B2FFF789FF08BD002303E00021034AD1540133C2
:40134000012BF9D9704700BF4403002008B530B902F0FCFA80F0010000F0010008BD012806D102F0FBFA10F0010F03D1012002E0002000E00020C0B208BD00BF38B50022EA
:40138000324B1A6059E0C0B2FFF7E0FF2F4B18711D682F4B5C5D052C4BD8DFE804F003090E13273B003018BF0120294B585540E000B10220264B58553BE000B10320244BA5
:4013C000585536E000231A462249234850F82500FFF748F81D4B1A6803EB8201002088601B7903B104231A498B5422E070B1174B03EB85039B68322B00D90524144A5455B6
:40140000124A02EB85050133AB6012E00022104B5A550EE000231A460E490F4850F82500FFF720F8094B1A681B7903B1234608498B54064A136801331360044B18680128C1
:40144000A1D90A20FFF7A4FB99E700BF0403002044030020D680FF1F9C03002008B502F0EBFF024B187001F013FC08BD4803002008B5012001F0F2FA6420FFF789FB0020BC
:4014800001F0ECFA4FF46170FFF782FBF1E700BFF0B583B0002700978DF80470384601F085FC384601F082FC384601F07FFC384601F07CFC384601F079FC6420FFF768FB39
:4014C000254B1E689B681E44B7423DD0002420A3D3E900232046710005F096F9224613E0D300C3F12004B3F1200520FA03F301FA04F443EA040302D441FA05F52B4302AC3D
:40150000144404F8083C0132032AE9D9721E134B9A4219D89DF8000001F048FC9DF8010001F044FC9DF8020001F040FC9DF8030001F03CFC9DF8040001F038FC01F00EFC67
:4015400010F0010FFAD037466420FFF721FBBBE74059730700000000D880FF1FFE59620200B583B0164B1B7813F0080F0FD0002002F068F900B202A941F8040DE822104B44
:401580001A7000231A460F480068FEF7F9FF0C4B1B7813F0100F0FD0012002F053F900B202A941F8080DF022054B1A7000231A4604484068FEF7E4FF03B05DF804FB00BF7C
:4015C00084C7004090030020034B044ADA62044A9A63044ADA6370470080FF1F55010000E50100002902000008B5FEF7D1FDFEE708B5FEF7CDFDFEE700B585B0FFF7E4FFBA
:4016000062B6584802F08CFF02F05CFF0021032001F01EFBFFF750FDFFF78CFE02F02AFE01F094FC02F0F8F9FFF758FE00210846FFF762FE4C48FFF7F7FD00210120FFF7D2
:401640005BFE4A48FFF7F0FD4FF47A7001F0E0FA02F060F802F058FC01F08AFD01F0D8FF01F092FF02F00AFD02F004FE02F082FC02F0B6FC4FF47A7001F0CAFA0120FEF759
:401680005DFF3B4B1860002201210820FEF7CEFE384B1860002201210846FEF7C7FE364C2060002201210846FEF7C0FE6060002204210820FEF7BAFE304C206000220421F6
:4016C0000820FEF7B3FE6060002201210846FEF7ADFE2B4B18600024039402940194032300932346802227492748FFF7BFF80394029401940225009523464FF4807223497E
:401700002348FFF7B3F803940294019400952346802220492048FFF7A9F80394029401940095234680221D491D48FFF79FF8039402940194009523464FF4807219491A4860
:40174000FFF794F80394029401940123009323464FF4007215491648FFF788F8FFF700F9FEE700BF5D140000B88C0000CC8C000098030020A40300209C030020900300208A
:4017800008040020DC8C000071140000E08C0000D11D0000E88C0000BD100000EC8C00007D130000F08C000091140000F48C00003D18000038B54FF480431A4601210220E0
:4017C00001F070FE044601F0E5F905460323FF22022101F0F9F94CF2A07245F6A031284601F006FA2946204601F0A6F90121204601F05AF938BD00BF38B54FF480431A46E6
:401800000121022001F06CFE044601F0C3F905460323FF22022101F0D7F94CF2A47245F6A231284601F0E4F92946204601F084F90121204601F038F938BD00BF2DE9F04710
:4018400084B0FFF7B7FFFFF7D7FF01F0EDFF0121032002F007F801210C2002F003F80221302001F0FFFF0221C02001F0FBFF0121084602F009F80121022002F005F87A48C6
:4018800002F042F801F038FD01F0FCFD002309E0764A002142F8231003F1080042F820100133DBB2072BF3D9714B00271F705F70384601F0F9FB384602F098FDB8460024A2
:4018C0002546A14626466B4B1868FEF711FF002873D0684B5868FEF70BFF00286DD0DFF894A100231A4602A9DAF80000FEF780FE00231A4603A9DAF80400FEF779FE4FF07E
:40190000000C40E004AB03EB8C0353F8082C9202574810F80C30DFF854E14FEACC0A0AEB03014EF82120591F01F0070151445EF82110013303F0070300F80C30002A00DAC8
:4019400052420023184612E0002907DB41FA03F042FA03FECEEB0101024405E041FA03F042FA03FE7144121A0133DBB210460B2BEAD9BCF1000F01D1814400E005440CF12F
:40198000010C5FFA8CFCBCF1010FBBD90298002806DB039B002B01DB013607E0013E05E0039B002B01DA013600E0013E0134E4B200F5FA6080B202F06FFB7F2C83D100239A
:4019C0008DF8073002F0CCFD044601F073FB4000C3B28DF80730B4EB694F02DBB4EB654F03DA43F001038DF807309DF8070001F05BFB9DF80730FF2B03D1012002F0F6FC4D
:401A000005E013F07F0F02D0002002F0EFFC9DF8073013F0010F04D007F007030137BFB206E008F0070308F101081FFA88F8002711495800C418A20014460A44C2F8049034
:401A400095600E51072F03D8B8F1C70F7FF637AF00231A460DF1070108480068FEF702FD4FF0000847462AE7611500004C0300208C03002090030020A803002008040020CF
:401A800010B586B0634B1B78013B042B00F2C080DFE803F003203D5A8F0000210846FFF72BFC5D48FFF7C0FB00210120FFF724FC5A48FFF7B9FB00210220FFF71DFC5848D2
:401AC000FFF7B2FB00210320FFF716FC5548FFF7ABFB9DE000210846FFF70EFC5248FFF7A3FB00210120FFF707FC5048FFF79CFB00210220FFF700FC4A48FFF795FB0021D6
:401B00000320FFF7F9FB4A48FFF78EFB80E000210846FFF7F1FB4048FFF786FB00210120FFF7EAFB4348FFF77FFB00210220FFF7E3FB3B48FFF778FB00210320FFF7DCFBAB
:401B40003848FFF771FB63E000210846FFF7D4FB3948FFF769FB00210120FFF7CDFB2D4CB4F9023003EB4303344A13449A78344901A805F0C1FC01A8FFF756FB00210220B3
:401B8000FFF7BAFB2F4BB3F900202F4901A805F0B3FC01A8FFF748FB00210320FFF7ACFBA2882A4901A805F0A7FC01A8FFF73CFB2EE000210846FFF79FFB2548FFF734FB59
:401BC00000210120FFF798FB40F2FD42214901A805F092FC01A8FFF727FB00210220FFF78BFB184BB3F902201B4901A805F084FC01A8FFF719FB00210320FFF77DFB054B2B
:401C0000DA88164901A805F077FC01A8FFF70CFB06B010BDF080FF1FB88E0000D08E0000E88E0000008F0000188F0000308F0000488F0000608F0000788F0000248D00008E
:401C4000908F000014030020A88F0000C08F0000D88F0000F08F0000049000001890000008B5224BB3F9023003EB4303204A13449A78204B1B8813449BB219B20A2902DDC8
:401C80001A4A938006E0C2F10A021A4B1A800A22164B9A80154B187902F05CFC154B5B8803F2FD4292B210B203F2FC439BB240F2CE718B4202D80D4BDA8011E0002807DC63
:401CC0004FF603320B4B5A800022084BDA8007E040F2D322074B5A804FF4FA62034BDA80024BD88802F0D4FA08BD00BFF080FF1F248D0000140300201B4B1A78531EDBB28D
:401D0000022B2FD800B587B0022A04D10B210220FFF7F2FA03E00B210320FFF7EDFA02F013FC01280CD1104BB3F9023003EB43030E4A13445A780E4901A805F0DDFB0BE096
:401D4000094BB3F9023003EB4303084A13445A78084901A805F0D0FB01A8FFF765FA07B05DF804FB704700BFF080FF1F248D00002C9000003890000070B400230360436039
:401D800083601546023A10E002EB4204A300CC18CB580668334403606368466833444360A3688468234483600132AA42ECDB036803EBD3735B100360436803EBD3735B1023
:401DC0004360836803EBD3735B10836070BC70472DE9F04F95B000248DF83A40FFF750FEBD4DB5F9023003EB4303BC4A1344987802F0B0FBE88802F04BFA012002F09EFB74
:401E0000A14625460394A04602F0F6FA18B10520FEF7BEFEF8E700231A460DF13B01B0480068FEF7E5FB58B1AB4A13780133DBB21370062B02D10122A74B1A70FFF720FEFD
:401E400000231A460DF13B01A5484068FEF7D0FB50B1A14A1378013BDBB2137013B905229D4B1A70FFF70CFE9E4B1868FEF740FC00286CD000231A460DF13A019948006825
:401E8000FEF7B6FB9DF83A30FF2B02D10123039301E000230393082293490BA8FFF76CFF0C9804F06DF80022904B04F0CFF806460F46CDE906670D9804F062F800228B4BAE
:401EC00004F0C4F804460D46CDE908454FF000084FF0804942464B463046394602F05AFBCDE9000142464B462046294602F052FB02460B46DDE9000103F0F6FE02F0E2FCF3
:401F0000CDE900010B9B002B02DB4FF0000801E04FF0010832463B462046294602F038FB63A3D3E9002304F0BBF90022704B04F08DF881460D46B8F1000F05D001F1004518
:401F40004FF00108444602E04FF001084446002C00F08981604B1B78012B40F0D5802BE004EB440253005D4A1344B3F9200004F007F802460B464846294604F0EDFAC0B194
:401F800004EB44025300554A1344B3F9220003F0F7FF02460B464846294604F0C9FA40B14E496300181942000A4492F824A092F825700134E4B201E00024FF270C2CCFD9B0
:401FC000039B7BB10C2F0DD851460020FFF794F9484901EB07110FA805F0B2FA0FA8FFF723F906E000210846FFF786F94248FFF71BF90A210120FFF77FF9039B002B3BD01B
:40200000354BB3F9023003EB4303344A1344587803F0B6FF02460B46DDE9000104F040F906460F4602F090FA012810D122A3D3E900233046394602F0ADFA02460B4620A181
:40204000D1E9000104F02CF902460B460FE01EA3D3E900233046394602F09CFA02460B461BA1D1E9000104F01BF902460B4623490FA805F041FA05E0214B93E803000F9075
:40208000ADF840100FA8FFF7CFF806210220FFF733F9DDE900231B490FA805F02DFA0FA8FFF7C2F8FFF728FE0024DCE0AFF300806E861BF0F9210940FA7E6ABC7493D83F89
:4020C000FA7E6ABC74D33940643BDF4F8D97D63F60E5D022DBF90740F080FF1F248D00009C03002008040020A80300200000E03E00806640948D0000B88E000044900000B6
:402100005090000058900000022B39D106210020FFF7F2F8BC4CDDE9062321460FA805F0EBF90FA8FFF780F806210120FFF7E4F8DDE9082321460FA805F0DEF90FA8FFF7C4
:4021400073F8FFF7D9FD08210320FFF7D5F8039B5BB10B9804F004FB03F024FF02460B46AA490FA805F0C8F905E00FABA84A92E8030083E803000FA8FFF756F8002472E0DD
:40218000032B2DD000246EE004EB44025300A14A1344B3F9200003F0F3FE02460B464846294604F0D9F9C0B104EB44025300994A1344B3F9220003F0E3FE02460B464846B0
:4021C000294604F0B5F940B192496300181942000A4492F824A092F825700134E4B201E00024FF270C2CCFD9039B7BB10C2F0DD851460020FFF780F8874901EB07110FA801
:4022000005F09EF90FA8FFF70FF806E000210846FFF772F88148FFF707F807210120FFF76BF8039B33B14A462B467D490FA805F063F905E00FAB764A92E8030083E80300AE
:402240000FA8FEF7F1FF06210220FFF755F8DDE900236D490FA805F04FF90FA8FEF7E4FFFFF74AFD00246F4B1868FEF741FA002800F0A28000231A460DF11701694800685D
:40228000FEF7B6F9684B1A78131FDBB2012B25D99DF91710644A53880B441BB25380002B02DA0022604B5A805F4B5B88092B02D909225D4B5A80574E5B4FB7F9023003EB01
:4022C0004303F05C01F0D2F9B7F9023003EB4303F05C01F0C5FDFFF70FFD6DE0042A36D1524E9DF91720338813443380FFF7B8FC0C210120FFF700F84B4FB7F9023003EB75
:402300004303444A1344DFF82CB19A7859460FA805F0F2F80FA8FEF787FF0C210220FEF7EBFFB6F9002059460FA805F0E5F80FA8FEF77AFF0C210320FEF7DEFFBA885946F8
:402340000FA805F0D9F80FA8FEF76EFF34E0052A32D1364E9DF9173003EB83035A00738813447380FFF77CFC0B210120FEF7C4FF2F4F40F2FD4239460FA805F0BDF80FA814
:40238000FEF752FF0B210220FEF7B6FFB6F9022039460FA805F0B0F80FA8FEF745FF0B210320FEF7A9FF204BDA8839460FA805F0A3F80FA8FEF738FFB8F1000F3CD1A0E0A4
:4023C000DDE9000104F0F2F806EB46025300114A1344B3F84031984212D306EB460253000C4A1344B3F84231984209D206EB46014B00134493F944110B4A53880B44538006
:402400000136F6B219E000BF589000006090000068900000248D0000948D0000B88E000070900000A4030020F080FF1F140300207C900000789000000026092EC0D9334B09
:40244000B3F90230002B02DA0022304B5A802F4B5B88092B02D909222C4B5A8002F074F801281CD1294BB3F9023003EB4303284A13445B78012B0FD10022264BDDE900011C
:4024800004F074F840B1022002F058F81F4B09225A806422DA801FE0FFF7E2FB1CE01B4BB3F9023003EB4303194A13445B78302B0FD90022184BDDE9000104F039F840B1A0
:4024C000012002F03BF80122104B5A80FFF7C8FB02E064220D4BDA800C4FF88801F0D8FE0B4EB7F9023003EB4303F05C01F0BEF8B7F9023003EB4303F05C01F0B1FC4FF028
:4025000000080520FEF744FB7EE400BFF080FF1F248D000000C0924000005940FEE700BFF0B40022174611E050F82760F3B226F0FF0608E001EB420511F812406D78A55513
:402540000132013BDBB2002BF4D10137222FEBD9F0BC704708B50A46002104F054FB08BDF8B5464B1B78DBB2454E3478E4B2454F3D78EDB203F00701434A11701B0901320E
:40258000137044F00303337045F003033B7044F2A0023E4B1A8040233D4A13708020103210704FF421610F321180092102F5E662117095321370023213700632137002329A
:4025C00013700121F83211704FF0100E013282F800E00422DFF8D8E08EF800200EF1030E8EF800200EF1010E8EF800004FF0480C0EF1080E8EF800C04FF0020EDFF8B4C074
:402600008CF800E00CF1100C8CF800E0DFF8A8E08EF800200EF1010E8EF800304FF0080C0EF14A0E8EF800C00EF1090E8EF80000184801700E300270174A11700332137049
:402640001622164B1A702023154A1370033213702122144B1A70144A15331A6040F2071206331A80262212331A700A2000F0E6FA3D70347044220D4B1A70F8BDCF01004978
:40268000F8460040F94600406E5800400C5100401D5100408C5A0040C85A0040005B0040205B00402B5B00400801030476580040145A0040245A0040375A004008B504F01C
:4026C00097FA08BD38B501223C4B1A801F2202331A70242202331A80182339490B7002310A80384A137040F2071204310A8002310B7002310A80344A137040F293210232B4
:4027000011800232137041F21C01023211800232137004222D492E48FFF7D0FF06222D4B1A705222A3F580731A702B4B1B78DBB22A4A137040F62132294B1A8041F2512231
:40274000023B1A80002419250CE0264B1B7803F0010343EA440404F003044FF4F07001F007FF013D0DB1032CEFD115B90320FFF7D5FE1D4A4FF4807313800723137000238A
:402780001A490B704820023108701370053213700222174B1A7004220A331A70154A137843F07F031370013A137843F001031370013A137843F08003137038BD8040004058
:4027C000864000408A400040924000402805004800410040004300400F010049A14600402242004025420040044000400640004001400040A243004038B572B6434C61239B
:402800002370FFF75FFF01232370414A137843F00403137000240CE03E4D630019194A0011462A44084691882858FFF793FE0134E4B2082CF0D900240BE03649A300181950
:40284000420088188022C16B806BFFF737FF0134E4B2002CF1D030494FF09040FFF760FE40F203122D4B1A8004212D48FFF772FE04212C48FFF76EFE04212B48FFF76AFEB3
:4028800004212A48FFF766FE294A137843F0020313701032137843F002031370254C237843F040032370A2F58632513A137843F010031370082220492048FFF7FFFE08228B
:4028C0001F492048FFF7FAFE08221F491F48FFF7F5FE08221E491F48FFF7F0FE0A221E491E48FFF7EBFE08221D491E48FFF7E6FE1D4A137843F008031370FFF731FE0E22AC
:4029000021461A48FFF7DAFE38BD00BF00480040E8460040809000008C0000484A5800400076004008760040107600401876004003500140A0430040F404004802510040FE
:40294000FC040048C251004004050048F25100400C050048125100401405004820510040200500483251004022430040B0430040FEE700BF08B5094B1A681044084BC31A17
:40298000B3F5805F02DC054B186005E004F004F90C2303604FF0FF32104608BDF880FF1F5804002008B5104E104D16E029686B68AC68002204E051F8040B43F8040B043221
:4029C000A242F8D1E868002203E0002143F8041B04328242F9D11035013E002EE6D104F0E1F8FEF709FEFEE7010000001899000008B5114A114B1A60114A136843F400735F
:402A0000136000230AE0032B03D80E4A52F8231000E00D490D4A42F8231001332F2BF2D90B4B1A780B4B1A70084A0B4B1A60FFF7E3FE00F01FF808BD0004FA050CED00E07C
:402A400014ED00E000000000712900000080FF1FBC760040C080FF1F08ED00E0044A137803F0FD03400000F00200184310707047205100400B4A7F2313708021517007E094
:402A8000DA0002F1804202F5F042013BDBB21370002BF5D1DB0003F1804303F5F04300221A707047FC80FF1F172815D831B103010A495A5C42F020025A5405E00301074911
:402AC0005A5C02F0DF025A540001044A835C43F00103835400207047012070471070004017280BD80001064A835C03F0F103490001F00E0119438154002070470120704792
:402B00001070004041F6FF73994201D14FF4005141F6FF739A4201D14FF40052172808D8C00000F1804000F5EC408180C280002070470120704700BF172805D8034B03EB45
:402B40000010417200207047012070471070004017281BD810B4C00000F1804404F5EC44D201D2B201F07F01114321709DF804201201D2B203F00F03134363709DF8083097
:402B800003F00F03A3700020E07001E00120704710BC704710B501F0F3FC0A4B5B78182B0BD9084A1478013B5370E30003F1804303F5F0431B78137000E0FF2401F0E4FCD1
:402BC000204610BDFC80FF1F10F0800F0CD111F4704F0BD1C00000F1804000F5F04001808270C37000207047012070470120704710F0800F08D1C00000F1804000F5F0403B
:402C00008180C280002070470120704701BE704710B5044605E0084B186801F0A9FCA4F50044B4F5004FF6D8034B586800FB04F001F09EFC10BD00BF0481FF1F08B5034B6A
:402C40001B7A00FB03F001F093FC08BD0481FF1F0E4B1A7802F0FC0200F00300104318701A7842F080021A701A7802F07F021A7049011A7801F0600102F09F021143197043
:402C80001A7842F010021A70704700BF834300400122014B1A7070478443004070B504460E46074B1D681F2802D90020FFF7AEFF04F01F04103455F8240045F8246070BD48
:402CC00008ED00E038B504460D46072902D90020FFF79CFF1F2C02D90020FFF797FF04F01F0000F1604000F564406D01EDB2057038BD00BF0822014B1A60704700E100E00C
:402D00000422014B1A60704700E100E008B501F037FC0B4A137843F0200313700132137843F010031370023A137843F01003137001F02AFCFFF7DEFFFFF7E2FF08BD00BF39
:402D40009A6500400822014B1A60704780E100E00422014B1A60704780E100E010B5FFF7F1FF064B1C78064A137803F009031C4300231370FFF7BEFF204610BD6B650040E3
:402D80001504002010B5FFF7E3FF064B1B78064A147804F040041C4300231370FFF7B0FF204610BD696500402204002010B504462B4B1A7802F0FF0312B1013BDBB200E09D
:402DC0000423284A1278D2B29342F1D0FFF7BAFF254B1978254A137803F009030B4313701F4B1A78D2B21F4B1B78DBB29A4207D11E4B1B7813F0040F02D01D4B1C702CE07A
:402E0000184A13780133DBB213701378DBB2042B02D90022134B1A70124B1A78D2B2104B1B78DBB29A420ED10D4A13780133DBB213701378DBB2042B02D90022084B1A7045
:402E400001220C4B1A70074B1B78DBB20A4AD4540A4A137843F004031370FFF74BFF10BD1E040020200400206B650040150400204A6500401D040020100400208B65004054
:402E800008B501E00A4B1B780A4B1B7813F0200FF8D101F075FB084B1A7842F001021A701A7802F0FE021A7001F06EFB08BD00BF5A650040696500409A65004010B50F2276
:402EC000174B1A70174C0823236007210320FFF7F9FE15490320FFF7E1FE0423236007210220FFF7EFFE11490220FFF7D7FEFFF7C7FF00240E4B1C700E4B1C700E4B1C709A
:402F00000E4B1C700E4B1C700E4B1C70FFF726FFFFF738FF0C4B1C702022023B1A7010BD8A65004080E100E0692F0000093000000C040020210400201F0400201D040020A7
:402F40001E040020200400208B65004008B5054B1B7823B9FFF7B2FF0122024B1A70FFF7D5FE08BD1803002028E01F4B19781F4A137803F009030B431370137813F0040F4D
:402F800024D01B4B1B7813F0FF0F0CD1194A13780133DBB213701378DBB2042B06D90022144B1A7002E00022114B1A70114B1B78DBB2114AD35CDBB2104A13700D4B1A788F
:402FC000D2B20F4B1B78DBB29A42CED1094B1A78D2B20B4B1B78DBB29A4204D1094A137803F0FB03137070476B650040150400201D0400201E040020100400204A650040CF
:40300000200400208B650040204B1A7820490B7803F0400313430B7032E01E4B1A78D2B21D490B780133DBB20B700B78DBB2042B02D90021184B1970174B1978C9B2174B7F
:403040001B78DBB299420ED114490B780133DBB20B700B78DBB2042B02D900210F4B197001210F4B19700C4B1B78DBB20D49CA54064B1A7806490B7803F0400313430B7090
:40308000034B1B7813F0200FC7D1704769650040220400205A6500401F040020210400200C04002018040020014B1870704700BF79640040014B1878704700BF7964004091
:4030C000054A137843F0020313701032137843F002031370704700BFA74300400F490B7803F0FC0200F0030313430B7001280AD10B4B1B78DBB20B4A13700B4B1B78DBB2B8
:40310000013213707047094B1B78DBB2054A1370074B1B78DBB201321370704741580040110100493246004015010049AF010049B701004908B50120FFF7D0FF0B4B1A782D
:4031400002F0DF021A701A7802F0FB021A701A7842F008021A7003F28E231A7802F0E7021A701A7842F010021A7008BD4158004008B5054B1B7823B9FFF7DCFF0122024B37
:403180001A70FFF79DFF08BD1903002008B50A280FD00C2802D0082806D102E04FF4805209E04FF4807206E00020FFF72FFD002201E04FF480620021094B198042F21073ED
:4031C00003FB02F303F6C413064A82FB0302DB17C3EBE223044A1360044B198008BD00BF24040020AD8BDB68280400202604002010B501F0C5F904461E4A137843F0010327
:4032000013701032137843F001031370193A137843F0040313701032137843F00403137002F5AA521132137843F0030313700422114B1A70013B1A7842F040021A701A7878
:4032400002F0FC021A70CE22053B1A700222A3F597530C3B1A70094A137843F0080313700A20FFF7EBFC0122054B1A60204601F08BF910BDAB43004006590040275B0040D9
:4032800080E200E010B504460A280DD00C2802D0082804D101E0C42207E0442205E00020FFF7B4FCC42200E08422034B1A702046FFF76CFF10BD00BF0259004008B51020C5
:4032C00000F030FB07210020FFF7FCFC07490020FFF7E4FC064A137843F0060313700C20FFF7D0FF0022034B1A8008BD15330000015900402C04002008B5054B1B7823B92F
:40330000FFF7DCFF0122024B1A70FFF771FF08BD1A030020704700BF08B50A280FD00C2802D0082806D102E04FF4805209E04FF4807206E00020FFF769FC002201E04FF44D
:4033400080620021094B198042F2107303FB02F303F6C413064A82FB0302DB17C3EBE223044A1360044B198008BD00BF38040020AD8BDB68300400203404002038B501F0DE
:40338000FFF804461E4A137843F0020313701032137843F002031370193A137843F0020313701032137843F00203137002F5AA521932137843F0030313700422114B1A70E4
:4033C000013B1A7842F040021A701A7802F0FC021A70CE22053B1A700225A3F59753123B1D70094A137843F0080313700A20FFF725FC064B1D60204601F0C6F838BD00BF41
:40340000AB4300400E5900402F5B004080E200E010B504460A280DD00C2802D0082804D101E0C42207E0442205E00020FFF7EEFBC42200E08422034B1A702046FFF76CFF7F
:4034400010BD00BF0A59004008B5102000F074FA07210120FFF736FC07490120FFF71EFC064A137843F0060313700C20FFF7D0FF0022034B1A8008BDA1340000095900400F
:403480003604002008B5054B1B7823B9FFF7DCFF0122024B1A70FFF771FF08BD1B030020704700BFF0B583B016461F460B4D00242C700194009423460A4601462046FFF756
:4034C00047FB3A4631462878FFF71CFB02212878FFF706FB287803B0F0BD00BF1481FF1FF0B583B016461F460B4C012525700023019300930A4601462846FFF729FB3A4626
:4035000031462078FFF7FEFA02212078FFF7E8FA207803B0F0BD00BF1581FF1F084A137843F0040313701032137843F00403137002F5A5521E32137843F0800313707047B3
:40354000A9430040044A137803F0FC0300F0030018431070704700BF0958004008B50622074B1A70182201331A70032001331870044A137843F008031370FFF7E3FF08BDA0
:40358000085800402B5A004008B5054B1B7823B9FFF7E4FF0122024B1A70FFF7BFFF08BD1C030020084A137843F0010313701032137843F00103137002F5A5521E321378B8
:4035C00043F0800313707047A9430040044A137803F0FC0300F0030018431070704700BF0158004008B50622074B1A70182201331A70032001331870044A137843F0080358
:403600001370FFF7E3FF08BD005800400B5A004008B5054B1B7823B9FFF7E4FF0122024B1A70FFF7BFFF08BD1D030020084A137843F0020313701032137843F00203137005
:4036400002F5A5521E32137843F0800313707047A9430040044A137803F0FC0300F0030018431070704700BF0558004010B487B00446194B03AA1868596803C2197A117049
:403680006A4653F80C0F596803C21B7A1370082C1ED812490B7803F08003DBB20B70087806AB1C4414F80C3C14F8182C920002F00C02134303430B70094A137803F0F3032B
:4036C0001370117814F8183C0B4343F00C03137007B010BC704700BFC4900000065800400558004008B50C22074B1A70074A137843F0200313700020054B1870FFF7B6FFA4
:403700000320FFF7A7FF08BD04580040055800400658004008B5054B1B7823B9FFF7E2FF0122024B1A70FFF781FF08BD1E030020F8B5254A137843F01003137002F50342B9
:40374000DA32137803F0FE0313703F2308321370043213701D4D4FF48074224629461C4803F046FA224629461A4803F041FA224619491A4803F03CFA4FF400742246184918
:40378000184803F035FA22461749184803F030FA174C184E04F14007354620686168A268E3680FC510342E46BC42F5D10024124B1C70032000F078F8204600F07DF8F82257
:4037C0000E4B1A70F8BD00BFA64300401C96000000C4004000C50040DC90000000C600401C94000000C000401C92000000C20040DC91000000C700408CC7004084C700402A
:40380000084A137843F0100313701032137843F01003137002F50342CA32137843F0010313707047A643004008B5054B1B7823B9FFF77EFF0122024B1A70FFF7E1FF08BD6B
:403840001F03002010B9054B18887047012802D1034B188870470020704700BFA9C70040ADC700408B00DBB219430B01DBB21943044B1A7822EA00021A701A7808401043EC
:4038800018707047B0C70040012904D1054B1A7810431870704721B9024A137823EA000010707047B4C7004000F01F00014B1870704700BF98C7004000F00F00014B187024
:4038C000704700BF9CC70040024B1B68C3F8B000704700BF08ED00E04001C0B2014B1870704700BF1CE400E04FF08052014B1A60704700BF00E100E04FF08052014B1A6067
:40390000704700BF80E100E010B50446FFF7F4FF2046FFF7D9FF0720FFF7DEFFFFF7E4FF10BD00BF034B1A7800F0F80010431870704700BF8A400040034B1A7800F0F8005A
:4039400010431870704700BF86400040024B1878C0F30010704700BF21510040024B1878C0F3C000704700BF21510040024B1878C0F38010704700BF21510040024B18788B
:40398000C0F34010704700BF2151004010B50222114B1A7081220E3B1A70082202331A702A2211331A70002401331C704FF400420A4B1A6007210F20FFF784F908490F2012
:4039C000FFF76CF91022074B1A70074B1C70074B1C70074B1C7010BDD649004080E100E0413A00003A0400203E040020400400203C04002008B500F0C3FD064A137843F0DD
:403A0000040313701032137843F00403137000F0BBFD08BDA543004008B5074B1B7823B9FFF7B4FF0122044B1A70FFF7E3FF4FF40042024B1A6008BD2003002000E100E0CD
:403A400038B5A54B1C78A54B1B7813F0400F00F03A81E4B214F0010F00F01D819F4B1B78453B052B00F21481DFE813F006008200120112010600DF0004F0DF0504F00A0432
:403A8000082C42D1954B1B78DBB2452B35D1944B1B7813F0FF0F10D0924B1B681B78DBB2914A137004228C4B1A7001228F4B1A7046228A4B1A702C46EDE08D4B1B7813F086
:403AC000020F0DD08B4A137843F00A0313706022824B1A704FF40042874B1A602C46DAE0864A137843F0100313701022844B1A700422023B1A702C46CDE00022764B1A70B7
:403B00004A22764B1A702C46C5E00A2C2BD1794A137843F0A0031370754B1B7813F0020F14D06E4B1B7813F0080F01D0092300E00A23704A11780B4313706022674B1A7051
:403B40004FF400426C4B1A602C46A4E06B4A137843F0100313701022694B1A700422023B1A702C4697E00020FFF750F82C4692E014F0020F36D15D4B1A78D2B2584B1B78F8
:403B8000DBB29A4210D2594A1378DBB255490968CB5CDBB254490B7004214F4B197013780133DBB2137076E0514B1B7813F0020F0CD0504A137843F00A0313706022474B9C
:403BC0001A704FF400424C4B1A6064E04B4A137843F0100313701022494B1A700422023B1A7058E0424B1B7813F0020F0CD0414A137843F09A0313706022384B1A704FF4B8
:403C000000423D4B1A6046E03C4A137843F01003137010223A4B1A700422023B1A70354A137843F09003137035E0364A1378DBB2354908682C490978C9B2C15413780133DF
:403C4000DBB213701278D2B2304B1B78DBB29A4203D21022204B1A701DE0254B1B7813F0020F0CD0234A137843F00903137060221A4B1A704FF400421F4B1A600BE01F4ADB
:403C8000137843F0100313700022134B1A7002E00020FEF7BBFF14F0200F1CD00F4B1B7813F0080F01D0012300E00223114A11780B431370114A137803F0EF0313701022A0
:403CC000064B1A7038BD054B1B7813F0100F02D11022024B1A7038BDD74900403A0400203F04002044040020D84900403C0400203D0400203E04002080E100E0D649004071
:403D0000D949004040040020480400204C0400201A4B1B78DBB2102B29D1194B1B7813F0080F26D14FF40042164B1A604000C0B229B140F001004922104B1A7002E0452269
:403D40000E4B1A70104B1870012201331A700F4B1B7813F0010FFAD00C4B1B7803F00A030A2B08D11022054B1A700320704702207047012070470020704700BF3A0400204F
:403D8000D949004080E100E0D8490040D74900400A4B1B7813F0040F0ED01023074A13700421023A1170064A1370064B1B7813F0210FFAD00020704702207047D949004014
:403DC0003A040020D7490040114B1B7813F0040F1BD0104B18700422013B1A7046220E4B1A700E4B1B7813F0010FFAD00B4B1B7813F0020F04D16022074B1A70002070472B
:403E00006022054B1A70032070470220704700BFD9490040D84900403A040020D7490040084A137843F0080313701032137843F00803137002F5A5521E32137843F0800388
:403E400013707047A9430040044A137803F0FC0300F0030018431070704700BF0D58004010B487B00446194B03AA1868596803C2197A11706A4653F80C0F596803C21B7A87
:403E80001370082C1ED812490B7803F08003DBB20B70087806AB1C4414F80C3C14F8182C920002F00C02134303430B70094A137803F0F3031370117814F8183C0B4343F067
:403EC0000C03137007B010BC704700BF1C9700000E5800400D58004008B50C22074B1A70074A137843F0200313700020054B1870FFF7B6FF0320FFF7A7FF08BD0C580040F2
:403F00000D5800400E58004008B5054B1B7823B9FFF7E2FF0122024B1A70FFF781FF08BD21030020084A137843F060031370A2F5A652133A137843F0010313701032137886
:403F400043F001031370704777580040054B1A7802F0FC021A701A7800F0030010431870704700BF5858004008B50320FFF7EEFF08BD00BF08B5054B1B7823B90122034B6B
:403F80001A70FFF7F1FFFFF7CDFF08BD22030020084A137843F060031370A2F5A652133A137843F0080313701032137843F008031370704777580040054B1A7802F0FC0281
:403FC0001A701A7800F0030010431870704700BF5E58004008B50320FFF7EEFF08BD00BF08B5054B1B7823B90122034B1A70FFF7F1FFFFF7CDFF08BD2303002070B54FF492
:40400000804341F6FF720121084600F073F80C4E354605F8040BFEF7BDFD0246094C207001231021FEF7D0FD4FF4B742A9B22078FEF7DEFD21783078FEF77EFD70BD00BFDA
:40404000240300201681FF1F08B500F0AFF8034B1B78FF2B01D1FFF7D1FF08BD1681FF1F08B50121044B1878FEF71EFD00F0B4F800F05EF808BD00BF2403002008B5054B4B
:404080001B7D23B9FFF7E0FF0122024B1A75FFF7E7FF08BD2403002038B500F00F05C0F30714B0F57F6F02D90020FEF7AFFDFF2C08D0002318E00E4A1A44FF211171013338
:4040C000DBB200E000230F2BF5D938BDC5F11002934203DA064A1A44147103E0044A1A44611C11710133DBB20F2BEFD938BD00BF24030020F0B583B016461F460B4C022523
:4041000025700023019300930A4601462846FEF71FFD3A4631462078FEF7F4FC29462078FEF7DEFC207803B0F0BD00BF1781FF1F054A137843F0010313701032137843F03F
:4041400001031370704700BFA8430040054B1A7802F0FD021A701A7800F0020010431870704700BF20580040064B1B78C3F3810303F19243063393F82031DBB2024A1370D5
:40418000704700BF205800400846004008B5064B1A7802F0F3021A701A7800F00C0010431870FFF7E1FF08BD2058004008B50023084A13700132137002F26622137843F0D1
:4041C000080313700420FFF7E1FF0220FFF7BEFF08BD00BF20580040054A137843F0100313701032137843F010031370704700BFA243004070B54FF4804341F6FF7201215D
:40420000084600F073F80C4E3070FEF7C3FC02460A4C254605F8040B01231021FEF7D4FC45F68332A9B22078FEF7E2FC21783078FEF782FC70BD00BF390300201881FF1F8F
:4042400008B500F0AFF8034B1B78FF2B01D1FFF7D1FF08BD1881FF1F08B50121044B1878FEF722FC00F0B4F800F05EF808BD00BF3903002008B5054B5B7823B9FFF7E0FFA7
:404280000122024B5A70FFF7E7FF08BD3903002038B500F00F05C0F30714B0F57F6F02D90020FEF7B3FCFF2C08D0002318E00E4A1A44FF2111710133DBB200E000230F2B62
:4042C000F5D938BDC5F11002934203DA064A1A44147103E0044A1A44611C11710133DBB20F2BEFD938BD00BF1881FF1FF0B583B016461F460B4C032525700023019300939B
:404300000A4601462846FEF723FC3A4631462078FEF7F8FB02212078FEF7E2FB207803B0F0BD00BF2C81FF1F054A137843F0080313701032137843F008031370704700BF3F
:40434000A8430040054B1A7802F0FD021A701A7800F0020010431870704700BF2C580040064B1B78C3F3810303F19243063393F83831DBB2024A1370704700BF2C58004072
:404380000B46004008B5064B1A7802F0F3021A701A7800F00C0010431870FFF7E1FF08BD2C58004008B50023084A13700132137002F27222137843F0080313700420FFF73A
:4043C000E1FF0220FFF7BEFF08BD00BF2C580040054A137843F0080313701032137843F008031370704700BFA2430040014B1870704700BF79650040014B1878704700BF42
:4044000069640040084A137843F0010313701032137843F00103137002F64D32137843F001031370704700BFA3430040014B1870704700BF034F0040014B1878704700BFCB
:40444000034F0040014B1880704700BF044F0040014B1880704700BF064F004008B5164A137803F0010313700232137803F0FC031370124B1A7802F0CF021A701A7842F078
:4044800030021A701A7802F0F0021A701A7842F00F021A700A4A137843F0010313704FF6FF70FFF7CFFF4FF6FF70FFF7D1FF0820FFF7BCFF08BD00BF004F00400B4F0040D0
:4044C000014F004008B5054B1B7823B9FFF7C6FF0122024B1A70FFF795FF08BD3B030020024B1B68C3F88400704700BF08ED00E04001C0B2014B1870704700BF11E400E022
:404500004FF40032014B1A60704700BF00E100E04FF40032014B1A60704700BF80E100E010B50446FFF7F4FF2046FFF7D9FF0720FFF7DEFFFFF7E4FF10BD00BF014B1870B8
:40454000704700BF78650040014B1878704700BF78650040014B1870704700BF78640040014B1878704700BF68640040000000000230800803D000BF01380046FCD1704726
:40458000EFF3108072B6704780F31088704700BF00F0F6B92DE9F04F8DB006460F4614461D4600F0B9FADFF81093CDE9000199F90080B8F1FF3F46D022462B462046294609
:4045C00001F0DEFF834600283DD132463B463046394601F0D5FF8246002874D1304639460022002301F09AFF002833D0002200232046294601F092FF8346B8B1A94A012332
:4046000000200021CDF828A0CDE90467CDE90645CDE9080103920293B8F1000F6CD0A24B0022104619460DB0BDE8F08F2046294601F03CFA38B1002200232046294601F018
:4046400077FF00286AD1DDE90023104619460DB0BDE8F08FDDE9000101F028FA804600287DD0DDE900014FF0000A4FF0000B52465B4601F053FF0028E5D03046394601F034
:4046800015FA0028DFD02046294601F00FFA0028D9D099F90030834804210022022BCDE90467CDE90645CDE908AB039002910A9204D002A801F000FA002847D102F06CFA25
:4046C0002223036042E0002200232046294601F025FF0028B7D0744B724800220121B8F1020FCDF828B0CDE90467CDE90645CDE9082303900291A8D002A801F0DDF90028C4
:404700007ED00A9B43B302F047FADDE908230A990160104619460DB0BDE8F08F614999F900300122CDF828B0CDE90467CDE9064503910292002B68D05C490020022BCDE951
:40474000080166D102F028FA212303600A9B1BB102F022FA0A9B0360DDE9082375E73046394601F0A3F900283FF47BAF2046294601F09CF900283FF474AFDDE9002310464B
:40478000194601F0FDFE00286FD1464B99F90080039303230A90CDE90467CDE906450293B8F1000F3BD1DFF814B14FF0604A0022002330463946CDE908AB01F0B9FE0028DA
:4047C0003FF477AF00223A4B2046294601F03EFC04460D4601F078F902460B462046294601F09CFE00283DD1324B4FF06042CDE9082399F90080B8F1020F7FF45AAF5DE7C0
:4048000002F0CAF9212303607BE700230024CDE9083402A801F050F9002897D192E7DFF8A0B04FF0000A0022002330463946CDE908AB01F07DFE0028DDD000221C4B204651
:40484000294601F003FC04460D4601F03DF902460B462046294601F061FE18B9134B0022CDE9082399F90080C5E70E4A99F900900123CDF82880CDE90467CDE906450392A5
:404880000293B9F1000FC0D0002200231046194601F006FDB9F1020FCDE908013FF452AFB7E700BF349700000000F03F0000F0FF0000E03FFFFFEFC72D81FF1FFFFFEF4765
:4048C0000000F07F2DE9F04F8BB004460D4600F085FE284B064693F900A00F46BAF1FF3F12D022462B462046294601F049FE834650B94FF000084FF00009204629464246FA
:404900004B4601F015FE20B9304639460BB0BDE8F08F194A0123CDF820B0CDE90445CDE9024501920093BAF1000F15D042464B464046494601F0B4FCBAF1020FCDE9060110
:404940000CD102F029F921230360089B63B9DDE906010BB0BDE8F08FCDE90689684601F0ABF80028F1D1ECE702F016F9089B0360EDE700BF2D81FF1F3897000000000000BB
:404980002DE9F84F5442144323F00049DFF880E149EAD474744506460D463ED84442044321F0004B4BEAD47474458A4635D803F1404404F58014144344D09C1704F00204D7
:4049C00044EAD17450EA0B012FD052EA090133D0F14546D0F3452FD0C9EB0B094FEA2959B9F13C0F34DC002B57DB3046294601F057FC01F057F800F0B7FE012C4AD0022CCB
:404A00003BD084B132A3D3E9002301F06BF932A3D3E9002301F066F905E01046194632462B4601F061F9BDE8F88F022C14D0032C0CD12D482D49F6E7BAF1000F2A480EDB34
:404A40002B49F0E7BDE8F84F00F08EBE2946EAE723A1D1E90001D0E723482649E3E72649E1E7CB451FD0022CF6D0032CE1D0012C4FF0000020D00146D5E715A3D3E90023A9
:404A800001F030F902460B4613A1D1E9000101F029F9C8E701F10041C5E719F13C0FA4DA00200021A9E7022C0ED0032C09D0012C0D4804D01149B6E74FF00041B3E71049BB
:404AC000B1E710481049AEE70E481049ABE700BF075C143326A6A13C182D4454FB210940182D4454FB21F93F182D4454FB2109C0FB21F93FFB210940FB21F9BFFB21E93F7F
:404B0000FB21E9BFD221337F7CD902C07CD902400000F07F000000002DE9F04F23F0004858EA020993B03CD0714C21F00046A64283460D460CDD06F1404606F5801656EA54
:404B40000B0038D183466B49584613B0BDE8F08F9A4696462BD0A045EDDC654CA04578D0002D0F468146CDE9002376DB0024BEF1000F27D15E4B984500F08B805D4B984589
:404B800052D0BAF1804F00F0C9835B4B9A4519D1002D17DB4846394613B0BDE8F04F00F01DBDCB465846534913B0BDE8F08F0028C1D1B045D1DD514813B0BDE8F04F00F052
:404BC0007DBF00244846394600F06CFFBBF1000F1CD0ED0F013D54EA050370D0484B984540F3948003F10473984540F30D84454B9E4270DDBAF1000F70DD3BA3D3E9002342
:404C00001046194601F022FA83469DE726B1394B25F040429A42DCD1BAF1000FC0F2B783002D08DB83468FE7BAF1000FC0F25E84CB46394688E706F1404606F5801656EA5A
:404C4000040300F08384012CECD101F1004183467AE7BEF1000F83D06DE72B4B98452CDCA3F15473984581DD4FEA2853A3F2FF33142B40F35384C3F134032EFA03F202FAD1
:404C800003F39E457FF472AF02F00102C2F102046DE706F1404303F5801353EA0B0300F03A83184B9E4240F36783BAF1000F15DBDDE900349B46214646E7022457E74A461B
:404CC00048463B46394601F00DF802460B4601F0E7FA834638E7BAF1000F8EDB4FF0000B594631E7AFF300809C7500883CE4377E0000F07F0000F03F0000E03FB48E00002A
:404D00000000E041FFFFEF3FFFFF3F43B6F5801F4FF0000205DAD04B01F098F90E466FF03402DFF844E33315C6F31306A3F2FF3346F07F57764503EB020A47F4401740F351
:404D4000C983C64B00229E4240F304840023CDE90823CDE90C23C24B0022CDE906230AF1010AA7F5801700263946DDE90623CDE90A0100F0B7FFDDE9062380468946DDE9A4
:404D80000A0100F0B1FF02460B460020B44901F087FA0A4601461346CDE90E1202464946404601F053F98C4683467B1043F0005303F5002399190020CDE904BC06460F4610
:404DC0004FF0000B6146584632463B46CDE910BCCDE9020101F03AF902460B464046494600F080FFDDE90623804689463046394600F078FF02460B46DDE90A0100F072FF04
:404E0000DDE9022301F022F902460B464046494600F068FFDDE90E2301F018F9DDE90478CDE906013A4643463846414601F00EF977A3D3E9002306460F4601F007F976A3D4
:404E4000D3E9002300F050FF32463B4601F0FEF873A3D3E9002300F047FF32463B4601F0F5F871A3D3E9002300F03EFF32463B4601F0ECF86EA3D3E9002300F035FF3246B8
:404E80003B4601F0E3F86CA3D3E9002300F02CFF3246804689463B463046394601F0D6F802460B464046494601F0D0F8DDE9022306460F46DDE9040100F016FFDDE90623A8
:404EC00001F0C4F832463B4600F00EFFDDE902678046894632463B463046394601F0B6F80022604BCDE90A0100F0FEFE42464B4600F0FAFEDDE910BC0F46DDE902015A46F3
:404F00003B46CDE90EBC5E4601F0A0F80022CDE90201544B3046394600F0E4FEDDE90A2300F0E0FE02460B464046494600F0DAFEDDE9042301F08AF8324680468946DDE998
:404F400006013B4601F082F802460B464046494600F0CAFE8046894602460B46DDE9020100F0C2FEDDE90EBC35A3D3E900235846CDE906BC5E460F4601F068F8DDE902239F
:404F8000CDE904013046394600F0ACFE02460B464046494600F0A6FE2BA3D3E9002301F055F82BA3D3E90023804689463046394601F04CF802460B464046494600F094FEDE
:404FC000DDE90C2300F090FE80465046894600F0D7FF06460F46DDE9040142464B4600F083FEDDE9082300F07FFE32463B4600F07BFEDDE906BC324658463B46DA468B4687
:4050000000F070FEDDE9082330E000BFAFF30080EF4E454A287ECA3F65DBC9934A86CD3F01411DA96074D13F4D268F515555D53FFFAB6FDBB66DDB3F033333333333E33FEB
:40504000000000E009C7EE3FFD033ADC09C7EE3FF5015B14E02F3EBE0000404379B60B000000F03F000008408E98030000F03AFEDDE9042300F036FE02460B46404649468C
:4050800000F030FE80468946DDE90012013C54EA050314BFD64CD74C0023CDE904340B461446CDE9023400230293DDE9024508462B461146224600F015FE52465B4600F0B3
:4050C000C5FFDDE9002306460F464046494600F0BDFF02460B463046394600F005FE06460F4622462B4650465946CDE9006700F0ADFF0B460246804689463046394600F0A5
:40510000F3FDBD4B064699420D460C4640F30E8101F13F4303F5E003034340F0F081A0A3D3E90023DDE9000100F0DEFD424682468B464B463046294600F0D4FD02460B460E
:405140005046594601F012FA002840F0D8812F463B154FF48012A3F2FE3342FA03F32344C3F30A52A54EA2F2FF321641C3F3130B0020C2F1140523EA06014BF4801B02463C
:405180000B46002C4BFA05FB40464946B8BFCBF1000B00F0A7FD02460B4680468946DDE9000100F0A1FD4FEA0B5A00247EA3D3E9002320460D4600F049FF424606460F46E7
:4051C0004B462046294600F08DFD02460B46DDE9000100F087FD76A3D3E9002300F036FF75A3D3E90023804689462046294600F02DFF02460B464046494600F075FD80468B
:40520000894602460B463046394600F06DFD32463B4604460D4600F065FD02460B464046494600F05FFD2246804689462B462046294600F00BFF62A3D3E9002306460F4613
:4052400000F004FF60A3D3E9002300F04BFD32463B4600F0FBFE5EA3D3E9002300F044FD32463B4600F0F2FE5BA3D3E9002300F039FD32463B4600F0E9FE59A3D3E90023A7
:4052800000F032FD32463B4600F0E0FE02460B462046294600F026FD06460F4602460B462046294600F0D2FE0022CDE900014FF080433046394600F015FD02460B46DDE987
:4052C000000100F0EDFF424606460F464B462046294600F0BBFE42464B4600F005FD02460B463046394600F0FDFC22462B4600F0F9FC02460B4600203D4900F0F3FC8A446D
:40530000BAF5801FC0F237815146DDE9042300F09DFE834618E4F346354915E44A4648463B46394600F092FE83460DE4344B21F000479F4240F30181324B0B4403430CD17D
:4053400042464B4600F0CEFC02460B46DDE9000101F0F8F800283FF4FBAE23A3D3E90023DDE9040100F072FE1FA3D3E9002300F06DFE8346FFF7E8BBBAF1000FBFF6AEAC1E
:40538000DDE900349B4604F10041FFF7DDBB02460B460020164900F083FF41E4AFF30080FE822B654715973C00000000432EE63FEF39FAFE422EE63F396CA80C615C20BEFF
:4053C000D0A4BE726937663EF16BD2C541BDBB3E2CDE25AF6A56113F93BDBE166CC1663F3E5555555555C53F59F3F8C21F6EA5010000F03F0000F0BFFFFF8F40FFFF0F001B
:40540000FFCB904000346F3F6F4B9E427FF763AC6E4B9E423FF7EEAB00226C4B00F062FC5BA3D3E9002306460F4600F00FFE5AA3D3E90023804689463046394600F006FE6D
:40544000002282468B46624B3046394600F0FEFD02460B4652A1D1E9000100F043FC32463B4600F0F3FD02460B460020594900F039FC3246CDE902013B463046394600F07E
:40548000E5FD02460B46DDE9020100F0DFFD46A3D3E9002300F0DAFD02460B465046594600F020FC02460B4606460F464046494600F01AFC42464B46002082468B4600F05C
:4054C00011FC02460B463046394600F00BFC80468946D9E500220023CDE90823CDE90C233A4B00220026CDE906233DE44A463B460020364900F0D4FE8346FFF725BB2CA30F
:40550000D3E90023DDE9040100F0A0FD28A3D3E9002300F09BFD8346FFF716BBBEF1000F7FF44FABC3F1140348FA03F202FA03F3984524D07446FFF721BB264B9F423FF76E
:4055400007AEDDE902349A469B462EE602460B46FFF7B9BB204B4FF48026CDE9062316A3D3E90023CDE9082315A3D3E90023CDE90C23FFF7F9BB5A4600F036FBC5E602F072
:405580000102C2F10204FFF7F9BA00BFAFF30080000000604715F73F44DF5DF80BAE543E555555555555D53FFE822B654715F73F9C7500883CE4377E0000004003B8E23FB2
:4055C00006D0CF43EBFD4C3EFEFFEF3F0000F03F0000D03F0000E03F0000F83F2DE9F0415F4E0C46B6460E407645054600F0988000290B46024674DD5FEA215E7FD0AEF22A
:40560000FF3EC3F313031EF0010F43F4801363D100273E4603EBD2710B444FEA6E0E520016204FF4001174189C424FEAD2754FEA420202DC1B1B66180F44013805EB4303CE
:405640004FEA5101EFD1844620244FF0004109E020D003EBD275013C4FEA51012B444FEA420220D09E4201EB0C05F1DA002D05EB010C09DBB0469542A3EB060300D9013B70
:405680004646521B0844E4E7BCF1000FF2DB06F10108F0E7954217D8002D05EB010C49DB98460023ECE7134310D140087B1003F17F5303F50013FA0703EB0E57394648BFDD
:4056C00040F00040BDE8F0813346C2E7411C35D000F001031844E8E75B0003EBD273520096E721F000460643ECD079BB8E46D30AAEF1150E5205002BF9D0DD0221D40021E1
:4057000000E001465B00DC0201F10100F9D5C0F1200422FA04F42343C1EB0E0E82406EE702460B4600F092FC2A46234600F0DCFABDE8F081BCF1000FA9DAB1E701372046D9
:40574000B4E720244FF0FF310020E2E702460B4600F0C8FA02460B4600F0A2FDB2E700BF0000F07F000000002DE9F84FC04B21F000469E420D468A4604460FDDBD4B9E42D8
:4057800000F3B28000F0AD80BB4BBC49BC4CBAF1000FC8BF19462046BDE8F88FB94B9E4200F3BC80A3F1DE739E4240F3A7804FF0FF3B22462B462046294600F047FC02468E
:4057C0000B468046894600F041FC91A3D3E9002306460F4600F03AFC8FA3D3E9002300F083FA32463B4600F031FC8DA3D3E9002300F07AFA32463B4600F028FC8AA3D3E9BF
:40580000002300F071FA32463B4600F01FFC88A3D3E9002300F068FA32463B4600F016FC85A3D3E9002300F05FFA42464B4600F00DFC83A3D3E9002380468946304639469E
:4058400000F004FC80A3D3E9002300F04BFA32463B4600F0FBFB7EA3D3E9002300F042FA32463B4600F0F2FB7BA3D3E9002300F039FA32463B4600F0E9FB79A3D3E9002338
:4058800000F030FA32463B4600F0E0FBBBF1FF3F02460B4669D04046494600F025FA22462B4600F0D3FB784E784B4FEACB0B5E449B44DBE9002300F015FA22462B4600F0CB
:4058C00011FA02460B46D6E9000100F00BFABAF1000F0446BFF65FAF01F100412046BDE8F88F00283FF450AF224620462B46294600F0FAF904462046BDE8F88F5AA3D3E943
:40590000002300F0F1F90022614B00F02FFE00283FF44DAF29462046BDE8F88F00F0C2F85C4B04469E420D462FDCA3F550239E4254DC02460B4600F0D7F90022544B00F029
:40594000D1F9002206460F464FF080432046294600F0CAF902460B463046394600F0A0FC4FF0000B04460D4623E74046494600F0BBF922462B4600F069FB02460B46204620
:40598000294600F0AFF9044605E7434B9E421ADC0022424B00F0A6F9002206460F463F4B2046294600F052FB0022394B00F09CF902460B463046394600F072FC4FF0020B46
:4059C00004460D46F5E602460B460020344900F067FC4FF0030B04460D46EAE600222C4B00F080F9002206460F46294B2046294600F07AF902460B463046394600F050FCB1
:405A00004FF0010B04460D46D3E600BFAFF3008011DA22E33AAD903FEB0D76244B7BA93F513DD0A0660DB13F6E204CC5CD45B73FFF8300922449C23F0D5555555555D53FAA
:405A40002F6C6A2C44B4A2BF9AFDDE522DDEAD3F6D9A74AFF2B0B33F711623FEC671BC3FC4EB98999999C93F9C7500883CE4377EFFFF0F440000F07FFB21F93FFB21F9BFD6
:405A8000182D4454FFFFDB3F60970000409700000000F03FFFFFF23FFF7F03400000F83F0000F0BF21F00041704700BF41F0004101F58010C00F7047002070470020014997
:405AC000704700BF0000F87FF0B5C1F30A5EAEF2FF36132E83B002460B460C464FEAD17507462EDC002E49DB3D49314103EA010010432BD049080B4053EA02070CD04FF467
:405B00008023132E24EA010143FA06F444EA01040CBF4FF000470027324B214603EBC505D5E90045384622462B4600F0DDF8CDE90001DDE9000122462B4600F0D3F803B00F
:405B4000F0BD332E06DDB6F5806F45D01046194603B0F0BDAEF2134E4FF0FF3121FA0EF10842F3D049080842D6D04FF0804320EA010143FA0EFE4EEA0107CDE721F00041FB
:405B800001431946E4D0C3F3130343EA000CCCF1000343EA0C0C134B640C4FEA1C3C0CF4002C03EBC5036404D3E900674CEA040132463B4600F098F8CDE90001DDE9000186
:405BC00032463B4600F08EF8024621F0004141EAC57310461946BBE700F086F8B8E700BFFFFF0F0080970000F8B5C1F30A5604460D460B46174606BB21F00043034325D096
:405C000000222F4B00F022FA2E4A044697420D460B462ADBC1F30A56363E40F2FE723E44964228DC002E12DD23F0FF4323F4E00343EA065520462946F8BD40F2FF729642F7
:405C4000EBD102460B4600F04FF8F8BDF8BD16F1350F1DDA4CF250339F420CDC14A1D1E9000122462B4600F031F811A3D3E9002300F0ECF9F8BD22460FA1D1E900012B469F
:405C800000F024F80CA3D3E9002300F0DFF9F8BD23F0FF4323F4E003363643EA0655204629460022084B00F0D1F9F8BDAFF3008059F3F8C21F6EA5019C7500883CE4377E08
:405CC00000005043B03CFFFF0000903C03F0004321F0004242EA0301704700BF81F0004102E000BF83F0004330B54FEA41044FEA430594EA050F08BF90EA020F1FBF54EA3F
:405D0000000C55EA020C7FEA645C7FEA655C00F0E2804FEA5454D4EB5555B8BF6D420CDD2C4480EA020281EA030382EA000083EA010180EA020281EA0303362D88BF30BD6C
:405D400011F0004F4FEA01314FF4801C4CEA113102D0404261EB410113F0004F4FEA03334CEA133302D0524263EB430394EA050F00F0A780A4F10104D5F1200E0DDB02FADD
:405D80000EFC22FA05F2801841F1000103FA0EF2801843FA05F359410EE0A5F120050EF1200E012A03FA0EFC28BF4CF0020C43FA05F3C01851EBE37101F0004507D54FF070
:405DC000000EDCF1000C7EEB00006EEB0101B1F5801F1BD3B1F5001F0CD349085FEA30004FEA3C0C04F101044FEA445212F5800F80F09A80BCF1004F08BF5FEA500C50F144
:405E0000000041EB045141EA050130BD5FEA4C0C404141EB010111F4801FA4F10104E9D191F0000F04BF01460020B1FA81F308BF2033A3F10B03B3F120020CDA0C3208DD17
:405E400002F1140CC2F10C0201FA0CF021FA02F10CE002F11402D8BFC2F1200C01FA02F120FA0CFCDCBF41EA0C019040E41AA2BF01EB0451294330BD6FEA04041F3C1CDA80
:405E80000C340EDC04F11404C4F1200220FA04F001FA02F340EA030021FA04F345EA030130BDC4F10C04C4F1200220FA02F001FA04F340EA0300294630BD21FA04F02946D6
:405EC00030BD94F0000F83F4801306BF81F480110134013D4EE77FEA645C18BF7FEA655C29D094EA050F08BF90EA020F05D054EA000C04BF1946104630BD91EA030F1EBFB0
:405F00000021002030BD5FEA545C05D14000494128BF41F0004130BD14F580043CBF01F5801130BD01F0004545F0FE4141F470014FF0000030BD7FEA645C1ABF1946104625
:405F40007FEA655C1CBF0B46024650EA013406BF52EA033591EA030F41F4002130BD00BF90F0000F04BF0021704730B54FF4806404F132044FF000054FF0000150E700BF71
:405F800090F0000F04BF0021704730B54FF4806404F1320410F0004548BF40424FF000013EE700BF42004FEAE2014FEA31014FEA02701FBF12F07F4393F07F4F81F0605105
:405FC000704792F0000F14BF93F07F4F704730B54FF4607401F0004521F0004120E700BF50EA010208BF704730B54FF000050AE050EA010208BF704730B511F0004502D5A9
:40600000404261EB41014FF4806404F132045FEA915C3FF4DCAE4FF003025FEADC0C18BF03325FEADC0C18BF033202EBDC02C2F1200300FA03FC20FA02F001FA03FE40EA81
:406040000E0021FA02F11444C1E600BF70B54FF0FF0C4CF4E06C1CEA11541DBF1CEA135594EA0C0F95EA0C0F00F0DEF82C4481EA030621EA4C5123EA4C5350EA013518BF1E
:4060800052EA033541F4801143F4801338D0A0FB02CE4FF00005E1FB02E506F00042E0FB03E54FF00006E1FB03569CF0000F18BF4EF0010EA4F1FF04B6F5007F64F540745F
:4060C00004D25FEA4E0E6D4146EB060642EAC62141EA55514FEAC52040EA5E504FEACE2EB4F1FD0C88BFBCF5E06F1ED8BEF1004F08BF5FEA500E50F1000041EB045170BDE5
:4061000006F0004646EA010140EA020081EA0301B4EB5C04C2BFD4EB0C0541EA045170BD41F480114FF0000E013C00F3AB8014F1360FDEBF002001F0004170BDC4F10004CC
:40614000203C35DA0C341BDC04F11404C4F1200500FA05F320FA04F001FA05F240EA020001F0004221F0004110EBD37021FA04F642EB06015EEA430E08BF20EAD37070BD92
:40618000C4F10C04C4F1200500FA04F320FA05F001FA04F240EA020001F0004110EBD37041F100015EEA430E08BF20EAD37070BDC4F1200500FA05F24EEA020E20FA04F382
:4061C00001FA05F243EA020321FA04F001F0004121FA04F220EA020000EBD3705EEA430E08BF20EAD37070BD94F0000F0FD101F00046400041EB010111F4801F08BF013C55
:40620000F7D041EA060195F0000F18BF704703F00046520043EB030313F4801F08BF013DF7D043EA0603704794EA0C0F0CEA135518BF95EA0C0F0CD050EA410618BF52EA4D
:406240004306D1D181EA030101F000414FF0000070BD50EA410606BF1046194652EA430619D094EA0C0F02D150EA013613D195EA0C0F05D152EA03361CBF104619460AD1AC
:4062800081EA030101F0004141F0FE4141F470014FF0000070BD41F0FE4141F4780170BD70B54FF0FF0C4CF4E06C1CEA11541DBF1CEA135594EA0C0F95EA0C0F00F0A7F8FE
:4062C000A4EB050481EA030E52EA03354FEA013100F088804FEA03334FF0805545EA131343EA12634FEA022245EA111545EA10654FEA00260EF000419D4208BF964244F192
:40630000FD0404F5407402D25B084FEA3202B61A65EB03055B084FEA32024FF480104FF4002CB6EB020E75EB030E22BFB61A754640EA0C005B084FEA3202B6EB020E75EB2C
:40634000030E22BFB61A754640EA5C005B084FEA3202B6EB020E75EB030E22BFB61A754640EA9C005B084FEA3202B6EB020E75EB030E22BFB61A754640EADC0055EA060E3F
:4063800018D04FEA051545EA16754FEA06164FEAC30343EA52734FEAC2025FEA1C1CC0D111F4801F0BD141EA00014FF000004FF0004CB6E711F4801F04BF01430020B4F110
:4063C000FD0C88BFBCF5E06F3FF6AFAEB5EB030C04BFB6EB020C5FEA500C50F1000041EB045170BD0EF0004E4EEA113114EB5C04C2BFD4EB0C0541EA045170BD41F480111D
:406400004FF0000E013C90E645EA060E8DE60CEA135594EA0C0F08BF95EA0C0F3FF43BAF94EA0C0F0AD150EA01347FF434AF95EA0C0F7FF425AF104619462CE795EA0C0FB5
:4064400006D152EA03353FF4FDAE1046194622E750EA410618BF52EA43067FF4C5AE50EA41047FF40DAF52EA43057FF4EBAE12E74FF0FF3C06E000BF4FF0010C02E000BF2F
:406480004FF0010C4DF804CD4FEA410C7FEA6C5C4FEA430C18BF7FEA6C5C1BD001B050EA410C0CBF52EA430C91EA030F02BF90EA020F0020704710F1000F91EA030F58BF56
:4064C000994208BF90422CBFD8176FEAE37040F0010070474FEA410C7FEA6C5C02D150EA013C07D14FEA430C7FEA6C5CD6D152EA033CD3D05DF8040B704700BF8446104669
:4065000062468C461946634600E000BF01B5FFF7B7FF002848BF10F1000F01BD4DF808EDFFF7F4FF0CBF012000205DF808FB00BF4DF808EDFFF7EAFF34BF012000205DF8F3
:4065400008FB00BF4DF808EDFFF7E0FF94BF012000205DF808FB00BF4DF808EDFFF7CEFF94BF012000205DF808FB00BF4DF808EDFFF7C4FF34BF012000205DF808FB00BFB9
:406580004FEA410C7FEA6C5C02D150EA013C0AD14FEA430C7FEA6C5C02D152EA033C02D14FF0000070474FF0010070474A0011D212F5001211D20DD56FF47873B3EB62528D
:4065C0000ED44FEAC12343F0004343EA505323FA02F070474FF00000704750EA013002D14FF0FF3070474FF00000704780F0004002E000BF81F0004142001FBF5FEA410391
:4066000092EA030F7FEA226C7FEA236C6AD04FEA1262D2EB1363C1BFD218414048404140B8BF5B42192B88BF704710F0004F40F4000020F07F4018BF404211F0004F41F449
:40664000000121F07F4118BF494292EA030F3FD0A2F1010241FA03FC10EB0C00C3F1200301FA03F100F0004302D5494260EB4000B0F5000F13D3B0F1807F06D340084FEAF8
:40668000310102F10102FE2A51D2B1F1004F40EBC25008BF20F0010040EA03007047490040EB000010F4000FA2F10102EDD1B0FA80FCACF1080CB2EB0C0200FA0CF0AABFC1
:4066C00000EBC25052421843BCBFD0401843704792F0000F81F4000106BF80F400000132013BB5E74FEA41037FEA226C18BF7FEA236C21D092EA030F04D092F0000F08BFD8
:406700000846704790EA010F1CBF0020704712F07F4F04D1400028BF40F00040704712F100723CBF00F50000704700F0004343F0FE4040F4000070477FEA226216BF08466A
:406740007FEA23630146420206BF5FEA412390EA010F40F4800070474FF0000304E000BF10F0004348BF40425FEA000C08BF704743F0964301464FF000001CE050EA0102E9
:4067800008BF70474FF000030AE000BF50EA010208BF704711F0004302D5404261EB41015FEA010C02BF84460146002043F0B64308BFA3F18053A3F50003BCFA8CF2083AD7
:4067C000A3EBC25310DB01FA02FC634400FA02FCC2F12002BCF1004F20FA02F243EB020008BF20F00100704702F1200201FA02FCC2F1200250EA4C0021FA02F243EB02002D
:4068000008BF20EADC7070477BB972B90029BEBF00204FF0004106E008BF00281CBF6FF000414FF0FF3000F0B5B9ADF1080C6DE904CE002909DB002B1ADB00F035F8DDF8CA
:4068400004E0DDE9022304B07047404261EB4101002B1BDB00F028F8DDF804E0DDE9022304B0404261EB4101524263EB43037047524263EB430300F017F8DDF804E0DDE9B0
:40688000022304B0404261EB41017047524263EB430300F009F8DDF804E0DDE9022304B0524263EB430370472DE9F04F8C460C460546099E002B4FD18A4217466BD9B2FA19
:4068C00082FEBEF1000F0BD0CEF1200520FA05F501FA0EF345EA030C02FA0EF700FA0EF5390CBCFBF1F0BAB201FB10C300FB02F84FEA154C4CEA0344A04509D9E41900F176
:40690000FF3380F02881A04540F2258102383C44C8EB0404B4FBF1F301FB134C03FB02F2ACB244EA0C418A4209D9C91903F1FF3480F00F818A4240F20C81023B39448A1A81
:4069400043EA00400021002E63D022FA0EF2002386E80C00BDE8F08F8B4207D9002E56D0002186E811000846BDE8F08FB3FA83F1002940F09380A34202D3824200F2FE80BD
:40698000851A64EB03039C460120002E41D086E82010BDE8F08F12B90127B7FBF2F7B7FA87FEBEF1000F36D1E41B4FEA17481FFA87F90121B4FBF8F308FB134409FB03F217
:4069C0004FEA154C4CEA0444A24207D9E41903F1FF3002D2A24200F2D3800346A41AB4FBF8F008FB104809FB00F9ACB244EA0842914507D9D21900F1FF3402D2914500F271
:406A0000BA802046C9EB020240EA03409BE731463046BDE8F08F07FA0EF7CEF1200C24FA0CF34FEA1748B3FBF8FA1FFA87F908FB1A3520FA0CFC04FA0EF40AFB09FB4CEA6C
:406A4000040C4FEA1C4242EA05439B4500FA0EF50AD9DB190AF1FF3280F08B809B4540F28880AAF1020A3B44CBEB0303B3FBF8F008FB103300FB09F41FFA8CFC4CEA0343B3
:406A80009C4207D9DB1900F1FF326ED29C426CD902383B441C1B40EA0A418BE7C1F1200E8B4022FA0EFC4CEA030C24FA0EF74FEA1C49B7FBF9FA1FFA8CF309FB1A7720FA05
:406AC0000EF88C400AFB03F548EA04044FEA144848EA0747BD4202FA01F200FA01FB09D917EB0C070AF1FF3041D2BD423FD9AAF1020A67447F1BB7FBF9F509FB157705FB2D
:406B000003F3A4B244EA0747BB4208D917EB0C0705F1FF3027D2BB4225D9023D674445EA0A40A0FB0289FF1A4F4545464C4614D329D066B3BBEB050367EB040707FA0EFE1D
:406B4000CB40CF404EEA030386E888000021BDE8F08F2346F3E61846DAE6B8EB020569EB0C040138E5E70546D9E7104692E78246C0E7924678E702383A4443E7084604E774
:406B8000023B3C442AE7C345E7D33C46D1E73146BDE8F08F704700BF014B1868704700BF9081FF1F0E4B70B51E460E4C0025E41AA410A54204D056F8253098470135F8E724
:406BC00002F098FE084B094C1E46E41AA4100025A54204D056F8253098470135F8E770BD0099000000990000009900000899000010B5431E0A44914204D011F8014B03F8D4
:406C0000014FF8E710BD03460244934202D003F8011BFAE770472DE9F04788B0149F002B1E461299B8BF03F1004327F02007B6BF1E4600232D23462F1446109DDDF84CA08C
:406C40000B7003D0452F03D1013501E0032300E0022307AA049206AA03928DE828042246334600F009FD472F804602D1119BDB0728D5462F08EB050911D198F80030302B2B
:406C80000AD10022002320463146FFF747FC18B9C5F10105CAF80050DAF8003099440022002320463146FFF739FC08B9302202E0CDF81C9006E0079B994503D9591C07911E
:406CC0001A70F8E74046079B159AC8EB0303136008B0BDE8F087034673B50029B8BF494203F8022BB4BF2D222B22092942701ADD0DF1070216460A2591FBF5F405FB14117A
:406D0000092C01F1300102F8011D2146F4DC3031541E02F8011CB4421A460AD214F8012B03F8012BF7E71A463024214402F8024B5970101A02B070BD2DE9F04F91B00C4639
:406D4000DDF8688016461F46054601F02DFA03681846099300F0FCFB00230E93D8F800300A90073323F0070303F1080294F81890D4F800B0C8F80020D3E90023C4E91223E2
:406D8000D4F84CA0D4F848802AF000430B934FF0FF32A74B40460B99FFF7F2FBA0B94FF0FF32A34B40460B99FFF7CCFB60B90022002340465146FFF7BBFB10B12D2384F8CB
:406DC00043309C4B9C4A0AE04246534640465146FFF7D6FB002800F09281984B984AB9F1470F8CBF90469846032323612BF0040323604FF0000A3DE0B9F1670F00F08A81A5
:406E0000B9F1470F00F0868123600193636800210DF13302059002920093424653460691CDF81090CDF80CE02846FFF7F4FE09F0DF03472B804600F08481B9F1650F0D9979
:406E400000F28D8101394A4604F150000D91FFF742FF0E9A82468318012A236100F37C812268D10700F178819DF8333013B12D2384F84330009733460FAA2146284600F0AF
:406E80009FF9013002D14FF0FF3096E123685A0501D4236965E0B9F1650F40F2D580D4E9120100220023FFF739FB78B30123654A31462846B8470130E5D00E9B0D9A9A42E9
:406EC0000BDB2368D80708D423689B0740F111814FF0000804F1190906E10A9B099A31462846B8470130CED04FF0000804F11A090E9B013B9845E7DA01234A4631462846BB
:406F0000B8470130BFD008F10108F1E70D9B002B29DC01234B4A31462846B8470130B2D00D9B23B90E9B13B92368D907CCD50A9B099A31462846B8470130A4D04FF0000972
:406F400004F11A0A0D9B5B42994509DA0123524631462846B847013095D009F10109F1E70E9B4246A7E00E9AA36D9A42A8BF1A46002A914606DC4FF0000A29EAE97904F137
:406F80001A0B11E01346314642462846B8470130F1D178E701235A4631462846B84701303FF471AF0AF1010AA36DC9EB03029245F0DB08EB03090D9A0E9B9A420FDB236867
:406FC000DA070CD40E9B0D9A9844C9EB08089B1A9845A8BF9846B8F1000F08DC0FE00A9B099A31462846B8470130EBD14BE743464A4631462846B84701303FF444AF4FF0A0
:40700000000928EAE87804F11A0A09E00123524631462846B84701303FF435AF09F101090D9A0E9B9B1AC8EB03039945EEDB4BE7FFFFEF7F92970000969700009A9700005D
:407040009E970000A29700000E9A012A01DCDB0738D50123424631462846B84701303FF412AF0A9B099A31462846B84701303FF40AAFD4E9120100220023FFF74FFA20B1E0
:407080004FF0000804F11A090EE00E9B08F10102013B19E001234A4631462846B84701303FF4F1AE08F101080E9B013B9845F1DB534604F1500231462846B84701307FF416
:4070C00003AFE0E64246012331462846B8470130EED1D8E601234A4631462846B84701303FF4D1AE08F10108E3680F9A9B1A9845F0DBE0680F9B9842B8BF18465DE0626864
:407100000EA8531C0DF1340E4BF480637FF474AE062201E012B90122626075E6002106910DF133018DE80C00236005904246CDF81090CDF80CE0029153462846FFF76BFD06
:4071400080460D9BD81C02DB626893421DDDA9F102095FFA89F970E60133236184E6B9F1660F14D10029636807DD216113B92268D2071DD501330B4419E013B92268D00717
:4071800001D5023313E0012311E04FF067090D9B0E9A934205DB22682361D10708D5013305E0002BD4BFC3F102030123134423610D9B4FF0000AA36556E611B0BDE8F08F9C
:4071C0002DE9F04791461F460A698B6806469342B8BF1346C9F8003091F843200C46DDF8208012B10133C9F800302368990642BFD9F800300233C9F80030256815F0060534
:4072000010D104F1190A07E00123524639463046C04701301AD00135E368D9F800209B1A9D42F1DB94F843302268003318BF012392060FD5E118302081F843005A1C94F88F
