:4000000000800020110000009D2900009D29000080B500AF024A034B1B68136002F0C8FCBC760040FA4600400100000000200040010000000020014001000000004800401B
:400040000100000000480140010000000100000008000223000008760800032300001076080004230000287608000523000030760500062300002070050007230000307065
:4000800005000823000060700500FE230000707010000A220000005130000B22000040511000FE220000C05180070D220000000080010E220000000880000F220000000A54
:4000C000000410220000000C800111220000001480011222000000168001132200000018800114220000001A8000152200000041800016220000004380001722000000459B
:400100008000182200000049800019220000004C80001A220000004D2000FE220000005007001C230000785208001D23000078450C00FE230000004F08001F2300000051F0
:40014000800020230000800A800021230000804D800022230000804C8000232300000047800024230000804780002523000000468000262300008046800027230000804549
:400180008000282300000044800029230000804480002A230000801B80002B230000801580002C230000801980002D230000801780002E230000800980002F230000800753
:4001C000800030230000000B800031230000800B80003223000080498000332300000048800034230000804880003523000080438000362300000042800037230000804215
:40020000800038230000804180003923000000408000FE230000804010B5054C237833B9044B13B10448AFF300800123237010BD7081FF1F0000000024840000084B10B534
:400240001BB108490848AFF300800848036803B910BD074B002BFBD0BDE81040184700BF000000007481FF1F24840000C880FF1F0000000080B588B000AF786000237B613C
:4002800000F0D6FE404B1B68002B04D100F0BEF83D4B01221A607B68002B0ED008231A467B6813447B607B6803F00703002B04D07B6823F0070308337B607B68002B57D0EB
:4002C0007B6847F6F772934252D8304BBB612F4B1B68FB6104E0FB69BB61FB691B68FB61FB695A687B689A4203D2FB691B68002BF1D1FB69264A93423AD0BB691B680822CD
:4003000013447B61FB691A68BB691A60FB695A687B68D31A08225200934222D9FA697B681344FB60FB695A687B68D21AFB685A60FB697A685A60FB685B68BB60134B3B617F
:4003400002E03B691B683B613B691B685A68BB689A42F6D33B691A68FB681A603B69FA681A600C4B1A68FB695B68D31A094A136000F06CFE7B69002B01D101F0AFFC7B6936
:4003800018462037BD4680BD9C0100208C01002094010020CC80FF1F80B586B000AF78607B683B617B68002B27D008235B423A6913443B613B69FB6000F03AFEFB685B689E
:4003C000BB60104B7B6102E07B691B687B617B691B685A68BB689A42F6D37B691A68FB681A607B69FA681A60FB685A68064B1B681344054A136000F029FE00BF1837BD4658
:4004000080BD00BF8C010020CC80FF1F80B483B000AF0F4B23F007037B600E4A7B6813600C4B00225A600C4B47F6F8725A600A4B00221A607B683B603B6847F6F8725A6035
:400440003B68054A1A6000BF0C37BD4680BC70479481FF1F8C0100209401002080B483B000AF78607B6803F108027B685A607B684FF0FF329A607B6803F108027B68DA60CC
:400480007B6803F108027B681A617B6800221A6000BF0C37BD4680BC704700BF80B483B000AF78607B6800221A6100BF0C37BD4680BC704780B485B000AF786039607B68F5
:4004C0005B68FB603B68FA685A60FB689A683B689A60FB689B683A685A60FB683A689A603B687A681A617B681B685A1C7B681A6000BF1437BD4680BC704700BF80B485B0FB
:4005000000AF786039603B681B68BB60BB68B3F1FF3F03D17B681B69FB600CE07B680833FB6002E0FB685B68FB60FB685B681A68BB689A42F6D9FB685A683B685A603B685C
:400540005B683A689A603B68FA689A60FB683A685A603B687A681A617B681B685A1C7B681A6000BF1437BD4680BC704780B485B000AF78607B681B69FB607B685B687A68EB
:4005800092689A607B689B687A6852685A60FB685A687B689A4203D17B689A68FB685A607B6800221A61FB681B685A1EFB681A60FB681B6818461437BD4680BC704700BF52
:4005C00080B485B000AFF860B9607A60FB68043BFB60FB684FF080721A60FB68043BFB60BA68FB681A60FB68043BFB60084AFB681A60FB68143BFB607A68FB681A60FB6836
:40060000203BFB60FB6818461437BD4680BC70471506000080B500AF00F078F8FEE700BF074B19680868B0E8F00F80F30988BFF36F8F4FF0000080F311884EF00D0E704716
:40064000A001002000BF00BF06480068006880F3088862B661B6BFF34F8FBFF36F8F00DF00BF00BF08ED00E080B500AF0B4A0B4B1B6843F460031360084A084B1B6843F0FF
:400680006043136000F088F8054B00221A60FFF7DBFFFFF7BFFF0023184680BD20ED00E0D080FF1F80B400AF054B4FF080521A60BFF34F8FBFF36F8F00BFBD4680BC704778
:4006C00004ED00E080B500AF00F020F8054B1B680133044A1360BFF34F8FBFF36F8F00BF80BD00BFD080FF1F80B500AF064B1B68013B054A1360044B1B68002B02D1002066
:4007000000F00EF800BF80BDD080FF1FEFF311804FF0A00181F3118870470023184600BF80F31188704700BFEFF30980BFF36F8F0D4B1A6820E9F00F10602DE908404FF076
:40074000A00080F3118800F0ADFD4FF0000080F31188BDE8084019680868B0E8F00F80F30988BFF36F8F7047A001002000BF00BF80B500AFFFF7CAFF00F0E6FC0346002BE0
:4007800003D0044B4FF080521A600020FFF7C8FF00BF80BD04ED00E080B400AF054B4FF6FF121A60044B07221A6000BFBD4680BC704700BF14E000E010E000E080B584B06C
:4007C00000AF786039607B68FB60FFF77BFFFB681A68FB68DB6BF968096C01FB03F31A44FB685A60FB6800229A63FB681A68FB689A60FB681A68FB68DB6B013BF968096CF6
:4008000001FB03F31A44FB68DA60FB684FF0FF325A64FB684FF0FF329A643B68002B0ED1FB681B69002B14D0FB681033184600F0E7FD0346012B0CD1FFF734FF09E0FB6827
:4008400010331846FFF70AFEFB6824331846FFF705FEFFF749FF012318461037BD4680BD80B588B000AFF860B9601346FB710023BB61BB68002B02D10023FB6105E0FB6808
:40088000BA6802FB03F30133FB61FB694C331846FFF7F0FC78617B69002B17D0BB68002B03D17B697A691A6004E07B6903F14C027B691A607B69FA68DA637B69BA681A64CF
:4008C00001217869FFF77AFF7B69BB61BB6918462037BD4680BD00BF80B58AB000AFF860B9607A603B6000237B62FB683B62FFF7E9FE3B6A9A6B3B6ADB6B9A4202D33B68E4
:40090000022B1DD13A68B968386A00F07FF9F8613B6A5B6A002B0AD03B6A2433184600F06FFD0346012B07D1FFF7BCFE04E0FB69002B01D0FFF7B6FEFFF7D6FE012356E042
:400940007B68002B03D1FFF7CFFE00234FE07B6A002B06D107F11403184600F0A5FD01237B62FFF7C1FE00F063FBFFF7ABFE3B6A5B6CB3F1FF3F02D13B6A00225A643B6AAC
:400980009B6CB3F1FF3F02D13B6A00229A64FFF7ABFE3A1D07F114031146184600F09AFD0346002B1DD1386A00F024FA0346002B11D03B6A10337A681146184600F0DEFCC5
:4009C000386A00F0B5F900F041FB0346002B8ED1FFF768FE8BE7386A00F0AAF900F036FB85E7386A00F0A4F900F030FB002318462837BD4680BD00BF80B588B000AFF8608B
:400A0000B9607A603B60FB68BB61FFF77FFE7861BB699A6BBB69DB6B9A4202D33B68022B24D13A68B968B86900F0F0F8BB699B6CB3F1FF3F12D1BB695B6A002B13D0BB698D
:400A40002433184600F0DCFC0346002B0BD07B68002B08D07B6801221A6004E0BB699B6C5A1CBB699A640123FB6101E00023FB617869FFF755FEFB6918462037BD4680BD3A
:400A800080B58AB000AFF860B9607A603B6000237B62FB683B62FFF715FE3B6A9B6B002B3BD03B6ADB68FB61B968386A00F01AF93B68002B1CD13B6A9B6B5A1E3B6A9A63BE
:400AC0003B6A1B68002B04D100F0A6FF02463B6A5A603B6A1B69002B1BD03B6A1033184600F08EFC0346012B13D1FFF7DBFD10E03B6AFA69DA603B6A5B6A002B09D03B6A27
:400B00002433184600F07CFC0346002B01D0FFF7C9FDFFF7E9FD012364E07B68002B03D1FFF7E2FD00235DE07B6A002B06D107F11403184600F0B8FC01237B62FFF7D4FD7C
:400B400000F076FAFFF7BEFD3B6A5B6CB3F1FF3F02D13B6A00225A643B6A9B6CB3F1FF3F02D13B6A00229A64FFF7BEFD3A1D07F114031146184600F0ADFC0346002B2BD1C3
:400B8000386A00F021F90346002B1FD03B6A1B68002B08D1FFF796FD3B6A5B68184600F061FEFFF7A1FD3B6A24337A681146184600F0E4FB386A00F0BBF800F047FA0346A7
:400BC000002B7FF468AFFFF76DFD64E7386A00F0AFF800F03BFA5EE7386A00F0A9F800F035FA002318462837BD4680BD80B584B000AF7860FFF766FD7B689B6BFB60FFF7FD
:400C000073FDFB6818461037BD4680BD80B586B000AFF860B9607A6000237B61FB681B6C002B0DD1FB681B68002B50D1FB685B68184600F08DFE7861FB6800225A6046E036
:400C40007B68002B19D1FB689868FB681B6C1A46B96807F0D3FBFB689A68FB681B6C1A44FB689A60FB689A68FB685B689A422ED3FB681A68FB689A6029E0FB68D868FB6826
:400C80001B6C1A46B96807F0B9FBFB68DA68FB681B6C5B421A44FB68DA60FB68DA68FB681B689A4207D2FB685A68FB681B6C5B421A44FB68DA607B68022B08D1FB689B6B21
:400CC000002B04D0FB689B6B5A1EFB689A63FB689B6B5A1CFB689A637B6918461837BD4680BD00BF80B582B000AF786039607B681B6C002B18D07B68DA687B681B6C1A44F4
:400D00007B68DA607B68DA687B685B689A4203D37B681A687B68DA607B68D9687B681B6C1A46386807F06AFB00BF0837BD4680BD80B582B000AF7860FFF7C4FC12E07B68F6
:400D40005B6A002B13D07B682433184600F058FB0346002B01D000F001FC7B689B6C5A1E7B689A647B689B6C002BE8DC00E000BF7B684FF0FF329A64FFF7B6FCFFF7A2FC4B
:400D800012E07B681B69002B13D07B681033184600F036FB0346002B01D000F0DFFB7B685B6C5A1E7B685A647B685B6C002BE8DC00E000BF7B684FF0FF325A64FFF794FC86
:400DC00000BF0837BD4680BD80B584B000AF7860FFF778FC7B689B6B002B02D10123FB6001E00023FB60FFF77FFCFB6818461037BD4680BD80B584B000AF7860FFF762FC99
:400E00007B689A6B7B68DB6B9A4202D10123FB6001E00023FB60FFF767FCFB6818461037BD4680BD80B58AB002AFF860B9603B601346FB80FB88396B184600F0A9FCB86140
:400E4000BB69002B65D0BB691A6BFB8803F18043013B9B0013447B617B6923F007037B61FB8800937B6BBA6AB968B86900F08AFB3A68F9687869FFF7A3FB0246BB691A60EF
:400E8000FB6A002B02D0FB6ABA691A60FFF71AFC2B4B1B6801332A4A13602A4B1B68002B09D1284ABB691360254B1B68012B0FD100F0BCFB0CE0244B1B68002B08D1214BB4
:400EC0001B68DA6ABB6A9A4202D81E4ABB6913601E4B1B6801331D4A1360BB69DB6A01229A401B4B1B681343194A1360BB69DA6A13469B0013449B00164A1A44BB69043375
:400F000019461046FFF7D6FA0123FB61FFF7ECFB02E04FF0FF33FB61FB69012B0BD10A4B1B68002B07D0074B1B68DA6ABB6A9A4201D2FFF7B7FBFB6918462037BD4680BDF6
:400F400078020020A0010020840200209402002080020020A401002080B584B000AF78600023FB607B68002B21D000F061F8144B1A687B681344BB60124B1B6804331846F2
:400F8000FFF7F4FA0346002B0BD10E4B1B68DB6A012202FA03F3DA430B4B1B6813400A4A1360B86800F0BEFB00F050F8F860FB68002B01D1FFF776FB00BF1037BD4680BD51
:400FC0007C020020A00100208002002080B586B004AF00230393002302930023019300230093002364220D490D48FFF71BFF78607B68012B0DD1FFF789FB0A4B4FF0FF328C
:401000001A60094B01221A60084B00221A60FFF72BFB00BF0837BD4680BD00BF288400007515000098020020840200207C02002080B400AF044B1B680133034A136000BFA1
:40104000BD4680BC704700BF9C02002080B582B000AF00237B60FFF735FB334B1B68013B314A1360304B1B68002B55D12F4B1B68002B51D02EE02E4BDB68DB683B603B68B5
:4010800018331846FFF772FA3B6804331846FFF76DFA3B68DB6A01229A40264B1B681343244A13603B68DA6A13469B0013449B00214A1A443B68043319461046FFF7FAF972
:4010C0003B68DA6A1D4B1B68DB6A9A4202D31C4B01221A60164B1B68002BCCD1194B1B68002B11D00CE000F02FF80346002B02D0134B01221A60134B1B68013B114A136056
:40110000104B1B68002BEED10D4B1B68012B03D101237B60FFF7C6FAFFF7E6FA7B6818460837BD4680BD00BF9C020020780200203802002080020020A4010020A001002028
:401140008C0200208802002080B586B000AF00237B61494B1B68002B7DD1484B1B680133464A1360454B1B683B613B69002B10D1434B1B68FB60434B1B68414A1360414ABC
:40118000FB681360404B1B6801333F4A136000F045FB3E4B1B683A699A424DD3384B1B681B68002B01D1012300E00023002B04D0364B4FF0FF321A603EE0314B1B68DB68C9
:4011C000DB68BB60BB685B687B603A697B689A4203D22E4A7B6813602EE0BB6804331846FFF7C4F9BB689B6A002B04D0BB6818331846FFF7BBF9BB68DB6A01229A40244BE1
:401200001B681343224A1360BB68DA6A13469B0013449B001F4A1A44BB68043319461046FFF748F9BB68DA6A1B4B1B68DB6A9A42B4D301237B61B1E7174B1B68DA6A154985
:4012400013469B0013449B000B441B68012B07D901237B6104E0114B1B6801330F4A13600F4B1B68002B01D001237B617B6918461837BD4680BD00BF9C0200207C02002022
:401280003002002034020020900200209802002080020020A4010020A0010020880200208C02002080B586B000AF2F4B1B68002B03D02E4B01221A6051E02C4B00221A602B
:4012C0002B4B1B681B6B7B614FF0A5333B617B691A683B699A4211D17B6904331A683B699A420BD17B6908331A683B699A4205D17B690C331A683B699A4208D01C4B1A6842
:401300001B4B1B6834331946104600F0DFFC194B1B687B607B68B3FA83F3FB70FB78C3F11F03FB60FA6813469B0013449B00124A1344BB60BB685B685A68BB685A60BB6848
:401340005A68BB6808339A4204D1BB685B685A68BB685A60BB685B68DB68054A136000BF1837BD4680BD00BF9C0200208C020020A001002080020020A401002080B584B022
:4013800000AF786039601A4B1B68183319467868FFF7B4F8164B1B6804331846FFF7E6F80346002B0BD1124B1B68DB6A012202FA03F3DA430F4B1B6813400E4A13603B6867
:4013C000B3F1FF3F07D10A4B1B68043319460A48FFF770F807E0094B1A683B681344FB60F86800F09FF900BF1037BD4680BD00BFA001002080020020640200207C0200208F
:4014000080B584B000AF78607B68DB68DB68BB60BB6818331846FFF7A9F81D4B1B68002B1CD1BB6804331846FFF7A0F8BB68DB6A01229A40174B1B681343164A1360BB68F6
:40144000DA6A13469B0013449B00134A1A44BB68043319461046FFF72DF805E0BB68183319460E48FFF726F8BB68DA6A0C4B1B68DB6A9A4205D90123FB600A4B01221A6090
:4014800001E00023FB60FB6818461037BD4680BD9C02002080020020A401002038020020A00100208C02002080B483B000AF7860064B1A687B681A60054B1A687B685A600A
:4014C00000BF0C37BD4680BC704700BF900200207C02002080B584B000AF78603960FFF7F1F81C4B1B68BB603B681B68B3F1FF3F02D10023FB6026E07B681A68164B1B68D0
:401500009A4207D07B685A68BB689A4202D80123FB6018E07B685B68BA68D21A3B681B689A420ED23B681A687B685968BB68CB1A1A443B681A607868FFF7B6FF0023FB6018
:4015400001E00123FB60FFF7CFF8FB6818461037BD4680BD7C0200209002002080B400AF034B01221A6000BFBD4680BC704700BF8C02002080B582B000AF786000F096F85A
:40158000FCE700BF80B586B000AFF860B9607A603B6000237B6112E0BA687B6913441978FA687B69134434330A461A70BA687B6913441B78002B06D07B6901337B617B6903
:4015C0000B2BE9D900E000BFFB68002283F83F207B68042B01D904237B60FB687A68DA62FB687A681A64FB6800225A64FB6804331846FEF753FFFB6818331846FEF74EFFF3
:40160000FB68FA681A617B68C3F10502FB689A61FB68FA685A62FB6800229A64FB68002283F84C2000BF1837BD4680BD80B582B000AF00237B600CE07A6813469B00134483
:401640009B00124A13441846FEF708FF7B6801337B607B68042BEFD90D48FEF7FFFE0D48FEF7FCFE0C48FEF7F9FE0C48FEF7F6FE0B48FEF7F3FE0B4B054A1A600A4B054AF2
:401680001A6000BF0837BD4680BD00BFA4010020080200201C020020380200204C02002064020020300200203402002080B582B000AF28E0FFF7BCFC174B1B68002B0CBFE9
:4016C00001230023DBB27B60FFF7C0FC7B68002B19D1FEF7F7FF104BDB68DB683B603B6804331846FEF742FF0C4B1B68013B0B4A13600B4B1B68013B094A1360FEF7F4FF1B
:40170000386800F07BF8064B1B68002BD2D100BF0837BD4680BD00BF4C020020780200206002002080B582B000AF7860134B1B687A685A60124B1B687A689A4209D2114B3D
:401740001A680E4B1B68043319461046FEF7D6FE10E00D4B1A68094B1B68043319461046FEF7CCFE094B1B687A689A4202D2074A7B68136000BF0837BD4680BDA0010020FB
:401780007C02002034020020300200209802002080B584B000AF03463960FB803B68002B06D1FB889B001846FEF764FD034600E03B68BB60BB68002B0ED05020FEF75AFD6E
:4017C000F860FB68002B03D0FB68BA681A6305E0B868FEF7E1FD01E00023FB60FB68002B07D0FB68186BFB889B001A46A52106F010FEFB6818461037BD4680BD80B582B0B5
:4018000000AF78607B681B6B1846FEF7C5FD7868FEF7C2FD00BF0837BD4680BD80B483B000AF0E4B1B681B68002B01D1012300E00023002B04D00A4B4FF0FF321A6008E012
:40184000064B1B68DB68DB687B607B685B68044A136000BF0C37BD4680BC7047300200209802002080B584B000AF78607B68FB607B68002B62D0FB68DA6A324B1B68DB6A6E
:401880009A425BD2FB689B69002B06DB2D4B1B68DB6AC3F10502FB689A61FB685969FB68DA6A13469B0013449B00274A1344994201D1012300E00023002B3AD0FB68043336
:4018C0001846FEF753FE0346002B15D1FB68DA6A1D4913469B0013449B000B441B68002B0AD1FB68DB6A012202FA03F3DA43174B1B681340154A1360124B1B68DA6AFB68B4
:40190000DA62FB68DB6A01229A40104B1B6813430E4A1360FB68DA6A13469B0013449B00094A1A44FB68043319461046FEF7C2FD04E0044B1B68DA6AFB68DA6200BF1037E7
:40194000BD4680BDA0010020A40100208002002080B584B000AF78607B68BB600023FB607B68002B4FD0BB685B6C5A1EBB685A64BB68DA6ABB681B6C9A4244D0BB685B6C38
:40198000002B40D1BB6804331846FEF7EFFD0346002B15D1BB68DA6A1D4913469B0013449B000B441B68002B0AD1BB68DB6A012202FA03F3DA43174B1B681340154A1360C9
:4019C000BB681A6CBB68DA62BB68DB6AC3F10502BB689A61BB68DB6A01229A400D4B1B6813430C4A1360BB68DA6A13469B0013449B00074A1A44BB68043319461046FEF73F
:401A000059FD0123FB60FB6818461037BD4680BDA40100208002002080B400AF074B1B68002B04D0054B1B685A6C01325A64034B1B681846BD4680BC704700BFA00100203C
:401A400080B400AF00BFBD4680BC704790B587B000AF786003233B610023FB730023FB750023BB730023BB8202F042FB03465B00DCB202F04DFB03462344FB73FA7BFB7D8E
:401A80009A421BD0FB7B032B09D1FB7D022B06D197F90E30DBB20133DBB25BB2BB73FB7B032B09D1FB7D012B06D197F90E30DBB2013BDBB25BB2BB73FB7BFB75BB8A013357
:401AC000BB82BB8A312B0FD997F90E30002B09D0074B186807F10E0100230022FEF7FCFE0023BB730023BB823869FFF735FABBE72C04002080B584B004AF00F0CFF800F015
:401B00007FF8002201210820FEF7AAFE02462F4B1A60002201210820FEF7A2FE02462C4B1A60002201210820FEF79AFE0246294B1A60002201210120FEF792FE0246264BDD
:401B40001A60002201210120FEF78AFE0246234B1A6000230393002302930023019304230093002380221E491E48FFF75BF900230393002302930023019301230093002319
:401B80004FF4807218491948FFF74CF9002303930023029300230193032300930023802213491448FFF73EF90023039300230293002301930223009300234FF400720E4959
:401BC0000E48FFF72FF9FFF701FAFEE72C0400202404002028040020F40300202004002058840000051D00005C840000A1220000648400004D1A000068840000291F000038
:401C000080B582B000AF204802F070FB02F01EFB0021032002F09EF8FFF712FF01F034FD02F0DAF901F0C6F801F0DCF801F0C2FA02F042FC02F09EFC01F0E6FBFF2002F044
:401C400003FD00F077F80023FB7107E0FB790F4A002142F82310FB790133FB71FB79072BF4D90B4B00221A700A4B00221A700A4802F08AFB62B64FF47A7002F035F800BFBE
:401C80000837BD4680BD00BFE91C0000FC0300201C040020D480FF1F911D000080B400AF064B074ADA62054B064A9A63034B064ADA6300BFBD4680BC704700BF0080FF1F17
:401CC00021060000290700007107000080B582B000AF78603960FEF719FDFEE780B500AFFEF714FDFEE700BF80B500AF02F0D0FA03461A46024B1A7002F072F800BF80BD98
:401D0000F803002080B584B000AF78604FF47A73FB604FF47A73BB60012002F083FBF868FFF71AF9002002F07DFBB868FFF714F9F2E700BF80B582B000AF4FF480434FF424
:401D400080420121012000F0C9FE0346FB7101F023FF0346BB71B8790023FF22012101F049FFBB794CF2A27244F61061184601F081FFBA79FB791146184601F09FFEFB793C
:401D80000121184601F0E6FD00BF0837BD4680BDB0B582B000AF0023BB71012002F03AFC002001F043FB0346FB71554BE8221A70544B1B780133DAB2524B1A70524B1B7832
:401DC0000133DAB2504B1A704F4B1B78142B02D14D4B00221A704C4B1B781A464B4B9B561A4697F9073003FB02F35A02484B1B681344474A1360444B1B781A46454B9B5680
:401E00001A4697F9073003FB02F35A02424B1B681344414A13603B4B1B78502B69D13C4B1B68184605F088FF4FF000024FF0804304F054FD04460D46374B1B68184605F098
:401E40007BFF4FF000024FF0804304F047FD02460B462046294605F023FE03460C461846214606F07FFA02462C4B1A602B4B1B68B3F1004F10D92A4B1B78022B05D90123D5
:401E8000BB71012002F054F916E0254B1B780133DAB2234B1A700FE0214B1B78002B05D10023BB71002002F043F905E01C4B1B78013BDAB21A4B1A701A4B1868B91D0023E5
:401EC0000022FEF799FD154B1B685B0ADBB2184601F0C4F9114B00221A600D4B00221A600D4B00221A60074B00221A70064B00221A70002002F08EFB00BF0837BD46B0BD70
:401F000084C70040B0020020A002002030840000A402002044840000A8020020AC020020D480FF1F2404002080B590B000AF7860002387F82130002387F83F30002387F84C
:401F40003E30002387F83D30002387F83C3002237B6200233B87012387F83C30012002F03BFB97F83C30012B5CD1002387F83C30002387F83B300DE097F83B305B0007F1EE
:401F8000400213440C2223F8282C97F83B30013387F83B3097F83B30032BEDD90023FB860C23BB86002387F83B300DE097F83B305B0007F140021344242223F8302C97F8A5
:401FC0003B30013387F83B3097F83B30032BEDD900237B862423FB8124233B8600237B8500233B8500237B810123BB851823BB81A24B186807F10A0100230022FEF76CFC69
:402000009F4B186807F10C0100230022FEF764FC1B233B819B4B186807F1080100230022FEF75AFC984B1B681846FEF7DFFD0346002B54D0944B186807F1210100230022BB
:40204000FEF71EFD3B8FDBB2FB8597F82130002B09D197F83F30002B05D0012387F83E3000233B8737E097F82130002B09D097F83F30002B05D1012387F83D3000233B87B1
:4020800029E0BB8D012B0AD93A8FBB899B009A4205DD012387F83D3000233B871BE03B8F01333B873B8FDBB29BB2002B09D120233B81744B186807F1080100230022FEF788
:4020C0000BFC3B8F40F2FB42934204D9012387F83C3000233B8797F8213087F83F3097F83E30012B40F08680002387F83E30BB89FA8D9A4234D9FB8D4A2B1DD8FB8D122B52
:402100001AD97B8E5B0007F140021344FA8D23F8302C7B8E01339BB203F003037B863B8A1A467B8A1344BA8A1344FA8A1344002B00DA03339B103B86FB893A8E9A4209D096
:402140003B8EFB814D4B186807F10E0100230022FEF7C2FB3B8D01333B8500237B8524E07A89BB8D13449BB27B81FB8E5B0007F140021344FA8D23F8282CFB8E01339BB2C1
:4021800003F00303FB863B8B1A467B8B1344BA8B1344FA8B1344002B00DA03339B10BB8600233B857B8D01337B85FB891A46BB8E1344DA0F13445B107B84BB897A8C9A4210
:4021C00009D07B8CBB812E4B186807F10C0100230022FEF781FBBB8D7F2B02D8BB8D5B00BB853B8D0F2B02D87B8D0F2B02D9012387F83C3097F83D30012B38D1002387F885
:402200003D30BB8D012B20D9BB89FA8D9A421CD97A89BB8D13449BB27B817B89792B02D92A233B8105E07B891A46184B9B5C9BB23B81144B186807F1080100230022FEF7EB
:402240004BFB00237B810123BB85FA8DBB8919460B465B000B449A4209DD20233B81094B186807F1080100230022FEF735FB002002F0B2F9786AFEF76FFE6FE6F403002003
:40228000200400202804002024040020A884000080B500AF00F074F800F0D2F800BF80BD80B58EB000AF7860302387F82F30002387F8373032233B630221002002F022FAAC
:4022C000184802F0D1F900BF02F0C0FB0346002BFAD002F0C7FB02F0BDFD02F0C3FB0346002B19D1104B1B681846FEF77FFC0346002BF2D00C4B186807F12F010023002284
:40230000FEF7BEFB97F82F301B2BE6D097F82F30184600F081F8E0E700BF386BFEF71CFED1E700BF912200002804002080B584B000AF0346FB8004F087FA0346FB730E4B41
:402340001B783F2B04D9FB7B184604F081FAF2E700BF094B1B785A1CD1B2074A11701A46FB88D9B2054B9954FB7B184604F070FA00BF1037BD4680BDB1020020C404002018
:4023800080B582B000AF04F05FFA0346FB711E4B1B78002B03D11D4B1B78002B2CD002F0F5FD0346002B17D0174B1B789BB21946174802F0A3FD144B1B78402B0CBF0123CB
:4023C0000023DBB21A46114B1A700F4B00221A70104B00221A700FE00E4B1B780133DAB20C4B1A700B4B1B78042B05D9064B00221A70084B00221A70FB79184604F028FA84
:4024000000BF0837BD4680BDB1020020B2020020C4040020B302002080B582B000AF0346FB71FB790A2B02D10D20FFF77FFFFB791BB21846FFF77AFF00BF0837BD4680BDC6
:4024400080B582B000AF04F0FFF90346FB710E4B1A780E4B1B789A420ED302F085FD0346002B09D00A4802F0A3FD0346DAB2074B1A70054B00221A70FB79184604F0E8F918
:4024800000BF0837BD4680BDB5020020B40200208404002080B582B000AF786039603A680021786805F0B5FF00BF0837BD4680BD80B584B000AFF860B9607A607A68B96812
:4024C000F86805F09BFF00BF1037BD4680BD00BF80B483B000AF0346FB71FEE780B483B000AF434B00221A60424B10221A70424B01221A70414B00221A70414B4FF4E47218
:402500001A80404B01221A703F4B03221A703F4B3F4A92B21A803F4B47F608021A803E4B00221A803D4B4FF480421A803C4B09221A703C4B0C221A703B4B1B221A703B4B7A
:402540001E221A70BFF35F8F394B01221A70BFF35F8F00BF2A4B1B889BB2002BFAD100237B600DE07B68DA00324B13441946324A7B6852F823309BB20B807B6801337B6065
:402580007B68382BEED9BFF35F8F294B01221A70BFF35F8F00BF294B1B78DBB203F00103002BF8D100BF264B1B78DBB203F00103002BF8D100BF234B1B78DBB203F00103F0
:4025C000002BF8D100BF204B1B78DBB203F00103002BF8D100BF1D4B1B78DBB203F00103002BF8D100BF0C37BD4680BC704700BFB8020020007600401070004019700040B0
:40260000007800400278004003780040047800405000000006780040047600400676004029700040397000406970004079700040147000400C780040248500001870004030
:402640002870004038700040687000407870004080B582B000AF434B00221A80424B50221A70424B40F27F221A80414B18221A70404B42F6DF621A803F4B19221A70042214
:402680003E493F48FFF714FF3E4B06221A703E4B3E4A1278D2B21A703D4B52221A703D4B40F618021A803C4B41F251221A800023FB7019237B6013E0FB785B00DAB2374BEC
:4026C0001B78DBB203F00103DBB21343DBB203F00303FB70782004F0AFF87B68013B7B607B68002B02D0FB78032BE5D17B68002B02D10320FFF7ECFE294B4FF480721A8064
:40270000274B07221A70274B00221A70264B48221A70234B00221A70244B00221A70244B02221A70234B04221A70234A224B1B78DBB243F00703DBB21370204A1F4B1B78D3
:40274000DBB243F00103DBB213701D4A1C4B1B78DBB263F07F03DBB2137000BF0837BD4680BD00BF80400040824000408440004086400040884000408A400040CC0D004876
:402780000041004000430040A14600400F0100490042004022420040204200402542004004400040064000400840004009400040014000400B400040A2430040A1430040B6
:4027C000A043004080B483B000AF204B1B78FB711F4AFB7903F00703DBB213701D4AFB791B09DBB213701C4B4FF409621A801B4B0C221A701A4B80221A701A4B20221A70AE
:40280000194B40221A70194B20221A70184B01221A70184B10221A70174B40221A70174B20221A70164B40F201121A80154B4FF481721A80144BA0221A70144B44221A7003
:4028400000BF0C37BD4680BC704700BFCF0100496E5800406F5800403C5100406C580040205A0040245A0040285A0040905A0040925A0040985A0040005B0040045B0040AE
:40288000425B0040465B0040585B00407658004080B500AF72B62F4B61221A70FFF7D8FE2C4B01221A702C4A2B4B1B78DBB243F00403DBB21370FFF711FE284B0A221A7052
:4028C00004212748FFF7E6FD264A264B1B78DBB243F00203DBB21370234A234B1B78DBB243F00203DBB21370204A204B1B78DBB243F04003DBB213701D4A1D4B1B78DBB275
:4029000043F01003DBB213700A221A491A48FFF7CFFD082219491A48FFF7CAFD0A2219491948FFF7C5FD082218491948FFF7C0FD184A184B1B78DBB243F00803DBB213706A
:40294000FFF740FF0E2209491348FFF7B1FD00BF80BD00BF00480040E846004083580040507600400350014013500140A0430040C2430040A40D0048F0510040B00D0048B0
:4029800012510040B80D004820510040C40D00483251004022430040B043004080B500AF05F000FD03461B680C2B00D1FEE7FEE780B586B000AF224B7B61224B3B61204BB7
:4029C0007B6135E03B691B68FB603B695B68BB603B699B683B6000237B600CE0FB681A68BB681A60BB680433BB60FB680433FB607B6804337B607A683B689A42EED13B6911
:402A0000DB683B6000237B6008E0BB6800221A60BB680433BB607B6804337B607A683B689A42F2D13B6910333B617B69013B7B617B69002BC6D105F0BBFCFFF75BF8FEE786
:402A400001000000188E000080B582B000AF194B194A1A60194A194B1B6843F40073136000237B600FE07B68032B04D8144A7B6852F8233000E0134B13497A6841F8223032
:402A80007B6801337B607B682F2BECD90F4B1B78DAB20F4B1A700F4B0B4A1A60FFF7F8FE00F02AFF0C4B00221A6000BF0837BD4680BD00BF0CED00E00004FA0514ED00E0EA
:402AC000000000009D2900000080FF1FBC760040C480FF1F08ED00E0C080FF1F90B585B002AF0446084611461A462346FB710346BB710B46BB8013467B80104B0A221A70B6
:402B00000E4B1878BA79F9790023019300230093002300F0F1FF094B1B787A88B988184600F090FF054B1B780221184600F058FF024B1B7818460C37BD4690BDD580FF1FA1
:402B400080B582B002AF324B01221A70314B00221A70102000F070FD102000F0A5FE07211D2001F071F92C4B04221A702B4B00221A702B4B00221A702A4A2A4B1B78DBB267
:402B800043F01803DBB21370274B00221A70274B00221A70264B00221A70264B0A221A70254B00221A70254B00221A70244B12221A70244B13221A70234B00221A70234B1C
:402BC00014221A700123009308234FF4004248F65C71052000F0C4F91D4A0D4B1B78DBB2013B1C499B000B449B7813701A4A084B1B78DBB2013B174931F823301380044B00
:402C00001B78DBB2184600F0FDF800BFBD4680BDD680FF1FBC02002096580040975800409E580040075B004093580040885B0040895B0040805800408158004083580040ED
:402C400088580040895800408D580040014E00400E4E0040C40200200C4E004080B582B000AF03F0F1FD0346FB71444B1B78BB71434A434B1B78DBB243F00103DBB21370C7
:402C80003F4A3F4B1B78DBB243F01003DBB213703C4A3C4B1B78DBB243F00103DBB21370384A384B1B78DBB243F01003DBB21370354A354B1B78DBB243F00203DBB2137035
:402CC000324A324B1B78DBB243F00203DBB213702F4A2F4B1B78DBB243F00303DBB21370032001F023F8284A274B1B78DBB223F00203DBB21370254A244B1B78DBB223F0AB
:402D00000203DBB21370234A224B1B78DBB243F00603DBB21370204B7A221A701F4A1F4B1B78DBB243F00103DBB213701C4A1C4B1B78DBB243F00103DBB21370194A194B72
:402D40001B78DBB243F00103DBB21370164A164B1B78DBB243F00103DBB21370134B4FF000521A60124B4FF000521A60FB79184603F06EFD00BF0837BD4680BDD680FF1F11
:402D8000AA430040BA430040F8460040F9460040915800407758004082580040A1430040B1430040A2430040B243004080E200E000E100E080B500AF084B1B78002B09D1D6
:402DC000074B1B78DBB2002B01D1FFF7B9FE034B01221A70FFF742FF00BF80BDBE020020BF02002080B400AF054A054B1B78DBB243F00103DBB2137000BFBD4680BC70472A
:402E0000004E004080B582B000AF0346FB71364B00221A70FB79012B62D1344B38221A70334B04221A70334B07221A70324B00221A70324B00221A70314B0F221A70314B72
:402E400000221A70304B00221A70304B00221A702F4B01221A702F4B14221A702E4B04221A702E4B09221A702D4B00221A702D4B22221A702C4B24221A702C4B01221A70CB
:402E80002B4B00221A702B4B00221A702A4B0A221A702A4B43221A70442000F019F9284B58221A70274B00221A70274B05221A70264B01221A70264B00221A70254B0A224A
:402EC0001A70254B3E221A6001210F2000F0F6FA0121F92000F02AFC20491D2000F08CFF00BF0837BD4680BDBD020020004E0040024E0040034E0040044E0040054E00406A
:402F0000064E0040084E0040094E00400A4E0040144E0040845800408558004086580040875800408A5800408B5800408C5800408E5800408F580040905800409158004019
:402F400094580040955800409A5800409B5800409C5800409D580040040500204D31000090B587B000AF0446084611461A462346FB710346BB800B467B801346BB7197F850
:402F80002830002B00F08B8097F82830012B00F28680FB79013B092B4AD801A252F823F0C92F00003130000031300000C92F00003130000031300000E32F0000FD2F0000D0
:402FC0003130000017300000BB790F2B04D9374B1B78DBB2FB752EE0354B1B78DBB2FB7529E0BB790F2B04D9324B1B78DBB2FB7521E0314B1B78DBB2FB751CE0BB790F2BD6
:4030000004D92E4B1B78DBB2FB7514E02C4B1B78DBB2FB750FE0BB790F2B04D9294B1B78DBB2FB7507E0284B1B78DBB2FB7502E00023FB7500BFBA8897F917305B01134487
:403040003B617B883A6902FB03F3FB60FB68DB0BBB82BB790D2B12D8BA8ABB79C3F10E0342FA03F3BB8297F82830013BBA790132D1B2164A9B0013440A469A7007E097F80A
:403080002830013B114A9B0013440F229A7097F82830013B0D49BA8A21F8232002E0002000F016FE00BF1C37BD4690BD180100491C010049190100491D0100491A0100497D
:4030C0001E0100491B0100491F010049C402002080B584B000AF0346FB7103F0B5FB0346FB73174A164B1B78DBB243F00303DBB21370144A134B1B78DBB243F00303DBB2C0
:403100001370114AFB791370032000F00FFE0C4A0B4B1B78DBB223F00303DBB21370094A084B1B78DBB223F00303DBB21370FB7B184603F08DFB00BF1037BD4680BD00BF62
:40314000F8460040F94600409258004080B400AF00BFBD4680BC704780B500AF064B00221A70064B00221A70042000F057F8022000F034F800BF80BD2C5800402D5800408C
:4031800080B400AF094A094B1B78DBB243F00803DBB21370064A064B1B78DBB243F00803DBB2137000BFBD4680BC7047A8430040B843004080B500AF074B1B78002B04D124
:4031C000FFF7CAFF044B01221A70FFF7D9FF7D2000F044F800BF80BDC802002080B483B000AF0346FB710C4A0B4B1B78DBB223F00203DBB213700849074B1B78DAB2FB79A2
:4032000003F00203DBB21343DBB20B7000BF0C37BD4680BC704700BF2C58004080B582B000AF0346FB710C4A0B4B1B78DBB223F00C03DBB213700849074B1B78DAB2FB7931
:4032400003F00C03DBB21343DBB20B7000F016F800BF0837BD4680BD2C58004080B483B000AF0346FB71044AFB79137000BF0C37BD4680BC704700BF835B004080B483B015
:4032800000AF0B4B1B78DBB203F00C039B08DBB20633FB71074AFB7903F1924303F59C731B78DBB2137000BF0C37BD4680BC70472C5800400B460040F8B500AF304A304B3C
:4032C0001B78DBB243F01003DBB213702D4A2D4B1B78DBB223F00103DBB213702A4B3F221A702A4B3F221A70294A2A4B104619464FF480731A4605F081F8274A254B10468A
:4033000019464FF480731A4605F078F8234A244B104619464FF480731A4605F06FF8214A214B104619464FF400731A4605F066F81E4A1F4B104619464FF400731A4605F029
:403340005DF81C4B1C4A14461E4604F1400E35462346186859689A68DB680FC5103410367445F4D1094B00221A70012000F07EF8002000F08FF8114BF8221A7000BFF8BD52
:40338000A643004080C7004088C700408CC7004000C400400886000000C5004000C60040488B000000C000400887000000C200400889000000C70040088B000084C7004084
:4033C00080B400AF0D4A0D4B1B78DBB243F01003DBB213700A4A0A4B1B78DBB243F01003DBB21370074A074B1B78DBB243F00103DBB2137000BFBD4680BC7047A6430040BE
:40340000B643004080C7004080B500AF064B1B78002B04D1FFF750FF034B01221A70FFF7CFFF00BF80BD00BFC902002080B485B000AF0346FB71FB79002B03D1094B1B7833
:40344000FB7308E0FB79012B03D1074B1B78FB7301E00023FB73FB7B18461437BD4680BC704700BFAAC70040AEC7004080B483B000AF0346FB71FB7903F01F03FB71044A75
:40348000FB79137000BF0C37BD4680BC704700BF98C7004080B483B000AF0346FB71FB7903F00F03FB71044AFB79137000BF0C37BD4680BC704700BF9CC7004080B584B007
:4034C00000AF03460A46FB8013467B7100F0CEF80346FB7300F0A4F80346BB81FA88BB899A4200F08880464B1B78DBB203F00103FB72FB7B002B20D1BB89002B02D0FB8841
:40350000002B1AD1BB89002B0BD13E4AFB8813803D4A3D4B1B78DBB223F04003DBB2137069E0394A384B1B78DBB243F04003DBB21370344AFB8813805DE0FB7A002B33D08E
:40354000324B00221A70324B01221A70314B00221A70314A304B1B78DBB203F07F03DBB21370294B1B78DBB203F00803002B02D0FB88002B18D1294ABB891380234B07222E
:403580001A7000BF214B1B78DBB203F00103002BF8D11B4A1A4B1B78DBB223F00103DBB213701A4B00221A70154B1B78DBB203F00103002B13D0194AFB881380134A7B79DA
:4035C000002B01D0032300E00123137000BF0F4B1B78DBB203F00103002BF8D10BE0094AFB8813800649064B1B78DAB2FB7A1343DBB20B70FFE700BF1037BD4680BD00BF2D
:40360000A24300408040004082400040014000401040004014400040084000400240004080B400AF034B1B889BB21846BD4680BC704700BF8040004080B483B000AF034621
:40364000FB710949084B1B78DBB25AB297F9073023F007035BB213435BB2DBB20B7000BF0C37BD4680BC70478240004080B400AF044B1B78DBB203F00703DBB21846BD467A
:4036800080BC70478240004080B500AF00F042F8044800F00FF8072000F01EF800F02EF800BF80BDA936000080B400AF00BFBD4680BC704780B485B000AF7860054B1B684B
:4036C000FB60FB68B4337A681A6000BF1437BD4680BC704708ED00E080B483B000AF0346FB71054AFB795B01DBB2137000BF0C37BD4680BC704700BF1DE400E080B400AF7F
:40370000034B4FF000521A6000BFBD4680BC704700E100E080B400AF034B4FF000521A6000BFBD4680BC704780E100E080B584B000AF03460A46FB8013467B7100F0CEF861
:403740000346FB7300F0A4F80346BB81FA88BB899A4200F08880464B1B78DBB203F00103FB72FB7B002B20D1BB89002B02D0FB88002B1AD1BB89002B0BD13E4AFB8813807D
:403780003D4A3D4B1B78DBB223F04003DBB2137069E0394A384B1B78DBB243F04003DBB21370344AFB8813805DE0FB7A002B33D0324B00221A70324B01221A70314B00221A
:4037C0001A70314A304B1B78DBB203F07F03DBB21370294B1B78DBB203F00803002B02D0FB88002B18D1294ABB891380234B07221A7000BF214B1B78DBB203F00103002BA6
:40380000F8D11B4A1A4B1B78DBB223F00103DBB213701A4B00221A70154B1B78DBB203F00103002B13D0194AFB881380134A7B79002B01D0032300E00123137000BF0F4B8C
:403840001B78DBB203F00103002BF8D10BE0094AFB8813800649064B1B78DAB2FB7A1343DBB20B70FFE700BF1037BD4680BD00BFA1430040004100400241004001400040C3
:403880001440004010400040084000400240004080B400AF034B1B889BB21846BD4680BC704700BF0041004080B483B000AF0346FB710949084B1B78DBB25AB297F90730C2
:4038C00023F007035BB213435BB2DBB20B7000BF0C37BD4680BC70470241004080B400AF044B1B78DBB203F00703DBB21846BD4680BC70470241004080B483B000AF134B91
:403900007F221A70124B80221A707F23FB710CE0FB79DB0003F1804303F5F043FA79013AD2B21A70FB79013BFB71FB79002BEFD1FB79DB0003F1804303F5F04300221A7094
:4039400000BF0C37BD4680BC704700BFD980FF1FD880FF1F80B485B000AF03460A46FB711346BB710123FB60FB79172B2FD8BB79002B0ED0FB791A01184B1344FA791101BA
:40398000164A0A441278D2B242F02002D2B21A700DE0FB791A01114B1344FA7911010F4A0A441278D2B222F02002D2B21A70FB791A010A4B1344FA791101084A0A44127854
:4039C000D2B242F00102D2B21A700023FB60FB6818461437BD4680BC704700BF1070004080B485B000AF03460A46FB711346BB710123FB60FB79172B1BD8FB791A01104B4D
:403A000013441B78DBB223F00E03FB72FB791A010B4B1344BA795200D2B252B202F00E0251B297F90B200A4352B2D2B21A700023FB60FB6818461437BD4680BC704700BFD7
:403A40001070004080B485B000AF0346FB710B46BB8013467B800123FB60BB8841F6FF72934202D14FF40053BB807B8841F6FF72934202D14FF400537B80FB79172B17D86D
:403A8000FB79DB0003F1804303F5EC430433BB60BB68BA881A80FB79DB0003F1804303F5EC430633BB60BB687A881A800023FB60FB6818461437BD4680BC704780B485B05F
:403AC00000AF03460A46FB711346BB710123FB60FB79172B07D8FB791A01064B1344BA795A720023FB60FB6818461437BD4680BC704700BF1070004090B484B000AF0446D3
:403B0000084611461A462346FB710346BB710B467B7113463B710123FB60FB79172B34D8FB79DB0003F1804303F5EC43BA7902F07F02D1B27A79D201D2B20A43D2B21A70B8
:403B4000FB79DB0003F1804303F5EC433A7E1201D1B23A7902F00F02D2B20A43D2B25A70FB79DB0003F1804303F5EC433A7F02F00F02D2B29A70FB79DB0003F1804303F580
:403B8000EC430022DA700023FB60FB6818461037BD4690BC704700BF80B582B000AFFF23FB7102F051FE0346BB71104B1B78182B12D90F4B1B78FB710C4B1B78013BDAB29E
:403BC0000A4B1A70FB79DB0003F1804303F5F0431B78DAB2064B1A70BB79184602F038FEFB7918460837BD4680BD00BFD880FF1FD980FF1F90B484B000AF044608461146EE
:403C00001A462346FB710346BB800B46BB711346FB700123FB6097F90730002B23DBBB8823F47F6323F00F039BB2002B1BD1FB79DB0003F1804303F5F043BB60BB68BA88A5
:403C40001A80FB79DB0003F1804303F5F043BA799A70FB79DB0003F1804303F5F043FA78DA700023FB60FB6818461037BD4690BC704700BF80B485B000AF0346FB710B46E6
:403C8000BB8013467B800123FB6097F90730002B17DBFB79DB0003F1804303F5F0430433BB60BB68BA881A80FB79DB0003F1804303F5F0430633BB60BB687A881A80002329
:403CC000FB60FB6818461437BD4680BC704700BF80B483B000AF0346FB7101BE00BF0C37BD4680BC704700BF80B582B000AF786008E00C4B1B68184602F09EFD7B68A3F551
:403D000000437B607B68B3F5004FF2D8064B1B687A6802FB03F3184602F08EFD00BF0837BD4680BDEC80FF1FE480FF1F80B582B000AF0346FB80FB88054A127802FB03F3CA
:403D4000184602F079FD00BF0837BD4680BD00BFE880FF1F80B483B000AF03460A46FB711346BB711D491D4B1B78DBB223F00303DAB2FB7903F00303DBB21343DBB20B706F
:403D8000164A164B1B78DBB263F07F03DBB21370124A124B1B78DBB203F07F03DBB213700E49BB795B01DBB203F06003DAB20B4B1B78DBB223F06003DBB21343DBB20B70B2
:403DC000064A064B1B78DBB243F01003DBB2137000BF0C37BD4680BC704700BF8343004080B400AF034B01221A7000BFBD4680BC704700BF8443004080B584B000AF034635
:403E00003960FB710F4B1B68FB60FB791F2B02D90020FFF75DFFFB7903F01F0310339B00FA6813441B68BB60FB7903F01F0310339B00FA6813443A681A60BB681846103778
:403E4000BD4680BD08ED00E080B582B000AF03460A46FB711346BB71BB79072B02D90020FFF736FFFB791F2B02D90020FFF730FFFB7903F01F0303F1604303F56443BA7931
:403E80005201D2B21A7000BF0837BD4680BD00BF80B483B000AF7860264B1B78DBB21A467B681A60244B1B78DBB21B027A6812681A437B681A60214B1B78DBB21B047A6819
:403EC00012681A437B681A601D4B1B78DBB21B067A6812681A437B681A607B680433194A1278D2B21A60184B1B78DBB21A027B6804337968043109680A431A60134B1B78D2
:403F0000DBB21A047B6804337968043109680A431A600F4B1B78DBB21A067B6804337968043109680A431A6000BF0C37BD4680BC704700BF0301004904010049EC460040A8
:403F4000020100490101004900010049050100490601004980B500AF0A4B0C221A700A4A094B1B78DBB243F02003DBB21370074B00221A70032000F05DF8012000F03EF8F5
:403F800000BF80BD08580040095800400A58004080B400AF0D4A0D4B1B78DBB243F00403DBB213700A4A0A4B1B78DBB243F00403DBB21370074A074B1B78DBB263F07F037B
:403FC000DBB2137000BFBD4680BC7047A9430040B94300407758004080B500AF064B1B78002B04D1FFF7B6FF034B01221A70FFF7CFFF00BF80BD00BFCA02002080B485B043
:4040000000AF0346FB710A4B1B78DBB223F00303FB73FB7903F00303DAB2FB7B1343FB73034AFB7B137000BF1437BD4680BC70470958004080B588B000AF0346FB71284AC3
:4040400007F114031068516803C3127A1A70254A07F108031068516803C3127A1A70FB79082B39D8204A204B1B78DBB223F07F03DBB213701C481C4B1B78DAB2FB7907F1FD
:4040800020010B4413F80C1CFB7907F1200E734413F8183C9B00DBB203F00C03DBB20B43DBB21343DBB20370104A104B1B78DBB223F00C03DBB213700C490C4B1B78DAB2F3
:4040C000FB7907F12000034413F8183C1343DBB243F00C03DBB20B7000BF2037BD4680BD488C0000548C00000A5800400958004080B400AF054B1B78DBB203F010031B0997
:40410000DBB21846BD4680BC704700BF2151004080B400AF054B1B78DBB203F020035B09DBB21846BD4680BC704700BF2151004080B485B000AF0346FB71094B1B78DBB2CD
:4041400003F07F03FB730649FB79DB01DAB2FB7B1343DBB20B7000BF1437BD4680BC70471051004080B500AF224A224B1B78DBB203F00103DBB213701F4A1F4B1B78DBB2E5
:4041800023F00303DBB213701C4A1C4B1B78DBB223F03003DBB21370184A184B1B78DBB243F03003DBB21370144A144B1B78DBB223F00F03DBB21370104A104B1B78DBB251
:4041C00043F00F03DBB213700D4A0D4B1B78DBB243F00103DBB213704FF6FF7000F064F84FF6FF7000F072F8082000F041F800BF80BD00BF004F0040024F00400B4F004080
:40420000014F004080B400AF0D4A0D4B1B78DBB243F00103DBB213700A4A0A4B1B78DBB243F00103DBB21370074A074B1B78DBB243F00103DBB2137000BFBD4680BC704726
:40424000A3430040B3430040004F004080B500AF064B1B78002B04D1FFF784FF034B01221A70FFF7CFFF00BF80BD00BFCB02002080B483B000AF0346FB71044AFB7913709B
:4042800000BF0C37BD4680BC704700BF034F004080B400AF034B1B78DBB21846BD4680BC704700BF034F004080B485B000AF0346FB80FB88FB81044AFB89138000BF143775
:4042C000BD4680BC704700BF044F004080B483B000AF0346FB80044AFB88138000BF0C37BD4680BC704700BF064F004080B582B000AF786000F03CF8786800F009F80720E2
:4043000000F018F800F028F800BF0837BD4680BD80B485B000AF7860054B1B68FB60FB6884337A681A6000BF1437BD4680BC704708ED00E080B483B000AF0346FB71054AAC
:40434000FB795B01DBB2137000BF0C37BD4680BC704700BF11E400E080B400AF034B4FF400321A6000BFBD4680BC704700E100E080B400AF034B4FF400321A6000BFBD4659
:4043800080BC704780E100E080B582B000AF786000F03CF8786800F009F8072000F018F800F028F800BF0837BD4680BD80B485B000AF7860054B1B68FB60FB68B0337A682B
:4043C0001A6000BF1437BD4680BC704708ED00E080B483B000AF0346FB71054AFB795B01DBB2137000BF0C37BD4680BC704700BF1CE400E080B400AF034B4FF080521A6021
:4044000000BFBD4680BC704700E100E080B400AF034B4FF080521A6000BFBD4680BC704780E100E080B485B000AF0346FB710B4B1B78DBB223F00203FB730849FB795B006B
:40444000DBB203F00203DAB2FB7B1343DBB20B7000BF1437BD4680BC704700BF2051004080B500AF032000F039F800BF80BD00BF80B400AF0D4A0D4B1B78DBB243F06003BC
:40448000DBB213700A4A0A4B1B78DBB243F00803DBB21370074A074B1B78DBB243F00803DBB2137000BFBD4680BC704777580040A4430040B443004080B500AF064B1B78DA
:4044C000002B04D1044B01221A70FFF7C9FFFFF7CFFF00BF80BD00BFCC02002080B483B000AF0346FB710C4A0B4B1B78DBB223F00303DBB213700849074B1B78DAB2FB799F
:4045000003F00303DBB21343DBB20B7000BF0C37BD4680BC704700BF5E58004080B500AF032000F039F800BF80BD00BF80B400AF0D4A0D4B1B78DBB243F06003DBB21370AF
:404540000A4A0A4B1B78DBB243F00203DBB21370074A074B1B78DBB243F00203DBB2137000BFBD4680BC704777580040A4430040B443004080B500AF064B1B78002B04D135
:40458000044B01221A70FFF7C9FFFFF7CFFF00BF80BD00BFCD02002080B483B000AF0346FB710C4A0B4B1B78DBB223F00303DBB213700849074B1B78DAB2FB7903F00303E4
:4045C000DBB21343DBB20B7000BF0C37BD4680BC704700BF5A58004080B485B000AF0346FB710B4B1B78DBB223F04003FB730849FB799B01DBB203F04003DAB2FB7B1343A4
:40460000DBB20B7000BF1437BD4680BC704700BF2051004080B485B000AF0346FB71094B1B78DBB203F07F03FB730649FB79DB01DAB2FB7B1343DBB20B7000BF1437BD46D2
:4046400080BC70472051004080B483B000AF0346FB71044AFB79137000BF0C37BD4680BC704700BF7B64004080B582B000AF786000F03CF8786800F009F8072000F018F8A6
:4046800000F028F800BF0837BD4680BD80B485B000AF7860054B1B68FB60FB684C337A681A6000BF1437BD4680BC704708ED00E080B483B000AF0346FB71054AFB795B0191
:4046C000DBB2137000BF0C37BD4680BC704700BF03E400E080B400AF034B08221A6000BFBD4680BC704700BF00E100E080B400AF034B08221A6000BFBD4680BC704700BFD9
:4047000080E100E080B582B000AF03460A46FB711346BB71094B1B78002B04D100F010F8064B01221A70BA79FB791146184600F0D9F800BF0837BD4680BD00BFCE020020B1
:4047400080B582B000AF02F07FF80346FB71544A534B1B78DBB243F00103DBB21370514A504B1B78DBB243F00103DBB213704E4B01221A704D4B02221A704D4A4C4B1B7878
:40478000DBB203F07F03DBB213700020FFF7CEFA484A484B1B78DBB223F00603DBB21370454A454B1B78DBB223F02003DBB21370404A404B1B78DBB243F00103DBB2137097
:4047C0000120FFF7B3FA2820FFF7B0FA3B4A3B4B1B78DBB203F07F03DBB21370374A374B1B78DBB223F04003DBB21370314A314B1B78DBB243F00203DBB213700220FFF75D
:4048000095FA2C4A2B4B1B78DBB243F00403DBB213702B4B00221A702A4B00221A70FB79184602F015F807211720FFF70DFB26491720FFF7E1FA07211820FFF705FB2349E9
:404840001820FFF7D9FA07211520FFF7FDFA20491520FFF7D1FA07210020FFF7F5FA1D490020FFF7C9FA07210120FFF7EDFA1A490120FFF7C1FA07210220FFF7E5FA174948
:404880000220FFF7B9FA07210C20FFF7DDFA14490C20FFF7B1FA00BF0837BD4680BD00BFA5430040B54300409D60004009600040106000409443004012600040F85100409D
:4048C0008460004085600040A55700008D50000099570000B1560000F956000045570000B157000080B582B000AF03460A46FB711346BB712E4AFB7913702E4B00221A7078
:404900002D4B00221A702D4B00221A702C4B00221A702C4B00221A702B4B00221A702B4B00221A702A4B4FF400021A60284B4FF080721A60264B4FF400121A60244B012281
:404940001A60234B02221A60214B04221A60BB79002B02D0012B09D011E01E4A1D4B1B78DBB223F00103DBB2137011E0194A194B1B78DBB243F00103DBB2137008E0154A01
:40498000144B1B78DBB243F00103DBB2137000BF114B03221A70114B80221A70012001F04BFF0F4B04221A7000BF0837BD4680BD21050020240500204005002043050020DF
:4049C0003805002042050020450500202005002000E100E00960004028600040086000401260004080B400AF0F4B00221A700F4B00221A700E4B00221A700E4B00221A70BF
:404A00000D4B00221A700D4B00221A700C4B00221A700C4B03221A700B4B80221A7000BFBD4680BC704700BF2405002040050020430500203805002042050020450500202B
:404A400020050020286000400860004080B400AF034B1B78DBB21846BD4680BC704700BF4305002080B483B000AF0023FB71084B1B78DBB2002B05D0054B1B78FB71044BFF
:404A800000221A70FB7918460C37BD4680BC70474005002080B483B000AF0346FB71FA79064913465B0013449B000B4401331B78DBB218460C37BD4680BC70474805002000
:404AC00080B485B000AF0346FB710023FB81FB79002B1CD0FB79082B19D8104AFB791B0113441B78DBB29BB203F00F03FB81FB891B029AB20949FB791B010B4401331B7813
:404B0000DBB29BB21343FB81FB89023BFB81FB8918461437BD4680BC704700BFFC5F0040B0B485B000AF03463960FB711346BB80FB79002B6DD0FB79082B6AD8B988FA796C
:404B4000364813465B0013449B00034406331B889BB2C3F5007399420CD9FA792F4913465B0013449B000B4406331B889BB2C3F50073BB802A4CF979BB881B0A9BB2D8B220
:404B8000FA79264D13465B0013449B002B4403331B78DBB20343DAB20B0123441A70204AFB79B988C9B21B01134401330A461A703B68002B13D00023FB810CE01948FB79A9
:404BC000FA8939680A4412781B01034408331A70FB890133FB81FA89BB889A42EED3FA790E4913465B0013449B000B44013300221A700B48F979FA79084C13465B001344C4
:404C00009B00234405331B78DAB20B01034402331A7000BF1437BD46B0BC704748050020FC5F00407060004080B584B000AF03463960FB711346BB803B68002B30D0FB7985
:404C4000002B2DD0FB79082B2AD8FB791846FFF737FF03461A46BB88934205D9FB791846FFF72EFF034600E0BB88BB800023FB810DE0FB893A6813440D49FA7912010A44F7
:404C800008321278D2B21A70FB890133FB81FA89BB889A42EDD3FB79184600F00BF801E00023BB80BB8818461037BD4680BD00BF7060004090B482B000AF0346FB71FB7943
:404CC000002B1CD0FB79082B19D8FA790E4913465B0013449B000B44013300221A700B48F979FA79084C13465B0013449B00234405331B78DAB20B01034402331A7000BFA5
:404D00000837BD4690BC704748050020FC5F004080B582B000AF0023FB71314B1B79DBB2184600F067F80346BB712D4B1B78DBB25BB2002B15DA2A4B5B78DBB2212B00D012
:404D400048E0284B07221A80BA791346DB009B1A254A1344234A536000F012FB0346FB7138E01F4B5B78DBB2202B02D0222B1AD030E01C4B07221A80BA791346DB009B1A95
:404D8000194A1344174A5360BB79BA7917498A5CD2B242F00102D1B2144AD15400F06EFB0346FB7116E0BB790D4A9278D2B291B20F4A22F81310BB79BA790C498A5CD2B29D
:404DC00042F00202D1B2094AD15400F0F5FB0346FB7100BFFB7918460837BD4680BD00BF006000402C050020F080FF1F080500201C05002080B485B000AF0346FB71002341
:404E0000FB73FF23BB7317E0FB7B104AD35C7B737A7B0F4913465B0013449B000B440A331B78DBB2FA799A4203D1FB7BBB730223FB73FB7B0133FB73FB7B012BE4D9BB7B2A
:404E400018461437BD4680BC704700BF100500204805002080B582B000AF0023BB71224B00221A70214B00221A70204B00225A700023FB7110E0FB791D4AD35C7B717B79DC
:404E8000002B06D07B79082B03D87B791846FFF711FFFB790133FB71FB79012BEBD9154B1B78DBB2002B18D0114B1B78DBB2002B13D0114B1B78DBB2002B0ED00D4B1B7892
:404EC000DBB2082B09D80A4B1B78DBB2082B04D8094B1B78DBB2082B01D90123BB71BB7918460837BD4680BDCF02002008050020140500200C0500201005002080B584B085
:404F000000AF78600B467B80144B1B781A46144B9B5CFB73FA7B134913465B0013449B000B4408331B889BB27A889A420CD9FA7B0C4913465B0013449B000B4408331B8837
:404F40007B800020FEF7C4FE7A88FB7B79681846FFF7E6FD00BF1037BD4680BDCF0200200C0500204805002080B500AF054B1B781A46054B9B5CDBB21846FFF78BFD0346DA
:404F8000184680BDCF0200201405002080B500AF054B1B781A46054B9B5CDBB21846FFF779FD0346184680BDCF0200200C05002080B584B000AF78600D4B1B781A460D4BCE
:404FC0009B5CFB73FA7B0C4913465B0013449B000B4408331B889AB2FB7B79681846FFF723FE0346BB81BB8918461037BD4680BDCF020020140500204805002080B485B0E9
:4050000000AF78600B46FB701346BB707B68DB7803F00303FB737B689B785BB2002B1ADAFB7B032B0AD0BB7803F001031449FA78CA54BB7843F00103BB701BE0BB789B08EF
:40504000DBB203F001030F49FA78CA54BB7843F00403BB700EE0FB7B032B0BD0BB785B08DBB203F001030849FA78CA54BB7843F00203BB70BB7818461437BD4680BC70475C
:405080000C050020100500201405002080B582B000AF374B1B78BB71BB7903F01003002B62D00123FB7197F90630002B12DABB7903F00F03012B02D00023FB711CE000F044
:4050C00061F82C4B1B78DBB25BB2002B14DA0023FB7111E0BB7903F04003002B02D000F095F809E0BB7903F02003002B02D000F0B3F801E00023FB71FB79002B34D01C4BF1
:405100001B78BB7197F90630002B2DDB1A4B1B78DAB21A4B1B78DBB21343BB71184ABB791370174B1B78DBB2BA799A421CD1114B1B78FB710E4B1B78DBB223F07F03BB7100
:40514000BB79002B0AD10A4B0A4A1278D2B21A70074B1B78DBB203F00F03FB71054B1B78DBB2FA799A42E2D100BF0837BD4680BD2860004041050020B605002044050020AF
:405180002960004080B582B000AF1D4B1B78FB711B4AFB7913701A4B1B78FB7197F90730002B03DA174AFB79137025E0022000F045FA154B1B78DBB203F06003202B08D073
:4051C000402B0BD0002B0ED100F0F8FA0346FB710CE001F041FB0346FB7107E001F000FB0346FB7102E00023FB7100BFFB79002B02D1044B03221A7000BF0837BD4680BD94
:4052000028600040410500200060004080B500AF104B1B78DBB2062B19D801A252F823F04F5200004F5200003D5200004F520000435200004F5200004952000000F0F8F8FC
:4052400006E000F0A7F903E000F0D2F900E000BF00BF80BD2405002080B500AF124B1B78DBB2062B1DD801A252F823F0A3520000A352000089520000A35200008F52000014
:40528000A35200009552000000F0D8F80AE000F027F907E0032000F0D1F9044B03221A7000E000BF00BF80BD240500204105002080B483B000AF0023FB71294B1B78DBB213
:4052C0009AB2284B1B889BB213449AB2254B1A8015E02549FB79254A52681278D2B2CA54224B5B680133214A5360FB790133FB711E4B1B889BB2013B9AB21C4B1A801B4B48
:405300001B889BB2002B02D0FB79072BE1D9144B1B78DBB2082B02D0FB79002B0FD0144B1B78DBB283F07F03DB43DAB2104B1A70104B0F221A70104B02221A7005E00D4BBF
:4053400002221A700C4B02221A700C4AFB791370034AFB79137000BF0C37BD4680BC70472005002022050020006000402C050020B605002041050020240500204405002081
:4053800080B582B000AF164B1B889BB2002B02D100F02EF81EE0134B02221A70124B00221A7000F06BF9114BDB79DBB29BB21B029AB20E4B9B79DBB29BB21343FB80084BAD
:4053C0001B889BB2FA889A4202D2054AFB881380FFF76EFF012318460837BD4680BD00BF2C05002024050020B60500200060004080B400AF094B02221A70094B80221A7089
:40540000084B0F221A70084B00221A70074B00221A7001231846BD4680BC704724050020B605002041050020200500204405002080B500AFFFF73CFF00BF80BD80B500AFBC
:405440000A4B1B78DBB29AB2094B1B889BB213449AB2074B1A80074B00221A70012000F0EDF8054B03221A7000BF80BD2005002022050020240500204105002080B582B007
:4054800000AF124B04221A70114B80221A7000F0F5F8104BDB79DBB29BB21B029AB20D4B9B79DBB29BB21343FB800B4B1B889BB2FA889A4202D2084AFB881380074B0B2263
:4054C0001A70012318460837BD4680BD24050020B6050020006000402C0500204105002080B483B000AF0023BB71234B1B78DBB203F00F03DBB2023BFB71FB799AB21F4B4E
:405500001B889BB213449AB21C4B1A8018E01C4B5B681C49BA798A5CD2B21A70184B5B680133174A5360BB790133BB71FB79013BFB71134B1B889BB2013B9AB2104B1A8040
:405540000F4B1B889BB2002B02D0FB79002BDED10D4AFB7913700D4B1B78DBB283F07F03DB43DAB2094B1A70094B0B221A7000BF0C37BD4680BC7047296000402205002040
:405580002C0500200060004044050020B60500204105002080B500AF054B00221A70012000F04CF8034B03221A7000BF80BD00BF240500204105002080B400AF084B062256
:4055C0001A70084B06221A70074B80221A70074B00221A7001231846BD4680BC704700BF2405002041050020B60500204405002080B500AF0D4B1B78DBB2002B0AD00C4ABF
:405600000A4B1B78DBB263F07F03DBB21370074B00221A70074B00221A70012000F00EF8054B03221A7000BF80BD00BF4205002008600040240500204105002080B483B01E
:4056400000AF0346FB710B4B9B68002B0CD0094B9B68FA791A70074B9B68074A128892B25A80044B00229A6000BF0C37BD4680BC704700BF2C0500202205002080B400AF17
:40568000094B00221A80094B9B68002B07D0074B9B6800221A70054B9B6800225A8000BFBD4680BC704700BF220500202C05002080B400AF0D4B01221A700D4B9B7C0D4B76
:4056C0001B7BDBB203F00303012B08D0094BDB7BDBB283F07F03DB43DAB2064BDA73054B01225A7300BFBD4680BC70470B600040FC5F00404805002080B400AF0E4B02220E
:405700001A700E4B93F822300D4B1B7EDBB203F00303012B08D00A4BDB7EDBB283F07F03DB43DAB2064BDA76054B01225A7600BFBD4680BC704700BF0B600040FC5F0040B6
:405740004805002080B400AF104B04221A70104B93F832300F4B93F82430DBB203F00303012B0AD00B4B93F82730DBB283F07F03DB43DAB2074B83F82720064B012283F85A
:40578000252000BFBD4680BC704700BF0B600040FC5F00404805002080B400AF00BFBD4680BC704780B500AFFFF71CF900BF80BD80B500AF01F02EF800BF80BD80B586B098
:4057C00000AF0023FB75B04B1B78FB7100233B61AE4B00221A8097F90730002B80F2FD80A94B5B78DBB20A2B00F2168201A252F823F000BF31590000195C0000195C0000D2
:40580000195C0000195C0000195C000021580000195C0000A5590000195C0000BB590000994BDB78DBB2012B0ED100F049FEB860BB685B68954A5360944B12221A80FFF75B
:405840009FFD0346FB75E9E18F4BDB78DBB2022B25D18D4B9B78DBB2184600F009FEB860BB68002B00F0DA81BB685B68874A5360864B5B6803331B78DBB29BB21B029AB2A4
:40588000824B5B6802331B78DBB29BB213439AB27E4B1A80FFF774FD0346FB75BEE17A4BDB78DBB2032B3ED10023FB73784B3B6109E03B691B78BB71BB793A6913443B610A
:4058C000FB7B0133FB73704B9B78DBB2FA7B9A4204D23B691B78DBB2002BEAD16A4B9B78DBB2002B0BD0684B9B78DAB2694B1B7C9A4204D1684800F0ABF9674B3B613B6985
:405900001B78DBB2002B00F089813B691B78DBB29AB25E4B1A805D4A3B695360FFF730FD0346FB757AE100F097FF0346FB7575E1FB7903F00303002B20D0022B00D030E070
:40594000524B02221A80504B1B79DBB203F07F02524913465B0013449B000B4402331B78DAB24F4B1A704E4B00225A70474B4C4A5A60FFF705FD0346FB7512E0434B0222D8
:405980001A80484B1B78DAB2454B1A70444B00225A703E4B424A5A60FFF7F2FC0346FB7500BF42E1394B01221A80384B3E4A5A60FFF7E6FC0346FB7537E1344B01221A80CD
:4059C000314B1B79DBB21A46384B13442F4A5360FFF7D6FC0346FB7527E12B4B5B78DBB2013B0A2B00F21C8101A252F823F000BFFD5A0000215C00008B5B0000215C00004F
:405A00001D5A0000215C0000215C0000215C0000315A0000215C0000B95A00001A4B9B78DAB2234B1A70FFF7C7FD0346FB75FCE0154B9B787B717B79002B06D07B79013B8E
:405A4000DBB2184600F014FDB8607B79002B02D0BB68002B03D17B79002B40F0E380124B1B78DBB27A799A4208D00F4A7B791370104B01221A70012000F0F2F9FFF79CFDD6
:405A80000346FB75CEE000BF006000402C050020CC8C0000748C0000BC05002048050020D00200204505002043050020B4050020420500204005002000F05AFE0346002B04
:405AC00000F0B2805B4B1B793B715A4B1B79DAB2594B1A703B79594AD35CDAB23B795849CB5CDBB29A4204D0564B01221A7000F091FBFFF761FD0346FB7595E0FB7903F02D
:405B00000303012B20D0012B0CD3022B00D03BE0484B9B78DBB2002B31D100F07DFD0346FB752CE0434B9B78DBB2012B29D1464B1B78DBB223F00203DAB2434B1A70FFF7DA
:405B40003BFD0346FB751CE03A4B1B79DBB2012B19D8384B9B78DBB2DB43DBB2354A1279D2B211461046394A125CD2B21340DAB2364B5A54FFF720FD0346FB7503E000BF7B
:405B800053E000BF51E000BF4FE0FB7903F00303012B20D0012B0CD3022B00D03BE0254B9B78DBB2002B31D100F0C2FC0346FB752CE0204B9B78DBB2012B29D1224B1B7847
:405BC000DBB243F00203DAB21F4B1A70FFF7F4FC0346FB751CE0174B1B79DBB2012B19D8144B9B78DBB2DB43DBB2124A1279D2B211461046154A125CD2B21340DAB2134BD5
:405C00005A54FFF7D9FC0346FB7503E000BF0CE000BF0AE000BF08E000BF06E000BF04E000BF02E000BF00E000BFFB7D18461837BD4680BD0060004038050020280500205E
:405C4000B40500204005002045050020B8050020B0B58AB000AF7860324B07F114041D460FCD0FC42B682370002387F826307B68002B52D07B6822221A707B68013303229F
:405C80001A7007F10C031846FEF702F9022387F827303EE097F827307A68134497F8262007F128010A4412F81C2C1209D2B207F128010A4412F8142C1A7097F8273001333B
:405CC0007A68134400221A7097F8273002337A68134497F8262007F128010A4412F81C2C02F00F0207F128010A4412F8142C1A7097F8273003337A68134400221A7097F8FF
:405D00002630013387F8263097F82730043387F8273097F82730212BBCD900BF2837BD46B0BD00BF608C000090B482B000AF0123FB7180E0464AFB791B0113440C221A70CD
:405D4000FA79444913465B0013449B000B4405331B78DBB2002B1CD0FA793E4913465B0013449B000B4404331B78DBB25BB2002B07DA394AFB791B01134402330C221A7009
:405D80000EE0354AFB791B011344023308221A7006E0314AFB791B011344023380221A702B48F979FA792B4C13465B0013449B00234406331B889BB2DAB20B0103440633E0
:405DC0001A702348F979FA79224C13465B0013449B00234406331B889BB21B0A9BB2DAB20B01034407331A701948F979FA79194C13465B0013449B00234406331B889BB22F
:405E0000DAB20B01034404331A701148F979FA79104C13465B0013449B00234406331B889BB21B0A9BB2DAB20B01034405331A70FB790133FB71FB79082B7FF67BAF074B33
:405E4000FF221A7000BF0837BD4690BC704700BF7060004048050020FC5F00400A60004080B58AB000AF0346FB7100237B84002387F8273050E097F82720B34913465B004E
:405E800013449B000B4400221A7097F82720AE4913465B0013449B000B44023300221A7097F82720A84913465B0013449B000B44033300221A7097F82720A34913465B003E
:405EC00013449B000B44083300221A8097F827209D4913465B0013449B000B440A3300221A7097F82720984913465B0013449B000B44013300221A7097F82720924913463A
:405F00005B0013449B000B44053300221A7097F82730013387F8273097F82730082BAAD9FB79002B16D0002387F825300EE097F82530864A0021D15497F82530844A00211E
:405F4000D15497F82530013387F8253097F82530012BECD97F4B1B78DBB2002B00F051810023FB767B4B1B78DBB2013BDBB2184600F07EFA78617B695B683B613B69073361
:405F80001B7803F04003002B08D0734B1B78DBB243F00103DAB2704B1A7007E06E4B1B78DBB223F00103DAB26B4B1A707B6908337B617B691B7887F82730012387F825304C
:405FC000B6E07B695B68FB61002387F82630A3E097F82520FB699B7803F07F039A4240F0938097F82520584913465B0013449B000B4408331B889AB2FB699B889A420CD2D9
:4060000097F82520FB6998884F4913465B0013449B000B44083302461A80FB691B781A464A4B9B5CDAB2FB695B789A426CD197F82520FB699878444913465B0013449B0024
:406040000B44043302461A7097F82520FB69D8783D4913465B0013449B000B4402461A70FB69DB7803F00303FB73FB699B785BB2002B1CDA97F82520FB7B012B01D10720C1
:4060800000E00D20304913465B0013449B000B44053302461A7097F825202B4913465B0013449B000B44013301221A701BE097F82520FB7B012B01D1052000E00920224961
:4060C00013465B0013449B000B44053302461A7097F825201C4913465B0013449B000B44013300221A70FB699B790A2B03D0FB699B79022B08D1FA7E97F825301946F86979
:40610000FEF77CFF0346FB76FB690833FB6197F82630013387F8263097F8262097F827309A42FFF455AF97F82530013387F8253097F82530082B7FF644AF7B695B68FB6150
:40614000002387F8253020E048050020B4050020280500204305002045050020FB699B7803F07F02FB691878284913465B0013449B000B440A3302461A70FB690833FB6174
:4061800097F82530013387F8253097F8252097F827309A42E2D300F0A5F902461C4B1A6000237B84012387F8273024E097F82720164913465B0013449B000B4406337A8C68
:4061C0001A8097F82720114913465B0013449B000B4408331B889AB27B8C13447B847B8C03F001039AB27B8C13447B8497F82730013387F8273097F82730082BD6D9FFF704
:4062000093FD00BF2837BD4680BD00BF480500203C05002090B585B000AF8F4B1B78DBB2002B00F015818C4B1B78DBB2013BDBB2184600F01DF978607B6808337B607B6837
:406240001B78FB707B685B68BB60844B1B78BB700023FB73F7E0BB681B78BA789A4240F0EC80BB787E4AD35CDAB2BB685B789A4240F0E380BB689B7803F07F037B70BB6836
:40628000DB7803F003033B707A78764913465B0013449B000B44033300221A707A78BB689878704913465B0013449B000B44043302461A707A78BB68D8786A4913465B00B7
:4062C00013449B000B4402461A707A78BB689888644913465B0013449B000B44083302461A80BB689B785BB2002B1ADA7A783B78012B01D1072000E00D205A4913465B0007
:4063000013449B000B44053302461A707A78554913465B0013449B000B44013301221A7019E07A783B78012B01D1052000E009204C4913465B0013449B000B4405330246D8
:406340001A707A78474913465B0013449B000B44013300221A70444A7B781B011344023301221A70404879787A783E4C13465B0013449B00234408331B889BB21B0A9BB2C7
:40638000DAB20B0103441A70374879787A78354C13465B0013449B00234408331B889BB2DAB20B01034401331A70304879787A782C4C13465B0013449B00234406331B8800
:4063C0009BB2DAB20B01034406331A70274879787A78244C13465B0013449B00234406331B889BB21B0A9BB2DAB20B01034407331A701E4879787A781A4C13465B001344E7
:406400009B00234406331B889BB2DAB20B01034404331A70154879787A78124C13465B0013449B00234406331B889BB21B0A9BB2DAB20B01034405331A70BB680833BB6031
:40644000FB7B0133FB73FA7BFB789A42FFF403AF00BF1437BD4690BD4305002038050020B405002048050020FC5F00407060004080B485B000AF0346FB710F4B1B78DBB244
:406480000E4ADB0013445B68FB60FB681033FB60FB681B78FA799A4202D30023FB6005E0FB79DB00FA6813445B68FB60FB6818461437BD4680BC704721050020CC8D0000EF
:4064C00080B400AF054B1B78DBB2054ADB0013445B681846BD4680BC704700BF21050020CC8D000080B584B000AF104B1B78DBB2013BDBB21846FFF7BBFFB860BB68002B83
:406500000DD0BB685B681B79FB71FB790233DB00BA681344BB60BB685B68FB6001E00023FB60FB6818461037BD4680BD4305002080B582B000AF0023FB71344B1B79DBB2EB
:4065400003F07F03BB71BB79002B5AD0BB79082B57D8BA79B9792E480B465B000B449B00034402331B78DBB243F00103D8B2284913465B0013449B000B44023302461A7020
:40658000BA79234913465B0013449B000B44033300221A70BA79B9791D480B465B000B449B00034401331B78DBB243F00203D8B2174913465B0013449B000B4401330246D7
:4065C0001A70BA79124913465B0013449B000B4404331B78DBB25BB2002B07DA0D4ABB791B01134402338D221A7006E0094ABB791B011344023389221A70FEF7DDFF03464E
:40660000FB71FB7918460837BD4680BD0060004048050020FC5F004080B582B000AF0023FB71504B1B79DBB203F07F03BB71BB79002B00F09280BB79082B00F28E80BA79F8
:40664000B97949480B465B000B449B00034402331B78DBB223F00103D8B2434913465B0013449B000B44023302461A70BA793E4913465B0013449B000B44033300221A706B
:406680003A49BB793948BA79120102441278D2B202F07F02D2B21B010B441A70BA79B97931480B465B000B449B00034401331B78DBB223F00203D8B22B4913465B001344EC
:4066C0009B000B44013302461A70BA79264913465B0013449B000B4404331B78DBB25BB2002B1BDABA79204913465B0013449B000B4401331B78DBB2012B07D11B4ABB790D
:406700001B01134402330C221A7022E0174ABB791B01134402330D221A701AE0BA79124913465B0013449B000B4401331B78DBB2012B07D10D4ABB791B01134402330822CF
:406740001A7006E0094ABB791B011344023309221A70FEF731FF0346FB71FB7918460837BD4680BD0060004048050020FC5F004080B584B000AF0023FB73154B1B79BB7327
:40678000144B1B78DBB2013BDBB21846FFF770FEB860BB685B681B79FB71BA7BFB799A4202D9BB7B022B0ED8BB7BBA7B0A498A5CD1B20A4AD154BB7B054A9278D1B2064A26
:4067C000D1540123FB73FB7B18461037BD4680BD0060004043050020B40500202805002080B483B000AF0023FB71094B1B78DBB25BB2002B06DA064B5B78DBB2012B00D07B
:4068000000E000BFFB7918460C37BD4680BC70470060004080B400AF054B1B78DBB203F040039B09DBB21846BD4680BC704700BF8F450040000000000230800803D000BFE1
:4068400001380046FCD17047EFF3108072B6704780F31088704700BF80B582B000AF0023BB711B4B1B78DBB203F00303012B02D0022B04D012E0164B1B79FB7111E0144BBD
:406880001B79DBB203F07F02124913465B0013449B000B440A331B78FB7102E00023FB7100BFFB79022B0ED80B4B1A68FB7913441B78022B04D1FEF72BFA0346BB7102E057
:4068C0000023BB7100BFBB7918460837BD4680BD00600040480500203C0500202DE9F04F8DB006460F4614461D4600F091F9DFF81093CDE9000199F90080B8F1FF3F46D061
:4069000022462B462046294601F016FD834600283DD132463B463046394601F00DFD8246002874D1304639460022002301F0D2FC002833D0002200232046294601F0CAFC93
:406940008346B8B1A94A012300200021CDF828A0CDE90467CDE90645CDE9080103920293B8F1000F6CD0A24B0022104619460DB0BDE8F08F2046294600F074FF38B1002219
:4069800000232046294601F0AFFC00286AD1DDE90023104619460DB0BDE8F08FDDE9000100F060FF804600287DD0DDE900014FF0000A4FF0000B52465B4601F08BFC0028DD
:4069C000E5D03046394600F04DFF0028DFD02046294600F047FF0028D9D099F90030834804210022022BCDE90467CDE90645CDE908AB039002910A9204D002A800F038FF0B
:406A0000002847D101F0CEFC2223036042E0002200232046294601F05DFC0028B7D0744B724800220121B8F1020FCDF828B0CDE90467CDE90645CDE9082303900291A8D0C9
:406A400002A800F015FF00287ED00A9B43B301F0A9FCDDE908230A990160104619460DB0BDE8F08F614999F900300122CDF828B0CDE90467CDE9064503910292002B68D05D
:406A80005C490020022BCDE9080166D101F08AFC212303600A9B1BB101F084FC0A9B0360DDE9082375E73046394600F0DBFE00283FF47BAF2046294600F0D4FE00283FF464
:406AC00074AFDDE900231046194601F035FC00286FD1464B99F90080039303230A90CDE90467CDE906450293B8F1000F3BD1DFF814B14FF0604A0022002330463946CDE962
:406B000008AB01F0F1FB00283FF477AF00223A4B2046294601F076F904460D4600F0B0FE02460B462046294601F0D4FB00283DD1324B4FF06042CDE9082399F90080B8F1CF
:406B4000020F7FF45AAF5DE701F02CFC212303607BE700230024CDE9083402A800F088FE002897D192E7DFF8A0B04FF0000A0022002330463946CDE908AB01F0B5FB0028E4
:406B8000DDD000221C4B2046294601F03BF904460D4600F075FE02460B462046294601F099FB18B9134B0022CDE9082399F90080C5E70E4A99F900900123CDF82880CDE901
:406BC0000467CDE9064503920293B9F1000FC0D0002200231046194601F03EFAB9F1020FCDE908013FF452AFB7E700BFD48D00000000F03F0000F0FF0000E03FFFFFEFC736
:406C00000A81FF1FFFFFEF470000F07F000000002DE9F04F23F0004858EA020993B03CD0714C21F00046A64283460D460CDD06F1404606F5801656EA0B0038D183466B49DC
:406C4000584613B0BDE8F08F9A4696462BD0A045EDDC654CA04578D0002D0F468146CDE9002376DB0024BEF1000F27D15E4B984500F08B805D4B984552D0BAF1804F00F06D
:406C8000C9835B4B9A4519D1002D17DB4846394613B0BDE8F04F00F01DBDCB465846534913B0BDE8F08F0028C1D1B045D1DD514813B0BDE8F04F00F0DDBD002448463946F2
:406CC00000F0CCFDBBF1000F1CD0ED0F013D54EA050370D0484B984540F3948003F10473984540F30D84454B9E4270DDBAF1000F70DD3BA3D3E900231046194601F082F810
:406D000083469DE726B1394B25F040429A42DCD1BAF1000FC0F2B783002D08DB83468FE7BAF1000FC0F25E84CB46394688E706F1404606F5801656EA040300F08384012CD0
:406D4000ECD101F1004183467AE7BEF1000F83D06DE72B4B98452CDCA3F15473984581DD4FEA2853A3F2FF33142B40F35384C3F134032EFA03F202FA03F39E457FF472AF6E
:406D800002F00102C2F102046DE706F1404303F5801353EA0B0300F03A83184B9E4240F36783BAF1000F15DBDDE900349B46214646E7022457E74A4648463B46394600F0E9
:406DC0006DFE02460B4601F047F9834638E7BAF1000F8EDB4FF0000B594631E7AFF300809C7500883CE4377E0000F07F0000F03F0000E03FD88D00000000E041FFFFEF3F53
:406E0000FFFF3F43B6F5801F4FF0000205DAD04B00F0F8FF0E466FF03402DFF844E33315C6F31306A3F2FF3346F07F57764503EB020A47F4401740F3C983C64B00229E42B9
:406E400040F304840023CDE90823CDE90C23C24B0022CDE906230AF1010AA7F5801700263946DDE90623CDE90A0100F017FEDDE9062380468946DDE90A0100F011FE024631
:406E80000B460020B44901F0E7F80A4601461346CDE90E1202464946404600F0B3FF8C4683467B1043F0005303F5002399190020CDE904BC06460F464FF0000B6146584690
:406EC00032463B46CDE910BCCDE9020100F09AFF02460B464046494600F0E0FDDDE90623804689463046394600F0D8FD02460B46DDE90A0100F0D2FDDDE9022300F082FF97
:406F000002460B464046494600F0C8FDDDE90E2300F078FFDDE90478CDE906013A4643463846414600F06EFF77A3D3E9002306460F4600F067FF76A3D3E9002300F0B0FDA1
:406F400032463B4600F05EFF73A3D3E9002300F0A7FD32463B4600F055FF71A3D3E9002300F09EFD32463B4600F04CFF6EA3D3E9002300F095FD32463B4600F043FF6CA3A7
:406F8000D3E9002300F08CFD3246804689463B463046394600F036FF02460B464046494600F030FFDDE9022306460F46DDE9040100F076FDDDE9062300F024FF32463B464F
:406FC00000F06EFDDDE902678046894632463B463046394600F016FF0022604BCDE90A0100F05EFD42464B4600F05AFDDDE910BC0F46DDE902015A463B46CDE90EBC5E4651
:4070000000F000FF0022CDE90201544B3046394600F044FDDDE90A2300F040FD02460B464046494600F03AFDDDE9042300F0EAFE324680468946DDE906013B4600F0E2FEDC
:4070400002460B464046494600F02AFD8046894602460B46DDE9020100F022FDDDE90EBC35A3D3E900235846CDE906BC5E460F4600F0C8FEDDE90223CDE90401304639469E
:4070800000F00CFD02460B464046494600F006FD2BA3D3E9002300F0B5FE2BA3D3E90023804689463046394600F0ACFE02460B464046494600F0F4FCDDE90C2300F0F0FCB6
:4070C00080465046894600F037FE06460F46DDE9040142464B4600F0E3FCDDE9082300F0DFFC32463B4600F0DBFCDDE906BC324658463B46DA468B4600F0D0FCDDE90823B3
:4071000030E000BFAFF30080EF4E454A287ECA3F65DBC9934A86CD3F01411DA96074D13F4D268F515555D53FFFAB6FDBB66DDB3F033333333333E33F000000E009C7EE3F3C
:40714000FD033ADC09C7EE3FF5015B14E02F3EBE0000404379B60B000000F03F000008408E98030000F09AFCDDE9042300F096FC02460B464046494600F090FC804689467B
:40718000DDE90012013C54EA050314BFD64CD74C0023CDE904340B461446CDE9023400230293DDE9024508462B461146224600F075FC52465B4600F025FEDDE9002306468F
:4071C0000F464046494600F01DFE02460B463046394600F065FC06460F4622462B4650465946CDE9006700F00DFE0B460246804689463046394600F053FCBD4B06469942E3
:407200000D460C4640F30E8101F13F4303F5E003034340F0F081A0A3D3E90023DDE9000100F03EFC424682468B464B463046294600F034FC02460B465046594601F072F8BE
