:400000000080002011000000692000006920000008B5044B1A6803F53F5302331A6002F03DF800BFFA46004010B5054C237833B9044B13B10448AFF300800123237010BD2E
:40004000F881FF1F00000000588B0000084B10B51BB108480849AFF300800848036803B910BD074B002BFBD0BDE81040184700BF00000000588B0000FC81FF1F0881FF1F9B
:400080000000000000F1080343604FF0FF328260C360036100230360704700BF00230361704700BF43684B609A688A609A68516099600861036801330360704730B40D6866
:4000C000B5F1FF3F01D1026907E000F1080200E01A4653681C68AC42FAD953684B6099608A605160086103680133036030BC704703694268816891608268416851605A68BF
:40010000824201D182685A6000220261186801381860704706480068006880F3088862B661B6BFF34F8FBFF36F8F00DF00BF000008ED00E04FF0807340F8043C40F8081C0F
:40014000034B40F80C3C40F8202C4038704700BFA1010000074B19680868B0E8F00F80F30988BFF36F8F4FF0000080F311884EF00D0E7047E882FF1F4FF08052034B1A6053
:40018000BFF34F8FBFF36F8F704700BF04ED00E0EFF311804FF0A00181F311887047002008B5FFF7F5FFFEE708B5FFF7F1FF044A136801331360BFF34F8FBFF36F8F08BDDD
:4001C0000C81FF1F80F31188704700BF08B5044A1368013B136013B90020FFF7F3FF08BD0C81FF1FEFF30980BFF36F8F0D4B1A6820E9F00F10602DE908404FF0A00080F33C
:40020000118800F01BFD4FF0000080F31188BDE8084019680868B0E8F00F80F30988BFF36F8F7047E882FF1F08B5FFF7B1FF00F0C7FB18B14FF08052024B1A600020FFF79E
:40024000C1FF08BD04ED00E0034A044B1A600722043B1A60704700BFCF01010014E000E008B5094B1A6842F460021A601A6842F060421A60FFF7E8FF0022044B1A60FFF7E2
:4002800049FFFFF78DFF00BF20ED00E00C81FF1F10B50446FFF788FFA26BE36B9A4201D1012400E00024FFF791FF204610BD00BF10B50446FFF778FFA36B0BB9012400E094
:4002C0000024FFF783FF204610BD00BF38B504461546026C3AB903685BBB406800F0FCFD002363602CE06DB9806806F0CDFBA268236C1344A360626893421CD32368A3609E
:4003000000201DE0C06806F0BFFB236C5B42E2681A44E26021688A4202D262681344E360022D0AD1A36B53B1A36B013BA363002006E0002004E0002002E0002000E000208D
:40034000A36B0133A36338BD026C72B110B5C3681344C3604468A34201D30368C36003460846D96806F090FB10BD704710B50446FFF71AFF0BE0636A63B104F1240000F082
:40038000DDFC08B100F048FDA36C013BA364A36C002BF0DC4FF0FF33A364FFF717FFFFF703FF0BE0236963B104F1100000F0C6FC08B100F031FD636C013B6364636C002BBD
:4003C000F0DC4FF0FF336364FFF700FF10BD00BF38B504460D46FFF7E7FE2168E26B236C03FB021060600020A063A160013A02FB0313E3604FF0FF336364A36455B9236950
:4004000083B104F1100000F099FC01280AD1FFF7B3FE07E004F11000FFF734FE04F12400FFF730FEFFF7D2FE012038BD70B506460D4619B101FB00F0013000E000204C30FF
:4004400000F0B4FD044658B10DB9206002E000F14C030360E663256420460121FFF7B8FF204670BDF0B585B004460F4601921E460025FFF799FEA26BE36B9A4201D3022EC6
:4004800016D1204639463246FFF720FF636A43B104F1240000F052FC012805D1FFF76CFE02E008B1FFF768FEFFF790FE012042E0019B1BB9FFF78AFE00203CE01DB902A804
:4004C00000F074FC0125FFF781FE00F06FFAFFF76BFE636CB3F1FF3F01D100236364A36CB3F1FF3F01D10023A364FFF76FFE02A801A900F065FCC0B92046FFF7C9FE70B12A
:4005000004F11000019900F0EDFB2046FFF72EFF00F0D8FA0028ACD1FFF72EFEA9E72046FFF724FF00F0CEFAA3E72046FFF71EFF00F0C8FA002005B0F0BD00BF38B54C201C
:4005400000F034FD0446C8B10025456005608560C56085630123C36305644FF0FF33436483641030FFF78EFD04F12400FFF78AFD204629462A462B46FFF774FF204638BDF3
:400580002DE9F04104460F4690461D46FFF700FE0646A26BE36B9A4201D3022D1BD1204639462A46FFF792FEA36CB3F1FF3F0DD1636A93B104F1240000F0C0FB78B1B8F165
:4005C000000F0ED00124C8F800400BE0A36C0133A364012406E0002404E0012402E0012400E001243046FFF7EDFD2046BDE8F081F0B585B004460F4601921E460025FFF713
:40060000D3FDA36B33B3E56820463946FFF79CFE96B9A36B013BA363236813B900F09EFC6060236993B104F1100000F087FB01280CD1FFF7A1FD09E0E560636A33B104F13F
:40064000240000F07BFB08B1FFF796FDFFF7BEFD01204BE0019B1BB9FFF7B8FD002045E01DB902A800F0A2FB0125FFF7AFFD00F09DF9FFF799FD636CB3F1FF3F01D10023C4
:400680006364A36CB3F1FF3F01D10023A364FFF79DFD02A801A900F093FB08BB2046FFF707FEB8B1236833B9FFF77EFD606800F0BBFBFFF78BFD04F12400019900F012FB13
:4006C0002046FFF753FE00F0FDF9002897D1FFF753FD94E72046FFF749FE00F0F3F98EE72046FFF743FE00F0EDF9002005B0F0BD10B50446FFF758FDA46BFFF767FD204604
:4007000010BD00BF094B9B6A1B680BB9012300E0002323B14FF0FF32044BDA627047034B9A6AD268D2685268DA6270471482FF1F10B50446006B00F093FC204600F090FCDE
:4007400010BD00BF70B506460C4619B9800000F02DFC044654B1502000F028FC054608B1046304E0204600F07BFC00E0002525B1286BA521B20006F092F9284670BD00BF0F
:4007800070B504461546002306E0C85CE21882F83400CA5C12B101330B2BF6D9002384F83F30042D00D90425E562256400266664201DFFF773FC04F11800FFF76FFC2461E2
:4007C000C5F10505A5616462A66484F84C6070BD70B5002407E004EB84039B0010481844FFF750FC0134042CF5D90E4C04F194063046FFF747FC04F1A8052846FFF742FCC8
:4008000004F11400FFF73EFC04F1BC00FFF73AFC2046FFF737FCA662C4F8D05070BD00BF4482FF1F1482FF1F38B504460E4BD3F8D4205060D3F8D830984208D20A4BD3F805
:40084000D000D3F8D4100431FFF738FC38BD064DA86AD5F8D4100431FFF730FCEB6A9C4200D2EC6238BD00BF1482FF1F2DE9F04782B081468A46164698460B9F10460C9988
:40088000FFF760FF002854D00446036B06F18045013D03EB850525F00705009651460A9A0D9BFFF76DFF284649464246FFF742FC206007B13C60FFF777FC284BD3F8DC2041
:4008C0000132C3F8DC20D3F8D4304BB9234BC3F8D440D3F8DC30012B10D1FFF779FF0DE01E4BD3F8E0304BB91C4BD3F8D430DB6A0A9A934202D8194BC3F8D440174AD2F84B
:40090000E4300133C2F8E430E36A012505FA03F0D2F8E8100143C2F8E810303203EB830080001044211DFFF7BDFBFFF74FFC2C4601E04FF0FF34012C0CD1084BD3F8E030B3
:4009400043B1064BD3F8D430DB6A0A9A934201D2FFF712FC204602B0BDE8F0871482FF1F00B585B0002300930193029303930C480C496422FFF77AFF01280DD1FFF708FCE8
:40098000094B4FF0FF32DA620122C3F8E0200022C3F8D820FFF764FC05B05DF804FB00BF350C0000688B00001482FF1F034AD2F8F0300133C2F8F030704700BF1482FF1F0F
:4009C0002DE9F0413E4BD3F8F030002B66D13C4BD3F8D8200132C3F8D820D3F8D880B8F1000F0CD19A6AD3F8D0109962C3F8D020D3F8F4200132C3F8F420FFF783FE304BCA
:400A0000DB6A984503D200273CE0012700E000272B4B9B6A1B680BB9012300E0002323B14FF0FF32264BDA622CE0254B9B6ADB68DC686368984502D2214AD36222E0261D0A
:400A40003046FFF755FBA36A1BB104F11800FFF74FFBE06A01238340194DD5F8E8201343C5F8E83005F1300300EB8000800018443146FFF717FBE26AD5F8D430DB6A9A42D0
:400A8000C3D2C5E70E4AD2F8D430DB6A03EB83039B0013441B6B012B08D808E0084AD2F8F8300133C2F8F830002700E00127044BD3F8FC3003B101273846BDE8F08100BFAC
:400AC0001482FF1F70B5FFF76FFB304BD3F8F020013AC3F8F020D3F8F030002B4ED12B4BD3F8DC3033BB00244BE0284C236ADD6805F11800FFF7FCFA2E1D3046FFF7F8FAB9
:400B0000E86A01238340D4F8E8201343C4F8E83004F1300300EB8000800018443146FFF7C1FAEA6AD4F8D430DB6A9A4202D30122C4F8FC20154B5B69002BD6D1134BD3F8B3
:400B4000F8306BB911E0FFF73BFF18B101220F4BC3F8FC200D4AD2F8F830013BC2F8F8300A4BD3F8F830002BEDD1084BD3F8FC30012B05D1FFF700FB012402E0002400E00B
:400B80000024FFF723FB204670BD00BF1482FF1F10B5F0B10446FFF709FF104BD3F8D8201444D3F8D4000430FFF7A2FA58B90B4BD3F8D420D16A01228A40D3F8E81021EA52
:400BC0000202C3F8E8202046FFF72EFEFFF77AFF00E0002008B9FFF7CFFA10BD1482FF1F38B51FE0FFF7E2FE114BD3F8BC40FFF769FFBCB1FFF7D8FA0D4CD4F8C830DD685C
:400C0000281DFFF775FAD4F8DC30013BC4F8DC30D4F8EC30013BC4F8EC30FFF7D7FA2846FFF786FD024BD3F8EC30002BDAD138BD1482FF1F08B5FFF7D3FFFCE7274BD3F82C
:400C4000F03023B10122254BC3F8FC20704710B5224B0022C3F8FC20D3F8D4301B6B1A68B2F1A53F0BD15A68B2F1A53F07D19A68B2F1A53F03D1DB68B3F1A53F07D0174B78
:400C8000D3F8D400D3F8D410343100F0A9FC1348D0F8E830B3FA83F3DBB2C3F11F039A00D118890001444C6B64684C631A44920002443832944206D1606803EB8301890098
:400CC000074A0A445060054A03EB83039B0013445B6BDB68C2F8D43010BD00BF1482FF1F4482FF1F38B50D46134CD4F8D4101831FFF7E4F9D4F8D4000430FFF7F9F950B9D5
:400D0000D4F8D420D16A01228A40D4F8E81021EA0202C4F8E820B5F1FF3F06D10648D0F8D4100431FFF7BEF938BD034BD3F8D8002844FFF779FD38BD1482FF1F38B5C3681E
:400D4000DC6804F118052846FFF7D2F9154BD3F8F030ABB9251D2846FFF7CAF9E36A01229A401048D0F8E8100A43C0F8E820303003EB83039B0018442946FFF793F903E0C8
:400D800009482946FFF78EF9E26A064BD3F8D430DB6A9A4204D90120024BC3F8FC0038BD002038BD1482FF1F2882FF1F034BD3F8F4200260D3F8D830436070471482FF1F71
:400DC00038B504460D46FFF7EFF9124BD3F8D8202B68B3F1FF3F14D020680E49D1F8F410884202D0616891420DD96168501A83420BD98A1A13442B602046FFF7D7FF002490
:400E000004E0002402E0012400E00124FFF7DEF9204638BD1482FF1F0122024BC3F8FC20704700BF1482FF1F002850D038B50346C16A274AD2F8D420D26A914246D2826967
:400E4000002A06DB224AD2F8D420D26AC2F1050282615969DA6A02EB820292001D480244914201D1012200E0002252B31D461C1D2046FFF73DF978B9EA6A02EB82039B0021
:400E800013490B441B6B3BB901239340D1F8E82022EA0303C1F8E8300D48D0F8D430DB6AEB6201229A40D0F8E8100A43C0F8E820303003EB83039B0018442146FFF7F2F8D3
:400EC00038BD034AD2F8D420D26ADA6238BD70471482FF1F4482FF1F002837D038B50346426C013A4264C06A196C884230D08ABB1C461D1D2846FFF7FBF878B9E26A02EB27
:400F000082039B0014490B441B6B3BB901239340D1F8E82022EA0303C1F8E830236CE362C3F10502A261012404FA03F10A48D0F8E8200A43C0F8E820303003EB83039B0079
:400F400018442946FFF7AEF8204638BD00207047002038BD002038BD1482FF1F064BD3F8D4302BB1044BD3F8D420536C01335364014BD3F8D40070471482FF1F094A22F08B
:400F80000702094BC3F838290020C3F83C0947F6F871C3F84419C3F84009516003F51463136070471C83FF1FDCF9FF1F70B50446FFF7FCFC264BD3F848392BB9FFF7DEFF0B
:400FC0000122234BC3F8482934B1083414F0070F02D024F007040834621E47F6F6739A422BD81B49D1F8383901F6381101E0194613465A68A24202D21A68002AF7D1154A03
:4010000093421CD00D6808351A680A605A68121B102A0CD91E1972605C6074680E4900E011460A685068A042FAD332600E6059680A4A13685B1A136002E0002500E00025B7
:40104000FFF740FD0DB900F0CFFA284670BD00BFDCF9FF1F1C030020140300201081FF1FD0B170B50546A0F10806FFF79FFC55F8044C0A4A00E01A4613685968A142FAD30E
:4010800045F8083C166055F8041C054A13680B441360FFF717FD70BD704700BF140300201081FF1F704700BF70B582B000268DF80760354602F012FA044602F007FA00EB2D
:4010C0004400C0B2B04212D0032806D1022E04D19DF8073001338DF80730032806D1012E04D19DF80730013B8DF8073006460135ADB2312D0FD99DF807305BB1084B186807
:401100000DF1070100221346FFF7ACF900258DF8075000E000250320FFF73AFDCAE700BFF403002070B50646134B1D785878002102F09CFB012001F039FB45F0FC0002F06F
:40114000F1FB05F00F0545F00C04204602F0EAFB44EA0614E4B244F0040002F0E3FB012001F024FB04F0FB0002F0DCFB012001F01DFB02F0BBFB70BD1481FF1F38B505463F
:40118000184B1C785878002102F070FB012001F00DFB44F0010002F0C5FB04F0FD0040F0010002F0BFFB002001F000FB04F00D0343F00104204602F0B5FB44EA0514E4B2EE
:4011C00044F0040002F0AEFB012001F0EFFA04F0F90002F0A7FB012001F0E8FA02F086FB38BD00BF1481FF1F08B5012001F0DEFA08BD00BF10B50446FFF7F6FF2009FFF78E
:40120000BDFF04F00F00FFF7B9FF10BD38B505460078012404E0FFF7EDFF285D0134E4B20028F8D138BD00BF10B50446FFF7DCFF2009FFF777FF04F00F00FFF773FF10BD37
:4012400008B5282001F09CFA0320FFF76BFF052001F096FA0320FFF765FF0F2001F090FA0320FFF75FFF012001F08AFA0220FFF759FF052001F084FA0620FFF7D5FF0E2063
:40128000FFF7D2FF2C20FFF7CFFF0820FFF7CCFF0120FFF7C9FF0C20FFF7C6FF0320FFF7C3FF052001F06CFA08BD00BF08B50C20FFF7BAFF0122014B1A7008BD280300202C
:4012C00008B5054B5B7823B9FFF7BAFF0122024B5A70FFF7EBFF08BD2803002008B5032819D8DFE800F002070D1381F08000FFF79BFF08BDA1F14000C0B2FFF795FF08BDC7
:40130000A1F16C00C0B2FFF78FFF08BDA1F12C00C0B2FFF789FF08BD002303E00021034AD1540133012BF9D9704700BF9003002008B530B902F0BAF880F0010000F00100E1
:4013400008BD012806D102F0B9F810F0010F03D1012002E0002000E00020C0B208BD00BF10B50022324B1A6059E0C0B2FFF7E0FF2F4B18711B682F4AD45C052C4BD8DFE860
:4013800004F003090E13273B003018BF0120294AD05440E000B10220264AD0543BE000B10320244AD05436E0234A52F82300234900221346FFF756F81D4B1A6803EB82016D
:4013C000002088601B7903B104231A498B5422E070B1174A02EB83029268322A00D905241449CC54124901EB830301329A6012E00021104AD1540EE00F4A52F823000F49D1
:4014000000221346FFF72EF8094B1A681B7903B1234608498B54064A136801331360044B18680128A1D90A20FFF7B2FB99E700BF2C03002090030020E80300201681FF1FAC
:4014400008B502F0F3FC024B187001F0D9F908BD9403002008B5012001F0B6F86420FFF797FB002001F0B0F84FF46170FFF790FBF1E700BF00000000F0B583B000278DF8C8
:4014800000708DF801708DF802708DF803708DF80470384601F042FA384601F03FFA384601F03CFA384601F039FA384601F036FA6420FFF76DFB264B1E689B681E44BE4267
:4014C0003DD00024204671001FA3D3E9002304F0D3FF234613E0DA00C2F12004B2F1200520FA02F201FA04F442EA040202D441FA05F52A4302AC1C4404F8082C0133032B5D
:40150000E9D9721E134B9A4219D89DF8000001F005FA9DF8010001F001FA9DF8020001F0FDF99DF8030001F0F9F99DF8040001F0F5F901F0CBF910F0010FFAD03746642026
:40154000FFF726FBBBE700BF40597307000000001881FF1FFE59620200B583B0164B1B7813F0080F0FD0002001F01AFF00B202A941F8040DE822104B1A70104B18680022DC
:401580001346FEF7FDFF0C4B1B7813F0100F0FD0012001F005FF00B202A941F8080DF022054B1A70054B586800221346FEF7E8FF03B05DF804FB00BF84C70040DC03002092
:4015C000034B044ADA62044A9A63044ADA6370470080FF1F55010000E50100002902000008B5FEF7D5FDFEE708B5FEF7D1FDFEE700B585B0FFF7E4FF62B6554802F08AFCC3
:4016000002F05AFC0320002101F0DAF8FFF74AFDFFF782FE02F050FB01F04EFA01F0ACFFFFF74EFE00200146FFF758FE4948FFF7EDFD01200021FFF751FE4748FFF7E6FD41
:401640004FF47A7001F09CF801F012FE02F00AFA01F03CFB01F08AFD01F044FD02F05CFA4FF47A7001F08CF80120FEF767FF3B4B1860082001210022FEF7D8FE384B186059
:40168000012001460022FEF7D1FE364C2060012001460022FEF7CAFE6060082004210022FEF7C4FE304C2060082004210022FEF7BDFE6060012001460022FEF7B7FE2B4B28
:4016C00018600323009300240194029403942848284980222346FFF7C9F802250095019402940394244825494FF480722346FFF7BDF80095019402940394214821498022C3
:401700002346FFF7B3F800950194029403941E481E4980222346FFF7A9F800950194029403941B481B494FF480722346FFF79EF801230093019402940394174817494FF416
:4017400000722346FFF792F8FFF70AF9FEE700BF41140000708B0000848B0000E4030020F4030020E8030020DC030020F803002055140000948B0000B11B0000988B000058
:40178000A9100000A08B000061130000A48B000079140000A88B000029180000AC8B000038B5022001214FF48042134601F028FC044600F0A7FF05460221FF22032300F041
:4017C000BBFF284645F6A0314CF2A07200F0C8FF2046294600F066FF2046012100F01AFF38BD00BF38B5022001214FF48042134601F024FC044600F085FF05460221FF2252
:40180000032300F099FF284645F6A2314CF2A47200F0A6FF2046294600F044FF2046012100F0F8FE38BD00BF2DE9F04F85B0FFF7B7FFFFF7D7FF01F0A5FD0320012101F0A0
:40184000C1FD0C20012101F0BDFD3020022101F0B9FDC020022101F0B5FD0120014601F0C3FD0220012101F0BFFD714801F0FCFD01F0F0FA01F0B4FB002309E06D4A0021E5
:4018800042F8231003F1080042F820100133DBB2072BF3D9684B4FF0000883F8008083F80180C14600242546A24626462746634B1868FEF71DFF002870D0604B5868FEF747
:4018C00017FF00286AD0012002F0DAF8DFF86CB1DBF8000002A900221346FEF789FEDBF8040003A900221346FEF782FE4FF0000C40E004AB03EB8C0353F8082C92024E486F
:4019000010F80C30DFF82CE14FEACC0B0BEB03014EF82120591F01F0070159445EF82110013303F0070300F80C30002A00DA52420023184612E0002907DB41FA03F042FA74
:4019400003FECEEB0101024405E041FA03F042FA03FE7144121A0133DBB210460B2BEAD9BCF1000F01D1824400E005440CF1010C5FFA8CFCBCF1010FBBD9029B002B04DBC4
:401980001F44039A13441E4403E0FF1A039A1344F61A0134E4B2002002F072F87F2C86D100238DF807304FEA6A4402F0C7FA844204DC6C1402F0C2FA844205DD9DF8073064
:4019C00043F001038DF807309DF8070001F020F99DF8073033B108F101081FFA88F84FF0000905E009F101091FFA89F94FF00008002002F0EFF9B8F1080F03D8B9F1C80FDA
:401A00007FF650AF012002F0E5F90D4BC3F800A05D609F600B4B1E600B4B18680DF1070100221346FEF71EFD4FF00009C84639E75915000098030020D8030020DC030020FE
:401A40003C030020F0030020F803002008B51C4B1B78022B12D0032B23D0012B2FD100200146FFF73BFC1748FFF7D0FB01200021FFF734FC1448FFF7C9FB08BD0020014668
:401A8000FFF72CFC1148FFF7C1FB01200021FFF725FC0F48FFF7BAFB02200021FFF71EFC08BD00200146FFF719FC0A48FFF7AEFB01200021FFF712FC0748FFF7A7FB08BD35
:401AC0003081FF1F8C8D0000A08D0000B48D0000C88D0000DC8D0000F08D00002D4B1B78032B55D100B587B001200821FFF7F6FB284BB3F9022002EB42035B0026490B444D
:401B00009878012809D102EB420252000A4401A82249527805F036FC34E002280FD104F003FB01464FF07E5004F00AFC03F038FF02460B4601A81A4905F024FC22E004284C
:401B40000FD104F0F1FA01464FF07E5004F0F8FB03F026FF02460B4601A8124905F012FC10E008280ED104F0DFFA01464FF07E5004F0E6FB03F014FF02460B4601A80A4923
:401B800005F000FC01A8FFF741FB07B05DF804FB704700BF3081FF1FDC8B0000048E0000108E00001C8E0000288E0000000000002DE9F04F91B000248DF82A40FFF746FF2E
:401BC000BB4BB3F9023003EB43035B00B94A1344D87802F0ADF90194A046A14602F006F9012803D10520FEF7D3FFF7E7B24B18680DF12B0100221346FEF7FAFC58B1AC4A0A
:401C000013780133DBB21370042B02D10122A84B1A70FFF71BFFA84B58680DF12B0100221346FEF7E5FC50B1A14A1378013BDBB2137013B903229E4B1A70FFF707FF9F4BE8
:401C40001868FEF755FD002871D09C4B18680DF12A0100221346FEF7CBFC9DF82A30002B3ED0012002F070F9954B186803F086FE0022944B03F0E8FE06460F46CDE9066754
:401C8000914B186803F07AFE00228E4B03F0DCFE04460D46CDE908454FF000084FF080493046394642464B4602F06CF906460F462046294642464B4602F064F902460B46CA
:401CC0003046394603F00EFD02F0D4FA06460F467E4B1A687E4B1B689A4209DC002408E000260027CDE90667CDE90867002400E00124DDE90801DDE9062302F041F966A37B
:401D0000D3E9002303F0CAFF0022724B03F09CFE019088460CB101F100486F4B186800210A460B46FEF79EFB4FF001094C46002C00F0FD805E4B1B78012B40F08C8027E09D
:401D400004EB44035B005B4A1344B3F93C0003F015FE019A434604F0F3F8B0B104EB440252005E4B1344B3F9020003F007FE019A434604F0F9F840B14E4A61000B195B00E5
:401D8000134493F840B093F841A00134E4B202E000244FF0FF0A0C2CD2D99DF82A3083B1BAF10C0F0DD800205946FFF797FA0BA84B4901EB0A1105F009FB0BA8FFF726FAC5
:401DC00006E000200146FFF789FA4648FFF71EFA01200A21FFF782FA9DF82A3083B3344BB3F90240DFF8CCA065002B195B005344987803F0C3FD32463B4603F025FECDE9CB
:401E000002012C4464005444607803F0B7FD02460B46DDE9020103F041FF21A3D3E9002302F0B0F802460B461FA1D1E9000103F035FF02460B460BA82B4905F0A3FA05E070
:401E40000BAB2A4A92E8030083E803000BA8FFF7DDF900246BE0022B4CD100200621FFF73DFA234C0BA82146DDE9062305F08AFA0BA8FFF7CBF901200621FFF72FFA0BA829
:401E80002146DDE9082305F07DFA0BA8FFF7BEF900244CE0AFF300806E861BF0F921094004560E2DB29DD73F295C8FC2F5E830403081FF1FDC8B0000E8030020F8030020B1
:401EC0003C0300200000E03E4003002044030020F003002000806640E4030020188C0000688C0000348E0000488E0000508E0000588E0000032B19D100200721FFF7EEF92A
:401F00009DF82A3033B10BA85049019A434605F039FA04E04E4A0BAB07CA03C31A800BA8FFF774F9FFF7DAFD002400E00024494B1868FEF7DDFB002834D0464B18680DF1AC
:401F4000170100221346FEF753FB434B1B78032B28D19DF91710404A53880B449BB2538013F4004F02D000223B4B5A803A4B5B88092B02D90922384B5A80DFF8E0A0364D2F
:401F8000B5F9023003EB43035B001AF8030001F01BF9B5F9023003EB43035B001AF8030001F00CFDB9F1000F21D147E03046394603F0E4FF05EB45035B0028490B44B3F87F
:401FC0005C31984210D305EB45014900244B0B445B88984208D20A46214B1A441E4992F904204B8813444B800135EDB200E00025092DDBD9184BB3F90230002B02DA002270
:40200000154B5A80144B5B88092B02D90922124B5A80124DDFF84090B9F9023003EB43035B00E85C01F0D0F8B9F9023003EB43035B00E85C01F0C2FC4FF00009002001F07E
:4020400083FF0520FEF7A4FDC8E500BF488E0000608E0000F40300203081FF1FDC8B0000388D0000AFF30080FEE700BF08B5094B1A681044084BC31AB3F5805F02DC054B4F
:40208000186005E004F0D4FC0C2303604FF0FF32104608BD3881FF1F4804002008B5104E104D16E029686B68AC68002204E051F8040B43F8040B0432A242F8D1E8680022BC
:4020C00003E0002143F8041B04328242F9D11035013E002EE6D104F0B1FCFFF789FAFEE7010000003497000008B5134A134B1A60134A136843F40073136000230AE0032B68
:4021000003D8104A52F8231000E00F490F4A42F8231001332F2BF2D90D4B1A780D4B1A700A4A0D4B1A6000F093F900F059FA00220A4B1A6008BD00BF0004FA050CED00E094
:4021400014ED00E000000000692000000080FF1FBC7600400481FF1F08ED00E00081FF1FFEE700BFF0B40022174611E050F82760F3B226F0FF0608E001EB420511F8124011
:402180006D78A5550132013BDBB2002BF4D10137202FEBD9F0BC704708B50A46002104F07EFC08BD2DE9F0414C4B1B78DBB24C4E3478E4B24B4F3D78EDB203F007014A4AEE
:4021C00011701B090132137044F00303337045F003033B704FF48142444B1A8044F2200210331A804FF0830C213383F800C001233F4A1370092102F5CE62117040223D4916
:402200000A7002310A7006310A7002310A70F8310B700420013108704FF0080E043181F800E00A310B7002310B70063181F800E006310A700221DFF8D48088F8001008F148
:40224000060888F8003008F1060888F800E0DFF8C0E08EF800100EF1060E8EF800000EF1500E8EF800100EF1110E8EF800300EF12D0E8EF800C04FF0100C0EF1080E8EF856
:4022800000C00EF1030E8EF800200EF1050E8EF80000194801700620184908702021184801700330017005300270164A117040F22761173211804FF48161043211803A2126
:4022C00012321170023213700A2000F06FFA3D70347044220C4B1A70BDE8F081CF010049F8460040F94600406E5800400C510040FC51004001590040DA5A0040005B004042
:40230000205B00402B5B004076580040245A0040345A004008B504F0B7FB08BD38B501223C4B1A801F2202331A70242202331A80182339490B7002310A80384A137040F2E8
:40234000071204310A8002310B7002310A80344A137040F29321023211800232137041F21C0102321180023213702E482E490422FFF7D0FF06222D4B1A705222A3F58073EA
:402380001A702B4B1B78DBB22A4A137040F62132294B1A8041F25122023B1A80002419250CE0264B1B7803F0010343EA440404F003044FF4F07001F0D3FD013D0DB1032CAA
:4023C000EFD115B90320FFF7CBFE1D4A4FF4807313800723137000231A490B704820023108701370053213700222174B1A7004220A331A70154A137843F07F031370013AE5
:40240000137843F001031370013A137843F08003137038BD80400040864000408A400040924000400041004094040048004300400F010049A1460040224200402542004092
:40244000044000400640004001400040A243004010B572B6434C61232370FFF75FFF01232370414A137843F00403137000240CE03E4963001A1952000A4423445B00C8588C
:402480009188FFF789FE0134E4B2082CF0D900240BE03649A3001A1952000A44906BD16B8022FFF737FF0134E4B2002CF1D04FF090402F49FFF756FE40F203222D4B1A80C3
:4024C0002D480421FFF768FE2C480421FFF764FE2B480421FFF760FE2A480421FFF75CFE294A137843F0020313701032137843F002031370254C237843F040032370A2F535
:402500008632513A137843F010031370204821490822FFF7FFFE204820490822FFF7FAFE1F4820490822FFF7F5FE1F481F490822FFF7F0FE1E481F490A22FFF7EBFE1E482D
:402540001E490822FFF7E6FE1D4A137843F008031370FFF727FE1B4821460E22FFF7DAFE10BD00BF00480040E84600406C8E0000840000484C5800400076004008760040BA
:40258000107600401876004003500140A04300400251004060040048C251004068040048F25100407004004812510040780400482051004080040048325100408C040048CC
:4025C00022430040B0430040044A137803F0FD03400000F00200184310707047205100400B4A7F2313708021517007E0DA0002F1804202F5F042013BDBB21370002BF5D10A
:40260000DB0003F1804303F5F04300221A7070473C81FF1F172815D831B103010A495A5C42F020025A5405E0030107495A5C02F0DF025A540001044A835C43F001038354D6
:4026400000207047012070471070004017280BD80001064A835C03F0F10301F0070143EA4101815400207047012070471070004041F6FF73994201D14FF4005141F6FF7373
:402680009A4201D14FF40052172808D8C00000F1804000F5EC408180C280002070470120704700BF172805D8034B03EB0010417200207047012070471070004017281BD8B9
:4026C00010B4C00000F1804404F5EC44D201D2B201F07F01114321709DF804201201D2B203F00F03134363709DF8083003F00F03A3700020E07001E0012070475DF8044B9B
:40270000704700BF10B501F033FC0A4B5B78182B0BD9084A1478013B5370E30003F1804303F5F0431B78137000E0FF2401F024FC204610BD3C81FF1F10F0800F0CD111F4A4
:40274000704F0BD1C00000F1804000F5F04001808270C37000207047012070470120704710F0800F08D1C00000F1804000F5F0408180C280002070470120704701BE704795
:4027800010B5044605E0084B186801F0E9FBA4F50044B4F5004FF6D8034B586800FB04F001F0DEFB10BD00BF4481FF1F08B5034B1B7A03FB00F001F0D3FB08BD4481FF1FAF
:4027C0000E4B1A7802F0FC0200F00300104318701A7842F080021A701A7802F07F021A7049011A7801F0600102F09F02114319701A7842F010021A70704700BF8343004057
:402800000122014B1A7070478443004070B504460E46074B1D681F2802D90020FFF7AEFF04F01F04103455F8240045F8246070BD08ED00E038B504460D46072902D900201E
:40284000FFF79CFF1F2C02D90020FFF797FF04F01F0000F1604000F564406D01EDB2057038BD00BF0822014B1A60704700E100E00422014B1A60704700E100E008B501F008
:4028800077FB0B4A137843F020031370013A137843F0100313700232137843F01003137001F06AFBFFF7DEFFFFF7E2FF08BD00BF9B6400400822014B1A60704780E100E02B
:4028C0000422014B1A60704780E100E010B5FFF7F1FF064B1C78064A137803F009031C4300231370FFF7BEFF204610BD6A6400400504002010B5FFF7E3FF064B1B78064A97
:40290000147804F040041C4300231370FFF7B0FF204610BD6C6400401204002010B504462A4B1A7802F0FF0312B1013BDBB200E00423274A1278D2B29342F1D0FFF7BAFF4F
:40294000244B1978244A137803F009030B4313701E4B1B781E4A1278DBB2934207D11E4B1B7813F0040F02D01C4B1C702BE0184A13780133DBB213701378DBB2042B02D931
:402980000022134B1A70124B1B78104A1278DBB293420ED10D4A13780133DBB213701378DBB2042B02D90022084B1A7001220C4B1A70074B1B78DBB20A4AD4540A4A1378E0
:4029C00043F004031370FFF74DFF10BD0E040020100400206A640040050400204B6400400D040020000400208A64004008B501E00A4B1B780A4B1B7813F0200FF8D101F0A2
:402A0000B7FA084B1A7842F001021A701A7802F0FE021A7001F0B0FA08BD00BF5B6400406C6400409B64004010B50F22174B1A70174C0823236003200721FFF7FBFE032076
:402A40001449FFF7E3FE0423236002200721FFF7F1FE02201049FFF7D9FEFFF7C7FF00240E4B1C700E4B1C700E4B1C700E4B1C700E4B1C700E4B1C70FFF728FFFFF73AFF77
:402A80000C4B1C70202202331A7010BD8B64004080E100E0D52A0000712B0000FC030020110400200F0400200D0400200E040020100400208A64004008B5054B1B7823B992
:402AC000FFF7B2FF0122024B1A70FFF7D7FE08BD4803002028E01E4B19781E4A137803F009030B431370137813F0040F23D01A4B1B7813F0FF0F0CD1184A13780133DBB24D
:402B000013701378DBB2042B06D90022134B1A7002E00022104B1A70104B1B78DBB2104AD35CDBB20F4A13700C4B1B780E4A1278DBB29342CFD1094B1B780B4A1278DBB26B
:402B4000934204D1094A137803F0FB03137070476A640040050400200D0400200E040020000400204B640040100400208A640040204B1A7820490B7803F0400313430B70A3
:402B800031E01E4B1A78D2B21D490B780133DBB20B700B78DBB2042B02D90021184B1970174B1B7817490978DBB28B420ED115490B780133DBB20B700B78DBB2042B02D9F3
:402BC0000021104B197001210F4B19700C4B1B78DBB20E49CA54074B1A7807490B7803F0400313430B70044B1B7813F0200FC8D1704700BF6C640040120400205B640040B9
:402C00000F04002011040020FC03002008040020014B1870704700BF7D640040054A137843F0040313701032137843F004031370704700BFA74300400F490B7803F0FC02E9
:402C400000F0030313430B7001280AD10B4B1B78DBB20B4A13700B4B1B78DBB2013213707047094B1B78DBB2054A1370074B1B78DBB20132137070474258004012010049FD
:402C80003446004016010049B1010049B901004908B50120FFF7D0FF0B4B1A7802F0DF021A701A7802F0FB021A701A7842F008021A7003F295231A7802F0E7021A701A787B
:402CC00042F010021A7008BD4258004008B5054B1B7823B9FFF7DCFF0122024B1A70FFF79DFF08BD4903002008B50A280FD00C2802D0082806D102E04FF4805209E04FF45F
:402D0000807206E00020FFF739FD002201E04FF480620021094B198042F2107303FB02F303F6C413064A82FB0302DB17C3EBE223044A1360044B198008BD00BF14040020E3
:402D4000AD8BDB68180400201604002010B501F00FF904461E4A137843F0010313701032137843F001031370193A137843F0040313701032137843F00403137002F5AA520E
:402D80001132137843F0030313700422114B1A70013B1A7842F040021A701A7802F0FC021A70CE22053B1A700222A3F597530C3B1A70094A137843F0080313700A20FFF7B5
:402DC000F5FC0122054B1A60204601F0D5F810BDAB43004006590040275B004080E200E010B504460A280DD00C2802D0082804D101E0C42207E0442205E00020FFF7BEFC41
:402E0000C42200E08422034B1A702046FFF76CFF10BD00BF0259004008B5102000F032FB00200721FFF706FD00200749FFF7EEFC064A137843F0060313700C20FFF7D0FF3A
:402E40000022034B1A8008BD712E0000015900401C04002008B5054B1B7823B9FFF7DCFF0122024B1A70FFF771FF08BD4A030020704700BF08B50A280FD00C2802D00828B1
:402E800006D102E04FF4805209E04FF4807206E00020FFF773FC002201E04FF480620021094B198042F2107303FB02F303F6C413064A82FB0302DB17C3EBE223044A1360D3
:402EC000044B198008BD00BF28040020AD8BDB68200400202404002038B501F049F804461E4A137843F0020313701032137843F002031370193A137843F002031370103299
:402F0000137843F00203137002F5AA521932137843F0030313700422114B1A70013B1A7842F040021A701A7802F0FC021A70CE22053B1A700225A3F59753123B1D70094A52
:402F4000137843F0080313700A20FFF72FFC064B1D60204601F010F838BD00BFAB4300400E5900402F5B004080E200E010B504460A280DD00C2802D0082804D101E0C42208
:402F800007E0442205E00020FFF7F8FBC42200E08422034B1A702046FFF76CFF10BD00BF0A59004008B5102000F076FA01200721FFF740FC01200749FFF728FC064A13786E
:402FC00043F0060313700C20FFF7D0FF0022034B1A8008BDFD2F0000095900402604002008B5054B1B7823B9FFF7DCFF0122024B1A70FFF771FF08BD4B030020704700BFE4
:40300000F0B583B086460F4616461D460A4C0023237000930193184671463A46FFF74EFB207831462A46FFF723FB20780221FFF70DFB207803B0F0BD5481FF1FF0B583B0C2
:4030400086460F4616461D460A4C0120207000230093019371463A46FFF730FB207831462A46FFF705FB20780221FFF7EFFA207803B0F0BD5581FF1F084A137843F00103B8
:4030800013701032137843F00103137002F5A5521E32137843F0800313707047A9430040044A137803F0FC0300F0030018431070704700BF0158004008B50622074B1A70B8
:4030C000182201331A70032001331870044A137843F008031370FFF7E3FF08BD005800400B5A004008B5054B1B7823B9FFF7E4FF0122024B1A70FFF7BFFF08BD4C0300204E
:40310000084A137843F0040313701032137843F00403137002F5A5521E32137843F0800313707047A9430040044A137803F0FC0300F0030018431070704700BF09580040D6
:4031400008B50622074B1A70182201331A70032001331870044A137843F008031370FFF7E3FF08BD085800402B5A004008B5054B1B7823B9FFF7E4FF0122024B1A70FFF7D6
:40318000BFFF08BD4D030020084A137843F0020313701032137843F00203137002F5A5521E32137843F0800313707047A9430040044A137803F0FC0300F00300184310707E
:4031C000704700BF0558004010B487B00446194B03AA1868596803C2197A11706A4653F80C0F596803C21B7A1370082C1ED812490B7803F08003DBB20B70087806AB1C4481
:4032000014F80C3C14F8182C920002F00C02134303430B70094A137803F0F3031370117814F8183C0B4343F00C03137007B05DF8044B7047B08E0000065800400558004070
:4032400008B50C22074B1A70074A137843F0200313700020054B1870FFF7B6FF0320FFF7A7FF08BD04580040055800400658004008B5054B1B7823B9FFF7E2FF0122024B11
:403280001A70FFF781FF08BD4E030020F8B5254A137843F01003137002F50342DA32137803F0FE0313703F2308321370043213701D4D4FF480741D482946224603F0E4FB97
:4032C0001B482946224603F0DFFB1A481A49224603F0DAFB4FF4007418481949224603F0D3FB18481849224603F0CEFB174C184E04F14007354620686168A268E3680FC551
:4033000010342E46BC42F5D10024124B1C70032000F07AF8204600F07FF8F8220E4B1A70F8BD00BFA64300400894000000C4004000C5004000C60040C88E000000C0004017
:403340000892000000C2004008900000C88F000000C700408CC7004084C70040084A137843F0100313701032137843F01003137002F50342CA32137843F00103137070472D
:40338000A643004008B5054B1B7823B9FFF77EFF0122024B1A70FFF7E1FF08BD4F03002018B9064B188880B27047012803D1044B188880B270470020704700BFA9C7004028
:4033C000ADC700408B00DBB219430B01DBB21943044B1A7822EA00021A701A780140114319707047B0C70040012904D1054B1A7810431870704721B9024A137823EA0000E8
:4034000010707047B4C7004000F01F00014B1870704700BF98C7004000F00F00014B1870704700BF9CC70040024B1B68C3F8B000704700BF08ED00E04001C0B2014B1870A9
:40344000704700BF1CE400E04FF08052014B1A60704700BF00E100E04FF08052014B1A60704700BF80E100E010B50446FFF7F4FF2046FFF7D9FF0720FFF7DEFFFFF7E4FF5B
:4034800010BD00BF034B1A7800F0F80010431870704700BF8A400040034B1A7800F0F80010431870704700BF86400040024B1878C0F3C000704700BF21510040024B1878E9
:4034C000C0F30010704700BF21510040024B1878C0F38010704700BF21510040024B1878C0F34010704700BF2151004010B50222114B1A7081220E3B1A70082202331A7063
:403500002A2211331A70002401331C704FF400420A4B1A600F200721FFF78CF90F200849FFF774F91022074B1A70074B1C70074B1C70074B1C7010BDD649004080E100E06F
:40354000A13500002A0400202E040020300400202C04002008B500F00BFD064A137843F0040313701032137843F00403137000F003FD08BDA543004008B5074B1B7823B9FF
:40358000FFF7B4FF0122044B1A70FFF7E3FF4FF40042024B1A6008BD5003002000E100E038B5A44B1C78E4B2A34B1B7813F0400F00F0378114F0010F00F01B819E4B1B78AC
:4035C000453B052B00F21281DFE813F006008200100110010600DE0004F0DF0504F00A04082C42D1944B1B78DBB2452B35D1934B1B7813F0FF0F10D0914B1B681B78DBB2C7
:40360000904A137004228B4B1A7001228E4B1A704622894B1A702C46EBE08C4B1B7813F0020F0DD08A4A137843F00A0313706022814B1A704FF40042864B1A602C46D8E0CF
:40364000854A137843F0100313701022834B1A700422023B1A702C46CBE00022754B1A704A22754B1A702C46C3E00A2C2BD1784A137843F0A0031370744B1B7813F0020F1E
:4036800014D06D4B1B7813F0080F01D0092300E00A236F4A11780B4313706022664B1A704FF400426B4B1A602C46A2E06A4A137843F0100313701022684B1A700422023B64
:4036C0001A702C4695E00020FFF758F82C4690E014F0020F35D15C4B1B78584A1278DBB2934210D2584A1378DBB255490968CB5CDBB254490B7004214E4B197013780133B1
:40370000DBB2137075E0514B1B7813F0020F0CD04F4A137843F00A0313706022464B1A704FF400424B4B1A6063E04B4A137843F0100313701022494B1A700422023B1A7083
:4037400057E0424B1B7813F0020F0CD0404A137843F09A0313706022374B1A704FF400423C4B1A6045E03C4A137843F01003137010223A4B1A700422023B1A70344A137850
:4037800043F09003137034E0354A1378DBB2354908682C490978C9B2C15413780133DBB213701378304A1278DBB2934203D21022204B1A701DE0254B1B7813F0020F0CD0F5
:4037C000234A137843F00903137060221A4B1A704FF400421F4B1A600BE01F4A137843F0100313700022134B1A7002E00020FEF7C5FF14F0200F1CD00F4B1B7813F0080FA2
:4038000001D0012300E00223114A11780B431370114A137803F0EF0313701022064B1A7038BD054B1B7813F0100F02D11022024B1A7038BDD74900402A0400202F040020B2
:4038400034040020D84900402C0400202D0400202E04002080E100E0D6490040D949004030040020380400203C0400201A4B1B78DBB2102B29D1194B1B7813F0080F26D1C8
:403880004FF40042164B1A604000C0B229B140F001004922104B1A7002E045220E4B1A70104B1870012201331A700F4B1B7813F0010FFAD00C4B1B7803F00A030A2B08D1E9
:4038C0001022054B1A700320704702207047012070470020704700BF2A040020D949004080E100E0D8490040D74900400A4B1B7813F0040F0ED01023074A13700421023AA5
:403900001170064A1370064B1B7813F0210FFAD00020704702207047D94900402A040020D7490040114B1B7813F0040F1BD0104B18700422013B1A7046220E4B1A700E4B2F
:403940001B7813F0010FFAD00B4B1B7813F0020F04D16022074B1A70002070476022054B1A70032070470220704700BFD9490040D84900402A040020D7490040084A1378B4
:4039800043F0080313701032137843F00803137002F5A5521E32137843F0800313707047A9430040044A137803F0FC0300F0030018431070704700BF0D58004010B487B024
:4039C0000446194B03AA1868596803C2197A11706A4653F80C0F596803C21B7A1370082C1ED812490B7803F08003DBB20B70087806AB1C4414F80C3C14F8182C920002F05F
:403A00000C02134303430B70094A137803F0F3031370117814F8183C0B4343F00C03137007B05DF8044B7047089500000E5800400D58004008B50C22074B1A70074A13787E
:403A400043F0200313700020054B1870FFF7B6FF0320FFF7A7FF08BD0C5800400D5800400E58004008B5054B1B7823B9FFF7E2FF0122024B1A70FFF781FF08BD510300205B
:403A8000044A137803F0DF03400100F020001843107070471051004070B50120014641F6FF724FF4804300F045F80C4E354605F8040BFEF727FE0246094C207010210123EF
:403AC000FEF73AFE2078A9B245F68132FEF748FE30782178FEF7E6FD70BD00BF540300205681FF1F08B500F083F8034B1B78FF2B01D1FFF7D1FF08BD5681FF1F08B5054B7A
:403B000018780121FEF786FD00F088F800F032F808BD00BF5403002008B5054B1B7D23B9FFF7E0FF0122024B1A75FFF7E7FF08BD54030020F0B583B084468E4617461E4632
:403B40000B4C02252570002300930193284661467246FEF7B3FD207839463246FEF788FD20782946FEF772FD207803B0F0BD00BF5781FF1F054A137843F00203137010327E
:403B8000137843F002031370704700BFA8430040054B1A7802F0FD021A701A7800F0020010431870704700BF24580040064B1B78C3F3810303F19243063393F83031DBB297
:403BC000024A1370704700BF245800400946004008B5064B1A7802F0F3021A701A7800F00C0010431870FFF7E1FF08BD2458004008B50023084A13700132137002F26A2279
:403C0000137843F0080313700420FFF7E1FF0220FFF7BEFF08BD00BF24580040054A137843F0100313701032137843F010031370704700BFA243004070B50120014641F691
:403C4000FF724FF4804300F045F80C4E354605F8040BFEF757FD0246094C207010210123FEF76AFD2078A9B245F68332FEF778FD30782178FEF716FD70BD00BF6C03002087
:403C80005881FF1F08B500F081F8034B1B78FF2B01D1FFF7D1FF08BD5881FF1F08B5054B18780121FEF7B6FC00F086F800F030F808BD00BF6C03002008B5054B1B7D23B908
:403CC000FFF7E0FF0122024B1A75FFF7E7FF08BD6C030020F0B583B086460F4616461D460A4C0320207000230093019371463A46FEF7E4FC207831462A46FEF7B9FC2078E8
:403D00000221FEF7A3FC207803B0F0BD5981FF1F054A137843F0080313701032137843F008031370704700BFA8430040054B1A7802F0FD021A701A7800F002001043187056
:403D4000704700BF2C580040064B1B78C3F3810303F19243063393F83831DBB2024A1370704700BF2C5800400B46004008B5064B1A7802F0F3021A701A7800F00C001043DC
:403D80001870FFF7E1FF08BD2C58004008B50023084A13700132137002F27222137843F0080313700420FFF7E1FF0220FFF7BEFF08BD00BF2C580040054A137843F00803AE
:403DC00013701032137843F008031370704700BFA2430040044A137803F0EF03000100F0100018431070704710510040014B1878704700BF6D640040084A137843F00103AE
:403E000013701032137843F00103137002F64D32137843F001031370704700BFA3430040014B1870704700BF034F0040014B1878704700BF034F0040014B1880704700BF06
:403E4000044F0040014B1880704700BF064F004008B5164A137803F0010313700232137803F0FC031370124B1A7802F0CF021A701A7842F030021A701A7802F0F0021A70AE
:403E80001A7842F00F021A700A4A137843F0010313704FF6FF70FFF7CFFF4FF6FF70FFF7D1FF0820FFF7BCFF08BD00BF004F00400B4F0040014F004008B5054B1B7823B986
:403EC000FFF7C6FF0122024B1A70FFF795FF08BD84030020024B1B68C3F88400704700BF08ED00E04001C0B2014B1870704700BF11E400E04FF40032014B1A60704700BF3A
:403F000000E100E04FF40032014B1A60704700BF80E100E010B50446FFF7F4FF2046FFF7D9FF0720FFF7DEFFFFF7E4FF10BD00BF014B1870704700BF7F640040014B1878FA
:403F4000704700BF6F640040044A137803F0FB03800000F00400184310707047105100400230800803D000BF01380046FCD17047EFF3108072B6704780F31088704700BF26
:403F800000F0CEB92DE9F04F8BB01F4680468946164600F0A1FADFF8D8A204469AF900300D46013304D03046394601F053FA20B9204629460BB0BDE8F08F4046494601F09A
:403FC00049FA834660BB304639460022002301F0A3FF0028ECD09AF900309E4C01229E4900208DE814005A1CCDF820B0CDE90289CDE90467CDE906010DD0022B0BD06846CC
:4040000001F054FA002800F09380089B1BB102F00FFD089B0360DDE906010BB0BDE8F08F404649460022002301F076FFF8B1304639460022002301F06FFF834600284ED0E6
:4040400084489AF900300121002200240025CDE90289CDE90467CDE90645019000910892002BCCD07C4B0022CDE90623D3E72046294601F0E9F9834600285ED02046294620
:404080000022002301F048FF002891D04046494601F0DAF900288BD03046394601F0D4F9002885D09AF900306A480421002200240025022BCDE90289CDE90467CDE90645D9
:4040C00001900091089200F08880684601F0EEF9002800F08280089B002B9CD097E73046394601F0B1F900283FF462AF304639460022002301F01AFF00283FF459AF554973
:404100009AF800300122CDF820B0CDE90289CDE9046701910092002B3CD050490020022BCDE9060130D102F083FC21230360D2E702F07EFC2123036067E74046494601F06C
:4041400083F900289AD03046394601F07DF9002894D02046294601F07DF900BB3D4A9AF8004001230890CDE90289CDE90467019200937CB10020002102460B4601F08EFD32
:40418000022CCDE90601CED0684601F08FF90028A1D1C8E700220023CDE90623F4E72D499AF900300322CDF820B0CDE90289CDE9046701910092ABB9294D4FF0604440464B
:4041C000494600220023CDE9064501F0AFFE50BB9AF90030022B7FF478AF02F029FC2223036078E71F4D00244046494600220023CDE9064501F09AFE0028E9D000221A4BBD
:404200003046394601F020FC04460D4601F056F922462B4601F080FE0028D9D10F4B0022CDE90623D4E700220F4B3046394601F00BFC04460D4601F041F922462B4601F074
:404240006BFE0028C4D1094B4FF06042CDE90623BEE700BF209500000000F03F0000F0FFFFFFEF470000F07F0000E03FFFFFEFC75A81FF1F2DE9F0478AB006460F4600F046
:404280007BFEDFF898A004469AF900300D4601330FD03046394601F0DDF850B14FF000084FF000093046394642464B4601F03EFE20B9204629460AB0BDE8F08716499AF808
:4042C000004001220023CDE90467CDE9026701910092089364B9CDE90689684601F0E6F880B1089B9BB9DDE906010AB0BDE8F0874046494642464B4601F0D0FC022CCDE9C0
:404300000601EAD102F094FB21230360E9E702F08FFB089B0360E6E7249500005A81FF1F2DE9F84F5442144323F00049DFF878C149EAD474644517469E4606460D4641D8EF
:404340004442044321F0004B4BEAD47464458A4638D803F1404404F58014144349D09C1704F0020444EAD1745BEA000132D059EA070138D04C49894548D04B498B4532D0FD
:40438000C9EB0B094FEA2959B9F13C0F3ADCBEF1000F64DB3046294601F080FC01F050F800F0B2FE012C57D0022C48D084B138A3D3E9002301F094F937A3D3E9002301F096
:4043C0008FF905E01046194632462B4601F08AF9BDE8F88F032CCAD8DFE804F01212020F32483349F4E7BAF1000F304825DB3149EEE7BDE8F84F00F087BE2C482E49E7E725
:404400002946E5E726A1D1E90001CBE7CB452CD0032CB2D801A151F824F000BF2D44000033440000E1430000FB43000000200146CEE700204FF00041CAE72049C8E714A304
:40444000D3E9002301F04CF902460B4612A1D1E9000101F045F9BBE701F10041B8E719F13C0F97DA002000219CE7032CBBD8DFE804F0020B08050D481149A9E71148124969
:40448000A6E710481149A3E708481149A0E700BF075C143326A6A13C182D4454FB210940182D4454FB21F93F0000F07F182D4454FB210940FB21F93FFB2109C0FB21F9BFBF
:4044C000FB21E93FD221337F7CD902C07CD90240FB21E9BFAFF300802DE9F04F144623F00047024657EA04000E468FB01D469C46214634D06E4B26F0004A9A459346B1469E
:4045000026DC24D09F4223DC694B9F4200F08F80B9F1000FC0F28F804FF0000879BB644B9F4200F0A580634B9F4267D0BCF1804F00F0E283604B9C4521D1B9F1000F1EDBB0
:40454000104631460FB0BDE8F04F00F015BD62B10AF1404000F5801050EA0B0007D10346544918460FB0BDE8F08F5745CCDD53480FB0BDE8F04F00F09BBF4FF00008104648
:404580003146CDF808C0009200F05AFF009ADDF808C0BBF1000F20D04FEAD97909F1FF3958EA09037AD0464B9F4240F38F8003F104739F4240F31084424B9A4540F392836A
:4045C000BCF1000F40F3928337A1D1E900010B46024601F039FA0346C3E7BAF1000F04D0344B29F0404E9E45D6D1BCF1000FC0F2B683B9F1000F08DB0346B2E7BCF1000F55
:40460000C0F2528413463146ABE70AF1404A0AF5801A58EA0A0340F05E8402460B4601F05FF80B46024601F039FB034699E700293FF46EAF8CE7244B9F422CDCA3F154730A
:404640009F427FF769AF40F213403B15834240F34B84C3F58663033321FA03F000FA03F38B427FF459AF00F00100C0F1020855E70AF1404303F5801353EA0B0300F039832A
:40468000104B9A4540F36483BCF1000FC0F22E832346294665E74FF002083FE7104631463346BCE7AFF300809C7500883CE4377E0000F07F0000F03F0000E03F888D0000A9
:4046C0000000E041FFFFEF3FFFFF3F43BAF5801F4FF0000205DACA4B01F0B6F98A466FF034024FEA2A53C74ECAF3130AA3F2FF334AF07F571344B2450C9347F4401740F337
:40470000D083C14B9A4540F307840026B4460C9BA7F5801701330C933946BC4B4FEACC0C6344D3E900AB52465B46CDF834C0CDE9060100F0D5FF52465B46CDE90801DDE9DA
:40474000060100F0CFFF02460B460020B04901F0A5FA02460B46DDE90801CDE90A2301F073F902460B46CDE90223CDE904237B1043F0005303F500239919002000230646CC
:404780000F460293DDE902231046194632463B46CDE9000101F058F902460B46DDE9080100F09EFF5246CDE908015B463046394600F096FF02460B46DDE9060100F090FF31
:4047C00002460B46DDE9000101F03EF902460B46DDE9080100F084FFDDE90A2301F034F9DDE90423CDE906011046194601F02CF902460B4606460F4601F026F96EA3D3E9B9
:40480000002382468B463046394601F01DF96CA3D3E9002300F066FF32463B4601F014F969A3D3E9002300F05DFF32463B4601F00BF967A3D3E9002300F054FF32463B463C
:4048400001F002F964A3D3E9002300F04BFF32463B4601F0F9F862A3D3E9002300F042FF02460B465046594601F0EEF8DDE9042306460F46DDE9000100F034FFDDE9062330
:4048800001F0E2F832463B4600F02CFFDDE9006782468B4632463B463046394601F0D4F800225C4BCDE9080100F01CFF52465B4600F018FF02980F460646DDE9000132465B
:4048C0003B4601F0C1F832463B46CDE90001DDE9060101F0B9F80022CDE906014D4B3046394600F0FDFEDDE9082300F0F9FE02460B465046594600F0F3FEDDE9042301F0B2
:40490000A3F802460B46DDE9060100F0EBFE82468B46DDE9000152465B4600F0E3FE32A3D3E9002302980F46064601F08DF830A3D3E90023CDE904013046394601F084F8FF
:40494000DDE90023CDE906013046394600F0C8FE02460B465046594600F0C2FE26A3D3E9002301F071F802460B46DDE9060100F0B9FEDDF834C0284BCDF818C06344D3E91D
:40498000002300F0AFFECDE900010C9800F0F6FF06460F46DDE90401204BDDF818C09C44DDE90023DCE900AB00F09CFE52465B4636E000BFAFF30080EF4E454A287ECA3F05
:4049C00065DBC9934A86CD3F01411DA96074D13F4D268F515555D53FFFAB6FDBB66DDB3F033333333333E33F000000E009C7EE3FF5015B14E02F3EBEFD033ADC09C7EE3F8D
:404A0000000040438E98030079B60B00509500000000F03F000008404095000030950000CDE906AB00F05EFE32463B4600F05AFE029832463B4682468B4600F051FEDDE975
:404A4000062300F04DFEDDE9042300F049FE02460B46DDE9000100F043FECDE9020108F1FF3858EA09030CBFD54BD64B0022CDE904230023CDE900450093DDE90067204697
:404A800032463B46294600F02BFE52465B4600F0DBFFDDE90223804689462046294600F0D3FF02460B464046494600F01BFE04460D465246304639465B46CDE9024500F0EC
:404AC000C3FF06460F4620463B462946324600F009FEBD4B824699428946884640F3138101F13F4303F5E003034340F0E581A0A3D3E90023DDE9020100F0F4FD32460446C6
:404B00000D463B465046494600F0EAFD02460B462046294601F028FA002840F0CD814C462015A0F2FE304FF4801101414144C1F30A50A64CA0F2FF35C1F3130BC0F582602D
:404B400003302C414BF4801B21EA040300224BFA00FB3946304600F0C3FD06460F46DDE902018BEAE87B0BEBD87B32463B464FEA0B5A00F0B7FD80A3D3E900230024204650
:404B80000D4600F061FF3246804689463B462046294600F0A5FD02460B46DDE9020100F09FFD77A3D3E9002300F04EFF76A3D3E9002306460F462046294600F045FF02464F
:404BC0000B463046394600F08DFD06460F4632463B464046494600F085FD42464B4604460D4600F07DFD02460B463046394600F077FD2246804689462B462046294600F08F
:404C000023FF63A3D3E9002306460F4600F01CFF61A3D3E9002300F063FD32463B4600F013FF5FA3D3E9002300F05CFD32463B4600F00AFF5CA3D3E9002300F051FD3246E3
:404C40003B4600F001FF5AA3D3E9002300F04AFD32463B4600F0F8FE02460B462046294600F03EFD06460F4632463B462046294600F0EAFE0022CDE900014FF080433046A0
:404C8000394600F02DFD02460B46DDE9000101F005F8424606460F464B462046294600F0D3FE42464B4600F01DFD02460B463046394600F015FD22462B4600F011FD0246EB
:404CC0000B4600203F4900F00BFD8A44BAF5801F0246C0F227815346DDE9040100F0B4FE03463EE4BCF1000FFFF66EAC0023194637E40B46334934E433461046314600F011
:404D0000A3FE03462DE4324B21F000449C4240F3FA80304B0B4403430CD132463B4600F0DFFC02460B46DDE9020101F009F900283FF4F6AE20A3D3E90023DDE9040100F0B9
:404D400083FE1DA3D3E9002300F07EFE034608E4BCF1000FCADA234605F1004101E402460B460020174900F099FF42E4AFF30080FE822B654715973C00000000432EE63FCF
:404D8000EF39FAFE422EE63F396CA80C615C20BED0A4BE726937663EF16BD2C541BDBB3E2CDE25AF6A56113F93BDBE166CC1663F3E5555555555C53F59F3F8C21F6EA50170
:404DC0000000F0BF0000F03FFFFF8F40FFFF0F00FFCB904000346F3F634B9A4582DD634B9A453FF7EDAB0022604B00F079FC54A3D3E9002306460F4600F026FE52A3D3E9CA
:404E00000023CDE900013046394600F01DFE3246CDE902013B463046394600F015FE002282468B4630463946514B00F00DFE02460B4647A1D1E9000100F052FC32463B4634
:404E400000F002FE02460B4600204A4900F048FC02460B465046594600F0F6FD3EA3D3E9002300F0F1FD02460B46DDE9020100F037FC06460F46DDE9000132463B4600F09D
:404E800031FCDDE90023002082468B4600F028FC02460B463046394600F022FCCDE90201DDE50026B44637E4334600202F4900F0F5FE0346FFF755BB29A3D3E90023DDE909
:404EC000040100F0C1FD26A3D3E9002300F0BCFD0346FFF746BBB8F1010F03467FF441AB01F10041FFF73DBB00297FF446ABC3F58263033347FA03F000FA03F3BB4217D084
:404F00008846FFF710BB1B4B9C423FF709AEDDE90023924693462EE64FF480264FF0010CFFF7FABB5A4600F057FB02460B46D3E600F00100C0F10208FFF7F5BAAFF300807C
:404F4000000000604715F73F44DF5DF80BAE543E555555555555D53FFE822B654715F73F9C7500883CE4377EFEFFEF3F0000F03F0000D03F0000E03F2DE9F041604E0C468B
:404F8000B6460E40764505460B4600F098800029024676DD5FEA215E00F08180AEF2FF3EC3F313031EF0010F43F480135ED100273C46D10F01EB43034FEA6E0E5200162013
:404FC0004FF4001165189D424FEAD2764FEA420202DC5B1B6C180F44013806EB43034FEA5101EFD1844620264FF000410AE0A34220D0D50F013E4FEA510105EB43034FEAB1
:40500000420220D09C420CEB0105F0DA002D05EB010C09DBA0461B1B954288BF03F1FF334446521B0844E4E7BCF1000FF2DB04F10108F0E7954217D8002D05EB010C48DBAA
:4050400098460023ECE7134315D140087B1003F17F5303F50013FA0703EB0E57394648BF40F00040BDE8F0811C46C2E7D10F01EB430352009BE7411C31D000F0010318447D
:40508000E3E721F000460643ECD079BB8E46D30AAEF1150E5205002BF9D0DC0222D400215B00D80201F10101FAD5C1F10100C1F1200422FA04F4234386448A406EE70246B7
:4050C0000B4600F0C1FC2A46234600F00BFBBDE8F081BCF1000FAADAA0460023A0E701373046B3E7202401200021E2E702460B4600F0F6FA02460B4600F0D0FDB2E700BF3F
:405100000000F07F000000002DE9F84FBE4B21F000469E420D468A4604460FDDBB4B9E4200F3B08000F0AB80B94BBA49BA4CBAF1000FC8BF19462046BDE8F88FB74B9E42C5
:4051400000F3BA80A3F1DE739E4240F3A5804FF0FF3B22462B462046294600F075FC02460B468046894600F06FFC8FA3D3E9002306460F4600F068FC8DA3D3E9002300F0CF
:40518000B1FA32463B4600F05FFC8BA3D3E9002300F0A8FA32463B4600F056FC88A3D3E9002300F09FFA32463B4600F04DFC86A3D3E9002300F096FA32463B4600F044FCB0
:4051C00083A3D3E9002300F08DFA42464B4600F03BFC81A3D3E90023804689463046394600F032FC7EA3D3E9002300F079FA32463B4600F029FC7CA3D3E9002300F070FA7F
:4052000032463B4600F020FC79A3D3E9002300F067FA32463B4600F017FC77A3D3E9002300F05EFA32463B4600F00EFCBBF1FF3F02460B4667D04046494600F053FA224679
:405240002B4600F001FC764E764B4FEACB0B5E449B44DBE9002300F043FA22462B4600F03FFA02460B46D6E9000100F039FABAF1000F0446BFF65FAF01F100415BE70028C5
:405280003FF452AF2246204629462B4600F02AFA04462046BDE8F88F59A3D3E9002300F021FA0022604B00F05FFE00283FF44FAF29462046BDE8F88F00F0C2F85B4B044628
:4052C0009E420D462FDCA3F550239E4254DC02460B4600F007FA0022534B00F001FA002206460F46204629464FF0804300F0FAF902460B463046394600F0D0FC4FF0000B0F
:4053000004460D4625E74046494600F0EBF922462B4600F099FB02460B462046294600F0DFF9044607E7424B9E421ADC0022414B00F0D6F9002206460F46204629463D4B20
:4053400000F082FB0022384B00F0CCF902460B463046394600F0A2FC4FF0020B04460D46F7E602460B460020334900F097FC4FF0030B04460D46ECE600222B4B00F0B0F9DF
:40538000002206460F4620462946274B00F0AAF902460B463046394600F080FC4FF0010B04460D46D5E600BF11DA22E33AAD903FEB0D76244B7BA93F513DD0A0660DB13FAD
:4053C0006E204CC5CD45B73FFF8300922449C23F0D5555555555D53F2F6C6A2C44B4A2BF9AFDDE522DDEAD3F6D9A74AFF2B0B33F711623FEC671BC3FC4EB98999999C93FC0
:405400009C7500883CE4377EFFFF0F440000F07FFB21F93FFB21F9BF182D4454FFFFDB3F80950000609500000000F03FFFFFF23FFF7F03400000F83F0000F0BFAFF30080F0
:4054400021F00041704700BF41F0004101F58010C00F704710B431F0004408D0114BA1F580129A4208D804205DF8044B704718B902205DF8044B704701F1FF41094B01F55C
:40548000E0019942EFD9B4F5801F01D20320EBE7054B9C4201D00020E6E7B0FA80F04009E2E700BFFFFFDF7F0000F07F0020704700200149704700BF0000F87FF0B5C1F32F
:4054C0000A5EAEF2FF35132D83B002460B460C464FEAD17607462EDC002D48DB3C49294101EA030010432BD049080B4053EA02070CD04FF48023132D24EA010143FA05F496
:4055000044EA01040CBF4FF0004700273149234601EBC606D6E900453A462046294600F0E1F8CDE90001DDE9000122462B4600F0D7F803B0F0BD332D06DDB5F5806F43D09E
:405540001046194603B0F0BDAEF2134E4FF0FF3121FA0EF10142F3D049080142D6D04FF0804320EA010143FA0EF70F43CEE721F000410143E4D0C3F3130141EA000CCCF1ED
:40558000000141EA0C0C13495C0C4FEA1C3C0CF4002C640401EBC6014CEA0403D1E900452046294600F09EF8CDE90001DDE9000122462B4600F094F8024621F0004141EADC
:4055C000C67310461946BDE700F08CF8BAE700BFFFFF0F00A0950000F8B5C1F30A5604460D460B46174616BB21F00043034332D00022314B00F028FA304A044697420D46EA
:405600000B4637DB40F2FE72C1F30A56363E3E44964215DD24A1D1E9000122462B4600F053F821A3D3E9002300F00EFAF8BD40F2FF72964224D040F2FE723E449642E9DC7D
:40564000002E09DD23F0FF4323F4E00343EA065520462946F8BDF8BD16F1350F15DA4CF250339F42D6DC12A1D1E9000122462B4600F02AF80EA3D3E9002300F0E5F9F8BD06
:4056800002460B4600F02EF8F8BD23F0FF4323F4E003363643EA0655204629460022084B00F0D2F9F8BD00BF9C7500883CE4377E59F3F8C21F6EA50100005043B03CFFFFA6
:4056C0000000903CAFF3008003F0004321F0004243EA0201704700BF81F0004102E000BF83F0004330B54FEA41044FEA430594EA050F08BF90EA020F1FBF54EA000C55EA55
:40570000020C7FEA645C7FEA655C00F0E2804FEA5454D4EB5555B8BF6D420CDD2C4480EA020281EA030382EA000083EA010180EA020281EA0303362D88BF30BD11F0004F6D
:405740004FEA01314FF4801C4CEA113102D0404261EB410113F0004F4FEA03334CEA133302D0524263EB430394EA050F00F0A780A4F10104D5F1200E0DDB02FA0EFC22FA0D
:4057800005F2801841F1000103FA0EF2801843FA05F359410EE0A5F120050EF1200E012A03FA0EFC28BF4CF0020C43FA05F3C01851EBE37101F0004507D54FF0000EDCF1C1
:4057C000000C7EEB00006EEB0101B1F5801F1BD3B1F5001F0CD349085FEA30004FEA3C0C04F101044FEA445212F5800F80F09A80BCF1004F08BF5FEA500C50F1000041EBF9
:40580000045141EA050130BD5FEA4C0C404141EB010111F4801FA4F10104E9D191F0000F04BF01460020B1FA81F308BF2033A3F10B03B3F120020CDA0C3208DD02F1140C36
:40584000C2F10C0201FA0CF021FA02F10CE002F11402D8BFC2F1200C01FA02F120FA0CFCDCBF41EA0C019040E41AA2BF01EB0451294330BD6FEA04041F3C1CDA0C340EDC6F
:4058800004F11404C4F1200220FA04F001FA02F340EA030021FA04F345EA030130BDC4F10C04C4F1200220FA02F001FA04F340EA0300294630BD21FA04F0294630BD94F095
:4058C000000F83F4801306BF81F480110134013D4EE77FEA645C18BF7FEA655C29D094EA050F08BF90EA020F05D054EA000C04BF1946104630BD91EA030F1EBF00210020E6
:4059000030BD5FEA545C05D14000494128BF41F0004130BD14F580043CBF01F5801130BD01F0004545F0FE4141F470014FF0000030BD7FEA645C1ABF194610467FEA655C42
:405940001CBF0B46024650EA013406BF52EA033591EA030F41F4002130BD00BF90F0000F04BF0021704730B54FF4806404F132044FF000054FF0000150E700BF90F0000F12
:4059800004BF0021704730B54FF4806404F1320410F0004548BF40424FF000013EE700BF42004FEAE2014FEA31014FEA02701FBF12F07F4393F07F4F81F06051704792F061
:4059C000000F14BF93F07F4F704730B54FF4607401F0004521F0004120E700BF50EA010208BF704730B54FF000050AE050EA010208BF704730B511F0004502D5404261EB1A
:405A000041014FF4806404F132045FEA915C3FF4DCAE4FF003025FEADC0C18BF03325FEADC0C18BF033202EBDC02C2F1200300FA03FC20FA02F001FA03FE40EA0E0021FA2C
:405A400002F11444C1E600BF70B54FF0FF0C4CF4E06C1CEA11541DBF1CEA135594EA0C0F95EA0C0F00F0DEF82C4481EA030621EA4C5123EA4C5350EA013518BF52EA0335D9
:405A800041F4801143F4801338D0A0FB02CE4FF00005E1FB02E506F00042E0FB03E54FF00006E1FB03569CF0000F18BF4EF0010EA4F1FF04B6F5007F64F5407404D25FEABA
:405AC0004E0E6D4146EB060642EAC62141EA55514FEAC52040EA5E504FEACE2EB4F1FD0C88BFBCF5E06F1ED8BEF1004F08BF5FEA500E50F1000041EB045170BD06F00046CE
:405B000046EA010140EA020081EA0301B4EB5C04C2BFD4EB0C0541EA045170BD41F480114FF0000E013C00F3AB8014F1360FDEBF002001F0004170BDC4F10004203C35DAA3
:405B40000C341BDC04F11404C4F1200500FA05F320FA04F001FA05F240EA020001F0004221F0004110EBD37021FA04F642EB06015EEA430E08BF20EAD37070BDC4F10C043E
:405B8000C4F1200500FA04F320FA05F001FA04F240EA020001F0004110EBD37041F100015EEA430E08BF20EAD37070BDC4F1200500FA05F24EEA020E20FA04F301FA05F25B
:405BC00043EA020321FA04F001F0004121FA04F220EA020000EBD3705EEA430E08BF20EAD37070BD94F0000F0FD101F00046400041EB010111F4801F08BF013CF7D041EA5B
:405C0000060195F0000F18BF704703F00046520043EB030313F4801F08BF013DF7D043EA0603704794EA0C0F0CEA135518BF95EA0C0F0CD050EA410618BF52EA4306D1D15A
:405C400081EA030101F000414FF0000070BD50EA410606BF1046194652EA430619D094EA0C0F02D150EA013613D195EA0C0F05D152EA03361CBF104619460AD181EA03012E
:405C800001F0004141F0FE4141F470014FF0000070BD41F0FE4141F4780170BD70B54FF0FF0C4CF4E06C1CEA11541DBF1CEA135594EA0C0F95EA0C0F00F0A7F8A4EB0504DB
:405CC00081EA030E52EA03354FEA013100F088804FEA03334FF0805545EA131343EA12634FEA022245EA111545EA10654FEA00260EF000419D4208BF964244F1FD0404F536
:405D0000407402D25B084FEA3202B61A65EB03055B084FEA32024FF480104FF4002CB6EB020E75EB030E22BFB61A754640EA0C005B084FEA3202B6EB020E75EB030E22BF3A
:405D4000B61A754640EA5C005B084FEA3202B6EB020E75EB030E22BFB61A754640EA9C005B084FEA3202B6EB020E75EB030E22BFB61A754640EADC0055EA060E18D04FEA16
:405D8000051545EA16754FEA06164FEAC30343EA52734FEAC2025FEA1C1CC0D111F4801F0BD141EA00014FF000004FF0004CB6E711F4801F04BF01430020B4F1FD0C88BFE7
:405DC000BCF5E06F3FF6AFAEB5EB030C04BFB6EB020C5FEA500C50F1000041EB045170BD0EF0004E4EEA113114EB5C04C2BFD4EB0C0541EA045170BD41F480114FF0000E26
:405E0000013C90E645EA060E8DE60CEA135594EA0C0F08BF95EA0C0F3FF43BAF94EA0C0F0AD150EA01347FF434AF95EA0C0F7FF425AF104619462CE795EA0C0F06D152EAF5
:405E400003353FF4FDAE1046194622E750EA410618BF52EA43067FF4C5AE50EA41047FF40DAF52EA43057FF4EBAE12E74FF0FF3C06E000BF4FF0010C02E000BF4FF0010CFC
:405E80004DF804CD4FEA410C7FEA6C5C4FEA430C18BF7FEA6C5C1BD001B050EA410C0CBF52EA430C91EA030F02BF90EA020F0020704710F1000F91EA030F58BF994208BF06
:405EC00090422CBFD8176FEAE37040F0010070474FEA410C7FEA6C5C02D150EA013C07D14FEA430C7FEA6C5CD6D152EA033CD3D05DF8040B704700BF8446104662468C4697
:405F00001946634600E000BF01B5FFF7B7FF002848BF10F1000F01BD4DF808EDFFF7F4FF0CBF012000205DF808FB00BF4DF808EDFFF7EAFF34BF012000205DF808FB00BFB1
:405F40004DF808EDFFF7E0FF94BF012000205DF808FB00BF4DF808EDFFF7CEFF94BF012000205DF808FB00BF4DF808EDFFF7C4FF34BF012000205DF808FB00BF4A0011D254
:405F800012F5001211D20DD56FF47873B3EB62520ED44FEAC12343F0004343EA505323FA02F070474FF00000704750EA013002D14FF0FF3070474FF00000704780F0004059
:405FC00002E000BF81F0004142001FBF5FEA410392EA030F7FEA226C7FEA236C6AD04FEA1262D2EB1363C1BFD218414048404140B8BF5B42192B88BF704710F0004F40F43D
:40600000000020F07F4018BF404211F0004F41F4000121F07F4118BF494292EA030F3FD0A2F1010241FA03FC10EB0C00C3F1200301FA03F100F0004302D5494260EB400025
:40604000B0F5000F13D3B0F1807F06D340084FEA310102F10102FE2A51D2B1F1004F40EBC25008BF20F0010040EA03007047490040EB000010F4000FA2F10102EDD1B0FAAA
:4060800080FCACF1080CB2EB0C0200FA0CF0AABF00EBC25052421843BCBFD0401843704792F0000F81F4000106BF80F400000132013BB5E74FEA41037FEA226C18BF7FEA21
:4060C000236C21D092EA030F04D092F0000F08BF0846704790EA010F1CBF0020704712F07F4F04D1400028BF40F00040704712F100723CBF00F50000704700F0004343F0B0
:40610000FE4040F4000070477FEA226216BF08467FEA23630146420206BF5FEA412390EA010F40F4800070474FF0000304E000BF10F0004348BF40425FEA000C08BF7047C1
:4061400043F0964301464FF000001CE050EA010208BF70474FF000030AE000BF50EA010208BF704711F0004302D5404261EB41015FEA010C02BF84460146002043F0B64391
:4061800008BFA3F18053A3F50003BCFA8CF2083AA3EBC25310DB01FA02FC634400FA02FCC2F12002BCF1004F20FA02F243EB020008BF20F00100704702F1200201FA02FCCE
:4061C000C2F1200250EA4C0021FA02F243EB020008BF20EADC7070474FF0FF0C1CEAD0521EBF1CEAD15392EA0C0F93EA0C0F6FD01A4480EA010C400218BF5FEA41211ED0C3
:406200004FF0006343EA501043EA5111A0FB01310CF00040B1F5000F3EBF490041EAD3715B0040EA010062F17F02FD2A1DD8B3F1004F40EBC25008BF20F00100704790F078
:40624000000F0CF0004C08BF49024CEA502040EA51207F3AC2BFD2F1FF0340EAC250704740F400004FF00003013A5DDC12F1190FDCBF00F000407047C2F10002410021FADA
:4062800002F1C2F1200200FA02FC5FEA310040F1000053EA4C0308BF20EADC70704792F0000F00F0004C02BF400010F4000F013AF9D040EA0C0093F0000F01F0004C02BF68
:4062C000490011F4000F013BF9D041EA0C018FE70CEAD15392EA0C0F18BF93EA0C0F0AD030F0004C18BF31F0004CD8D180EA010000F00040704790F0000F17BF90F0004FB5
:40630000084691F0000F91F0004F14D092EA0C0F01D142020FD193EA0C0F03D14B0218BF084608D180EA010000F0004040F0FE4040F40000704740F0FE4040F440007047FA
:406340004FF0FF0C1CEAD0521EBF1CEAD15392EA0C0F93EA0C0F69D0A2EB030280EA010C49024FEA402037D04FF0805343EA111143EA10130CF000408B4238BF5B0042F109
:406380007D024FF4000C8B4224BF5B1A40EA0C00B3EB510F24BFA3EB510340EA5C00B3EB910F24BFA3EB910340EA9C00B3EBD10F24BFA3EBD10340EADC001B0118BF5FEA5D
:4063C0001C1CE0D1FD2A3FF650AF8B4240EBC25008BF20F0010070470CF0004C4CEA50207F32C2BFD2F1FF0340EAC250704740F400004FF00003013A37E792F0000F00F098
:40640000004C02BF400010F4000F013AF9D040EA0C0093F0000F01F0004C02BF490011F4000F013BF9D041EA0C0195E70CEAD15392EA0C0F08D142027FF47DAF93EA0C0F17
:406440007FF470AF084676E793EA0C0F04D14B023FF44CAF08466EE730F0004C18BF31F0004CCAD130F000427FF45CAF31F000437FF43CAF5FE700BF7BB972B90029BEBF5D
:4064800000204FF0004106E008BF00281CBF6FF000414FF0FF3000F03BB882B0EC462DE9005000F005F8DDF804E002B00CBC70472DE9F041069C904606460F461D4600F047
:4064C00029F808FB01FCA8FB002300FB05C5B21A2B4467EB03038646C4E90023BDE8F0812DE9F843089E1746804689461D4600F067F900FB05F3A0FB074507FB0137B8EB58
:4065000004043D4469EB0505C6E90045BDE8F883704700BF00292DE9F043C0F2A8800026002BC0F29E8081468E4690469C46174604460D46002B3DD18A4259D9B2FA82F3D8
:406540003BB1C3F120029D4020FA02F29F4015439C40390CB5FBF1F01FFA87FE01FB10550EFB00F3220C42EA0545AB4209D9ED1900F1FF3280F00B81AB4240F20881023811
:406580003D44ED1AB5FBF1F301FB13550EFB03FEA4B244EA0545AE4508D9ED1903F1FF3280F0F780AE4540F2F480023B43EA0043002203E08B420FD900221346341C18BFFB
:4065C000012460424FF0000565EB45015840514000196941BDE8F083B3FA83F2002A40F089808B4202D3804500F2E2800123E5E712B90123B3FBF2F7B7FA87F8B8F1000F58
:406600003BD1ED1B4FEA174C1FFA87FE0122B5FBFCF00CFB10550EFB00F3210C41EA0545AB4207D9ED1900F1FF3102D2AB4200F2C3800846ED1AB5FBFCF30CFB13550EFBED
:4066400003FEA4B244EA0545AE4507D9ED1903F1FF3102D2AE4500F2AD800B4643EA0043ACE752426FEA060663EB43035BE7404261EB41014FF0FF3652E707FA08F7C8F1CF
:40668000200225FA02F34FEA174CB3FBFCF11FFA87FE0CFB113324FA02F205FA08F50EFB01F92A43100C40EA0343994504FA08F407D9DB1901F1FF3078D2994576D90239FB
:4066C0003B44C9EB0303B3FBFCF00CFB10330EFB00F592B242EA03439D4207D9DB1900F1FF325FD29D425DD902383B445D1B40EA01428CE7C2F1200328FA03F10CFA02FCAD
:4067000041EA0C0C4FEA1C402EFA03F1B1FBF0F51FFA8CF700FB151129FA03F30EFA02FE07FB05F943EA0E0E4FEA1E4343EA0141894508FA02F808D911EB0C0105F1FF33C8
:4067400032D2894530D9023D6144C9EB0101B1FBF0F300FB131107FB03F71FFA8EFE4EEA014E774508D91EEB0C0E03F1FF3117D2774515D9023BE64443EA0543A3FB08894C
:40678000C7EB0E0ECE4509D305D0002216E71046F7E613460AE794404445F6D2013BF4E70B46E9E71046A1E71D46CEE7014688E7134603E7023B51E702383D443AE700BF4F
:4067C0002DE9F043002B44D18A42154604464FD9B2FA82F70E464FB1C7F12003B94020FA03F602FA07F50E4300FA07F42F0CB6FBF7F01FFA85FE07FB10620EFB00F1260CCA
:4068000046EA0243994209D95B1900F1FF3280F0EE80994240F2EB8002382B44591AB1FBF7F307FB13110EFB03FEA4B244EA01418E4508D9491903F1FF3280F0DA808E45BA
:4068400040F2D780023B43EA004000263146BDE8F0838B4247D8B3FA83F6002E48D18B4202D3824200F2CF8001203146BDE8F08312B90125B5FBF2F5B5FA85FCBCF1000F0C
:4068800078D1491B2F0C1FFA85FE0126B1FBF7F007FB10110EFB00F2230C43EA01418A4207D9491900F1FF3302D28A4200F2BC801846891AB1FBF7F307FB13110EFB03FE18
:4068C000A4B244EA0142964508D9521903F1FF3180F09180964540F28E80023B43EA00403146BDE8F083002630463146BDE8F083C6F1200422FA04F5B3402B4321FA04F71F
:406900004FEA1348B7FBF8FC1FFA83F908FB1C7720FA04FE01FA06F509FB0CF44EEA05054FEA154E4EEA0747BC4202FA06F204D9FF180CF1FF3168D38C463F1BB7FBF8F460
:4069400008FB147709FB04F9ADB245EA0741894504D9C91804F1FF355DD32C4644EA0C44A4FB0223C9EB0101994249D345D0204600266BE7CCF1200405FA0CF521FA04F386
:406980002A0CB3FBF2F61FFA85FE02FB163820FA04F701FA0CF10EFB06F90F433C0C44EA0843994500FA0CF407D95B1906F1FF3138D2994536D9023E2B44C9EB0303B3FB9B
:4069C000F2F002FB10330EFB00F1BFB247EA0343994207D95B1900F1FF3721D299421FD902382B441746591A40EA06464EE7104614E7134627E70B4670E7B0409042B6D2A9
:406A0000601E002622E7304620E7BC4294D9ACF1020C1F4491E789459FD9023C19449DE73846DFE70E46C8E70238294441E700BF014B1868704700BFBC81FF1F0E4B70B5E6
:406A40001E460E4C0025E41AA410A54204D056F8253098470135F8E702F05AFE084B094C1E46E41AA4100025A54204D056F8253098470135F8E770BD1C9700001C9700001D
:406A80001C9700002497000010B5431E0A44914204D011F8014B03F8014FF8E710BD03460244934202D003F8011BFAE770472DE9F0471E4688B0149F002BB8BF06F10043A4
:406AC000129927F02007B6BF1E4600232D23462F1446109DDDF84CA00B7003D0452F03D1013501E0032300E002238DE8280406AB039307AB04932246334600F001FD472FD6
:406B0000804602D1119BDB0726D5462F08EB050911D198F80030302B0AD12046314600220023FFF7F9F918B9C5F10105CAF80050DAF8003099442046314600220023FFF745
:406B4000EBF908B1CDF81C90079B4B4504D25A1C079230221A70F7E74046079B159AC8EB0303136008B0BDE8F087034673B50029B8BF494203F8022BB4BF2D222B2209295A
:406B800042701ADD0DF1070426460A2291FBF2F502FB1511092D01F1300104F8011D2946F3DC3031651E04F8011CB5421A460AD215F8012B03F8012BF7E71A4630242144BD
:406BC00002F8024B5970101A02B070BD2DE9F04F91B08B4615461E461A9F044601F04CFAD0F800A0504600F0F9FB00230E933B680990073323F0070303F108029BF81880BA
:406C00003A60D3E90023CBE91223DBE91201FEF721FC0128DBE9120119D100220023FFF785F910B12D238BF84330A04BA04FB8F1470F88BF1F460323CBF81030DBF80030AE
:406C400023F00403CBF800304FF00009A1E0FEF701FCDBF8003048B9964A974FB8F1470F88BF17460322CBF81020E9E7DBF80420DBE91201571CCDE90A0101D1062209E012
:406C8000B8F1670F02D0B8F1470F05D1002A40F0C7810122CBF80420DBF8042043F480638DE80C00CBF800300DF1330302930DAB03930EAB059300230693CDF81080DDE99E
:406CC0000A232046FFF7F3FE08F0DF03472B07460AD10D9BD81C03DBDBF80420934237DDA8F102085FFA88F8B8F1650F0D9915D8013942460BF150000D91FFF736FF0E9AA1
:406D000081468318012ACBF8103003DCDBF80020D10738D50133CBF8103034E0B8F1660F18D10029DBF8043009DDCBF810101BB9DBF80020D20721D501330B441CE01BB9D8
:406D4000DBF80020D00701D5023315E0012313E04FF067080D9B0E9A934207DBDBF80020CBF81030D10709D5013305E0002BD4BFC3F1020301231344CBF810300D9B4FF0DC
:406D80000009CBF858309DF8333013B12D238BF843300096204659460FAA2B4600F05CF9013002D14FF0FF3052E1DBF800305A0505D4204629463A46DBF8103008E1B8F199
:406DC000650F40F2D080DBE9120100220023FFF7A3F850B320462946384A0123B0470130E0D00E9B0D9A9A4209DBDBF80030D80705D4DBF800309F0700F1108107E1204656
:406E000029465246099BB0470130CBD000270E9B013B9F42EDDA204629460BF11A020123B0470130BED00137F1E70D9B002B29DC20462946214A0123B0470130B2D00D9BCB
:406E40002BB90E9B1BB9DBF80030D907D1D5204629465246099BB0470130A3D04FF000080D9B20465B429845294608DA0BF11A020123B047013095D008F10108F0E73A463A
:406E80000E9BA5E0DBF858200E9B9A42A8BF1A46002A914602DC4FF000081CE0204629463A464B46B0470130F5D17BE7B6950000B2950000BE950000BA950000C29500002A
:406EC000204629460BF11A020123B04701303FF469AF08F10108DBF85830B9F1000FB4BF1A46C9EB03029045EADB07EB03080D9A0E9B9A4210DBDBF80030DA070CD40E9A52
:406F00001744C8EB07030D9FD21B9342A8BF1346002B1F4608DC0EE0204629465246099BB0470130EBD13DE7204629464246B04701303FF437AF4FF000080AE020462946EC
:406F40000BF11A020123B04701303FF42BAF08F101080D9A0E9B002FA3EB0203A8BFDB1B9845EBDB45E70E9A012A01DCDB0736D5204629463A460123B04701303FF412AF2E
:406F8000204629465246099BB04701303FF40AAFDBE9120100220023FEF7BEFFE8B90E9B204629467A1C013B1DE0204629460BF11A020123B04701303FF4F4AE01370E9B01
:406FC000013B9F42F1DB204629464B460BF15002B04701307FF40DAFE4E60027EFE7204629463A460123B0470130ECD1DAE6204629460BF119020123B04701303FF4D2AECD
:407000000137DBF80C300F9A9B1A9F42EFDBDBF80C000F9B9842B8BF184619E00027F0E743F480638DE80C00CBF800300DF1330302930DAB03930EAB059300230693CDF85A
:4070400010802046DDE90A23FFF731FD074640E611B0BDE8F08F00BF2DE9F84391461F468A680B6906469342B8BF1346C9F8003091F843200C46DDF8208012B10133C9F8AC
:4070800000302368990642BFD9F800300233C9F80030256815F006051CD094F843302268003318BF012392061FD5E118302081F843005A1C94F845102244023382F84310BE
:4070C00013E03046394604F119020123C047013007D00135E368D9F800209B1A9D42F0DBDBE74FF0FF30BDE8F8833046394604F14302C0470130F4D02268D9F80050E36823
:4071000002F00602042A08BF5D1B2269A3680CBF25EAE57500259342C4BF9B1AED184FF00009A9450ADA3046394604F11A020123C0470130D5D009F10109F2E70020BDE824
:40714000F88300002DE9FF410C461746227E98466E2A06460A9B01F1430100F0B08012D8632A23D00AD8002A00F0BD80582A40F0CC8084F84520DFF804E257E0642A1ED040
:40718000692A1CD0C1E0732A00F0B18009D86F2A2ED0702A40F0B980226842F0200222603FE0752A24D0782A3BD0AEE01A6804F14205111D1960136884F84230A9E020684A
:4071C0001A6810F0800F02D0101D186008E010F0400F02F10400186002D0B2F9003000E01368002B3EDA2D225B4284F8432039E020681A6810F0800F02D0101D186007E03B
:4072000010F0400F02F10400186001D0138800E01368227EDFF864E16F2A0CBF08220A221CE07822DFF858E184F845202268186812F0800F00F104051D6003D1550601D5B5
