:400000000080002011000000D1240000D124000008B5044B1A6803F53F5302331A6002F071FA00BFFA46004010B5054C237833B9044B13B10448AFF300800123237010BD20
:400040002882FF1F0000000058940000084B10B51BB108480849AFF300800848036803B910BD074B002BFBD0BDE81040184700BF00000000589400002C82FF1F0881FF1F27
:400080000000000000F1080343604FF0FF328260C360036100230360704700BF00230361704700BF43684B609A688A609A68516099600861036801330360704730B40D6866
:4000C000B5F1FF3F01D1026907E000F1080200E01A4653681C68AC42FAD953684B6099608A605160086103680133036030BC704703694268816891608268416851605A68BF
:40010000824201D182685A6000220261186801381860704706480068006880F3088862B661B6BFF34F8FBFF36F8F00DF00BF000008ED00E04FF0807340F8043C40F8081C0F
:40014000034B40F80C3C40F8202C4038704700BFA1010000074B19680868B0E8F00F80F30988BFF36F8F4FF0000080F311884EF00D0E70471883FF1F4FF08052034B1A6022
:40018000BFF34F8FBFF36F8F704700BF04ED00E0EFF311804FF0A00181F311887047002008B5FFF7F5FFFEE708B5FFF7F1FF044A136801331360BFF34F8FBFF36F8F08BDDD
:4001C0000C81FF1F80F31188704700BF08B5044A1368013B136013B90020FFF7F3FF08BD0C81FF1FEFF30980BFF36F8F0D4B1A6820E9F00F10602DE908404FF0A00080F33C
:40020000118800F01BFD4FF0000080F31188BDE8084019680868B0E8F00F80F30988BFF36F8F70471883FF1F08B5FFF7B1FF00F0C7FB18B14FF08052024B1A600020FFF76D
:40024000C1FF08BD04ED00E0034A044B1A600722043B1A60704700BFCF01010014E000E008B5094B1A6842F460021A601A6842F060421A60FFF7E8FF0022044B1A60FFF7E2
:4002800049FFFFF78DFF00BF20ED00E00C81FF1F10B50446FFF788FFA26BE36B9A4201D1012400E00024FFF791FF204610BD00BF10B50446FFF778FFA36B0BB9012400E094
:4002C0000024FFF783FF204610BD00BF38B504461546026C3AB903685BBB406800F0FCFD002363602CE06DB9806807F073F8A268236C1344A360626893421CD32368A360FA
:4003000000201DE0C06807F065F8236C5B42E2681A44E26021688A4202D262681344E360022D0AD1A36B53B1A36B013BA363002006E0002004E0002002E0002000E00020E9
:40034000A36B0133A36338BD026C72B110B5C3681344C3604468A34201D30368C36003460846D96807F036F810BD704710B50446FFF71AFF0BE0636A63B104F1240000F0DE
:40038000DDFC08B100F048FDA36C013BA364A36C002BF0DC4FF0FF33A364FFF717FFFFF703FF0BE0236963B104F1100000F0C6FC08B100F031FD636C013B6364636C002BBD
:4003C000F0DC4FF0FF336364FFF700FF10BD00BF38B504460D46FFF7E7FE2168E26B236C03FB021060600020A063A160013A02FB0313E3604FF0FF336364A36455B9236950
:4004000083B104F1100000F099FC01280AD1FFF7B3FE07E004F11000FFF734FE04F12400FFF730FEFFF7D2FE012038BD70B506460D4619B101FB00F0013000E000204C30FF
:4004400000F0B4FD044658B10DB9206002E000F14C030360E663256420460121FFF7B8FF204670BDF0B585B004460F4601921E460025FFF799FEA26BE36B9A4201D3022EC6
:4004800016D1204639463246FFF720FF636A43B104F1240000F052FC012805D1FFF76CFE02E008B1FFF768FEFFF790FE012042E0019B1BB9FFF78AFE00203CE01DB902A804
:4004C00000F074FC0125FFF781FE00F06FFAFFF76BFE636CB3F1FF3F01D100236364A36CB3F1FF3F01D10023A364FFF76FFE02A801A900F065FCC0B92046FFF7C9FE70B12A
:4005000004F11000019900F0EDFB2046FFF72EFF00F0D8FA0028ACD1FFF72EFEA9E72046FFF724FF00F0CEFAA3E72046FFF71EFF00F0C8FA002005B0F0BD00BF38B54C201C
:4005400000F034FD0446C8B10025456005608560C56085630123C36305644FF0FF33436483641030FFF78EFD04F12400FFF78AFD204629462A462B46FFF774FF204638BDF3
:400580002DE9F04104460F4690461D46FFF700FE0646A26BE36B9A4201D3022D1BD1204639462A46FFF792FEA36CB3F1FF3F0DD1636A93B104F1240000F0C0FB78B1B8F165
:4005C000000F0ED00124C8F800400BE0A36C0133A364012406E0002404E0012402E0012400E001243046FFF7EDFD2046BDE8F081F0B585B004460F4601921E460025FFF713
:40060000D3FDA36B33B3E56820463946FFF79CFE96B9A36B013BA363236813B900F09EFC6060236993B104F1100000F087FB01280CD1FFF7A1FD09E0E560636A33B104F13F
:40064000240000F07BFB08B1FFF796FDFFF7BEFD01204BE0019B1BB9FFF7B8FD002045E01DB902A800F0A2FB0125FFF7AFFD00F09DF9FFF799FD636CB3F1FF3F01D10023C4
:400680006364A36CB3F1FF3F01D10023A364FFF79DFD02A801A900F093FB08BB2046FFF707FEB8B1236833B9FFF77EFD606800F0BBFBFFF78BFD04F12400019900F012FB13
:4006C0002046FFF753FE00F0FDF9002897D1FFF753FD94E72046FFF749FE00F0F3F98EE72046FFF743FE00F0EDF9002005B0F0BD10B50446FFF758FDA46BFFF767FD204604
:4007000010BD00BF094B9B6A1B680BB9012300E0002323B14FF0FF32044BDA627047034B9A6AD268D2685268DA6270474482FF1F10B50446006B00F093FC204600F090FCAE
:4007400010BD00BF70B506460C4619B9800000F02DFC044654B1502000F028FC054608B1046304E0204600F07BFC00E0002525B1286BA521B20006F038FE284670BD00BF64
:4007800070B504461546002306E0C85CE21882F83400CA5C12B101330B2BF6D9002384F83F30042D00D90425E562256400266664201DFFF773FC04F11800FFF76FFC2461E2
:4007C000C5F10505A5616462A66484F84C6070BD70B5002407E004EB84039B0010481844FFF750FC0134042CF5D90E4C04F194063046FFF747FC04F1A8052846FFF742FCC8
:4008000004F11400FFF73EFC04F1BC00FFF73AFC2046FFF737FCA662C4F8D05070BD00BF7482FF1F4482FF1F38B504460E4BD3F8D4205060D3F8D830984208D20A4BD3F8A5
:40084000D000D3F8D4100431FFF738FC38BD064DA86AD5F8D4100431FFF730FCEB6A9C4200D2EC6238BD00BF4482FF1F2DE9F04782B081468A46164698460B9F10460C9958
:40088000FFF760FF002854D00446036B06F18045013D03EB850525F00705009651460A9A0D9BFFF76DFF284649464246FFF742FC206007B13C60FFF777FC284BD3F8DC2041
:4008C0000132C3F8DC20D3F8D4304BB9234BC3F8D440D3F8DC30012B10D1FFF779FF0DE01E4BD3F8E0304BB91C4BD3F8D430DB6A0A9A934202D8194BC3F8D440174AD2F84B
:40090000E4300133C2F8E430E36A012505FA03F0D2F8E8100143C2F8E810303203EB830080001044211DFFF7BDFBFFF74FFC2C4601E04FF0FF34012C0CD1084BD3F8E030B3
:4009400043B1064BD3F8D430DB6A0A9A934201D2FFF712FC204602B0BDE8F0874482FF1F00B585B0002300930193029303930C480C496422FFF77AFF01280DD1FFF708FCB8
:40098000094B4FF0FF32DA620122C3F8E0200022C3F8D820FFF764FC05B05DF804FB00BF350C0000689400004482FF1F034AD2F8F0300133C2F8F030704700BF4482FF1FA6
:4009C0002DE9F0413E4BD3F8F030002B66D13C4BD3F8D8200132C3F8D820D3F8D880B8F1000F0CD19A6AD3F8D0109962C3F8D020D3F8F4200132C3F8F420FFF783FE304BCA
:400A0000DB6A984503D200273CE0012700E000272B4B9B6A1B680BB9012300E0002323B14FF0FF32264BDA622CE0254B9B6ADB68DC686368984502D2214AD36222E0261D0A
:400A40003046FFF755FBA36A1BB104F11800FFF74FFBE06A01238340194DD5F8E8201343C5F8E83005F1300300EB8000800018443146FFF717FBE26AD5F8D430DB6A9A42D0
:400A8000C3D2C5E70E4AD2F8D430DB6A03EB83039B0013441B6B012B08D808E0084AD2F8F8300133C2F8F830002700E00127044BD3F8FC3003B101273846BDE8F08100BFAC
:400AC0004482FF1F70B5FFF76FFB304BD3F8F020013AC3F8F020D3F8F030002B4ED12B4BD3F8DC3033BB00244BE0284C236ADD6805F11800FFF7FCFA2E1D3046FFF7F8FA89
:400B0000E86A01238340D4F8E8201343C4F8E83004F1300300EB8000800018443146FFF7C1FAEA6AD4F8D430DB6A9A4202D30122C4F8FC20154B5B69002BD6D1134BD3F8B3
:400B4000F8306BB911E0FFF73BFF18B101220F4BC3F8FC200D4AD2F8F830013BC2F8F8300A4BD3F8F830002BEDD1084BD3F8FC30012B05D1FFF700FB012402E0002400E00B
:400B80000024FFF723FB204670BD00BF4482FF1F10B5F0B10446FFF709FF104BD3F8D8201444D3F8D4000430FFF7A2FA58B90B4BD3F8D420D16A01228A40D3F8E81021EA22
:400BC0000202C3F8E8202046FFF72EFEFFF77AFF00E0002008B9FFF7CFFA10BD4482FF1F38B51FE0FFF7E2FE114BD3F8BC40FFF769FFBCB1FFF7D8FA0D4CD4F8C830DD682C
:400C0000281DFFF775FAD4F8DC30013BC4F8DC30D4F8EC30013BC4F8EC30FFF7D7FA2846FFF786FD024BD3F8EC30002BDAD138BD4482FF1F08B5FFF7D3FFFCE7274BD3F8FC
:400C4000F03023B10122254BC3F8FC20704710B5224B0022C3F8FC20D3F8D4301B6B1A68B2F1A53F0BD15A68B2F1A53F07D19A68B2F1A53F03D1DB68B3F1A53F07D0174B78
:400C8000D3F8D400D3F8D410343100F0A9FC1348D0F8E830B3FA83F3DBB2C3F11F039A00D118890001444C6B64684C631A44920002443832944206D1606803EB8301890098
:400CC000074A0A445060054A03EB83039B0013445B6BDB68C2F8D43010BD00BF4482FF1F7482FF1F38B50D46134CD4F8D4101831FFF7E4F9D4F8D4000430FFF7F9F950B975
:400D0000D4F8D420D16A01228A40D4F8E81021EA0202C4F8E820B5F1FF3F06D10648D0F8D4100431FFF7BEF938BD034BD3F8D8002844FFF779FD38BD4482FF1F38B5C368EE
:400D4000DC6804F118052846FFF7D2F9154BD3F8F030ABB9251D2846FFF7CAF9E36A01229A401048D0F8E8100A43C0F8E820303003EB83039B0018442946FFF793F903E0C8
:400D800009482946FFF78EF9E26A064BD3F8D430DB6A9A4204D90120024BC3F8FC0038BD002038BD4482FF1F5882FF1F034BD3F8F4200260D3F8D830436070474482FF1FE1
:400DC00038B504460D46FFF7EFF9124BD3F8D8202B68B3F1FF3F14D020680E49D1F8F410884202D0616891420DD96168501A83420BD98A1A13442B602046FFF7D7FF002490
:400E000004E0002402E0012400E00124FFF7DEF9204638BD4482FF1F0122024BC3F8FC20704700BF4482FF1F002850D038B50346C16A274AD2F8D420D26A914246D2826907
:400E4000002A06DB224AD2F8D420D26AC2F1050282615969DA6A02EB820292001D480244914201D1012200E0002252B31D461C1D2046FFF73DF978B9EA6A02EB82039B0021
:400E800013490B441B6B3BB901239340D1F8E82022EA0303C1F8E8300D48D0F8D430DB6AEB6201229A40D0F8E8100A43C0F8E820303003EB83039B0018442146FFF7F2F8D3
:400EC00038BD034AD2F8D420D26ADA6238BD70474482FF1F7482FF1F002837D038B50346426C013A4264C06A196C884230D08ABB1C461D1D2846FFF7FBF878B9E26A02EBC7
:400F000082039B0014490B441B6B3BB901239340D1F8E82022EA0303C1F8E830236CE362C3F10502A261012404FA03F10A48D0F8E8200A43C0F8E820303003EB83039B0079
:400F400018442946FFF7AEF8204638BD00207047002038BD002038BD4482FF1F064BD3F8D4302BB1044BD3F8D420536C01335364014BD3F8D40070474482FF1F094A22F02B
:400F80000702094BC3F838290020C3F83C0947F6F871C3F84419C3F84009516003F51463136070474C83FF1F0CFAFF1F70B50446FFF7FCFC264BD3F848392BB9FFF7DEFFAA
:400FC0000122234BC3F8482934B1083414F0070F02D024F007040834621E47F6F6739A422BD81B49D1F8383901F6381101E0194613465A68A24202D21A68002AF7D1154A03
:4010000093421CD00D6808351A680A605A68121B102A0CD91E1972605C6074680E4900E011460A685068A042FAD332600E6059680A4A13685B1A136002E0002500E00025B7
:40104000FFF740FD0DB900F0CFFA284670BD00BF0CFAFF1F4C030020440300201081FF1FD0B170B50546A0F10806FFF79FFC55F8044C0A4A00E01A4613685968A142FAD37D
:4010800045F8083C166055F8041C054A13680B441360FFF717FD70BD704700BF440300201081FF1F704700BF70B582B000268DF80760354602F022FC044602F017FC00EBD9
:4010C0004400C0B2B04212D0032806D1022E04D19DF8073001338DF80730032806D1012E04D19DF80730013B8DF8073006460135ADB2312D0FD99DF807305BB1084B186807
:401100000DF1070100221346FFF7ACF900258DF8075000E000250320FFF73AFDCAE700BF240B002070B50646134B1D785878002102F0ACFD012001F049FD45F0FC0002F013
:4011400001FE05F00F0545F00C04204602F0FAFD44EA0614E4B244F0040002F0F3FD012001F034FD04F0FB0002F0ECFD012001F02DFD02F0CBFD70BD1481FF1F38B50546C0
:40118000184B1C785878002102F080FD012001F01DFD44F0010002F0D5FD04F0FD0040F0010002F0CFFD002001F010FD04F00D0343F00104204602F0C5FD44EA0514E4B282
:4011C00044F0040002F0BEFD012001F0FFFC04F0F90002F0B7FD012001F0F8FC02F096FD38BD00BF1481FF1F08B5012001F0EEFC08BD00BF10B50446FFF7F6FF2009FFF722
:40120000BDFF04F00F00FFF7B9FF10BD38B505460078012404E0FFF7EDFF285D0134E4B20028F8D138BD00BF10B50446FFF7DCFF2009FFF777FF04F00F00FFF773FF10BD37
:4012400008B5282001F0ACFC0320FFF76BFF052001F0A6FC0320FFF765FF0F2001F0A0FC0320FFF75FFF012001F09AFC0220FFF759FF052001F094FC0620FFF7D5FF0E2009
:40128000FFF7D2FF2C20FFF7CFFF0820FFF7CCFF0120FFF7C9FF0C20FFF7C6FF0320FFF7C3FF052001F07CFC08BD00BF08B50C20FFF7BAFF0122014B1A7008BD58030020EA
:4012C00008B5054B5B7823B9FFF7BAFF0122024B5A70FFF7EBFF08BD5803002008B5032819D8DFE800F002070D1381F08000FFF79BFF08BDA1F14000C0B2FFF795FF08BD97
:40130000A1F16C00C0B2FFF78FFF08BDA1F12C00C0B2FFF789FF08BD002303E00021034AD1540133012BF9D9704700BF8803002008B530B902F0CAFA80F0010000F00100D7
:4013400008BD012806D102F0C9FA10F0010F03D1012002E0002000E00020C0B208BD00BF10B50022324B1A6059E0C0B2FFF7E0FF2F4B18711B682F4AD45C052C4BD8DFE84E
:4013800004F003090E13273B003018BF0120294AD05440E000B10220264AD0543BE000B10320244AD05436E0234A52F82300234900221346FFF756F81D4B1A6803EB82016D
:4013C000002088601B7903B104231A498B5422E070B1174A02EB83029268322A00D905241449CC54124901EB830301329A6012E00021104AD1540EE00F4A52F823000F49D1
:4014000000221346FFF72EF8094B1A681B7903B1234608498B54064A136801331360044B18680128A1D90A20FFF7B2FB99E700BF5C030020880300209C0800201681FF1FCB
:4014400008B502F04FFF024B187001F0E9FB08BD0C06002008B5012001F0C6FA6420FFF797FB002001F0C0FA4FF46170FFF790FBF1E700BF00000000F0B583B000278DF8B8
:4014800000708DF801708DF802708DF803708DF80470384601F052FC384601F04FFC384601F04CFC384601F049FC384601F046FC6420FFF76DFB264B1E689B681E44BE420D
:4014C0003DD00024204671001FA3D3E9002305F079FC234613E0DA00C2F12004B2F1200520FA02F201FA04F442EA040202D441FA05F52A4302AC1C4404F8082C0133032BB9
:40150000E9D9721E134B9A4219D89DF8000001F015FC9DF8010001F011FC9DF8020001F00DFC9DF8030001F009FC9DF8040001F005FC01F0DBFB10F0010FFAD037466420B7
:40154000FFF726FBBBE700BF40597307000000001881FF1FFE59620200B583B0164B1B7813F0080F0FD0002002F02AF900B202A941F8040DE822104B1A70104B18680022D1
:401580001346FEF7FDFF0C4B1B7813F0100F0FD0012002F015F900B202A941F8080DF022054B1A70054B586800221346FEF7E8FF03B05DF804FB00BF84C700401006002050
:4015C000034B044ADA62044A9A63044ADA6370470080FF1F55010000E50100002902000008B5FEF7D5FDFEE708B5FEF7D1FDFEE700B585B0FFF7E4FF62B65D4802F0E6FE5D
:4016000002F0B6FE0320002101F0EAFAFFF74AFDFFF782FE02F08AFD02F06AFC01F05CFC02F0BAF9FFF74CFE00200146FFF756FE5048FFF7EBFD01200021FFF74FFE4E48F7
:40164000FFF7E4FD02200021FFF748FE4B4C2046FFF7DCFD03200021FFF740FE2046FFF7D5FD4FF47A7001F09BFA02F011F802F009FC01F03BFD01F089FF01F043FF02F036
:4016800085FC4FF47A7001F08BFA0120FEF756FF3B4B1860082001210022FEF7C7FE394B1860012001460022FEF7C0FE364C2060012001460022FEF7B9FE606008200421F9
:4016C0000022FEF7B3FE314C2060082004210022FEF7ACFE6060012001460022FEF7A6FE2B4B18600323009300240194029403942848294980222346FFF7B8F80225009558
:40170000019402940394254825494FF480722346FFF7ACF800950194029403942148224980222346FFF7A2F800950194029403941E481F4980222346FFF798F8009501942E
:40174000029403941B481C494FF480722346FFF78DF801230093019402940394174818494FF400722346FFF781F8FFF7F9F8FEE74114000070940000849400009494000030
:4017800098080020240B00209C08002010060020280B002055140000AC940000811D0000B0940000A9100000B894000061130000BC94000079140000C09400004D18000033
:4017C000C494000038B5022001214FF48042134601F026FE044601F0A5F905460221FF22032301F0B9F9284645F6A0314CF2A07201F0C6F92046294601F064F92046012197
:4018000001F018F938BD00BF38B5022001214FF48042134601F022FE044601F083F905460221FF22032301F097F9284645F6A2314CF2A47201F0A4F92046294601F042F906
:401840002046012101F0F6F838BD00BF2DE9F04186B0002402940394FFF7B4FFFFF7D4FF01F0A0FF0320012101F0BCFF0C20012101F0B8FF3020022101F0B4FFC02002217C
:4018800001F0B0FF0120014601F0BEFF0220012101F0BAFF564801F0F7FF01F0EBFC01F0AFFD234608E00022524941F82320524941F823200133DBB29F2BF4D900273E46E6
:4018C0003D463C464D4B1868FEF712FF0028F9D04A4B5868FEF70CFF0028F3D0DFF81C81D8F8000004A900221346FEF781FED8F8040005A900221346FEF77AFE049B002B80
:40190000B8BF5B42029A13440293059B002BB8BF5B42039A134403930134A4B27F2C2CD900248DF8074016E006AB03EB840252F8103CC3F3CF18002342F8103C02F05AFD37
:4019400080B2804505D99DF8073043F001038DF807300134E4B2012CE6D99DF8070001F067FB9DF8073023B10136B6B200273C4603E00137BFB2002634460C2E02D8B7F559
:40198000967F30D9012002F03BFDDFF87880D8F8000000214FF0FF320B46FEF729FE049804F0D6FF134B43F82500059804F0D0FF114B43F82500D8F8000000210A460B4650
:4019C000FEF750FD0135ADB2A02D7FF47BAF0C4B18680DF1070100221346FEF743FD00273E463D466EE7002002F00AFD6AE700BF59150000180600208C03002010060020DC
:401A0000280B00209808002010B586B0674B1B78013B042B00F2C780DFE803F03D03205A900000200146FFF759FC6148FFF7EEFB01200021FFF752FC5E48FFF7E7FB02204B
:401A40000021FFF74BFC5C48FFF7E0FB03200021FFF744FC5948FFF7D9FBA4E000200146FFF73CFC5648FFF7D1FB01200021FFF735FC5448FFF7CAFB02200021FFF72EFC12
:401A80005148FFF7C3FB03200021FFF727FC4A48FFF7BCFB87E000200146FFF71FFC4848FFF7B4FB01200021FFF718FC4748FFF7ADFB02200021FFF711FC4348FFF7A6FB48
:401AC00003200021FFF70AFC3B48FFF79FFB6AE000200146FFF702FC3D48FFF797FB01200021FFF7FBFB314CB4F9023003EB43035B00384A134401A83749DA7806F0E8F89E
:401B000001A8FFF783FB02200021FFF7E7FB01A83249334BB3F9002006F0DAF801A8FFF775FB03200021FFF7D9FB01A82D49A28806F0CEF801A8FFF769FB34E00020014697
:401B4000FFF7CCFB2848FFF761FB01200021FFF7C5FB164CB4F9023003EB43035B001D4A134401A821499A8806F0B2F801A8FFF74DFB02200021FFF7B1FB01A81C49184B4E
:401B8000B3F9022006F0A4F801A8FFF73FFB03200021FFF7A3FB01A81649E28806F098F801A8FFF733FB06B010BD00BF3081FF1F9C960000B4960000CC960000E4960000E6
:401BC000FC960000149700002C970000449700005C970000F4940000749700008C9700006C030020A4970000BC970000D4970000E8970000FC97000010B5254BB3F90230B4
:401C000003EB43035B00234A1344DA78224B1B8813449BB219B20A2902DD1D4A938006E0C2F10A021C4B1A800A22194B9A80184C207902F0D9FBB4F9023003EB43035B0073
:401C4000144A13449988144B5B880B449BB298B25A1E92B240F2CE74A24202D80C4AD38011E000B2002806DC49420B4B59800022074BDA8007E0C1F5FA61074B59804FF434
:401C8000FA62034BDA80024BD88802F05DFA10BD3081FF1FF49400006C030020314B1A78531EDBB2022B5CD800B587B0022A04D102200B21FFF712FB03E003200B21FFF7A4
:401CC0000DFB284BB3F9022002EB42035B0026490B449878012809D102EB420252000A4401A82249527805F0F3FF34E002280FD104F02AFE01464FF07E5004F031FF04F001
:401D000007FA02460B4601A8194905F0E1FF22E004280FD104F018FE01464FF07E5004F01FFF04F0F5F902460B4601A8114905F0CFFF10E008280ED104F006FE01464FF0ED
:401D40007E5004F00DFF04F0E3F902460B4601A8094905F0BDFF01A8FFF758FA07B05DF804FB70473081FF1FF4940000109800001C9800002898000034980000000000008E
:401D80002DE9F04F91B000278DF82A70FFF73CFEC14CB4F9023003EB43035B00BF4A1344D87802F021FBE08802F0CEF9BB463C4600220023CDE900233E4602F073FA012810
:401DC00003D10520FEF7E4FEF7E7B54B18680DF12B0100221346FEF70BFC58B1AE4A13780133DBB21370062B02D10122AA4B1A70FFF70AFEAA4B58680DF12B010022134646
:401E0000FEF7F6FB50B1A44A1378013BDBB2137013B90522A04B1A70FFF7F6FDA14B1868FEF766FC002800F09E80012002F0E8FA9C4B18680DF12A0100221346FEF7D8FBE4
:401E4000994B186800214FF0FF320B46FEF7D0FB9DF82A309BB3954E954D964C304629462246802303F094FF2046802109AA03F053FF06F1200029462246802303F088FFF8
:401E80002046802108AA03F047FF089804F040F904460D46099804F03BF902460B462046294602F0C9FA76A3D3E9002304F0AEFA0022814B04F080F9CDE9000103E000222F
:401EC0000023CDE900237948802106AA03F0C6FE7748802107AA03F0C1FE0698014604F08BFD04460798014604F086FD0146204604F07AFC0446002104F030FF20B1204676
:401F000002F014FC054600E00025079804F000F906460F46069804F0FBF802460B463046394602F089FA56A3D3E9002304F06EFA0022614B04F040F983460C46DDE9000189
:401F400004F0D4FB5A30B42801D804F10044564B186800210A460B46FEF784FA002002F04FFA01263746002F00F081814A4B1B78012B40F0C88027E007EB47035B00474AB5
:401F80001344B3F9500004F0B1F85A46234604F08FFBB0B107EB47025200484B1344B3F9020004F0A3F85A46234604F095FB40B13A4A7900CB195B00134493F854A093F87A
:401FC00055900137FFB202E000274FF0FF090C2FD2D99DF82A3083B1B9F10C0F0DD800205146FFF77BF90BA8354901EB091105F093FE0BA8FFF70AF906E000200146FFF743
:402000006DF93048FFF702F901200A21FFF766F99DF82A30002B59D01F4BB3F90270DFF87C804FEA470909EB07035B004344987804F08EFC294604F0DFFC03904F447F00B8
:402040004744787804F084FC0146039804F088FD04F05EF80CA3D3E9002302F0EFF902460B460BA1D1E9000104F0D0F902460B460BA8154905F02CFE2EE000BFAFF30080EF
:402080006E861BF0F921094004560E2DB29DD73F295C8FC2F5E830403081FF1FF49400009C080020280B002098080020180600208C030020A40800200080664044950000BB
:4020C00094950000FC960000409800000BABA84A92E8030083E803000BA8FFF797F802200621FFF7FBF8284604F012F802460B460BA8A04905F0ECFD0BA8FFF787F8FFF7B3
:40210000CDFD0027B3E0022B3BD100200621FFF7E5F8984F069803F0FBFF02460B460BA8394605F0D5FD0BA8FFF770F801200621FFF7D4F8079803F0EBFF02460B460BA8E1
:40214000394605F0C5FD0BA8FFF760F8FFF7A6FD03200821FFF7C2F89DF82A3033B10BA88549DDE9002305F0B3FD05E00BAB804A92E8030083E803000BA8FFF747F8002752
:4021800075E0032B29D0002771E007EB47035B007A4A1344B3F9500003F0A8FF5A46234604F086FAB0B107EB47025200744B1344B3F9020003F09AFF5A46234604F08CFAA5
:4021C00040B16E4A7900CB195B00134493F854A093F855900137FFB202E000274FF0FF090C2FD2D99DF82A3083B1B9F10C0F0DD800205146FFF772F80BA8624901EB0911D1
:4022000005F08AFD0BA8FFF701F806E000200146FFF764F85C48FEF7F9FF01200721FFF75DF89DF82A3033B10BA853495A46234605F04EFD05E00BAB4D4A92E8030083E837
:4022400003000BA8FEF7E2FF02200621FFF746F8284603F05DFF02460B460BA8454905F037FD0BA8FEF7D2FFFFF718FD0027474B1868FEF73DFA002800F0CF80434B186837
:402280000DF1170100221346FEF7B2F9404B1A78531EDBB2022B2ED89DF917103C4A53880B449BB2538013F4004F02D00022384B5A80374B5B880C2B02D90C22344B5A806D
:4022C000DFF8B880DFF8C890B9F9023003EB43035B0018F8030001F087F9B9F9023003EB43035B0018F8030001F078FDFFF784FCFFF7D4FC91E0042A50D1DFF89C809DF938
:402300001720B8F800301344A8F80030FFF774FC01200C21FEF7E2FFDFF87490B9F9023003EB43035B00154A13440BA81949DA7805F0CEFC0BA8FEF769FF02200C21FEF757
:40234000CDFF0BA81349B8F9002005F0C1FC0BA8FEF75CFF03200C21FEF7C0FF0BA80D49B9F8042005F0B4FC0BA8FEF74FFF54E0489800005098000040980000F494000023
:402380004495000094950000FC960000240B00203081FF1F589800006C030020052A3CD1DFF824819DF9173003EB83035A00B8F802301344A8F80230FFF71EFC01200B2121
:4023C000FEF78CFFDFF8FC90B9F9023003EB43035B00394A13440BA838499A8805F078FC0BA8FEF713FF02200B21FEF777FF0BA83249B8F9022005F06BFC0BA8FEF706FF71
:4024000003200B21FEF76AFF0BA82C49B9F8062005F05EFC0BA8FEF7F9FE06BB47E0284604F0B0FC06EB46035B0023490B44B3F87031984210D306EB46014900204B0B4478
:402440005B88984208D20A461D4B1A441D4992F904204B8813444B800136F6B200E00026082EDCD9174BB3F90230002B02DA0022144B5A80134B5B880C2B02D90C22114B56
:402480005A800D4EDFF83C80B8F9023003EB43035B00F05C01F0A8F8B8F9023003EB43035B00F05C01F09AFCFFF7A6FB00260520FEF76EFB81E400BFF49400005C980000E0
:4024C000649600003081FF1F6C030020AFF30080FEE700BF08B5094B1A681044084BC31AB3F5805F02DC054B186005E004F046FF0C2303604FF0FF32104608BD3881FF1F68
:40250000780B002008B5104E104D16E029686B68AC68002204E051F8040B43F8040B0432A242F8D1E868002203E0002143F8041B04328242F9D11035013E002EE6D104F096
:4025400023FFFFF755F8FEE7010000002CA1000008B5134A134B1A60134A136843F40073136000230AE0032B03D8104A52F8231000E00F490F4A42F8231001332F2BF2D918
:402580000D4B1A780D4B1A700A4A0D4B1A6000F079F900F035FA00220A4B1A6008BD00BF0004FA050CED00E014ED00E000000000D12400000080FF1FBC7600400481FF1FCE
:4025C00008ED00E00081FF1FFEE700BFF0B40022174611E050F82760F3B226F0FF0608E001EB420511F812406D78A5550132013BDBB2002BF4D10137212FEBD9F0BC704730
:4026000008B50A46002104F0F0FE08BDF8B53E4B1B78DBB23D4E3478E4B23D4F3D78EDB203F007013B4A11701B090132137044F00303337045F003033B704FF48142364B9D
:402640001A804023354A137049F201211F32118040F6080120321180092102F5E2621170953213700232137006321370023213700121F93211700422294802700820DFF8CB
:40268000C4E08EF800000EF1080E8EF80030254B19700F331970022323490B704FF0820E103181F800E003310A7003310A704831087008310B7044F20100403108800E317C
:4026C0000A701A4A13700322194B1A702023194A13700332137010210532117003321370154A164B1A6040F2074206331A806B2212331A700A2000F069FA3D7034704422CC
:402700000F4B1A70F8BD00BFCF010049F8460040F94600406E5800400C5100401D510040075A0040145A0040245A0040DA5A0040005B0040205B004008010504405B004016
:4027400076580040085A004008B504F043FE08BD38B501223C4B1A801F2202331A70242202331A80182339490B7002310A80384A137040F2071204310A8002310B700231C7
:402780000A80344A137040F29321023211800232137040F6112102321180023213702E482E490422FFF7D0FF06222D4B1A705222A3F580731A702B4B1B78DBB22A4A137030
:4027C00040F62132294B1A8041F25122023B1A80002419250CE0264B1B7803F0010343EA440404F003044FF4F07001F015FE013D0DB1032CEFD115B90320FFF7E5FE1D4A49
:402800004FF4807313800723137000231A490B704820023108701370053213700222174B1A7004220A331A70154A137843F07F031370013A137843F001031370013A13786C
:4028400043F08003137038BD80400040864000408A400040924000400041004088040048004300400F010049A14600402242004025420040044000400640004001400040DA
:40288000A243004010B572B6404C61232370FFF75FFF012323703E4A137843F00403137000240CE03B4963001A1952000A4423445B00C8589188FFF7A3FE0134E4B2092C2C
:4028C000F0D900240BE03349A3001A1952000A44D06B116C8022FFF737FF0134E4B2002CF1D04FF090402C49FFF770FE40F203122A4B1A802A480421FFF782FE29480421EF
:40290000FFF77EFE28480421FFF77AFE27480421FFF776FE264A137843F0020313701032137843F002031370224C237843F040032370A2F58632513A137843F010031370A6
:402940001D481E490822FFF7FFFE1D481D490822FFF7FAFE1C481D490822FFF7F5FE1C481C490A22FFF7F0FE1B481C490822FFF7EBFE1B4A137843F008031370FFF746FE19
:40298000184821460E22FFF7DFFE10BD00480040E846004060980000880000484A5800400076004008760040107600401876004003500140A0430040025100405C040048E6
:4029C000C251004064040048125100406C0400482051004074040048325100408004004822430040B0430040044A137803F0FD03400000F002001843107070472051004060
:402A00000B4A7F2313708021517007E0DA0002F1804202F5F042013BDBB21370002BF5D1DB0003F1804303F5F04300221A7070473C81FF1F172815D831B103010A495A5CC8
:402A400042F020025A5405E0030107495A5C02F0DF025A540001044A835C43F00103835400207047012070471070004017280BD80001064A835C03F0F10301F0070143EADA
:402A80004101815400207047012070471070004041F6FF73994201D14FF4005141F6FF739A4201D14FF40052172808D8C00000F1804000F5EC408180C280002070470120CE
:402AC000704700BF172805D8034B03EB0010417200207047012070471070004017281BD810B4C00000F1804404F5EC44D201D2B201F07F01114321709DF804201201D2B245
:402B000003F00F03134363709DF8083003F00F03A3700020E07001E0012070475DF8044B704700BF10B501F07FFC0A4B5B78182B0BD9084A1478013B5370E30003F1804348
:402B400003F5F0431B78137000E0FF2401F070FC204610BD3C81FF1F10F0800F0CD111F4704F0BD1C00000F1804000F5F04001808270C370002070470120704701207047D7
:402B800010F0800F08D1C00000F1804000F5F0408180C280002070470120704701BE704710B5044605E0084B186801F035FCA4F50044B4F5004FF6D8034B586800FB04F026
:402BC00001F02AFC10BD00BF4481FF1F08B5034B1B7A03FB00F001F01FFC08BD4481FF1F0E4B1A7802F0FC0200F00300104318701A7842F080021A701A7802F07F021A7005
:402C000049011A7801F0600102F09F02114319701A7842F010021A70704700BF834300400122014B1A7070478443004070B504460E46074B1D681F2802D90020FFF7AEFFE4
:402C400004F01F04103455F8240045F8246070BD08ED00E038B504460D46072902D90020FFF79CFF1F2C02D90020FFF797FF04F01F0000F1604000F564406D01EDB20570EE
:402C800038BD00BF0822014B1A60704700E100E00422014B1A60704700E100E008B501F0C3FB0B4A137843F020031370013A137843F0100313700232137843F01003137058
:402CC00001F0B6FBFFF7DEFFFFF7E2FF08BD00BF9B6400400822014B1A60704780E100E00422014B1A60704780E100E010B5FFF7F1FF064B1C78064A137803F009031C4330
:402D000000231370FFF7BEFF204610BD6A640040350B002010B5FFF7E3FF064B1B78064A147804F040041C4300231370FFF7B0FF204610BD6C640040420B002010B504469B
:402D40002A4B1A7802F0FF0312B1013BDBB200E00423274A1278D2B29342F1D0FFF7BAFF244B1978244A137803F009030B4313701E4B1B781E4A1278DBB2934207D11E4BA7
:402D80001B7813F0040F02D01C4B1C702BE0184A13780133DBB213701378DBB2042B02D90022134B1A70124B1B78104A1278DBB293420ED10D4A13780133DBB21370137877
:402DC000DBB2042B02D90022084B1A7001220C4B1A70074B1B78DBB20A4AD4540A4A137843F004031370FFF74DFF10BD3E0B0020400B00206A640040350B00204B6400406F
:402E00003D0B0020300B00208A64004008B501E00A4B1B780A4B1B7813F0200FF8D101F003FB084B1A7842F001021A701A7802F0FE021A7001F0FCFA08BD00BF5B6400402D
:402E40006C6400409B64004010B50F22174B1A70174C0823236003200721FFF7FBFE03201449FFF7E3FE0423236002200721FFF7F1FE02201049FFF7D9FEFFF7C7FF00247E
:402E80000E4B1C700E4B1C700E4B1C700E4B1C700E4B1C700E4B1C70FFF728FFFFF73AFF0C4B1C70202202331A7010BD8B64004080E100E0F52E0000912F00002C0B00200D
:402EC000410B00203F0B00203D0B00203E0B0020400B00208A64004008B5054B1B7823B9FFF7B2FF0122024B1A70FFF7D7FE08BD7003002028E01E4B19781E4A137803F06A
:402F000009030B431370137813F0040F23D01A4B1B7813F0FF0F0CD1184A13780133DBB213701378DBB2042B06D90022134B1A7002E00022104B1A70104B1B78DBB2104A1B
:402F4000D35CDBB20F4A13700C4B1B780E4A1278DBB29342CFD1094B1B780B4A1278DBB2934204D1094A137803F0FB03137070476A640040350B00203D0B00203E0B0020A6
:402F8000300B00204B640040400B00208A640040204B1A7820490B7803F0400313430B7031E01E4B1A78D2B21D490B780133DBB20B700B78DBB2042B02D90021184B197062
:402FC000174B1B7817490978DBB28B420ED115490B780133DBB20B700B78DBB2042B02D90021104B197001210F4B19700C4B1B78DBB20E49CA54074B1A7807490B7803F0EB
:40300000400313430B70044B1B7813F0200FC8D1704700BF6C640040420B00205B6400403F0B0020410B00202C0B0020380B0020014B1870704700BF7D640040054A137808
:4030400043F0020313701032137843F002031370704700BFA74300400F490B7803F0FC0200F0030313430B7001280AD10B4B1B78DBB20B4A13700B4B1B78DBB2013213705C
:403080007047094B1B78DBB2054A1370074B1B78DBB201321370704741580040110100493246004015010049AF010049B701004908B50120FFF7D0FF0B4B1A7802F0DF0291
:4030C0001A701A7802F0FB021A701A7842F008021A7003F28E231A7802F0E7021A701A7842F010021A7008BD4158004008B5054B1B7823B9FFF7DCFF0122024B1A70FFF70B
:403100009DFF08BD7103002008B50A280FD00C2802D0082806D102E04FF4805209E04FF4807206E00020FFF739FD002201E04FF480620021094B198042F2107303FB02F398
:4031400003F6C413064A82FB0302DB17C3EBE223044A1360044B198008BD00BF440B0020AD8BDB68480B0020460B002010B501F05BF904461E4A137843F0010313701032CA
:40318000137843F001031370193A137843F0040313701032137843F00403137002F5AA521132137843F0030313700422114B1A70013B1A7842F040021A701A7802F0FC02CE
:4031C0001A70CE22053B1A700222A3F597530C3B1A70094A137843F0080313700A20FFF7F5FC0122054B1A60204601F021F910BDAB43004006590040275B004080E200E068
:4032000010B504460A280DD00C2802D0082804D101E0C42207E0442205E00020FFF7BEFCC42200E08422034B1A702046FFF76CFF10BD00BF0259004008B5102000F032FB60
:4032400000200721FFF706FD00200749FFF7EEFC064A137843F0060313700C20FFF7D0FF0022034B1A8008BD91320000015900404C0B002008B5054B1B7823B9FFF7DCFF42
:403280000122024B1A70FFF771FF08BD72030020704700BF08B50A280FD00C2802D0082806D102E04FF4805209E04FF4807206E00020FFF773FC002201E04FF4806200213A
:4032C000094B198042F2107303FB02F303F6C413064A82FB0302DB17C3EBE223044A1360044B198008BD00BF580B0020AD8BDB68500B0020540B002038B501F095F8044616
:403300001E4A137843F0020313701032137843F002031370193A137843F0020313701032137843F00203137002F5AA521932137843F0030313700422114B1A70013B1A78D7
:4033400042F040021A701A7802F0FC021A70CE22053B1A700225A3F59753123B1D70094A137843F0080313700A20FFF72FFC064B1D60204601F05CF838BD00BFAB430040C1
:403380000E5900402F5B004080E200E010B504460A280DD00C2802D0082804D101E0C42207E0442205E00020FFF7F8FBC42200E08422034B1A702046FFF76CFF10BD00BF98
:4033C0000A59004008B5102000F076FA01200721FFF740FC01200749FFF728FC064A137843F0060313700C20FFF7D0FF0022034B1A8008BD1D34000009590040560B002009
:4034000008B5054B1B7823B9FFF7DCFF0122024B1A70FFF771FF08BD73030020704700BFF0B583B086460F4616461D460A4C0023237000930193184671463A46FFF74EFB4F
:40344000207831462A46FFF723FB20780221FFF70DFB207803B0F0BD5481FF1FF0B583B086460F4616461D460A4C0120207000230093019371463A46FFF730FB20783146A5
:403480002A46FFF705FB20780221FFF7EFFA207803B0F0BD5581FF1F084A137843F0040313701032137843F00403137002F5A5521E32137843F0800313707047A943004017
:4034C000044A137803F0FC0300F0030018431070704700BF0958004008B50622074B1A70182201331A70032001331870044A137843F008031370FFF7E3FF08BD08580040AD
:403500002B5A004008B5054B1B7823B9FFF7E4FF0122024B1A70FFF7BFFF08BD74030020084A137843F0020313701032137843F00203137002F5A5521E32137843F08003C8
:4035400013707047A9430040044A137803F0FC0300F0030018431070704700BF0558004008B50622074B1A70182201331A70032001331870044A137843F008031370FFF711
:40358000E3FF08BD045800401B5A004008B5054B1B7823B9FFF7E4FF0122024B1A70FFF7BFFF08BD75030020084A137843F0010313701032137843F00103137002F5A552A7
:4035C0001E32137843F0800313707047A9430040044A137803F0FC0300F0030018431070704700BF0158004010B487B00446194B03AA1868596803C2197A11706A4653F8C1
:403600000C0F596803C21B7A1370082C1ED812490B7803F08003DBB20B70087806AB1C4414F80C3C14F8182C920002F00C02134303430B70094A137803F0F303137011789A
:4036400014F8183C0B4343F00C03137007B05DF8044B7047A8980000025800400158004008B50C22074B1A70074A137843F0200313700020054B1870FFF7B6FF0320FFF71A
:40368000A7FF08BD00580040015800400258004008B5054B1B7823B9FFF7E2FF0122024B1A70FFF781FF08BD76030020F8B5254A137843F01003137002F50342DA32137870
:4036C00003F0FE0313703F2308321370043213701D4D4FF480741D482946224603F07AFE1B482946224603F075FE1A481A49224603F070FE4FF4007418481949224603F031
:4037000069FE18481849224603F064FE174C184E04F14007354620686168A268E3680FC510342E46BC42F5D10024124B1C70032000F07AF8204600F07FF8F8220E4B1A70D2
:40374000F8BD00BFA6430040009E000000C4004000C5004000C60040C098000000C00040009C000000C20040009A0000C099000000C700408CC7004084C70040084A137814
:4037800043F0100313701032137843F01003137002F50342CA32137843F0010313707047A643004008B5054B1B7823B9FFF77EFF0122024B1A70FFF7E1FF08BD770300202F
:4037C00018B9064B188880B27047012803D1044B188880B270470020704700BFA9C70040ADC700408B00DBB219430B01DBB21943044B1A7822EA00021A701A780140114346
:4038000019707047B0C70040012904D1054B1A7810431870704721B9024A137823EA000010707047B4C7004000F01F00014B1870704700BF98C7004000F00F00014B1870A3
:40384000704700BF9CC70040024B1B68C3F8B000704700BF08ED00E04001C0B2014B1870704700BF1CE400E04FF08052014B1A60704700BF00E100E04FF08052014B1A60E7
:40388000704700BF80E100E010B50446FFF7F4FF2046FFF7D9FF0720FFF7DEFFFFF7E4FF10BD00BF034B1A7800F0F80010431870704700BF8A400040034B1A7800F0F800DB
:4038C00010431870704700BF86400040024B1878C0F3C000704700BF21510040024B1878C0F30010704700BF21510040024B1878C0F38010704700BF21510040024B18780C
:40390000C0F34010704700BF2151004010B50222114B1A7081220E3B1A70082202331A702A2211331A70002401331C704FF400420A4B1A600F200721FFF78CF90F2008498A
:40394000FFF774F91022074B1A70074B1C70074B1C70074B1C7010BDD649004080E100E0C13900005A0B00205E0B0020600B00205C0B002008B500F057FD064A137843F0A6
:40398000040313701032137843F00403137000F04FFD08BDA543004008B5074B1B7823B9FFF7B4FF0122044B1A70FFF7E3FF4FF40042024B1A6008BD7803002000E100E062
:4039C00038B5A44B1C78E4B2A34B1B7813F0400F00F0378114F0010F00F01B819E4B1B78453B052B00F21281DFE813F006008200100110010600DE0004F0DF0504F00A04C3
:403A0000082C42D1944B1B78DBB2452B35D1934B1B7813F0FF0F10D0914B1B681B78DBB2904A137004228B4B1A7001228E4B1A704622894B1A702C46EBE08C4B1B7813F010
:403A4000020F0DD08A4A137843F00A0313706022814B1A704FF40042864B1A602C46D8E0854A137843F0100313701022834B1A700422023B1A702C46CBE00022754B1A7041
:403A80004A22754B1A702C46C3E00A2C2BD1784A137843F0A0031370744B1B7813F0020F14D06D4B1B7813F0080F01D0092300E00A236F4A11780B4313706022664B1A70DA
:403AC0004FF400426B4B1A602C46A2E06A4A137843F0100313701022684B1A700422023B1A702C4695E00020FFF758F82C4690E014F0020F35D15C4B1B78584A1278DBB27C
:403B0000934210D2584A1378DBB255490968CB5CDBB254490B7004214E4B197013780133DBB2137075E0514B1B7813F0020F0CD04F4A137843F00A0313706022464B1A702B
:403B40004FF400424B4B1A6063E04B4A137843F0100313701022494B1A700422023B1A7057E0424B1B7813F0020F0CD0404A137843F09A0313706022374B1A704FF4004285
:403B80003C4B1A6045E03C4A137843F01003137010223A4B1A700422023B1A70344A137843F09003137034E0354A1378DBB2354908682C490978C9B2C15413780133DBB21A
:403BC00013701378304A1278DBB2934203D21022204B1A701DE0254B1B7813F0020F0CD0234A137843F00903137060221A4B1A704FF400421F4B1A600BE01F4A137843F0BF
:403C0000100313700022134B1A7002E00020FEF7C5FF14F0200F1CD00F4B1B7813F0080F01D0012300E00223114A11780B431370114A137803F0EF0313701022064B1A70F9
:403C400038BD054B1B7813F0100F02D11022024B1A7038BDD74900405A0B00205F0B0020640B0020D84900405C0B00205D0B00205E0B002080E100E0D6490040D949004080
:403C8000600B0020680B00206C0B00201A4B1B78DBB2102B29D1194B1B7813F0080F26D14FF40042164B1A604000C0B229B140F001004922104B1A7002E045220E4B1A70F4
:403CC000104B1870012201331A700F4B1B7813F0010FFAD00C4B1B7803F00A030A2B08D11022054B1A700320704702207047012070470020704700BF5A0B0020D94900402A
:403D000080E100E0D8490040D74900400A4B1B7813F0040F0ED01023074A13700421023A1170064A1370064B1B7813F0210FFAD00020704702207047D94900405A0B002071
:403D4000D7490040114B1B7813F0040F1BD0104B18700422013B1A7046220E4B1A700E4B1B7813F0010FFAD00B4B1B7813F0020F04D16022074B1A70002070476022054B37
:403D80001A70032070470220704700BFD9490040D84900405A0B0020D7490040084A137843F0080313701032137843F00803137002F5A5521E32137843F08003137070477A
:403DC000A9430040044A137803F0FC0300F0030018431070704700BF0D58004010B487B00446194B03AA1868596803C2197A11706A4653F80C0F596803C21B7A1370082C8B
:403E00001ED812490B7803F08003DBB20B70087806AB1C4414F80C3C14F8182C920002F00C02134303430B70094A137803F0F3031370117814F8183C0B4343F00C0313700C
:403E400007B05DF8044B7047009F00000E5800400D58004008B50C22074B1A70074A137843F0200313700020054B1870FFF7B6FF0320FFF7A7FF08BD0C5800400D5800405A
:403E80000E58004008B5054B1B7823B9FFF7E2FF0122024B1A70FFF781FF08BD79030020084A137843F060031370A2F5A652133A137843F0010313701032137843F001031D
:403EC0001370704777580040054B1A7802F0FC021A701A7800F0030010431870704700BF5858004008B50320FFF7EEFF08BD00BF08B5054B1B7823B90122034B1A70FFF7A3
:403F0000F1FFFFF7CDFF08BD7A03002070B50120014641F6FF724FF4804300F045F80C4E3070FEF7FFFD02460A4C254605F8040B10210123FEF710FE2078A9B245F68132CC
:403F4000FEF71EFE30782178FEF7BCFD70BD00BF7B0300205881FF1F08B500F083F8034B1B78FF2B01D1FFF7D1FF08BD5881FF1F08B5054B18780121FEF75CFD00F088F8BC
:403F800000F032F808BD00BF7B03002008B5054B5B7823B9FFF7E0FF0122024B5A70FFF7E7FF08BD7B030020F0B583B084468E4617461E460B4C0225257000230093019327
:403FC000284661467246FEF789FD207839463246FEF75EFD20782946FEF748FD207803B0F0BD00BF6C81FF1F054A137843F0020313701032137843F002031370704700BF04
:40400000A8430040054B1A7802F0FD021A701A7800F0020010431870704700BF24580040064B1B78C3F3810303F19243063393F83031DBB2024A1370704700BF24580040CD
:404040000946004008B5064B1A7802F0F3021A701A7800F00C0010431870FFF7E1FF08BD2458004008B50023084A13700132137002F26A22137843F0080313700420FFF78F
:40408000E1FF0220FFF7BEFF08BD00BF24580040054A137843F0100313701032137843F010031370704700BFA243004070B50120014641F6FF724FF4804300F073F80C4E47
:4040C0003070FEF72FFD02460A4C254605F8040B10210123FEF740FD2078A9B24FF4B742FEF74EFD30782178FEF7ECFC70BD00BF7D0300207081FF1F08B500F0AFF8034B99
:404100001B78FF2B01D1FFF7D1FF08BD7081FF1F08B5054B18780121FEF78CFC00F0B4F800F05EF808BD00BF7D03002008B5054B5B7823B9FFF7E0FF0122024B5A70FFF753
:40414000E7FF08BD7D03002038B500F00F05C0F30714B0F57F6F02D90020FEF71FFDFF2C08D0002318E00E4A1A44FF2111710133DBB200E000230F2BF5D938BDC5F1100297
:40418000934203DA064A1A44147103E0044A1A44611C11710133DBB20F2BEFD938BD00BF7081FF1FF0B583B086460F4616461D460A4C0320207000230093019371463A46C4
:4041C000FEF78CFC207831462A46FEF761FC20780221FEF74BFC207803B0F0BD8481FF1F054A137843F0010313701032137843F001031370704700BFA8430040054B1A78C1
:4042000002F0FD021A701A7800F0020010431870704700BF20580040064B1B78C3F3810303F19243063393F82031DBB2024A1370704700BF205800400846004008B5064B54
:404240001A7802F0F3021A701A7800F00C0010431870FFF7E1FF08BD2058004008B50023084A13700132137002F26622137843F0080313700420FFF7E1FF0220FFF7BEFF7D
:4042800008BD00BF20580040054A137843F0080313701032137843F008031370704700BFA2430040014B1878704700BF6D640040084A137843F0010313701032137843F004
:4042C0000103137002F64D32137843F001031370704700BFA3430040014B1870704700BF034F0040014B1878704700BF034F0040014B1880704700BF044F0040014B18804E
:40430000704700BF064F004008B5164A137803F0010313700232137803F0FC031370124B1A7802F0CF021A701A7842F030021A701A7802F0F0021A701A7842F00F021A7001
:404340000A4A137843F0010313704FF6FF70FFF7CFFF4FF6FF70FFF7D1FF0820FFF7BCFF08BD00BF004F00400B4F0040014F004008B5054B1B7823B9FFF7C6FF0122024BF5
:404380001A70FFF795FF08BD7F030020024B1B68C3F88400704700BF08ED00E04001C0B2014B1870704700BF11E400E04FF40032014B1A60704700BF00E100E04FF400326F
:4043C000014B1A60704700BF80E100E010B50446FFF7F4FF2046FFF7D9FF0720FFF7DEFFFFF7E4FF10BD00BF014B1870704700BF7F640040014B1878704700BF6F640040E3
:40440000044A137803F0FE0300F0010018431070704700BF005100400230800803D000BF01380046FCD17047EFF3108072B6704780F31088704700BF00F0C6B92DE9F04FF7
:404440008BB01F4680468946164600F099FADFF8D8A204469AF900300D46013304D03046394601F09FFA20B9204629460BB0BDE8F08F4046494601F095FA834660BB304674
:4044800039460022002302F0FFF80028ECD09AF900309E4C01229E4900208DE814005A1CCDF820B0CDE90289CDE90467CDE906010DD0022B0BD0684601F0A0FA002800F0AB
:4044C0009380089B1BB102F059FF089B0360DDE906010BB0BDE8F08F404649460022002302F0D2F8F8B1304639460022002302F0CBF8834600284ED084489AF900300121D0
:40450000002200240025CDE90289CDE90467CDE90645019000910892002BCCD07C4B0022CDE90623D3E72046294601F035FA834600285ED0204629460022002302F0A4F8EC
:40454000002891D04046494601F026FA00288BD03046394601F020FA002885D09AF900306A480421002200240025022BCDE90289CDE90467CDE9064501900091089200F04B
:404580008880684601F03AFA002800F08280089B002B9CD097E73046394601F0FDF900283FF462AF304639460022002302F076F800283FF459AF55499AF800300122CDF8C1
:4045C00020B0CDE90289CDE9046701910092002B3CD050490020022BCDE9060130D102F0CDFE21230360D2E702F0C8FE2123036067E74046494601F0CFF900289AD03046EA
:40460000394601F0C9F9002894D02046294601F0C9F900BB3D4A9AF8004001230890CDE90289CDE90467019200937CB10020002102460B4601F0EAFE022CCDE90601CED073
:40464000684601F0DBF90028A1D1C8E700220023CDE90623F4E72D499AF900300322CDF820B0CDE90289CDE9046701910092ABB9294D4FF060444046494600220023CDE939
:40468000064502F00BF850BB9AF90030022B7FF478AF02F073FE2223036078E71F4D00244046494600220023CDE9064501F0F6FF0028E9D000221A4B3046394601F07CFD23
:4046C00004460D4601F0A2F922462B4601F0DCFF0028D9D10F4B0022CDE90623D4E700220F4B3046394601F067FD04460D4601F08DF922462B4601F0C7FF0028C4D1094B89
:404700004FF06042CDE90623BEE700BF189F00000000F03F0000F0FFFFFFEF470000F07F0000E03FFFFFEFC78581FF1F70B58AB0064600F03BFF224D044695F90030013366
:4047400008D0304601F068FA20B13046002102F0F1FA10B920460AB070BD1A4901220023304601910092089301F0D2FC2C78CDE90401CDE902017CB900220023CDE906232F
:40478000684601F03BF988B1089BA3B9DDE9060101F0D4FF0AB070BD0020002102460B4601F034FE022CCDE90601E9D102F0E6FD21230360E8E702F0E1FD089B0360E5E7E7
:4047C0008581FF1F1C9F00002DE9F84F5442144323F00049DFF878C149EAD474644517469E4606460D4641D84442044321F0004B4BEAD47464458A4638D803F1404404F567
:404800008014144349D09C1704F0020444EAD1745BEA000132D059EA070138D04C49894548D04B498B4532D0C9EB0B094FEA2959B9F13C0F3ADCBEF1000F64DB3046294668
:4048400001F0E4FD01F0A4F800F006FF012C57D0022C48D084B138A3D3E9002301F0F8FA37A3D3E9002301F0F3FA05E01046194632462B4601F0EEFABDE8F88F032CCAD888
:40488000DFE804F01212020F32483349F4E7BAF1000F304825DB3149EEE7BDE8F84F00F0DBBE2C482E49E7E72946E5E726A1D1E90001CBE7CB452CD0032CB2D801A151F869
:4048C00024F000BFD5480000DB48000089480000A348000000200146CEE700204FF00041CAE72049C8E714A3D3E9002301F0B0FA02460B4612A1D1E9000101F0A9FABBE7F6
:4049000001F10041B8E719F13C0F97DA002000219CE7032CBBD8DFE804F0020B08050D481149A9E711481249A6E710481149A3E708481149A0E700BF075C143326A6A13C85
:40494000182D4454FB210940182D4454FB21F93F0000F07F182D4454FB210940FB21F93FFB2109C0FB21F9BFFB21E93FD221337F7CD902C07CD90240FB21E9BFAFF3008089
:404980002DE9F04F144623F00047024657EA04000E468FB01D469C46214634D06E4B26F0004A9A459346B14626DC24D09F4223DC694B9F4200F08F80B9F1000FC0F28F8072
:4049C0004FF0000879BB644B9F4200F0A580634B9F4267D0BCF1804F00F0E283604B9C4521D1B9F1000F1EDB104631460FB0BDE8F04F00F015BD62B10AF1404000F580108B
:404A000050EA0B0007D10346544918460FB0BDE8F08F5745CCDD53480FB0BDE8F04F00F0EFBF4FF0000810463146CDF808C0009200F0AEFF009ADDF808C0BBF1000F20D05F
:404A40004FEAD97909F1FF3958EA09037AD0464B9F4240F38F8003F104739F4240F31084424B9A4540F39283BCF1000F40F3928337A1D1E900010B46024601F09DFB034664
:404A8000C3E7BAF1000F04D0344B29F0404E9E45D6D1BCF1000FC0F2B683B9F1000F08DB0346B2E7BCF1000FC0F2528413463146ABE70AF1404A0AF5801A58EA0A0340F0A6
:404AC0005E8402460B4601F0C3F90B46024601F09DFC034699E700293FF46EAF8CE7244B9F422CDCA3F154739F427FF769AF40F213403B15834240F34B84C3F58663033321
:404B000021FA03F000FA03F38B427FF459AF00F00100C0F1020855E70AF1404303F5801353EA0B0300F03983104B9A4540F36483BCF1000FC0F22E832346294665E74FF071
:404B400002083FE7104631463346BCE7AFF300809C7500883CE4377E0000F07F0000F03F0000E03FA89400000000E041FFFFEF3FFFFF3F43BAF5801F4FF0000205DACA4B43
:404B800001F01AFB8A466FF034024FEA2A53C74ECAF3130AA3F2FF334AF07F571344B2450C9347F4401740F3D083C14B9A4540F307840026B4460C9BA7F5801701330C9393
:404BC0003946BC4B4FEACC0C6344D3E900AB52465B46CDF834C0CDE9060101F039F952465B46CDE90801DDE9060101F033F902460B460020B04901F009FC02460B46DDE955
:404C00000801CDE90A2301F0D7FA02460B46CDE90223CDE904237B1043F0005303F5002399190020002306460F460293DDE902231046194632463B46CDE9000101F0BCFA27
:404C400002460B46DDE9080101F002F95246CDE908015B463046394601F0FAF802460B46DDE9060101F0F4F802460B46DDE9000101F0A2FA02460B46DDE9080101F0E8F8A7
:404C8000DDE90A2301F098FADDE90423CDE906011046194601F090FA02460B4606460F4601F08AFA6EA3D3E9002382468B463046394601F081FA6CA3D3E9002301F0CAF86A
:404CC00032463B4601F078FA69A3D3E9002301F0C1F832463B4601F06FFA67A3D3E9002301F0B8F832463B4601F066FA64A3D3E9002301F0AFF832463B4601F05DFA62A3D8
:404D0000D3E9002301F0A6F802460B465046594601F052FADDE9042306460F46DDE9000101F098F8DDE9062301F046FA32463B4601F090F8DDE9006782468B4632463B46D3
:404D40003046394601F038FA00225C4BCDE9080101F080F852465B4601F07CF802980F460646DDE9000132463B4601F025FA32463B46CDE90001DDE9060101F01DFA0022DA
:404D8000CDE906014D4B3046394601F061F8DDE9082301F05DF802460B465046594601F057F8DDE9042301F007FA02460B46DDE9060101F04FF882468B46DDE900015246A5
:404DC0005B4601F047F832A3D3E9002302980F46064601F0F1F930A3D3E90023CDE904013046394601F0E8F9DDE90023CDE906013046394601F02CF802460B465046594666
:404E000001F026F826A3D3E9002301F0D5F902460B46DDE9060101F01DF8DDF834C0284BCDF818C06344D3E9002301F013F8CDE900010C9801F05AF906460F46DDE904012A
:404E4000204BDDF818C09C44DDE90023DCE900AB01F000F852465B4636E000BFAFF30080EF4E454A287ECA3F65DBC9934A86CD3F01411DA96074D13F4D268F515555D53FD8
:404E8000FFAB6FDBB66DDB3F033333333333E33F000000E009C7EE3FF5015B14E02F3EBEFD033ADC09C7EE3F000040438E98030079B60B00489F00000000F03F00000840F9
:404EC000389F0000289F0000CDE906AB00F0C2FF32463B4600F0BEFF029832463B4682468B4600F0B5FFDDE9062300F0B1FFDDE9042300F0ADFF02460B46DDE9000100F01E
:404F0000A7FFCDE9020108F1FF3858EA09030CBFD54BD64B0022CDE904230023CDE900450093DDE90067204632463B46294600F08FFF52465B4601F03FF9DDE9022380464C
:404F400089462046294601F037F902460B464046494600F07FFF04460D465246304639465B46CDE9024501F027F906460F4620463B462946324600F06DFFBD4B8246994201
:404F80008946884640F3138101F13F4303F5E003034340F0E581A0A3D3E90023DDE9020100F058FF324604460D463B465046494600F04EFF02460B462046294601F08CFB52
:404FC000002840F0CD814C462015A0F2FE304FF4801101414144C1F30A50A64CA0F2FF35C1F3130BC0F5826003302C414BF4801B21EA040300224BFA00FB3946304600F0E7
:4050000027FF06460F46DDE902018BEAE87B0BEBD87B32463B464FEA0B5A00F01BFF80A3D3E90023002420460D4601F0C5F83246804689463B462046294600F009FF0246EE
:405040000B46DDE9020100F003FF77A3D3E9002301F0B2F876A3D3E9002306460F462046294601F0A9F802460B463046394600F0F1FE06460F4632463B464046494600F084
:40508000E9FE42464B4604460D4600F0E1FE02460B463046394600F0DBFE2246804689462B462046294601F087F863A3D3E9002306460F4601F080F861A3D3E9002300F0B8
:4050C000C7FE32463B4601F077F85FA3D3E9002300F0C0FE32463B4601F06EF85CA3D3E9002300F0B5FE32463B4601F065F85AA3D3E9002300F0AEFE32463B4601F05CF835
:4051000002460B462046294600F0A2FE06460F4632463B462046294601F04EF80022CDE900014FF080433046394600F091FE02460B46DDE9000101F069F9424606460F46A0
:405140004B462046294601F037F842464B4600F081FE02460B463046394600F079FE22462B4600F075FE02460B4600203F4900F06FFE8A44BAF5801F0246C0F227815346FB
:40518000DDE9040101F018F803463EE4BCF1000FFFF66EAC0023194637E40B46334934E433461046314601F007F803462DE4324B21F000449C4240F3FA80304B0B4403436E
:4051C0000CD132463B4600F043FE02460B46DDE9020101F06DFA00283FF4F6AE20A3D3E90023DDE9040100F0E7FF1DA3D3E9002300F0E2FF034608E4BCF1000FCADA23463E
:4052000005F1004101E402460B460020174901F0FDF842E4AFF30080FE822B654715973C00000000432EE63FEF39FAFE422EE63F396CA80C615C20BED0A4BE726937663EA5
:40524000F16BD2C541BDBB3E2CDE25AF6A56113F93BDBE166CC1663F3E5555555555C53F59F3F8C21F6EA5010000F0BF0000F03FFFFF8F40FFFF0F00FFCB904000346F3F08
:40528000634B9A4582DD634B9A453FF7EDAB0022604B00F0DDFD54A3D3E9002306460F4600F08AFF52A3D3E90023CDE900013046394600F081FF3246CDE902013B46304608
:4052C000394600F079FF002282468B4630463946514B00F071FF02460B4647A1D1E9000100F0B6FD32463B4600F066FF02460B4600204A4900F0ACFD02460B46504659463B
:4053000000F05AFF3EA3D3E9002300F055FF02460B46DDE9020100F09BFD06460F46DDE9000132463B4600F095FDDDE90023002082468B4600F08CFD02460B4630463946AA
:4053400000F086FDCDE90201DDE50026B44637E4334600202F4901F059F80346FFF755BB29A3D3E90023DDE9040100F025FF26A3D3E9002300F020FF0346FFF746BBB8F138
:40538000010F03467FF441AB01F10041FFF73DBB00297FF446ABC3F58263033347FA03F000FA03F3BB4217D08846FFF710BB1B4B9C423FF709AEDDE90023924693462EE63E
:4053C0004FF480264FF0010CFFF7FABB5A4600F0ABFB02460B46D3E600F00100C0F10208FFF7F5BAAFF30080000000604715F73F44DF5DF80BAE543E555555555555D53F0B
:40540000FE822B654715F73F9C7500883CE4377EFEFFEF3F0000F03F0000D03F0000E03F2DE9F041604E0C46B6460E40764505460B4600F098800029024676DD5FEA215E58
:4054400000F08180AEF2FF3EC3F313031EF0010F43F480135ED100273C46D10F01EB43034FEA6E0E520016204FF4001165189D424FEAD2764FEA420202DC5B1B6C180F44AA
:40548000013806EB43034FEA5101EFD1844620264FF000410AE0A34220D0D50F013E4FEA510105EB43034FEA420220D09C420CEB0105F0DA002D05EB010C09DBA0461B1BC2
:4054C000954288BF03F1FF334446521B0844E4E7BCF1000FF2DB04F10108F0E7954217D8002D05EB010C48DB98460023ECE7134315D140087B1003F17F5303F50013FA0734
:4055000003EB0E57394648BF40F00040BDE8F0811C46C2E7D10F01EB430352009BE7411C31D000F001031844E3E721F000460643ECD079BB8E46D30AAEF1150E5205002B1E
:40554000F9D0DC0222D400215B00D80201F10101FAD5C1F10100C1F1200422FA04F4234386448A406EE702460B4600F025FE2A46234600F06FFCBDE8F081BCF1000FAADA53
:40558000A0460023A0E701373046B3E7202401200021E2E702460B4600F05AFC02460B4600F034FFB2E700BF0000F07F20F00042B2F1FF4F70B5034604462DD25AB3002833
:4055C0003DDBB2F5000F4FEAE0502CD3002631467F38C3F31603C20743F4000348BF5B0040105B0019244FF080728D189D4202DC5B1BA9181644013C4FEA43034FEA520298
:40560000F3D113B106F001031E44761006F17C5606EBC05070BD70BD014601F0EDF9214601F0E2F870BD14F400020FD15B00190202F10102FAD5C2F101021044C6E701463C
:4056400001F0D0F8014601F08BFA70BD01221044BCE700BF000000002DE9F84FBE4B21F000469E420D468A4604460FDDBB4B9E4200F3B08000F0AB80B94BBA49BA4CBAF1DC
:40568000000FC8BF19462046BDE8F88FB74B9E4200F3BA80A3F1DE739E4240F3A5804FF0FF3B22462B462046294600F085FD02460B468046894600F07FFD8FA3D3E90023F3
:4056C00006460F4600F078FD8DA3D3E9002300F0C1FB32463B4600F06FFD8BA3D3E9002300F0B8FB32463B4600F066FD88A3D3E9002300F0AFFB32463B4600F05DFD86A388
:40570000D3E9002300F0A6FB32463B4600F054FD83A3D3E9002300F09DFB42464B4600F04BFD81A3D3E90023804689463046394600F042FD7EA3D3E9002300F089FB324639
:405740003B4600F039FD7CA3D3E9002300F080FB32463B4600F030FD79A3D3E9002300F077FB32463B4600F027FD77A3D3E9002300F06EFB32463B4600F01EFDBBF1FF3F59
:4057800002460B4667D04046494600F063FB22462B4600F011FD764E764B4FEACB0B5E449B44DBE9002300F053FB22462B4600F04FFB02460B46D6E9000100F049FBBAF15A
:4057C000000F0446BFF65FAF01F100415BE700283FF452AF2246204629462B4600F03AFB04462046BDE8F88F59A3D3E9002300F031FB0022604B00F06FFF00283FF44FAF92
:4058000029462046BDE8F88F00F0C2F85B4B04469E420D462FDCA3F550239E4254DC02460B4600F017FB0022534B00F011FB002206460F46204629464FF0804300F00AFB8E
:4058400002460B463046394600F0E0FD4FF0000B04460D4625E74046494600F0FBFA22462B4600F0A9FC02460B462046294600F0EFFA044607E7424B9E421ADC0022414BE2
:4058800000F0E6FA002206460F46204629463D4B00F092FC0022384B00F0DCFA02460B463046394600F0B2FD4FF0020B04460D46F7E602460B460020334900F0A7FD4FF014
:4058C000030B04460D46ECE600222B4B00F0C0FA002206460F4620462946274B00F0BAFA02460B463046394600F090FD4FF0010B04460D46D5E600BF11DA22E33AAD903F28
:40590000EB0D76244B7BA93F513DD0A0660DB13F6E204CC5CD45B73FFF8300922449C23F0D5555555555D53F2F6C6A2C44B4A2BF9AFDDE522DDEAD3F6D9A74AFF2B0B33FCD
:40594000711623FEC671BC3FC4EB98999999C93F9C7500883CE4377EFFFF0F440000F07FFB21F93FFB21F9BF182D4454FFFFDB3F789F0000589F00000000F03FFFFFF23F7C
:40598000FF7F03400000F83F0000F0BFAFF3008021F00041704700BF41F0004101F58010C00F704710B431F0004408D0114BA1F580129A4208D804205DF8044B704718B947
:4059C00002205DF8044B704701F1FF41094B01F5E0019942EFD9B4F5801F01D20320EBE7054B9C4201D00020E6E7B0FA80F04009E2E700BFFFFFDF7F0000F07F00207047A1
:405A000000200149704700BF0000F87FF0B5C1F30A5EAEF2FF35132D83B002460B460C464FEAD17607462EDC002D48DB3C49294101EA030010432BD049080B4053EA0207E8
:405A40000CD04FF48023132D24EA010143FA05F444EA01040CBF4FF0004700273149234601EBC606D6E900453A462046294600F0F1F9CDE90001DDE9000122462B4600F01E
:405A8000E7F903B0F0BD332D06DDB5F5806F43D01046194603B0F0BDAEF2134E4FF0FF3121FA0EF10142F3D049080142D6D04FF0804320EA010143FA0EF70F43CEE721F070
:405AC00000410143E4D0C3F3130141EA000CCCF1000141EA0C0C13495C0C4FEA1C3C0CF4002C640401EBC6014CEA0403D1E900452046294600F0AEF9CDE90001DDE90001A9
:405B000022462B4600F0A4F9024621F0004141EAC67310461946BDE700F09CF9BAE700BFFFFF0F00989F0000F8B5C1F30A5604460D460B46174616BB21F00043034332D006
:405B40000022314B00F038FB304A044697420D460B4637DB40F2FE72C1F30A56363E3E44964215DD24A1D1E9000122462B4600F06DF821A3D3E9002300F01EFBF8BD40F25A
:405B8000FF72964224D040F2FE723E449642E9DC002E09DD23F0FF4323F4E00343EA065520462946F8BDF8BD16F1350F15DA4CF250339F42D6DC12A1D1E9000122462B46E8
:405BC00000F044F80EA3D3E9002300F0F5FAF8BD02460B4600F03EF9F8BD23F0FF4323F4E003363643EA0655204629460022084B00F0E2FAF8BD00BF9C7500883CE4377EA5
:405C000059F3F8C21F6EA50100005043B03CFFFF0000903CAFF3008030F0004001D102207047A0F50003B3F1FE4F01D204207047054B421E9A4201D803207047A0F1FF406F
:405C4000B0FA80F040097047FEFF7F0003F0004321F0004243EA0201704700BF2DE9F0475FEA910A88460746914653D05646002500F1100454F8100C1034014600F0BCFEB6
:405C8000294600F0B1FD054654F81C0C014600F0B3FE294600F0A8FD054654F8180C014600F0AAFE294600F09FFD054654F8140C014600F0A1FE294600F096FD013E05468E
:405CC000D8D107EB0A1718F003040BD057F8040B014600F091FE0146284600F085FD013C0546F3D1404600F02FFE0146284600F037FF00242146054601F030F818B9C9F868
:405D00000040BDE8F0872846FEF710FDC9F80000BDE8F0870025D6E72DE9F0475FEA910988460746924631D04E46002500F1100454F8101C284600F057FD54F80C1C00F068
:405D400053FD54F8081C00F04FFD54F8041C00F04BFD013E054604F11004E9D107EB091718F0030407D0284657F8041B00F03CFD013C0546F7D1404600F0E6FD01462846DB
:405D800000F0EEFECAF80000BDE8F0870025E7E72DE9F04F85B002939B0882468B46019203933CD0984600F1100601F1100502F1100455F80C1C56F80C0C00F01DFE55F880
:405DC000101C009056F8100C00F016FE56F8082CDDF800C055F8081C56F8047C44F8100C55F8049C104644F80CCC00F005FE494644F8080C384600F0FFFDB8F1010844F84A
:405E0000040C06F1100605F1100504F11004D0D1039B019A1B011A449A449B440192029B13F003070CD0019BA3F104095AF8040B5BF8041B00F0E0FD013F49F8040FF5D1D0
:405E400005B0BDE8F08F00BF81F0004102E000BF83F0004330B54FEA41044FEA430594EA050F08BF90EA020F1FBF54EA000C55EA020C7FEA645C7FEA655C00F0E2804FEA66
:405E80005454D4EB5555B8BF6D420CDD2C4480EA020281EA030382EA000083EA010180EA020281EA0303362D88BF30BD11F0004F4FEA01314FF4801C4CEA113102D04042BC
:405EC00061EB410113F0004F4FEA03334CEA133302D0524263EB430394EA050F00F0A780A4F10104D5F1200E0DDB02FA0EFC22FA05F2801841F1000103FA0EF2801843FA08
:405F000005F359410EE0A5F120050EF1200E012A03FA0EFC28BF4CF0020C43FA05F3C01851EBE37101F0004507D54FF0000EDCF1000C7EEB00006EEB0101B1F5801F1BD3CA
:405F4000B1F5001F0CD349085FEA30004FEA3C0C04F101044FEA445212F5800F80F09A80BCF1004F08BF5FEA500C50F1000041EB045141EA050130BD5FEA4C0C404141EBB3
:405F8000010111F4801FA4F10104E9D191F0000F04BF01460020B1FA81F308BF2033A3F10B03B3F120020CDA0C3208DD02F1140CC2F10C0201FA0CF021FA02F10CE002F1CB
:405FC0001402D8BFC2F1200C01FA02F120FA0CFCDCBF41EA0C019040E41AA2BF01EB0451294330BD6FEA04041F3C1CDA0C340EDC04F11404C4F1200220FA04F001FA02F3AB
:4060000040EA030021FA04F345EA030130BDC4F10C04C4F1200220FA02F001FA04F340EA0300294630BD21FA04F0294630BD94F0000F83F4801306BF81F480110134013D98
:406040004EE77FEA645C18BF7FEA655C29D094EA050F08BF90EA020F05D054EA000C04BF1946104630BD91EA030F1EBF0021002030BD5FEA545C05D14000494128BF41F017
:40608000004130BD14F580043CBF01F5801130BD01F0004545F0FE4141F470014FF0000030BD7FEA645C1ABF194610467FEA655C1CBF0B46024650EA013406BF52EA03353D
:4060C00091EA030F41F4002130BD00BF90F0000F04BF0021704730B54FF4806404F132044FF000054FF0000150E700BF90F0000F04BF0021704730B54FF4806404F13204D5
:4061000010F0004548BF40424FF000013EE700BF42004FEAE2014FEA31014FEA02701FBF12F07F4393F07F4F81F06051704792F0000F14BF93F07F4F704730B54FF46074C5
:4061400001F0004521F0004120E700BF50EA010208BF704730B54FF000050AE050EA010208BF704730B511F0004502D5404261EB41014FF4806404F132045FEA915C3FF47B
:40618000DCAE4FF003025FEADC0C18BF03325FEADC0C18BF033202EBDC02C2F1200300FA03FC20FA02F001FA03FE40EA0E0021FA02F11444C1E600BF70B54FF0FF0C4CF442
:4061C000E06C1CEA11541DBF1CEA135594EA0C0F95EA0C0F00F0DEF82C4481EA030621EA4C5123EA4C5350EA013518BF52EA033541F4801143F4801338D0A0FB02CE4FF070
:406200000005E1FB02E506F00042E0FB03E54FF00006E1FB03569CF0000F18BF4EF0010EA4F1FF04B6F5007F64F5407404D25FEA4E0E6D4146EB060642EAC62141EA555149
:406240004FEAC52040EA5E504FEACE2EB4F1FD0C88BFBCF5E06F1ED8BEF1004F08BF5FEA500E50F1000041EB045170BD06F0004646EA010140EA020081EA0301B4EB5C04A5
:40628000C2BFD4EB0C0541EA045170BD41F480114FF0000E013C00F3AB8014F1360FDEBF002001F0004170BDC4F10004203C35DA0C341BDC04F11404C4F1200500FA05F3D8
:4062C00020FA04F001FA05F240EA020001F0004221F0004110EBD37021FA04F642EB06015EEA430E08BF20EAD37070BDC4F10C04C4F1200500FA04F320FA05F001FA04F2FC
:4063000040EA020001F0004110EBD37041F100015EEA430E08BF20EAD37070BDC4F1200500FA05F24EEA020E20FA04F301FA05F243EA020321FA04F001F0004121FA04F21A
:4063400020EA020000EBD3705EEA430E08BF20EAD37070BD94F0000F0FD101F00046400041EB010111F4801F08BF013CF7D041EA060195F0000F18BF704703F000465200A3
:4063800043EB030313F4801F08BF013DF7D043EA0603704794EA0C0F0CEA135518BF95EA0C0F0CD050EA410618BF52EA4306D1D181EA030101F000414FF0000070BD50EA40
:4063C000410606BF1046194652EA430619D094EA0C0F02D150EA013613D195EA0C0F05D152EA03361CBF104619460AD181EA030101F0004141F0FE4141F470014FF0000067
:4064000070BD41F0FE4141F4780170BD70B54FF0FF0C4CF4E06C1CEA11541DBF1CEA135594EA0C0F95EA0C0F00F0A7F8A4EB050481EA030E52EA03354FEA013100F0888087
:406440004FEA03334FF0805545EA131343EA12634FEA022245EA111545EA10654FEA00260EF000419D4208BF964244F1FD0404F5407402D25B084FEA3202B61A65EB030581
:406480005B084FEA32024FF480104FF4002CB6EB020E75EB030E22BFB61A754640EA0C005B084FEA3202B6EB020E75EB030E22BFB61A754640EA5C005B084FEA3202B6EBB1
:4064C000020E75EB030E22BFB61A754640EA9C005B084FEA3202B6EB020E75EB030E22BFB61A754640EADC0055EA060E18D04FEA051545EA16754FEA06164FEAC30343EABC
:4065000052734FEAC2025FEA1C1CC0D111F4801F0BD141EA00014FF000004FF0004CB6E711F4801F04BF01430020B4F1FD0C88BFBCF5E06F3FF6AFAEB5EB030C04BFB6EB0F
:40654000020C5FEA500C50F1000041EB045170BD0EF0004E4EEA113114EB5C04C2BFD4EB0C0541EA045170BD41F480114FF0000E013C90E645EA060E8DE60CEA135594EAFE
:406580000C0F08BF95EA0C0F3FF43BAF94EA0C0F0AD150EA01347FF434AF95EA0C0F7FF425AF104619462CE795EA0C0F06D152EA03353FF4FDAE1046194622E750EA41065E
:4065C00018BF52EA43067FF4C5AE50EA41047FF40DAF52EA43057FF4EBAE12E74FF0FF3C06E000BF4FF0010C02E000BF4FF0010C4DF804CD4FEA410C7FEA6C5C4FEA430C75
:4066000018BF7FEA6C5C1BD001B050EA410C0CBF52EA430C91EA030F02BF90EA020F0020704710F1000F91EA030F58BF994208BF90422CBFD8176FEAE37040F00100704793
:406640004FEA410C7FEA6C5C02D150EA013C07D14FEA430C7FEA6C5CD6D152EA033CD3D05DF8040B704700BF8446104662468C461946634600E000BF01B5FFF7B7FF00281E
:4066800048BF10F1000F01BD4DF808EDFFF7F4FF0CBF012000205DF808FB00BF4DF808EDFFF7EAFF34BF012000205DF808FB00BF4DF808EDFFF7E0FF94BF012000205DF863
:4066C00008FB00BF4DF808EDFFF7CEFF94BF012000205DF808FB00BF4DF808EDFFF7C4FF34BF012000205DF808FB00BF4FEA410212F5001215D211D56FF47873B3EB6252F0
:4067000012D94FEAC12343F0004343EA505311F0004F23FA02F018BF404270474FF00000704750EA013005D111F0004008BF6FF0004070474FF00000704700BF4FEA4102D6
:40674000B2F1E04324BFB3F5001CDCF1FE5C0DD901F0004C4FEAC0024CEA5070B2F1004F40EB830008BF20F00100704711F0804F21D113F13872BCBF01F00040704741F43A
:4067800080114FEA5252C2F11802C2F1200C10FA0CF320FA02F018BF40F001004FEAC1234FEAD32303FA0CFC40EA0C0023FA02F34FEA4303CCE77FEA625307D150EA013373
:4067C0001EBF4FF0FE4040F44000704701F0004040F0FE4040F40000704700BF80F0004002E000BF81F0004142001FBF5FEA410392EA030F7FEA226C7FEA236C6AD04FEA2B
:406800001262D2EB1363C1BFD218414048404140B8BF5B42192B88BF704710F0004F40F4000020F07F4018BF404211F0004F41F4000121F07F4118BF494292EA030F3FD066
:40684000A2F1010241FA03FC10EB0C00C3F1200301FA03F100F0004302D5494260EB4000B0F5000F13D3B0F1807F06D340084FEA310102F10102FE2A51D2B1F1004F40EB38
:40688000C25008BF20F0010040EA03007047490040EB000010F4000FA2F10102EDD1B0FA80FCACF1080CB2EB0C0200FA0CF0AABF00EBC25052421843BCBFD04018437047C5
:4068C00092F0000F81F4000106BF80F400000132013BB5E74FEA41037FEA226C18BF7FEA236C21D092EA030F04D092F0000F08BF0846704790EA010F1CBF0020704712F01C
:406900007F4F04D1400028BF40F00040704712F100723CBF00F50000704700F0004343F0FE4040F4000070477FEA226216BF08467FEA23630146420206BF5FEA412390EA45
:40694000010F40F4800070474FF0000304E000BF10F0004348BF40425FEA000C08BF704743F0964301464FF000001CE050EA010208BF70474FF000030AE000BF50EA0102A7
:4069800008BF704711F0004302D5404261EB41015FEA010C02BF84460146002043F0B64308BFA3F18053A3F50003BCFA8CF2083AA3EBC25310DB01FA02FC634400FA02FC55
:4069C000C2F12002BCF1004F20FA02F243EB020008BF20F00100704702F1200201FA02FCC2F1200250EA4C0021FA02F243EB020008BF20EADC7070474FF0FF0C1CEAD0520B
:406A00001EBF1CEAD15392EA0C0F93EA0C0F6FD01A4480EA010C400218BF5FEA41211ED04FF0006343EA501043EA5111A0FB01310CF00040B1F5000F3EBF490041EAD37129
:406A40005B0040EA010062F17F02FD2A1DD8B3F1004F40EBC25008BF20F00100704790F0000F0CF0004C08BF49024CEA502040EA51207F3AC2BFD2F1FF0340EAC2507047C5
:406A800040F400004FF00003013A5DDC12F1190FDCBF00F000407047C2F10002410021FA02F1C2F1200200FA02FC5FEA310040F1000053EA4C0308BF20EADC70704792F0E1
:406AC000000F00F0004C02BF400010F4000F013AF9D040EA0C0093F0000F01F0004C02BF490011F4000F013BF9D041EA0C018FE70CEAD15392EA0C0F18BF93EA0C0F0AD063
:406B000030F0004C18BF31F0004CD8D180EA010000F00040704790F0000F17BF90F0004F084691F0000F91F0004F14D092EA0C0F01D142020FD193EA0C0F03D14B0218BFC7
:406B4000084608D180EA010000F0004040F0FE4040F40000704740F0FE4040F4400070474FF0FF0C1CEAD0521EBF1CEAD15392EA0C0F93EA0C0F69D0A2EB030280EA010C77
:406B800049024FEA402037D04FF0805343EA111143EA10130CF000408B4238BF5B0042F17D024FF4000C8B4224BF5B1A40EA0C00B3EB510F24BFA3EB510340EA5C00B3EB9B
:406BC000910F24BFA3EB910340EA9C00B3EBD10F24BFA3EBD10340EADC001B0118BF5FEA1C1CE0D1FD2A3FF650AF8B4240EBC25008BF20F0010070470CF0004C4CEA50205A
:406C00007F32C2BFD2F1FF0340EAC250704740F400004FF00003013A37E792F0000F00F0004C02BF400010F4000F013AF9D040EA0C0093F0000F01F0004C02BF490011F4A2
:406C4000000F013BF9D041EA0C0195E70CEAD15392EA0C0F08D142027FF47DAF93EA0C0F7FF470AF084676E793EA0C0F04D14B023FF44CAF08466EE730F0004C18BF31F01B
:406C8000004CCAD130F000427FF45CAF31F000437FF43CAF5FE700BF4FF0FF3C06E000BF4FF0010C02E000BF4FF0010C4DF804CD4FEA40024FEA41037FEA226C18BF7FEAA9
:406CC000236C11D001B052EA530C18BF90EA010F58BFB2EB030088BFC81738BF6FEAE17018BF40F0010070477FEA226C02D15FEA402C05D17FEA236CE4D15FEA412CE1D0D1
:406D00005DF8040B704700BF844608466146FFE70FB5FFF7C9FF002848BF10F1000F0FBD4DF808EDFFF7F4FF0CBF012000205DF808FB00BF4DF808EDFFF7EAFF34BF0120D4
:406D400000205DF808FB00BF4DF808EDFFF7E0FF94BF012000205DF808FB00BF4DF808EDFFF7D2FF94BF012000205DF808FB00BF4DF808EDFFF7C8FF34BF012000205DF8F6
:406D800008FB00BF42000ED2B2F1FE4F0BD34FF09E03B3EB126209D44FEA002343F0004323FA02F070474FF00000704712F1610F01D1420202D14FF0FF3070474FF0000004
:406DC000704700BF7BB972B90029BEBF00204FF0004106E008BF00281CBF6FF000414FF0FF3000F03BB882B0EC462DE9005000F005F8DDF804E002B00CBC70472DE9F041EF
:406E0000069C904606460F461D4600F029F808FB01FCA8FB002300FB05C5B21A2B4467EB03038646C4E90023BDE8F0812DE9F843089E1746804689461D4600F067F900FB5E
:406E400005F3A0FB074507FB0137B8EB04043D4469EB0505C6E90045BDE8F883704700BF00292DE9F043C0F2A8800026002BC0F29E8081468E4690469C46174604460D462B
:406E8000002B3DD18A4259D9B2FA82F33BB1C3F120029D4020FA02F29F4015439C40390CB5FBF1F01FFA87FE01FB10550EFB00F3220C42EA0545AB4209D9ED1900F1FF324E
:406EC00080F00B81AB4240F2088102383D44ED1AB5FBF1F301FB13550EFB03FEA4B244EA0545AE4508D9ED1903F1FF3280F0F780AE4540F2F480023B43EA0043002203E02B
:406F00008B420FD900221346341C18BF012460424FF0000565EB45015840514000196941BDE8F083B3FA83F2002A40F089808B4202D3804500F2E2800123E5E712B9012336
:406F4000B3FBF2F7B7FA87F8B8F1000F3BD1ED1B4FEA174C1FFA87FE0122B5FBFCF00CFB10550EFB00F3210C41EA0545AB4207D9ED1900F1FF3102D2AB4200F2C380084643
:406F8000ED1AB5FBFCF30CFB13550EFB03FEA4B244EA0545AE4507D9ED1903F1FF3102D2AE4500F2AD800B4643EA0043ACE752426FEA060663EB43035BE7404261EB4101CE
:406FC0004FF0FF3652E707FA08F7C8F1200225FA02F34FEA174CB3FBFCF11FFA87FE0CFB113324FA02F205FA08F50EFB01F92A43100C40EA0343994504FA08F407D9DB191F
:4070000001F1FF3078D2994576D902393B44C9EB0303B3FBFCF00CFB10330EFB00F592B242EA03439D4207D9DB1900F1FF325FD29D425DD902383B445D1B40EA01428CE780
:40704000C2F1200328FA03F10CFA02FC41EA0C0C4FEA1C402EFA03F1B1FBF0F51FFA8CF700FB151129FA03F30EFA02FE07FB05F943EA0E0E4FEA1E4343EA0141894508FA9B
:4070800002F808D911EB0C0105F1FF3332D2894530D9023D6144C9EB0101B1FBF0F300FB131107FB03F71FFA8EFE4EEA014E774508D91EEB0C0E03F1FF3117D2774515D902
:4070C000023BE64443EA0543A3FB0889C7EB0E0ECE4509D305D0002216E71046F7E613460AE794404445F6D2013BF4E70B46E9E71046A1E71D46CEE7014688E7134603E70B
:40710000023B51E702383D443AE700BF2DE9F043002B44D18A42154604464FD9B2FA82F70E464FB1C7F12003B94020FA03F602FA07F50E4300FA07F42F0CB6FBF7F01FFA93
:4071400085FE07FB10620EFB00F1260C46EA0243994209D95B1900F1FF3280F0EE80994240F2EB8002382B44591AB1FBF7F307FB13110EFB03FEA4B244EA01418E4508D972
:40718000491903F1FF3280F0DA808E4540F2D780023B43EA004000263146BDE8F0838B4247D8B3FA83F6002E48D18B4202D3824200F2CF8001203146BDE8F08312B9012522
:4071C000B5FBF2F5B5FA85FCBCF1000F78D1491B2F0C1FFA85FE0126B1FBF7F007FB10110EFB00F2230C43EA01418A4207D9491900F1FF3302D28A4200F2BC801846891A12
:40720000B1FBF7F307FB13110EFB03FEA4B244EA0142964508D9521903F1FF3180F09180964540F28E80023B43EA00403146BDE8F083002630463146BDE8F083C6F120049B
