:400000000080002011000000B91A0000B91A000008B5044B1A6803F53F5302331A6001F065FD00BFFA46004010B5054C237833B9044B13B10448AFF300800123237010BD6E
:400040002082FF1F0000000014680000084B10B51BB108480849AFF300800848036803B910BD074B002BFBD0BDE81040184700BF00000000146800002482FF1F0881FF1F17
:400080000000000000F1080343604FF0FF328260C360036100230360704700BF00230361704700BF43684B609A688A609A68516099600861036801330360704730B40D6866
:4000C000B5F1FF3F01D1026907E000F1080200E01A4653681C68AC42FAD953684B6099608A605160086103680133036030BC704703694268816891608268416851605A68BF
:40010000824201D182685A6000220261186801381860704706480068006880F3088862B661B6BFF34F8FBFF36F8F00DF00BF000008ED00E04FF0807340F8043C40F8081C0F
:40014000034B40F80C3C40F8202C4038704700BFA1010000074B19680868B0E8F00F80F30988BFF36F8F4FF0000080F311884EF00D0E70471083FF1F4FF08052034B1A602A
:40018000BFF34F8FBFF36F8F704700BF04ED00E0EFF311804FF0A00181F311887047002008B5FFF7F5FFFEE708B5FFF7F1FF044A136801331360BFF34F8FBFF36F8F08BDDD
:4001C0000C81FF1F80F31188704700BF08B5044A1368013B136013B90020FFF7F3FF08BD0C81FF1FEFF30980BFF36F8F0D4B1A6820E9F00F10602DE908404FF0A00080F33C
:40020000118800F0F9FC4FF0000080F31188BDE8084019680868B0E8F00F80F30988BFF36F8F70471083FF1F08B5FFF7B1FF00F0A5FB18B14FF08052024B1A600020FFF7BA
:40024000C1FF08BD04ED00E0034A044B1A600722043B1A60704700BFCF01010014E000E008B5094B1A6842F460021A601A6842F060421A60FFF7E8FF0022044B1A60FFF7E2
:4002800049FFFFF78DFF00BF20ED00E00C81FF1F10B50446FFF788FFA26BE36B9A4201D1012400E00024FFF791FF204610BD00BF10B50446FFF778FFA36B0BB9012400E094
:4002C0000024FFF783FF204610BD00BF38B504461546026C3AB903685BBB406800F0DAFD002363602CE06DB9806803F0B1FDA268236C1344A360626893421CD32368A360DD
:4003000000201DE0C06803F0A3FD236C5B42E2681A44E26021688A4202D262681344E360022D0AD1A36B53B1A36B013BA363002006E0002004E0002002E0002000E00020AA
:40034000A36B0133A36338BD026C72B110B5C3681344C3604468A34201D30368C36003460846D96803F074FD10BD704710B50446FFF71AFF0BE0636A63B104F1240000F09F
:40038000BBFC08B100F026FDA36C013BA364A36C002BF0DC4FF0FF33A364FFF717FFFFF703FF0BE0236963B104F1100000F0A4FC08B100F00FFD636C013B6364636C002B45
:4003C000F0DC4FF0FF336364FFF700FF10BD00BF38B504460D46FFF7E7FE2168E26B236C03FB021060600020A063A160013A02FB0313E3604FF0FF336364A36455B9236950
:4004000083B104F1100000F077FC01280AD1FFF7B3FE07E004F11000FFF734FE04F12400FFF730FEFFF7D2FE012038BD70B506460D4619B101FB00F0013000E000204C3021
:4004400000F092FD044658B10DB9206002E000F14C030360E663256420460121FFF7B8FF204670BDF0B585B004460F4601921E460025FFF799FEA26BE36B9A4201D3022EE8
:4004800016D1204639463246FFF720FF636A43B104F1240000F030FC012805D1FFF76CFE02E008B1FFF768FEFFF790FE012042E0019B1BB9FFF78AFE00203CE01DB902A826
:4004C00000F052FC0125FFF781FE00F04DFAFFF76BFE636CB3F1FF3F01D100236364A36CB3F1FF3F01D10023A364FFF76FFE02A801A900F043FCC0B92046FFF7C9FE70B190
:4005000004F11000019900F0CBFB2046FFF72EFF00F0B6FA0028ACD1FFF72EFEA9E72046FFF724FF00F0ACFAA3E72046FFF71EFF00F0A6FA002005B0F0BD00BF2DE9F041B6
:4005400004460F4690461D46FFF722FE0646A26BE36B9A4201D3022D1BD1204639462A46FFF7B4FEA36CB3F1FF3F0DD1636A93B104F1240000F0C0FB78B1B8F1000F0ED0BB
:400580000124C8F800400BE0A36C0133A364012406E0002404E0012402E0012400E001243046FFF70FFE2046BDE8F081F0B585B004460F4601921E460025FFF7F5FDA36B1D
:4005C00033B3E56820463946FFF7BEFE96B9A36B013BA363236813B900F09EFC6060236993B104F1100000F087FB01280CD1FFF7C3FD09E0E560636A33B104F1240000F006
:400600007BFB08B1FFF7B8FDFFF7E0FD01204BE0019B1BB9FFF7DAFD002045E01DB902A800F0A2FB0125FFF7D1FD00F09DF9FFF7BBFD636CB3F1FF3F01D100236364A36C98
:40064000B3F1FF3F01D10023A364FFF7BFFD02A801A900F093FB08BB2046FFF729FEB8B1236833B9FFF7A0FD606800F0BBFBFFF7ADFD04F12400019900F012FB2046FFF745
:4006800075FE00F0FDF9002897D1FFF775FD94E72046FFF76BFE00F0F3F98EE72046FFF765FE00F0EDF9002005B0F0BD10B50446FFF77AFDA46BFFF789FD204610BD00BF48
:4006C000094B9B6A1B680BB9012300E0002323B14FF0FF32044BDA627047034B9A6AD268D2685268DA6270473C82FF1F10B50446006B00F093FC204600F090FC10BD00BFF7
:4007000070B506460C4619B9800000F02DFC044654B1502000F028FC054608B1046304E0204600F07BFC00E0002525B1286BA521B20003F098FB284670BD00BF70B5044667
:400740001546002306E0C85CE21882F83400CA5C12B101330B2BF6D9002384F83F30042D00D90425E562256400266664201DFFF795FC04F11800FFF791FC2461C5F105058D
:40078000A5616462A66484F84C6070BD70B5002407E004EB84039B0010481844FFF772FC0134042CF5D90E4C04F194063046FFF769FC04F1A8052846FFF764FC04F1140059
:4007C000FFF760FC04F1BC00FFF75CFC2046FFF759FCA662C4F8D05070BD00BF6C82FF1F3C82FF1F38B504460E4BD3F8D4205060D3F8D830984208D20A4BD3F8D000D3F8FE
:40080000D4100431FFF75AFC38BD064DA86AD5F8D4100431FFF752FCEB6A9C4200D2EC6238BD00BF3C82FF1F2DE9F04782B081468A46164698460B9F10460C99FFF760FFA2
:40084000002854D00446036B06F18045013D03EB850525F00705009651460A9A0D9BFFF76DFF284649464246FFF764FC206007B13C60FFF799FC284BD3F8DC200132C3F8A4
:40088000DC20D3F8D4304BB9234BC3F8D440D3F8DC30012B10D1FFF779FF0DE01E4BD3F8E0304BB91C4BD3F8D430DB6A0A9A934202D8194BC3F8D440174AD2F8E430013331
:4008C000C2F8E430E36A012505FA03F0D2F8E8100143C2F8E810303203EB830080001044211DFFF7DFFBFFF771FC2C4601E04FF0FF34012C0CD1084BD3F8E03043B1064BB3
:40090000D3F8D430DB6A0A9A934201D2FFF734FC204602B0BDE8F0873C82FF1F00B585B0002300930193029303930C480C496422FFF77AFF01280DD1FFF72AFC094B4FF06E
:40094000FF32DA620122C3F8E0200022C3F8D820FFF786FC05B05DF804FB00BFF10B0000206800003C82FF1F034AD2F8F0300133C2F8F030704700BF3C82FF1F2DE9F041D9
:400980003E4BD3F8F030002B66D13C4BD3F8D8200132C3F8D820D3F8D880B8F1000F0CD19A6AD3F8D0109962C3F8D020D3F8F4200132C3F8F420FFF783FE304BDB6A98452F
:4009C00003D200273CE0012700E000272B4B9B6A1B680BB9012300E0002323B14FF0FF32264BDA622CE0254B9B6ADB68DC686368984502D2214AD36222E0261D3046FFF701
:400A000077FBA36A1BB104F11800FFF771FBE06A01238340194DD5F8E8201343C5F8E83005F1300300EB8000800018443146FFF739FBE26AD5F8D430DB6A9A42C3D2C5E7D5
:400A40000E4AD2F8D430DB6A03EB83039B0013441B6B012B08D808E0084AD2F8F8300133C2F8F830002700E00127044BD3F8FC3003B101273846BDE8F08100BF3C82FF1F51
:400A800070B5FFF791FB304BD3F8F020013AC3F8F020D3F8F030002B4ED12B4BD3F8DC3033BB00244BE0284C236ADD6805F11800FFF71EFB2E1D3046FFF71AFBE86A0123CF
:400AC0008340D4F8E8201343C4F8E83004F1300300EB8000800018443146FFF7E3FAEA6AD4F8D430DB6A9A4202D30122C4F8FC20154B5B69002BD6D1134BD3F8F8306BB9FC
:400B000011E0FFF73BFF18B101220F4BC3F8FC200D4AD2F8F830013BC2F8F8300A4BD3F8F830002BEDD1084BD3F8FC30012B05D1FFF722FB012402E0002400E00024FFF75B
:400B400045FB204670BD00BF3C82FF1F10B5F0B10446FFF709FF104BD3F8D8201444D3F8D4000430FFF7C4FA58B90B4BD3F8D420D16A01228A40D3F8E81021EA0202C3F881
:400B8000E8202046FFF72EFEFFF77AFF00E0002008B9FFF7F1FA10BD3C82FF1F38B51FE0FFF7E2FE114BD3F8BC40FFF769FFBCB1FFF7FAFA0D4CD4F8C830DD68281DFFF7B4
:400BC00097FAD4F8DC30013BC4F8DC30D4F8EC30013BC4F8EC30FFF7F9FA2846FFF786FD024BD3F8EC30002BDAD138BD3C82FF1F08B5FFF7D3FFFCE7274BD3F8F03023B148
:400C00000122254BC3F8FC20704710B5224B0022C3F8FC20D3F8D4301B6B1A68B2F1A53F0BD15A68B2F1A53F07D19A68B2F1A53F03D1DB68B3F1A53F07D0174BD3F8D4000D
:400C4000D3F8D410343100F033FD1348D0F8E830B3FA83F3DBB2C3F11F039A00D118890001444C6B64684C631A44920002443832944206D1606803EB83018900074A0A444D
:400C80005060054A03EB83039B0013445B6BDB68C2F8D43010BD00BF3C82FF1F6C82FF1F38B50D46134CD4F8D4101831FFF706FAD4F8D4000430FFF71BFA50B9D4F8D4205E
:400CC000D16A01228A40D4F8E81021EA0202C4F8E820B5F1FF3F06D10648D0F8D4100431FFF7E0F938BD034BD3F8D8002844FFF779FD38BD3C82FF1F38B5C368DC6804F19C
:400D000018052846FFF7F4F9154BD3F8F030ABB9251D2846FFF7ECF9E36A01229A401048D0F8E8100A43C0F8E820303003EB83039B0018442946FFF7B5F903E0094829461B
:400D4000FFF7B0F9E26A064BD3F8D430DB6A9A4204D90120024BC3F8FC0038BD002038BD3C82FF1F5082FF1F034BD3F8F4200260D3F8D830436070473C82FF1F38B50446A0
:400D80000D46FFF711FA124BD3F8D8202B68B3F1FF3F14D020680E49D1F8F410884202D0616891420DD96168501A83420BD98A1A13442B602046FFF7D7FF002404E00024DC
:400DC00002E0012400E00124FFF700FA204638BD3C82FF1F0122024BC3F8FC20704700BF3C82FF1F002850D038B50346C16A274AD2F8D420D26A914246D28269002A06DB32
:400E0000224AD2F8D420D26AC2F1050282615969DA6A02EB820292001D480244914201D1012200E0002252B31D461C1D2046FFF75FF978B9EA6A02EB82039B0013490B449F
:400E40001B6B3BB901239340D1F8E82022EA0303C1F8E8300D48D0F8D430DB6AEB6201229A40D0F8E8100A43C0F8E820303003EB83039B0018442146FFF714F938BD034A59
:400E8000D2F8D420D26ADA6238BD70473C82FF1F6C82FF1F002837D038B50346426C013A4264C06A196C884230D08ABB1C461D1D2846FFF71DF978B9E26A02EB82039B0016
:400EC00014490B441B6B3BB901239340D1F8E82022EA0303C1F8E830236CE362C3F10502A261012404FA03F10A48D0F8E8200A43C0F8E820303003EB83039B00184429460F
:400F0000FFF7D0F8204638BD00207047002038BD002038BD3C82FF1F064BD3F8D4302BB1044BD3F8D420536C01335364014BD3F8D40070473C82FF1F094A22F00702094BC7
:400F4000C3F838290020C3F83C0947F6F871C3F84419C3F84009516003F51463136070474483FF1F04FAFF1F70B50446FFF7FCFC264BD3F848392BB9FFF7DEFF0122234BC6
:400F8000C3F8482934B1083414F0070F02D024F007040834621E47F6F6739A422BD81B49D1F8383901F6381101E0194613465A68A24202D21A68002AF7D1154A93421CD013
:400FC0000D6808351A680A605A68121B102A0CD91E1972605C6074680E4900E011460A685068A042FAD332600E6059680A4A13685B1A136002E0002500E00025FFF740FD86
:401000000DB900F059FB284670BD00BF04FAFF1F440300203C0300201081FF1FD0B170B50546A0F10806FFF79FFC55F8044C0A4A00E01A4613685968A142FAD345F8083CFC
:40104000166055F8041C054A13680B441360FFF717FD70BD704700BF3C0300201081FF1F704700BF70B582B000268DF80760354601F00CFF044601F001FF00EB4400C0B214
:40108000B04212D0032806D1022E04D19DF8073001338DF80730032806D1012E04D19DF80730013B8DF8073006460135ADB2312D0FD99DF807305BB1084B18680DF10701F7
:4010C00000221346FFF7CEF900258DF8075000E000250320FFF73AFDCAE700BF9C03002070B50646134B1D785878002102F096F8012001F07FF845F0FC0002F0EBF805F0DA
:401100000F0545F00C04204602F0E4F844EA0614E4B244F0040002F0DDF8012001F06AF804F0FB0002F0D6F8012001F063F802F0B5F870BD1481FF1F38B50546184B1C7807
:401140005878002102F06AF8012001F053F844F0010002F0BFF804F0FD0040F0010002F0B9F8002001F046F804F00D0343F00104204602F0AFF844EA0514E4B244F004008B
:4011800002F0A8F8012001F035F804F0F90002F0A1F8012001F02EF802F080F838BD00BF1481FF1F08B5012001F024F808BD00BF10B50446FFF7F6FF2009FFF7BDFF04F0A5
:4011C0000F00FFF7B9FF10BD38B505460078012404E0FFF7EDFF285D0134E4B20028F8D138BD00BF10B50446FFF7DCFF2009FFF777FF04F00F00FFF773FF10BD08B5282023
:4012000000F0E2FF0320FFF76BFF052000F0DCFF0320FFF765FF0F2000F0D6FF0320FFF75FFF012000F0D0FF0220FFF759FF052000F0CAFF0620FFF7D5FF0E20FFF7D2FF6F
:401240002C20FFF7CFFF0820FFF7CCFF0120FFF7C9FF0C20FFF7C6FF0320FFF7C3FF052000F0B2FF08BD00BF08B50C20FFF7BAFF0122014B1A7008BD5003002008B5054BB4
:401280005B7823B9FFF7BAFF0122024B5A70FFF7EBFF08BD5003002008B5032819D8DFE800F002070D1381F08000FFF79BFF08BDA1F14000C0B2FFF795FF08BDA1F16C00EE
:4012C000C0B2FFF78FFF08BDA1F12C00C0B2FFF789FF08BD002303E00021034AD1540133012BF9D9704700BF7C03002008B530B901F0B4FD80F0010000F0010008BD012848
:4013000006D101F0B3FD10F0010F03D1012002E0002000E00020C0B208BD00BF10B50022324B1A6059E0C0B2FFF7E0FF2F4B18711B682F4AD45C052C4BD8DFE804F0030990
:401340000E13273B003018BF0120294AD05440E000B10220264AD0543BE000B10320244AD05436E0234A52F82300234900221346FFF778F81D4B1A6803EB82010020886083
:401380001B7903B104231A498B5422E070B1174A02EB83029268322A00D905241449CC54124901EB830301329A6012E00021104AD1540EE00F4A52F823000F49002213469E
:4013C000FFF750F8094B1A681B7903B1234608498B54064A136801331360044B18680128A1D90A20FFF7B2FB99E700BF540300207C030020940300201681FF1F08B50120A8
:4014000000F0F6FD6420FFF7A1FB002000F0F0FD4FF46170FFF79AFBF1E700BF0000000070B584B000248DF804408DF805408DF806408DF807408DF80840204600F06CFF4B
:40144000204600F069FF204600F066FF204600F063FF204600F060FF6420FFF777FB344B1E689B681E440394324B1868FFF71EF968B1304B18680DF1030100221346FFF708
:4014800095F89DF9033003EB83035B001E44039B9E4245D000242046710023A3D3E9002302F0CEF9234613E0DA00C2F12004B2F1200520FA02F201FA04F442EA040202D4DB
:4014C00041FA05F52A4304AC1C4404F80C2C0133032BE9D9721E184B9A4221D89DF8040000F01AFF9DF8050000F016FF9DF8060000F012FF9DF8070000F00EFF9DF8080007
:4015000000F00AFF00F0E0FE10F0010FFAD004A941F8046D094B186800221346FEF7A2FF6420FFF713FB9FE740597307000000001881FF1F9C030020FE59620290030020C9
:4015400000B583B0164B1B7813F0080F0FD0002001F020FC00B202A941F8040DE822104B1A70104B186800221346FEF7E7FF0C4B1B7813F0100F0FD0012001F00BFC00B2EC
:4015800002A941F8080DF022054B1A70054B586800221346FEF7D2FF03B05DF804FB00BF84C7004080030020F0B585B001F0E4FB314A137843F003031370A5222F4B1A70CA
:4015C000032204331A702E4801F026FC01F03AF901F0FEF90024264627462A4B1868FFF765F80028F9D0274B5868FFF75FF80028F3D0244D286803A900221346FEF7D6FFDE
:40160000686802A900221346FEF7D0FF039B002B01DA5B420393029B002B01DA5B420293BDF80C0001F060FFBDF8080002F05AF8039B1F44029B1E440134A4B27C2CCCD95A
:40164000114DA5FB0723C3F3CF0304A921F80A3D0E4C206800221346FEF704FFA5FB0623C3F3CF0304A921F80C3D606800221346FEF7F8FEAEE700BF98C70040B0C7004020
:401680004115000080030020D34D621088030020034B044ADA62044A9A63044ADA6370470080FF1F55010000E50100002902000008B5FEF76DFDFEE708B5FEF769FDFEE78C
:4016C00038B5022001214FF48042134601F090F9044600F03BFD05460221FF22032300F04FFD284645F6A0314CF2A07200F05CFD2046294600F0FAFC2046012100F0AEFC8E
:4017000038BD00BF38B5022001214FF48042134601F08CF9044600F019FD05460221FF22032300F02DFD284645F6A2314CF2A47200F03AFD2046294600F0D8FC20460121B9
:4017400000F08CFC38BD00BF00B585B0FFF7A0FF62B601F0E9FBFFF791FDFFF781FCFFF7B9FD00F0A7FE082001210022FEF75EFE4C4B1860012001460022FEF757FE4A4C63
:401780002060012001460022FEF750FE6060082004210022FEF74AFE444C2060082004210022FEF743FE6060012002210022FEF73DFE3F4C2060012002210022FEF736FECB
:4017C0006060012008210022FEF730FE394B186000200146FFF760FD3748FFF7F5FC01200021FFF759FD3548FFF7EEFCFFF768FFFFF788FF01F036FA01F00EFE00F05EFF4E
:4018000001F0ACF901F066F901F060FE01F05CFF4FF47A7000F0D8FC0323009300240194029403942648274980222346FEF7FCFF02250095019402940394234823494FF426
:4018400080722346FEF7F0FF00950194029403941F48204980222346FEF7E6FF00950194029403941C481D4980222346FEF7DCFF009501940294039419481A494FF48072D1
:401880002346FEF7D1FF01230093019402940394154816494FF400722346FEF7C5FFFFF73DF8FEE79C0300209403002080030020880300209003002028680000346800003B
:4018C000FD130000406800004D19000044680000651000004C6800001D130000506800002114000054680000A91500005868000008B50021FFF7D0FC0148FFF765FC08BD99
:401900006068000030B587B005460C4600200146FFF7C2FC0B4B03EB850301A8196902F061FF01A8FFF750FC01200021FFF7B4FC01A80549224602F031FF01A8FFF744FC8F
:4019400007B030BD1881FF1F7468000030B589B04F4B1B6807930020FFF7CAFF0120FFF7C7FF00200799FFF7CDFF0024494B18680DF1030100221346FEF718FE08B301346D
:40198000E4B20020FFF7B4FF0120FFF7B1FF022C00D1002414B1012C05D012E000200799FFF7B0FF0DE000200146FFF775FC3A48FFF70AFC01200021FFF76EFC3748FFF770
:4019C00003FC374B1868FEF771FE10B3344B186807A900221346FEF7E9FDD4B9079A511E304B994204D801A82F4902F0D7FE04E001AB2E4A07CA83E8070001200521FFF77B
:401A00004BFC01A82849079A02F0C8FE01A8FFF7DBFB274B1868FEF749FE90B3244B5868FEF744FE68B3012001F004FD204D28680DF11A0100221346FEF7B8FD686806A9B8
:401A400000221346FEF7B2FD012C1AD100200421FFF722FC174D01A82946BDF81A2002F09DFE01A8FFF7B0FB01200421FFF714FC01A82946BDF8182002F090FE01A8FFF724
:401A8000A3FB0520FFF762F8002001F0D3FC6DE71881FF1F94030020846800008C68000090030020FE59620294680000A068000088030020AC680000FEE700BF08B5094BAB
:401AC0001A681044084BC31AB3F5805F02DC054B186005E002F090F90C2303604FF0FF32104608BD3081FF1FE803002008B5104E104D16E029686B68AC68002204E051F827
:401B0000040B43F8040B0432A242F8D1E868002203E0002143F8041B04328242F9D11035013E002EE6D102F06DF9FFF70DFEFEE7010000001471000008B5134A134B1A60B6
:401B4000134A136843F40073136000230AE0032B03D8104A52F8231000E00F490F4A42F8231001332F2BF2D90D4B1A780D4B1A700A4A0D4B1A6000F089F900F055FA002267
:401B80000A4B1A6008BD00BF0004FA050CED00E014ED00E000000000B91A00000080FF1FBC7600400481FF1F08ED00E00081FF1FFEE700BFF0B40022174611E050F8276094
:401BC000F3B226F0FF0608E001EB420511F812406D78A5550132013BDBB2002BF4D101371B2FEBD9F0BC704708B50A46002102F03AF908BDF8B5464B1B78DBB2454E347886
:401C0000E4B2454F3D78EDB203F00701434A11701B090132137044F00303337045F003033B7003223E4B1A7048F240322F331A800D2203F5E6631A7040233A4A1370023208
:401C4000137006321370023213702021F5321170012235480270103002700420DFF8DCE08EF800004FF0220C0EF1010E8EF800C04FF0100C0EF1080E8EF800C04FF0080EB9
:401C8000DFF8BCC08CF800E00CF1100C8CF800E0DFF8B0E08EF800004FF0500E234880F800E00220DFF8A0E08EF800000EF11B0E8EF8002044F2020C0EF13F0EAEF800C0E0
:401CC0004FF0090C0EF1260E8EF800C00EF1020E8EF800204FF0820E154A82F800E01C321370144B1970053318700333197040F2064217331A80C92216331A700A2000F06C
:401D000079FA3D70347044220B4B1A70F8BD00BFCF010049F8460040F94600406E5800400D51004001590040045A0040385A0040045B0040235B004076580040175A004045
:401D4000245A0040375A0040805A004008B502F07FF808BD38B501223C4B1A801F2202331A70242202331A80182339490B7002310A80384A137041210232118002321370B1
:401D800040F2071234490A8002310B7002310A80324A137041F2234102321180023213702F4830490422FFF7D1FF06222E4B1A705222A3F580731A702C4B1B78DBB22C4AB7
:401DC000137040F621322B4B1A8041F25122023B1A80002419250CE0274B1B7803F0010343EA440404F003044FF4F07000F00CF9013D0DB1032CEFD115B90320FFF7D8FE50
:401E00001E4A4FF4807313800723137000231C490B704820023108701370053213700222184B1A7004220A331A70174A137843F07F031370013A137843F001031370013A94
:401E4000137843F08003137038BD00BF80400040864000408A40004090400040964000400041004030040048004300400F010049A1460040224200402542004004400040E5
:401E80000640004001400040A243004010B572B6404C61232370FFF75DFF012323703E4A137843F00403137000240CE03B4963001A1952000A4423445B00C8589188FFF7D2
:401EC00093FE0134E4B2082CF0D900240BE03349A3001A1952000A44906BD16B8022FFF735FF0134E4B2002CF1D04FF090402C49FFF760FE40F203322A4B1A802A480421E8
:401F0000FFF772FE29480421FFF76EFE28480421FFF76AFE27480421FFF766FE264A137843F0020313701032137843F002031370224C237843F040032370A2F58632513A38
:401F4000137843F0100313701D481E490822FFF7FDFE1D481D490822FFF7F8FE1C481D490822FFF7F3FE1C481C490A22FFF7EEFE1B481C490822FFF7E9FE1B4A137843F0A1
:401F800008031370FFF736FE184821460E22FFF7DDFE10BD00480040E8460040DC680000700000484E5800400076004008760040107600401876004003500140A04300403D
:401FC0000251004004040048C25100400C0400481251004014040048205100401C040048325100402804004822430040B0430040044A137803F0FD03400000F002001843CF
:4020000010707047205100400230800803D000BF01380046FCD17047EFF3108072B6704780F31088704700BF0B4A7F2313708021517007E0DA0002F1804202F5F042013BE0
:40204000DBB21370002BF5D1DB0003F1804303F5F04300221A7070473481FF1F172815D831B103010A495A5C42F020025A5405E0030107495A5C02F0DF025A540001044A90
:40208000835C43F00103835400207047012070471070004017280BD80001064A835C03F0F10301F0070143EA4101815400207047012070471070004041F6FF73994201D189
:4020C0004FF4005141F6FF739A4201D14FF40052172808D8C00000F1804000F5EC408180C280002070470120704700BF172805D8034B03EB00104172002070470120704734
:402100001070004017281BD810B4C00000F1804404F5EC44D201D2B201F07F01114321709DF804201201D2B203F00F03134363709DF8083003F00F03A3700020E07001E0EA
:40214000012070475DF8044B704700BF10B5FFF763FF0A4B5B78182B0BD9084A1478013B5370E30003F1804303F5F0431B78137000E0FF24FFF754FF204610BD3481FF1FF7
:4021800010F0800F0CD111F4704F0BD1C00000F1804000F5F04001808270C37000207047012070470120704710F0800F08D1C00000F1804000F5F0408180C2800020704738
:4021C0000120704701BE704710B5044605E0084B1868FFF719FFA4F50044B4F5004FF6D8034B586800FB04F0FFF70EFF10BD00BF3C81FF1F08B5034B1B7A03FB00F0FFF72E
:4022000003FF08BD3C81FF1F70B504460E46074B1D681F2802D90020FFF7D4FF04F01F04103455F8240045F8246070BD08ED00E038B504460D46072902D90020FFF7C2FF5C
:402240001F2C02D90020FFF7BDFF04F01F0000F1604000F564406D01EDB2057038BD00BF0822014B1A60704700E100E00422014B1A60704700E100E008B5FFF7CDFE0B4A54
:40228000137843F02003137002F58072137843F0100313700132137843F010031370FFF7BFFEFFF7DDFFFFF7E1FF08BD986400400822014B1A60704780E100E00422014B40
:4022C0001A60704780E100E010B5FFF7F1FF064B1C78064A137803F009031C4300231370FFF7BEFF204610BD68650040A903002010B5FFF7E3FF064B1B78064A147804F0ED
:4023000040041C4300231370FFF7B0FF204610BD69650040B603002010B504462A4B1A7802F0FF0312B1013BDBB200E00423274A1278D2B29342F1D0FFF7BAFF244B197834
:40234000244A137803F009030B4313701E4B1B781E4A1278DBB2934207D11E4B1B7813F0040F02D01C4B1C702BE0184A13780133DBB213701378DBB2042B02D90022134BB7
:402380001A70124B1B78104A1278DBB293420ED10D4A13780133DBB213701378DBB2042B02D90022084B1A7001220C4B1A70074B1B78DBB20A4AD4540A4A137843F004032C
:4023C0001370FFF74DFF10BDB2030020B403002068650040A903002048640040B1030020A40300208865004008B501E00A4B1B780A4B1B7813F0200FF8D1FFF70DFE084B55
:402400001A7842F001021A701A7802F0FE021A70FFF706FE08BD00BF58640040696500409864004010B50F22174B1A70174C0823236003200721FFF7FBFE03201449FFF7D6
:40244000E3FE0423236002200721FFF7F1FE02201049FFF7D9FEFFF7C7FF00240E4B1C700E4B1C700E4B1C700E4B1C700E4B1C700E4B1C70FFF728FFFFF73AFF0C4B1C70ED
:40248000202201331A7010BD8864004080E100E0D12400006D250000A0030020B5030020B3030020B1030020B2030020B40300208865004008B5054B1B7823B9FFF7B2FF1A
:4024C0000122024B1A70FFF7D7FE08BD6403002028E01E4B19781E4A137803F009030B431370137813F0040F23D01A4B1B7813F0FF0F0CD1184A13780133DBB213701378D0
:40250000DBB2042B06D90022134B1A7002E00022104B1A70104B1B78DBB2104AD35CDBB20F4A13700C4B1B780E4A1278DBB29342CFD1094B1B780B4A1278DBB2934204D1D5
:40254000094A137803F0FB031370704768650040A9030020B1030020B2030020A403002048640040B403002088650040204B1A7820490B7803F0400313430B7031E01E4BAF
:402580001A78D2B21D490B780133DBB20B700B78DBB2042B02D90021184B1970174B1B7817490978DBB28B420ED115490B780133DBB20B700B78DBB2042B02D90021104BF7
:4025C000197001210F4B19700C4B1B78DBB20E49CA54074B1A7807490B7803F0400313430B70044B1B7813F0200FC8D1704700BF69650040B603002058640040B3030020C7
:40260000B5030020A0030020AC030020054A137843F0080313701032137843F008031370704700BFA74300400F490B7803F0FC0200F0030313430B7001280AD10B4B1B78E7
:40264000DBB20B4A13700B4B1B78DBB2013213707047094B1B78DBB2054A1370074B1B78DBB201321370704743580040130100493646004017010049B3010049BB01004996
:4026800008B50120FFF7D0FF0B4B1A7802F0DF021A701A7802F0FB021A701A7842F008021A7003F527731A7802F0E7021A701A7842F010021A7008BD4358004008B5054B39
:4026C0001B7823B9FFF7DCFF0122024B1A70FFF79DFF08BD6503002008B50A280FD00C2802D0082806D102E04FF4805209E04FF4807206E00020FFF765FD002201E04FF42D
:4027000080620021094B198042F2107303FB02F303F6C413064A82FB0302DB17C3EBE223044A1360044B198008BD00BFB8030020AD8BDB68BC030020BA03002010B5FFF7BE
:402740006BFC04461E4A137843F0010313701032137843F001031370193A137843F0040313701032137843F00403137002F5AA521132137843F0030313700422114B1A70C6
:40278000013B1A7842F040021A701A7802F0FC021A70CE22053B1A700222A3F597530C3B1A70094A137843F0080313700A20FFF721FD0122054B1A602046FFF731FC10BDF0
:4027C000AB43004006590040275B004080E200E010B504460A280DD00C2802D0082804D101E0C42207E0442205E00020FFF7EAFCC42200E08422034B1A702046FFF76CFFDF
:4028000010BD00BF0259004008B5102000F012FB00200721FFF70CFD00200749FFF7F4FC064A137843F0060313700C20FFF7D0FF0022034B1A8008BD61280000015900406D
:40284000C003002008B5054B1B7823B9FFF7DCFF0122024B1A70FFF771FF08BD66030020704700BF08B50A280FD00C2802D0082806D102E04FF4805209E04FF4807206E02E
:402880000020FFF79FFC002201E04FF480620021094B198042F2107303FB02F303F6C413064A82FB0302DB17C3EBE223044A1360044B198008BD00BFCC030020AD8BDB68A9
:4028C000C4030020C803002038B5FFF7A5FB04461E4A137843F0020313701032137843F002031370193A137843F0020313701032137843F00203137002F5AA521932137819
:4029000043F0030313700422114B1A70013B1A7842F040021A701A7802F0FC021A70CE22053B1A700225A3F59753123B1D70094A137843F0080313700A20FFF75BFC064B53
:402940001D602046FFF76CFB38BD00BFAB4300400E5900402F5B004080E200E010B504460A280DD00C2802D0082804D101E0C42207E0442205E00020FFF724FCC42200E064
:402980008422034B1A702046FFF76CFF10BD00BF0A59004008B5102000F056FA01200721FFF746FC01200749FFF72EFC064A137843F0060313700C20FFF7D0FF0022034B69
:4029C0001A8008BDED29000009590040CA03002008B5054B1B7823B9FFF7DCFF0122024B1A70FFF771FF08BD67030020704700BFF0B583B086460F4616461D460A4C002330
:402A0000237000930193184671463A46FFF77AFB207831462A46FFF74FFB20780221FFF739FB207803B0F0BD4C81FF1FF0B583B086460F4616461D460A4C01202070002373
:402A40000093019371463A46FFF75CFB207831462A46FFF731FB20780221FFF71BFB207803B0F0BD4D81FF1F084A137843F0020313701032137843F00203137002F5A55251
:402A80001E32137843F0800313707047A9430040044A137803F0FC0300F0030018431070704700BF0558004008B50622074B1A70182201331A70032001331870044A137802
:402AC00043F008031370FFF7E3FF08BD045800401B5A004008B5054B1B7823B9FFF7E4FF0122024B1A70FFF7BFFF08BD68030020084A137843F0080313701032137843F036
:402B00000803137002F5A5521E32137843F0800313707047A9430040044A137803F0FC0300F0030018431070704700BF0D58004008B50622074B1A70182201331A70032092
:402B400001331870044A137843F008031370FFF7E3FF08BD0C5800403B5A004008B5054B1B7823B9FFF7E4FF0122024B1A70FFF7BFFF08BD69030020084A137843F004037E
:402B800013701032137843F00403137002F5A5521E32137843F0800313707047A9430040044A137803F0FC0300F0030018431070704700BF0958004010B487B00446194BCA
:402BC00003AA1868596803C2197A11706A4653F80C0F596803C21B7A1370082C1ED812490B7803F08003DBB20B70087806AB1C4414F80C3C14F8182C920002F00C021343B7
:402C000003430B70094A137803F0F3031370117814F8183C0B4343F00C03137007B05DF8044B7047206900000A5800400958004008B50C22084B1A70084A137843F02003B4
:402C400013700022064B1A700220FFF7B5FF0120FFF7A6FF08BD00BF08580040095800400A58004008B5054B1B7823B9FFF7E0FF0122024B1A70FFF77FFF08BD6A030020D4
:402C8000F8B5254A137843F01003137002F50342DA32137803F0FE0313703F2308321370043213701D4D4FF480741D482946224601F0CEF81B482946224601F0C9F81A48A0
:402CC0001A49224601F0C4F84FF4007418481949224601F0BDF818481849224601F0B8F8174C184E04F14007354620686168A268E3680FC510342E46BC42F5D10024124B14
:402D00001C70032000F058F8204600F05DF8F8220E4B1A70F8BD00BFA6430040786E000000C4004000C5004000C600403869000000C00040786C000000C20040786A000001
:402D4000386A000000C700408CC7004084C70040084A137843F0100313701032137843F01003137002F50342CA32137843F0010313707047A643004008B5054B1B7823B977
:402D8000FFF77EFF0122024B1A70FFF7E1FF08BD6B03002018B9064B188880B27047012803D1044B188880B270470020704700BFA9C70040ADC7004000F01F00014B187020
:402DC000704700BF98C7004000F00F00014B1870704700BF9CC70040024B1B68C3F8B000704700BF08ED00E04001C0B2014B1870704700BF1CE400E04FF08052014B1A6098
:402E0000704700BF00E100E04FF08052014B1A60704700BF80E100E010B50446FFF7F4FF2046FFF7D9FF0720FFF7DEFFFFF7E4FF10BD00BF034B1A7800F0F800104318709F
:402E4000704700BF8A400040034B1A7800F0F80010431870704700BF86400040024B1878C0F3C000704700BF21510040024B1878C0F30010704700BF21510040024B187896
:402E8000C0F38010704700BF21510040024B1878C0F34010704700BF2151004010B50222114B1A7081220E3B1A70082202331A702A2211331A70002401331C704FF40042EE
:402EC0000A4B1A600F200721FFF7B2F90F200849FFF79AF91022074B1A70074B1C70074B1C70074B1C7010BDD649004080E100E0512F0000CE030020D2030020D403002090
:402F0000D003002008B5FFF787F8064A137843F0040313701032137843F004031370FFF77FF808BDA543004008B5074B1B7823B9FFF7B4FF0122044B1A70FFF7E3FF4FF4B2
:402F40000042024B1A6008BD6C03002000E100E038B5A44B1C78E4B2A34B1B7813F0400F00F0378114F0010F00F01B819E4B1B78453B052B00F21281DFE813F0060082000F
:402F8000100110010600DE0004F0DF0504F00A04082C42D1944B1B78DBB2452B35D1934B1B7813F0FF0F10D0914B1B681B78DBB2904A137004228B4B1A7001228E4B1A702B
:402FC0004622894B1A702C46EBE08C4B1B7813F0020F0DD08A4A137843F00A0313706022814B1A704FF40042864B1A602C46D8E0854A137843F0100313701022834B1A70D2
:403000000422023B1A702C46CBE00022754B1A704A22754B1A702C46C3E00A2C2BD1784A137843F0A0031370744B1B7813F0020F14D06D4B1B7813F0080F01D0092300E0EB
:403040000A236F4A11780B4313706022664B1A704FF400426B4B1A602C46A2E06A4A137843F0100313701022684B1A700422023B1A702C4695E00020FFF7A4F82C4690E0CB
:4030800014F0020F35D15C4B1B78584A1278DBB2934210D2584A1378DBB255490968CB5CDBB254490B7004214E4B197013780133DBB2137075E0514B1B7813F0020F0CD02C
:4030C0004F4A137843F00A0313706022464B1A704FF400424B4B1A6063E04B4A137843F0100313701022494B1A700422023B1A7057E0424B1B7813F0020F0CD0404A1378F2
:4031000043F09A0313706022374B1A704FF400423C4B1A6045E03C4A137843F01003137010223A4B1A700422023B1A70344A137843F09003137034E0354A1378DBB2354980
:4031400008682C490978C9B2C15413780133DBB213701378304A1278DBB2934203D21022204B1A701DE0254B1B7813F0020F0CD0234A137843F00903137060221A4B1A7082
:403180004FF400421F4B1A600BE01F4A137843F0100313700022134B1A7002E00020FFF711F814F0200F1CD00F4B1B7813F0080F01D0012300E00223114A11780B4313701E
:4031C000114A137803F0EF0313701022064B1A7038BD054B1B7813F0100F02D11022024B1A7038BDD7490040CE030020D3030020D8030020D8490040D0030020D10300201F
:40320000D203002080E100E0D6490040D9490040D4030020DC030020E00300201A4B1B78DBB2102B29D1194B1B7813F0080F26D14FF40042164B1A604000C0B229B140F0C0
:4032400001004922104B1A7002E045220E4B1A70104B1870012201331A700F4B1B7813F0010FFAD00C4B1B7803F00A030A2B08D11022054B1A70032070470220704701206B
:4032800070470020704700BFCE030020D949004080E100E0D8490040D74900400A4B1B7813F0040F0ED01023074A13700421023A1170064A1370064B1B7813F0210FFAD0F3
:4032C0000020704702207047D9490040CE030020D7490040114B1B7813F0040F1BD0104B18700422013B1A7046220E4B1A700E4B1B7813F0010FFAD00B4B1B7813F0020F9B
:4033000004D16022074B1A70002070476022054B1A70032070470220704700BFD9490040D8490040CE030020D7490040084A137843F0010313701032137843F00103137083
:4033400002F5A5521E32137843F0800313707047A9430040044A137803F0FC0300F0030018431070704700BF0158004010B487B00446194B03AA1868596803C2197A117050
:403380006A4653F80C0F596803C21B7A1370082C1ED812490B7803F08003DBB20B70087806AB1C4414F80C3C14F8182C920002F00C02134303430B70094A137803F0F3032E
:4033C0001370117814F8183C0B4343F00C03137007B05DF8044B7047786F0000025800400158004008B50C22084B1A70084A137843F0200313700022064B1A700220FFF78F
:40340000B5FF0120FFF7A6FF08BD00BF00580040015800400258004008B5054B1B7823B9FFF7E0FF0122024B1A70FFF77FFF08BD6D030020044A137803F0FE0300F00100FB
:4034400018431070704700BF2051004070B50120014641F6FF724FF4804300F073F80C4E3070FEF773FE02460A4C254605F8040B10210123FEF784FE2078A9B245F6833290
:40348000FEF792FE30782178FEF730FE70BD00BF6E0300205081FF1F08B500F0B1F8034B1B78FF2B01D1FFF7D1FF08BD5081FF1F08B5054B18780121FEF7D0FD00F0B6F8EB
:4034C00000F060F808BD00BF6E03002008B5054B5B7823B9FFF7E0FF0122024B5A70FFF7E7FF08BD6E03002038B500F00F05C0F30714B0F57F6F02D90020FEF763FEFF2CA4
:4035000008D0002318E00E4A1A44FF2111710133DBB200E000230F2BF5D938BDC5F11002934203DA064A1A44147103E0044A1A44611C11710133DBB20F2BEFD938BD00BFCD
:403540005081FF1FF0B583B084468E4617461E460B4C02252570002300930193284661467246FEF7CFFD207839463246FEF7A4FD20782946FEF78EFD207803B0F0BD00BFD7
:403580006481FF1F054A137843F0080313701032137843F008031370704700BFA8430040054B1A7802F0FD021A701A7800F0020010431870704700BF2C580040064B1B7864
:4035C000C3F3810303F19243063393F83831DBB2024A1370704700BF2C5800400B46004008B5064B1A7802F0F3021A701A7800F00C0010431870FFF7E1FF08BD2C5800409B
:4036000008B50023084A13700132137002F27222137843F0080313700420FFF7E1FF0220FFF7BEFF08BD00BF2C580040054A137843F0200313701032137843F020031370DB
:40364000704700BFA243004070B50120014641F6FF724FF4804300F073F80C4E3070FEF775FD02460A4C254605F8040B10210123FEF786FD2078A9B24FF4B742FEF794FD21
:4036800030782178FEF732FD70BD00BF700300206881FF1F08B500F0AFF8034B1B78FF2B01D1FFF7D1FF08BD6881FF1F08B5054B18780121FEF7D2FC00F0B4F800F05EF8F8
:4036C00008BD00BF7003002008B5054B5B7823B9FFF7E0FF0122024B5A70FFF7E7FF08BD7003002038B500F00F05C0F30714B0F57F6F02D90020FEF765FDFF2C08D00023EA
:4037000018E00E4A1A44FF2111710133DBB200E000230F2BF5D938BDC5F11002934203DA064A1A44147103E0044A1A44611C11710133DBB20F2BEFD938BD00BF6881FF1FBF
:40374000F0B583B086460F4616461D460A4C0320207000230093019371463A46FEF7D2FC207831462A46FEF7A7FC20780221FEF791FC207803B0F0BD7C81FF1F054A137803
:4037800043F0010313701032137843F001031370704700BFA8430040054B1A7802F0FD021A701A7800F0020010431870704700BF20580040064B1B78C3F3810303F1924356
:4037C000063393F82031DBB2024A1370704700BF205800400846004008B5064B1A7802F0F3021A701A7800F00C0010431870FFF7E1FF08BD2058004008B50023084A13701A
:403800000132137002F26622137843F0080313700420FFF7E1FF0220FFF7BEFF08BD00BF20580040054A137843F0100313701032137843F010031370704700BFA24300402B
:403840007BB972B90029BEBF00204FF0004106E008BF00281CBF6FF000414FF0FF3000F03BB882B0EC462DE9005000F005F8DDF804E002B00CBC70472DE9F041069C9046A2
:4038800006460F461D4600F029F808FB01FCA8FB002300FB05C5B21A2B4467EB03038646C4E90023BDE8F0812DE9F843089E1746804689461D4600F067F900FB05F3A0FBF9
:4038C000074507FB0137B8EB04043D4469EB0505C6E90045BDE8F883704700BF00292DE9F043C0F2A8800026002BC0F29E8081468E4690469C46174604460D46002B3DD13B
:403900008A4259D9B2FA82F33BB1C3F120029D4020FA02F29F4015439C40390CB5FBF1F01FFA87FE01FB10550EFB00F3220C42EA0545AB4209D9ED1900F1FF3280F00B8140
:40394000AB4240F2088102383D44ED1AB5FBF1F301FB13550EFB03FEA4B244EA0545AE4508D9ED1903F1FF3280F0F780AE4540F2F480023B43EA0043002203E08B420FD927
:4039800000221346341C18BF012460424FF0000565EB45015840514000196941BDE8F083B3FA83F2002A40F089808B4202D3804500F2E2800123E5E712B90123B3FBF2F70A
:4039C000B7FA87F8B8F1000F3BD1ED1B4FEA174C1FFA87FE0122B5FBFCF00CFB10550EFB00F3210C41EA0545AB4207D9ED1900F1FF3102D2AB4200F2C3800846ED1AB5FBD9
:403A0000FCF30CFB13550EFB03FEA4B244EA0545AE4507D9ED1903F1FF3102D2AE4500F2AD800B4643EA0043ACE752426FEA060663EB43035BE7404261EB41014FF0FF36C6
:403A400052E707FA08F7C8F1200225FA02F34FEA174CB3FBFCF11FFA87FE0CFB113324FA02F205FA08F50EFB01F92A43100C40EA0343994504FA08F407D9DB1901F1FF3027
:403A800078D2994576D902393B44C9EB0303B3FBFCF00CFB10330EFB00F592B242EA03439D4207D9DB1900F1FF325FD29D425DD902383B445D1B40EA01428CE7C2F1200381
:403AC00028FA03F10CFA02FC41EA0C0C4FEA1C402EFA03F1B1FBF0F51FFA8CF700FB151129FA03F30EFA02FE07FB05F943EA0E0E4FEA1E4343EA0141894508FA02F808D94C
:403B000011EB0C0105F1FF3332D2894530D9023D6144C9EB0101B1FBF0F300FB131107FB03F71FFA8EFE4EEA014E774508D91EEB0C0E03F1FF3117D2774515D9023BE6442B
:403B400043EA0543A3FB0889C7EB0E0ECE4509D305D0002216E71046F7E613460AE794404445F6D2013BF4E70B46E9E71046A1E71D46CEE7014688E7134603E7023B51E7B2
:403B800002383D443AE700BF2DE9F043002B44D18A42154604464FD9B2FA82F70E464FB1C7F12003B94020FA03F602FA07F50E4300FA07F42F0CB6FBF7F01FFA85FE07FB39
:403BC00010620EFB00F1260C46EA0243994209D95B1900F1FF3280F0EE80994240F2EB8002382B44591AB1FBF7F307FB13110EFB03FEA4B244EA01418E4508D9491903F157
:403C0000FF3280F0DA808E4540F2D780023B43EA004000263146BDE8F0838B4247D8B3FA83F6002E48D18B4202D3824200F2CF8001203146BDE8F08312B90125B5FBF2F596
:403C4000B5FA85FCBCF1000F78D1491B2F0C1FFA85FE0126B1FBF7F007FB10110EFB00F2230C43EA01418A4207D9491900F1FF3302D28A4200F2BC801846891AB1FBF7F3C8
:403C800007FB13110EFB03FEA4B244EA0142964508D9521903F1FF3180F09180964540F28E80023B43EA00403146BDE8F083002630463146BDE8F083C6F1200422FA04F5D2
:403CC000B3402B4321FA04F74FEA1348B7FBF8FC1FFA83F908FB1C7720FA04FE01FA06F509FB0CF44EEA05054FEA154E4EEA0747BC4202FA06F204D9FF180CF1FF3168D320
:403D00008C463F1BB7FBF8F408FB147709FB04F9ADB245EA0741894504D9C91804F1FF355DD32C4644EA0C44A4FB0223C9EB0101994249D345D0204600266BE7CCF120043A
:403D400005FA0CF521FA04F32A0CB3FBF2F61FFA85FE02FB163820FA04F701FA0CF10EFB06F90F433C0C44EA0843994500FA0CF407D95B1906F1FF3138D2994536D9023ECC
:403D80002B44C9EB0303B3FBF2F002FB10330EFB00F1BFB247EA0343994207D95B1900F1FF3721D299421FD902382B441746591A40EA06464EE7104614E7134627E70B46DF
:403DC00070E7B0409042B6D2601E002622E7304620E7BC4294D9ACF1020C1F4491E789459FD9023C19449DE73846DFE70E46C8E70238294441E700BF014B1868704700BF8B
:403E0000E081FF1F0E4B70B51E460E4C0025E41AA410A54204D056F8253098470135F8E703F066F9084B094C1E46E41AA4100025A54204D056F8253098470135F8E770BDEA
:403E4000FC700000FC700000FC7000000471000010B5431E0A44914204D011F8014B03F8014FF8E710BD03460244934202D003F8011BFAE770472DE9F0471E4688B0149FA1
:403E8000002BB8BF06F10043129927F02007B6BF1E4600232D23462F1446109DDDF84CA00B7003D0452F03D1013501E0032300E002238DE8280406AB039307AB0493224643
:403EC000334600F029FD472F804602D1119BDB0726D5462F08EB050911D198F80030302B0AD1204631460022002302F039FC18B9C5F10105CAF80050DAF800309944204620
:403F000031460022002302F02BFC08B1CDF81C90079B4B4504D25A1C079230221A70F7E74046079B159AC8EB0303136008B0BDE8F087034673B50029B8BF494203F8022B16
:403F4000B4BF2D222B22092942701ADD0DF1070426460A2291FBF2F502FB1511092D01F1300104F8011D2946F3DC3031651E04F8011CB5421A460AD215F8012B03F8012BDF
:403F8000F7E71A463024214402F8024B5970101A02B070BD2DE9F04F91B08B4615461E461A9F044601F074FAD0F800A0504600F021FC00230E933B680990073323F0070307
:403FC00003F108029BF818803A60D3E90023CBE91223DBE9120100F0B9FB0128DBE9120119D10022002302F0C5FB10B12D238BF84330A04BA04FB8F1470F88BF1F46032328
:40400000CBF81030DBF8003023F00403CBF800304FF00009A1E000F099FBDBF8003048B9964A974FB8F1470F88BF17460322CBF81020E9E7DBF80420DBE91201571CCDE9D4
:404040000A0101D1062209E0B8F1670F02D0B8F1470F05D1002A40F0C7810122CBF80420DBF8042043F480638DE80C00CBF800300DF1330302930DAB03930EAB05930023D0
:404080000693CDF81080DDE90A232046FFF7F3FE08F0DF03472B07460AD10D9BD81C03DBDBF80420934237DDA8F102085FFA88F8B8F1650F0D9915D8013942460BF15000CA
:4040C0000D91FFF736FF0E9A81468318012ACBF8103003DCDBF80020D10738D50133CBF8103034E0B8F1660F18D10029DBF8043009DDCBF810101BB9DBF80020D20721D527
:4041000001330B441CE01BB9DBF80020D00701D5023315E0012313E04FF067080D9B0E9A934207DBDBF80020CBF81030D10709D5013305E0002BD4BFC3F1020301231344DF
:40414000CBF810300D9B4FF00009CBF858309DF8333013B12D238BF843300096204659460FAA2B4600F05CF9013002D14FF0FF3052E1DBF800305A0505D4204629463A46C0
:40418000DBF8103008E1B8F1650F40F2D080DBE912010022002302F0E3FA50B320462946384A0123B0470130E0D00E9B0D9A9A4209DBDBF80030D80705D4DBF800309F07AF
:4041C00000F1108107E1204629465246099BB0470130CBD000270E9B013B9F42EDDA204629460BF11A020123B0470130BED00137F1E70D9B002B29DC20462946214A0123BA
:40420000B0470130B2D00D9B2BB90E9B1BB9DBF80030D907D1D5204629465246099BB0470130A3D04FF000080D9B20465B429845294608DA0BF11A020123B047013095D0AD
:4042400008F10108F0E73A460E9BA5E0DBF858200E9B9A42A8BF1A46002A914602DC4FF000081CE0204629463A464B46B0470130F5D17BE7966F0000926F00009E6F0000B5
:404280009A6F0000A26F0000204629460BF11A020123B04701303FF469AF08F10108DBF85830B9F1000FB4BF1A46C9EB03029045EADB07EB03080D9A0E9B9A4210DBDBF83D
:4042C0000030DA070CD40E9A1744C8EB07030D9FD21B9342A8BF1346002B1F4608DC0EE0204629465246099BB0470130EBD13DE7204629464246B04701303FF437AF4FF087
:4043000000080AE0204629460BF11A020123B04701303FF42BAF08F101080D9A0E9B002FA3EB0203A8BFDB1B9845EBDB45E70E9A012A01DCDB0736D5204629463A460123EF
:40434000B04701303FF412AF204629465246099BB04701303FF40AAFDBE912010022002302F0FEF9E8B90E9B204629467A1C013B1DE0204629460BF11A020123B0470130D0
:404380003FF4F4AE01370E9B013B9F42F1DB204629464B460BF15002B04701307FF40DAFE4E60027EFE7204629463A460123B0470130ECD1DAE6204629460BF1190201235E
:4043C000B04701303FF4D2AE0137DBF80C300F9A9B1A9F42EFDBDBF80C000F9B9842B8BF184619E00027F0E743F480638DE80C00CBF800300DF1330302930DAB03930EAB05
:40440000059300230693CDF810802046DDE90A23FFF731FD074640E611B0BDE8F08F00BF2DE9F84391461F468A680B6906469342B8BF1346C9F8003091F843200C46DDF857
:40444000208012B10133C9F800302368990642BFD9F800300233C9F80030256815F006051CD094F843302268003318BF012392061FD5E118302081F843005A1C94F845103A
:404480002244023382F8431013E03046394604F119020123C047013007D00135E368D9F800209B1A9D42F0DBDBE74FF0FF30BDE8F8833046394604F14302C0470130F4D01D
:4044C0002268D9F80050E36802F00602042A08BF5D1B2269A3680CBF25EAE57500259342C4BF9B1AED184FF00009A9450ADA3046394604F11A020123C0470130D5D009F143
:404500000109F2E70020BDE8F88300002DE9FF410C461746227E98466E2A06460A9B01F1430100F0B08012D8632A23D00AD8002A00F0BD80582A40F0CC8084F84520DFF89D
:4045400004E257E0642A1ED0692A1CD0C1E0732A00F0B18009D86F2A2ED0702A40F0B980226842F0200222603FE0752A24D0782A3BD0AEE01A6804F14205111D196013681C
:4045800084F84230A9E020681A6810F0800F02D0101D186008E010F0400F02F10400186002D0B2F9003000E01368002B3EDA2D225B4284F8432039E020681A6810F0800F06
:4045C00002D0101D186007E010F0400F02F10400186001D0138800E01368227EDFF864E16F2A0CBF08220A221CE07822DFF858E184F845202268186812F0800F00F1040546
:404600001D6003D1550601D5038800E00368D00744BF42F0200222601BB9226822F0200222601022002084F8430002E0DFF814E10A226568002DA8BF2068A560A4BF20F012
:404640000400206003B965B10D46B3FBF2F002FB10331EF8033005F8013D03460028F4D100E00D46082A0BD12368DA0708D5236962689A42DEBF302305F8013C05F1FF35F7
:40468000491B21612EE025681A6815F0800F606903D0151D1D60136808E015F0400F02F104051D60136801D0188000E01860002323610D4616E01A68111D196015680021F5
:4046C0002846626800F0F0FE08B1401B6060636804E004F1420584F8422001232361002384F84330CDF800803046214603AA3B46FFF796FE013002D14FF0FF301FE030468C
:4047000039462A462369C0470130F5D023689B0705D4E068039B9842B8BF18460FE00025E368039A9B1A9D42F3DA3046394604F119020123C0470130DED00135F0E704B039
:40474000BDE8F081A46F0000B56F000031F0004310B51BD00F4AA1F58014944210D901F1FF410C4A01F5E001914209D9B3F5801F08D3094A934207D1B0FA80F0400910BD30
:40478000042010BD032010BD002010BD0028E6D1022010BDFFFFDF7F0000F07F0EB400B54FF402719CB0ADF814106FF00041049107914FF6FF711DABADF81610084953F89F
:4047C000042B02900690086802A9019301F05AFA029B00221A701CB05DF804EB03B07047E081FF1F034611F8012B03F8012B002AF9D17047034613F8012B002AFBD1181A34
:40480000013870472DE9F74F03690C698046A3427EDB013C01F114074FEA840E00F1140606EB0E0357F82450019356F824300135B3FBF5F507EB0E09BDB34FF0000A38461E
:40484000B446D34650F8043B9AB21B0C02FB05A26B4303EB124392B2C2EB0B0BBCF800204FEA134A5A441FFA83FBDCF800304845CBEB134303EB224392B242EA03424FEA12
:40488000234B4CF8042BDDD956F80E306BB9019B043BB3421A4602D8C8F8104005E01268043B002AF8D1013CF3E7404601F01BF800282BDB304601354FF0000E57F8042BC0
:4048C000036891B2C1EB0E0E120C99B27144C2EB134303EB214389B24FEA234E4F4541EA034340F8043BE9D956F8242006EB840362B9043BB3421A4602D8C8F8104005E024
:404900001268043B002AF8D1013CF3E7284600E0002003B0BDE8F08F2DE9F04F456A95B08246219CCDE9022345B9102000F0B4FDCAF82400456085600560C560DAF82430D7
:40494000196859B15A68012393404A608B60504600F0EDFDDAF8243000221A60039BA24A002BBDBF01232360039B0023BCBF23F000430393039FA8BF236027F000431B0D1E
:404980001B0593421DD142F20F73209A1360029B43B9964A964BC7F31300002814BF1846104600E09248229B002B00F06985C37813B100F1080300E0C31C229A136000F002
:4049C0005FBDDDE90245002220462946002301F0C7FE804658B1209A01231360229B002B00F03C8583481860013800F049BD13AB009312AB0193504622462B4600F0EEFFA5
:404A0000C7F30A5607905EB1C5F3130343F07F51204641F44011A6F2FF36CDF844801DE0139B129E1E446FF482639E42A1BF029A06F2124322FA03F06F4BB7BF6F4B9B1BC6
:404A4000029A9B1BAABF9F4002FA03F0384301F0A9FB0123A1F1F871013E11930022684B01F062FA5AA3D3E9002301F011FC5AA3D3E9002301F05AFA044630460D4601F07A
:404A8000A1FB57A3D3E9002301F002FC02460B462046294601F04AFA04460D4601F092FE2946834600222046002301F063FE58B1584601F087FB02460B462046294601F023
:404AC0004FFE08B90BF1FF3BBBF1160F0DD84D4B03EBCB03D3E90001DDE9022301F068FE30B10BF1FF3B002300E00123109300E01090129B9E1B731E0A9345BF5B42099337
:404B0000002300234CBF0A930993BBF1000F07DB0A9BCDF834B05B440A9300230B9308E0099BCBEB03030993CBF100030B9300230D931E9B092B29D8052BC4BF043B1E936E
:404B40001E9BC8BF0025A3F10203D8BF0125032B21D8DFE803F0020E0410002300E001230C931F9B002B20DC0123069305931A4619E0002300E001230C931F9B5B44069368
:404B80000133012B0593B8BF012311E0012500231E930C9501E001230C934FF0FF3306930593002212231F9202E01F9B06930593DAF8244000226260042101F114029A4298
:404BC00022D86268490001326260F6E7AFF3008061436F63A787D23FB3C8608B288AC63FFB799F501344D33F0000F07FC66F0000CF6F0000A36F00000EFCFFFFEEFBFFFF33
:404C00000000F83FE06F00005046616800F05AFCDAF8243020601B680893059B0E2B00F24781002D00F04481DDE90223BBF1000FCDE90E2331DDB14A0BF00F034FEA2B16F3
:404C400002EBC303F006D3E900450CD5DDE90E01AB4B06F00F06D3E9082301F043FC0327CDE9020100E00227DFF8948276B1F10708D5D8E900232046294601F009FB0446EF
:404C80000D460137761008F10808EFE7DDE9020122462B4601F026FC1BE0CBF10004DCB1DDE90E01954B04F00F0203EBC203D3E9002301F0EDFA924D241102274CB1E207C0
:404CC00004D5D5E90023013701F0E2FA64100835F4E7CDE9020100E00227109BDBB1DDE90245002220462946864B01F043FD90B1059B83B1069B002B40F3D680294620462B
:404D00000022814B01F0C4FA0BF1FF36CDE902010137069D01E05E46059D3846DDE9028901F050FA42464B4601F0B2FA774B002201F0FCF8CDE90201039BA3F1507403941B
:404D4000CDB9404649460022714B01F0EDF8029A23468046894601F02BFD002840F0408240464946029A04F1004301F003FD002840F0308298E0614B0C996A1E03EBC2032F
:404D8000002947D0D3E900230020624901F0AAFBDDE9022301F0C8F8CDE90201089C4946404601F00FFD074601F00CFA02460B464046494601F0B8F8DDE90223303704F887
:404DC000017B8046894601F0D5FC002840F0378342464B4600204B4901F0A6F8DDE9022301F0C8FC002840F0D080089BE31AAB425ADADDE902010022434B01F049FA00229A
:404E0000CDE90201404B4046494601F041FA80468946C4E7D3E90001DDE9022301F038FA089BCDE902015C191D464946404601F0C9FC074601F0C6F902460B464046494638
:404E400001F072F8303705F8017BA5428046894623D100222F4BDDE9020101F067F802460B464046494601F0A3FC002840F08D80DDE902230020274901F056F802460B46DC
:404E80004046494601F076FC70B114F8013C621E302B40F0D4821446F7E700221A4B01F0F7F980468946C0E7DDE90E23CDE90223139B002BC0F28A80BBF10E0F00F38680AA
:404EC0000E4B03EBCB03D3E900671F9B002B23DA059B002B20DC40F07C81304600220C4B394601F0D5F9DDE9022301F057FC059D2E46002840F06F8174E100BFE06F000087
:404F0000A87000000000F03F0000244000001C40000014400000E03F089CDDE9028932463B464046494601F0DDFA01F04BFC054601F048F932463B4601F0AAF90B46024651
:404F40004946404600F0F0FF05F1300E089B04F801EBC3EB040E059B9E452AD102460B4600F0E4FF32463B468046894601F020FC70B94046494632463B4601F0F1FB0028FD
:404F800000F05E82EB0703D45AE2B34600E01C4614F8012C631E392A07D1089A9342F6D13023137013460BF1010B1A7801321A7046E20022A34B01F06BF900220023804690
:404FC000894601F0CDFB0028A9D039E20C9A002A32D01E9A012A0ADC119A12B103F2334302E0129BC3F136030B9D099C18E0059B5D1E0B9BAB42B7BF0B9B5D1BEA1A0D9B4A
:40500000BEBF0B959B180D93059BB8BF0025002BB9BF099B059A099C059BBCBF9C1A0023099A50461A4409920A9A01211A440A9200F01FFB064602E00B9D099C0C9E64B10F
:405040000A9B002B09DDA342A8BF2346099AE41AD21A09920A9AD31A0A930B9B002B20DD0C9BC3B1002D10DD31462A46504600F099FB0646079A3146504600F003FB074636
:405080000799504600F053FA07970B9B5A1B08D05046079902E0504607990B9A00F082FB07905046012100F0E4FA0D9B0546002B0ADD29461A46504600F074FB1E9B0546A2
:4050C000012B04DD00271BE01E9B012B13DC029B8BB9039BC3F313037BB9039B23F000473F0D3F0557B1099B0127013309930A9B01330A9302E0002700E0029F0D9B43B166
:405100002B6905EB8303186900F066FAC0F1200000E001200A9B184410F01F0008D0C0F12003042B02DDC0F11C0002E008D018461C30099B0444034409930A9B03440A935F
:40514000099B002B05DD504607991A4600F078FB07900A9B002B05DD294650461A4600F06FFB0546109BEBB10798294600F0BBFB002817DA0023504607990A2200F0EEF9C2
:405180000C9B0BF1FF3B0790002B00F06B813146002350460A2200F0E1F9069B0646002B33DC68E1059B002B26DC1E9B022B23DD059B0693069B73B929460522504600F009
:4051C000CDF905460798294600F08DFB002809DC01E000252E461F9B089C6FEA030B08E0B3462E46089B089A5C1C312313700BF1010BB14600260FE10C9B23B9059B069312
:40520000089F079CC9E0059B0693002C05DD31465046224600F014FB0646AFB17168504600F050F90446326906F10C01023292000C30FEF70DFE50462146012200F000FB76
:40524000814602E000002440B146089F079C29462046FFF7D7FA3146099000F13008204600F041FB4A4605902946504600F057FBC26803463AB919462046079300F033FB2A
:40528000079B024600E0012250461946079200F04EF9079A92B91E9B83B9029B03F0010363B9B8F1390F3B4607943ED0059B7C1C002BC4BF099B03F131083DE0059B002BF1
:4052C00004DA002AC446079408DC21E024D11E9B13BB029B03F00103F3B9F2E72146012250460597CDF8088000F0AAFA2946079000F0F9FA0028DDF808C0059B03DC07D1E5
:4053000018F0010F04D0B8F1390F0ED008F1010C7C1C87F800C07FE0002A07F101020EDDB8F1390F3B46079403D1392201371A7057E0144608F1010887F800806CE0089BE7
:405340001746D31A02F8018C069A93423AD021460A220023504600F001F94E450446314650464FF00A024FF0000304D100F0F6F8064681466BE700F0F1F8494606460A2238
:405380005046002300F0EAF8814660E7214650460A22002300F0E2F8044620462946FFF731FA089B00F1300807F8018B069AFB1A9342EBDB089BB146012AACBF9B18013340
:4053C0001F46002621460122504600F039FA2946079000F088FA002803DC15D118F0010F12D03C4614F8013C621E392B09D1089B9A4204D10BF1010B3123089A02E0144669
:40540000F0E70133137007E03C4614F8013C621E302B01D11446F8E75046294600F087F8B9F1000F0CD02EB14E4503D05046314600F07DF85046494600F079F800E0B34627
:405440005046079900F073F80023209A23700BF101031360229B1BB11C6001E00A480FE008980DE0069B002B3FF7CAAE1E9B022B3FF7A0AEC4E61E9B022B3FF79BAEC4E667
:4054800015B0BDE8F08F00BFA26F0000AFF3008000487047E481FF1F024B0146186800F041BB00BFE081FF1F10B5C9B202449042034605D01C7801308C42F8D1184610BD54
:4054C000002010BD70B5456A04460E463DB91020FFF7E2FF6062456085600560C560656AEB6843B1636ADB6853F8260078B1026843F8262017E020460421212200F0C0FA60
:40550000636AE860DB68002BECD1002070BD012101FA06F56A1D2046920000F0B1FA0028F3D04660856000230361C36070BD70B5446A06460D463CB91020FFF7ADFF706254
:40554000446084600460C4603DB1736A6A68DB6853F82210296043F8225070BD2DE9F04106460C460F69984601F1140E0023DEF80000013385B2010C02FB0585514301EB94
:405580001541ADB24FEA1148BB4205EB01414EF8041BECDBB8F1000F1BD0A3689F4212DB616830460131FFF78DFF0546226904F10C01023292000C30FEF74AFC21463046E8
:4055C000FFF7B5FF2C4604EB87030137C3F8148027612046BDE8F081030C1B0413B90004102300E0002310F07F4F04BF0002083310F0704F04BF0001043310F0404F04BF7D
:4056000080000233002803DB420003D5581C70471846704720207047036813F007020BD0D90722D49A074BBF5B089B08036003604CBF01200220704799B209B91B0C102254
:4056400013F0FF0F04BF1B0A0832190704BF1B090432990704BF9B080232D90702D45B0805D00132036010467047002070472020704710B50C460121FFF724FF0122446107
:40568000026110BD2DE9F74F14460A69236988469A42BEBF0B46A0461C46D8F81070D4F81090D8F80830D8F8041007EB09069E42C8BF0131FFF706FF00F114052B4605EB9D
:4056C000860C634503D2002243F8042BF9E704F1140208F1140102EB890301EB87070093009B01929A4257D2B2F800B0BBF1000F23D08946AE464FF0000859F8044BBEF8F5
:4057000000A0A3B20BFB03A34FEA144ADEF8004043444FEA14480BFB0A84F24604EB13449BB243EA04434F454FEA14484AF8043B01D9D646E1E7CEF80480019B0432B3F8FD
:4057400002A0BAF1000F21D02C4689462B684FF00008B9F800E0B4F802B09BB20AFB0EBEA346F04443EA08434BF8043B59F8043BB4F804E01B0C0AFB03E3B94503EB184324
:405780004FEA134801D25C46E3E763600435A7E75CF8043D13B9013E002EF9DC066103B0BDE8F08F12F003032DE9F04106460F46154607D0214A013B52F823200023FFF73C
:4057C000CDFE0746AD1035D0746A3CB91020FFF763FE7062446084600460C460D6F82480D8F808407CB9304640F27121FFF741FF0023C8F808000446036004E06D1019D082
:40580000206870B10446EB07F8D5394622463046FFF738FF804639463046FFF788FE4746ECE7304621462246FFF72CFF002320600360E7E73846BDE8F08100BFD0700000C8
:405840002DE9F0470C460746164623694FEA621A0AEB03094968A36809F101059D4202DD01315B00FAE73846FFF72CFE804600F114010023534504DA002241F823200133E1
:40588000F8E72AEAEA73206901EB830316F01F0204F1140101EB800E14D0C2F1200C00200E689A469640304343F8040B51F8040B714520FA0CF0F3D3CAF8040048B109F183
:4058C000020506E0043B51F8042B714543F8042FF9D3013D3846C8F810502146FFF727FE4046BDE8F08703690A6910B59B1A11D192001430143183180A4453F8044D52F8EF
:40590000041D8C4202D007D3012010BD8342F4D8002010BD184610BD4FF0FF3010BD2DE9F84307460C46084611461546FFF7DBFF061E08D138463146FFF7C4FD0123036109
:405940004661BDE8F883BCBF23462C4638466168BABF1D4601260026FFF7B4FD2B69C660266905F1140904F1140101EB860709EB830800F114054FF0000C51F8042B59F877
:40598000044B93B29C44A3B2240CC3EB0C03C4EB124202EB23429BB24FEA224CC84543EA02428E4645F8042BE7D8BE450ED25EF8043B9AB262441B0C03EB224392B242EA17
:4059C00003424FEA234C45F8042BEEE755F8043D0BB9013EFAE70661BDE8F8832DE9F3411C4601211546089F099EFFF76BFDC4F31302C4F30A5480460CB142F480120192EC
:405A0000EDB102A840F8085DFFF706FE009B50B1019AC0F1200102FA01F10B43C240C8F81430019201E0C8F81430019B002B14BF02250125C8F81830C8F8105009E001A823
:405A4000FFF7EAFD019B0125C8F81430C8F81050203034B1A4F2334404443C60C0F1350009E0A0F2324008EB850338601869FFF7B3FDC0EB45103060404602B0BDE8F08152
:405A800038B502FB01F4214600F04CF8054618B100212246FEF7E7F9284638BD30B500293CD051F8042C0B1F1D49002AB8BF9B180A680C4612B95A600B6030BD93420DD2CB
:405AC00019685818904201BF5A5852181A60426823605A6030BD994203D80A4651680029F9D1146815199D420AD11B682344D0188842136012D10868034413604B680CE0E8
:405B000002D90C23036030BD1C681819884201BF08684968001918605960536030BD00BF7803002070B5CC1C24F0030408340C2C38BF0C24002C064603DA0C23336000206D
:405B400070BD8C42F9D3204A136810461946A1B10A68121B0ED40B2A03D90A608B188C501FE08B420BBF5A684A6802605A6018BF0B4616E00B464968E9E7144D2B681BB919
:405B8000304600F071F928603046214600F06CF9421C0346D1D0C51C25F0030585420AD11C6003F10B001A1D20F00700821A0AD05142995070BD3046E91A00F055F90130A3
:405BC000BBD02B46ECE770BD78030020740300202DE9F0478E688246B3420C469046994640D38A8912F4906F3AD02568096902236F1A656905EB450595FBF3F57B1C4B44E8
:405C00009D4238BF1D4653050FD52946FFF78AFF064698B121693A46FEF71AF9A38923F4906343F08003A38113E02A4600F047F9064670B950462169FFF730FF0C23CAF80C
:405C40000030A3894FF0FF3043F04003A381BDE8F08726613E4426604E466561ED1BA560B14500D24E4632462068414600F00CF9A36800209B1BA36023681E442660BDE8DA
:405C8000F08700002DE9F0439DB003938B8906461C060D4690460CD50B6953B94021FFF741FF2860286110B90C233360CCE040236B610023099320238DF8293030238DF86F
:405CC0002A3043461C4613F8012B1AB9B4EB08090FD002E0252AF5D1F8E73046294642464B46FFF775FF013000F0A980099B4B4409932378002B00F0A28000234FF0FF3204
:405D000004930793059206938DF853301A9304F101084446DFF84891217848460522FFF7C3FB08F10108049B30B1C9EB00000122824013430493ECE7D80644BF20228DF890
:405D40005320190744BF2B228DF8532022782A2A02D0079923460EE0039A0134111D12680391002ABBBF524243F0020307920792B8BF04930AE01C4622780133303A092A1C
:405D800003D80A2000FB0121F5E7079123782E2B1AD163782A2B0AD1039B02341A1D1B680392002BB8BF4FF0FF3305930CE0611C00220C4623780131303B092B03D80A2047
:405DC00000FB0232F5E70592DFF89880217840460322FFF769FB38B1049AC8EB00004023834013430493013421781A48062204F101088DF82810FFF757FB88B1164B33B946
:405E0000039B073323F007030833039313E003AB0093304604A92A46104BFEF7BBF807E003AB0093304604A92A460C4BFEF76EFB421C074603D0099B3B44099341E7AB89C9
:405E40005B0601D4099801E04FF0FF301DB0BDE8F08300BFE6700000953F0000D15B0000DC700000E270000038B5064C0023054608462360FBF722FE431C02D1236803B163
:405E80002B6038BDE4030020814210B501EB020301D3421E0BE09842FBD28118D21AD34204D013F8014D01F8014DF8E710BD994204D011F8014B02F8014FF8E710BDF8B5BB
:405EC000074615460E4621B91146BDE8F840FFF729BE1AB9FFF7E2FD2846F8BD00F015F8A8420ED238462946FFF71CFE044650B131462A46FDF7ACFF38463146FFF7CEFDA5
:405F000001E03046F8BD2046F8BD51F8040C0028BEBF091851F8043CC01804387047000081F0004102E000BF83F0004330B54FEA41044FEA430594EA050F08BF90EA020FF6
:405F40001FBF54EA000C55EA020C7FEA645C7FEA655C00F0E2804FEA5454D4EB5555B8BF6D420CDD2C4480EA020281EA030382EA000083EA010180EA020281EA0303362D42
:405F800088BF30BD11F0004F4FEA01314FF4801C4CEA113102D0404261EB410113F0004F4FEA03334CEA133302D0524263EB430394EA050F00F0A780A4F10104D5F1200E4B
:405FC0000DDB02FA0EFC22FA05F2801841F1000103FA0EF2801843FA05F359410EE0A5F120050EF1200E012A03FA0EFC28BF4CF0020C43FA05F3C01851EBE37101F0004565
:4060000007D54FF0000EDCF1000C7EEB00006EEB0101B1F5801F1BD3B1F5001F0CD349085FEA30004FEA3C0C04F101044FEA445212F5800F80F09A80BCF1004F08BF5FEA83
:40604000500C50F1000041EB045141EA050130BD5FEA4C0C404141EB010111F4801FA4F10104E9D191F0000F04BF01460020B1FA81F308BF2033A3F10B03B3F120020CDA5B
:406080000C3208DD02F1140CC2F10C0201FA0CF021FA02F10CE002F11402D8BFC2F1200C01FA02F120FA0CFCDCBF41EA0C019040E41AA2BF01EB0451294330BD6FEA04046C
:4060C0001F3C1CDA0C340EDC04F11404C4F1200220FA04F001FA02F340EA030021FA04F345EA030130BDC4F10C04C4F1200220FA02F001FA04F340EA0300294630BD21FAA6
:4061000004F0294630BD94F0000F83F4801306BF81F480110134013D4EE77FEA645C18BF7FEA655C29D094EA050F08BF90EA020F05D054EA000C04BF1946104630BD91EAF9
:40614000030F1EBF0021002030BD5FEA545C05D14000494128BF41F0004130BD14F580043CBF01F5801130BD01F0004545F0FE4141F470014FF0000030BD7FEA645C1ABFA9
:40618000194610467FEA655C1CBF0B46024650EA013406BF52EA033591EA030F41F4002130BD00BF90F0000F04BF0021704730B54FF4806404F132044FF000054FF0000170
:4061C00050E700BF90F0000F04BF0021704730B54FF4806404F1320410F0004548BF40424FF000013EE700BF42004FEAE2014FEA31014FEA02701FBF12F07F4393F07F4FEF
:4062000081F06051704792F0000F14BF93F07F4F704730B54FF4607401F0004521F0004120E700BF50EA010208BF704730B54FF000050AE050EA010208BF704730B511F060
:40624000004502D5404261EB41014FF4806404F132045FEA915C3FF4DCAE4FF003025FEADC0C18BF03325FEADC0C18BF033202EBDC02C2F1200300FA03FC20FA02F001FA4E
:4062800003FE40EA0E0021FA02F11444C1E600BF70B54FF0FF0C4CF4E06C1CEA11541DBF1CEA135594EA0C0F95EA0C0F00F0DEF82C4481EA030621EA4C5123EA4C5350EABE
:4062C000013518BF52EA033541F4801143F4801338D0A0FB02CE4FF00005E1FB02E506F00042E0FB03E54FF00006E1FB03569CF0000F18BF4EF0010EA4F1FF04B6F5007F1D
:4063000064F5407404D25FEA4E0E6D4146EB060642EAC62141EA55514FEAC52040EA5E504FEACE2EB4F1FD0C88BFBCF5E06F1ED8BEF1004F08BF5FEA500E50F1000041EB17
:40634000045170BD06F0004646EA010140EA020081EA0301B4EB5C04C2BFD4EB0C0541EA045170BD41F480114FF0000E013C00F3AB8014F1360FDEBF002001F0004170BDC1
:40638000C4F10004203C35DA0C341BDC04F11404C4F1200500FA05F320FA04F001FA05F240EA020001F0004221F0004110EBD37021FA04F642EB06015EEA430E08BF20EA07
:4063C000D37070BDC4F10C04C4F1200500FA04F320FA05F001FA04F240EA020001F0004110EBD37041F100015EEA430E08BF20EAD37070BDC4F1200500FA05F24EEA020EE1
:4064000020FA04F301FA05F243EA020321FA04F001F0004121FA04F220EA020000EBD3705EEA430E08BF20EAD37070BD94F0000F0FD101F00046400041EB010111F4801F05
:4064400008BF013CF7D041EA060195F0000F18BF704703F00046520043EB030313F4801F08BF013DF7D043EA0603704794EA0C0F0CEA135518BF95EA0C0F0CD050EA41061A
:4064800018BF52EA4306D1D181EA030101F000414FF0000070BD50EA410606BF1046194652EA430619D094EA0C0F02D150EA013613D195EA0C0F05D152EA03361CBF104691
:4064C00019460AD181EA030101F0004141F0FE4141F470014FF0000070BD41F0FE4141F4780170BD70B54FF0FF0C4CF4E06C1CEA11541DBF1CEA135594EA0C0F95EA0C0F11
:4065000000F0A7F8A4EB050481EA030E52EA03354FEA013100F088804FEA03334FF0805545EA131343EA12634FEA022245EA111545EA10654FEA00260EF000419D4208BFCD
:40654000964244F1FD0404F5407402D25B084FEA3202B61A65EB03055B084FEA32024FF480104FF4002CB6EB020E75EB030E22BFB61A754640EA0C005B084FEA3202B6EB4D
:40658000020E75EB030E22BFB61A754640EA5C005B084FEA3202B6EB020E75EB030E22BFB61A754640EA9C005B084FEA3202B6EB020E75EB030E22BFB61A754640EADC00E0
:4065C00055EA060E18D04FEA051545EA16754FEA06164FEAC30343EA52734FEAC2025FEA1C1CC0D111F4801F0BD141EA00014FF000004FF0004CB6E711F4801F04BF014340
:406600000020B4F1FD0C88BFBCF5E06F3FF6AFAEB5EB030C04BFB6EB020C5FEA500C50F1000041EB045170BD0EF0004E4EEA113114EB5C04C2BFD4EB0C0541EA045170BDDB
:4066400041F480114FF0000E013C90E645EA060E8DE60CEA135594EA0C0F08BF95EA0C0F3FF43BAF94EA0C0F0AD150EA01347FF434AF95EA0C0F7FF425AF104619462CE747
:4066800095EA0C0F06D152EA03353FF4FDAE1046194622E750EA410618BF52EA43067FF4C5AE50EA41047FF40DAF52EA43057FF4EBAE12E74FF0FF3C06E000BF4FF0010CF4
:4066C00002E000BF4FF0010C4DF804CD4FEA410C7FEA6C5C4FEA430C18BF7FEA6C5C1BD001B050EA410C0CBF52EA430C91EA030F02BF90EA020F0020704710F1000F91EA9C
:40670000030F58BF994208BF90422CBFD8176FEAE37040F0010070474FEA410C7FEA6C5C02D150EA013C07D14FEA430C7FEA6C5CD6D152EA033CD3D05DF8040B704700BF1D
:406740008446104662468C461946634600E000BF01B5FFF7B7FF002848BF10F1000F01BD4DF808EDFFF7F4FF0CBF012000205DF808FB00BF4DF808EDFFF7EAFF34BF012006
:4067800000205DF808FB00BF4DF808EDFFF7E0FF94BF012000205DF808FB00BF4DF808EDFFF7CEFF94BF012000205DF808FB00BF4DF808EDFFF7C4FF34BF012000205DF8C4
:4067C00008FB00BF4FEA410212F5001215D211D56FF47873B3EB625212D94FEAC12343F0004343EA505311F0004F23FA02F018BF404270474FF00000704750EA013005D1E1
:4068000011F0004008BF6FF0004070474FF00000704700BF00000000C4D0FF7F0100000049444C45000000005344525F426561636F6E00006765742073746172746564002D
:406840004C454400434C434400000000524F54004B45590044445200524144494F0000002020202020202020202020202020202000000000467265713A25376C645B487AF5
:406880005D0000004348313A200000004348323A2000000025376C645B487A5D000000004572726F7220205B487A5D002537645B6D565D00424541434F4E20202020202041
:4068C00020202020000000004E484B312053656E646169202020202000000000C84900401900405100403000F0510040100000000140000880080140800700140140000800
:4069000000400140000A004C01400002005001402000000000080140840300488000000001112131416153637300000008090101050707040400000021F8050144F80B40F1
:4069400067F8318081F80501A5F815014699A820E2F8070108F93B01A933CF2001F80501000000000000000000000000000000000000000000000000000000000000000045
:4069800000000000000000000000000000000000000000000000000000000000000000000000000000000000000000000000000000000000000000000000000000000000D7
:4069C0000000000000000000000000000000000000000000000000000000000000000000000000000000000000000000000000000000000000000000000000000000000097
:406A000000000000000000000000000000000000000000000000000000000000000000000000000000000000000000000000000000000000000000009309000000000000BA
:406A400002010000A7130000140A0000020100007E3F0000FF3F0000000000000000000000000000000000000000000000000000000000000000000068100100CF200200D3
:406A800068100100FB0F4E007182DF008271040003E3080082710400178F45003A05EA0070E00300DFC0070070E00300BEAF410099CEEE0035EE15006ADC2B0035EE150013
:406AC000AEE65C00FE2ACD0068100100CF20020068100100FB0F4E007182DF008271040003E3080082710400178F45003A05EA0070E00300DFC0070070E00300BEAF4100BA
:406B000099CEEE0035EE15006ADC2B0035EE1500AEE65C00FE2ACD00000000000000000000000000000000000000000000000000000000000000000000000000000000003A
:406B40000000000000000000000000000000000000000000000000000000000000000000000000000000000000000000000000000000000000000000000000000000000015
:406B800000000000000000000000000000000000000000000000000000000000000000000000000000000000000000000000000000000000000000000000000000000000D5
:406BC0000000000000000000000000000000000000000000000000000000000000000000000000000000000000000000000000000000000000000000000000000000000095
:406C00000000000000000000000000000000000000000000000000000000000000000000000000000000000000000000000000000000000000000000000000000000000054
:406C4000000000000000000000000000000000000000000000000000000000000000000000000000000000000000000000000000000000000008000000000000000000000C
:406C800000000000000000000000000000000000000000000000000000000000000000000000000000000000000000000000000000000000000000000000000000000000D4
:406CC0000000000000000000000000000000000000000000000000000000000000000000000000000000000000000000000000000000000000000000000000000000000094
:406D00000000000000000000000000000000000000000000000000000000000000000000000000000000000000000000000000000000000000000000000000000000000053
:406D40000000000000000000000000000000000000000000000000000000000000000000000000000000000000000000000000000000000000000000000000000000000013
:406D800000000000000000000000000000000000000000000000000000000000000000000000000000000000000000000000000000000000000000000000000000000000D3
:406DC0000000000000000000000000000000000000000000000000000000000000000000000000000000000000000000000000000000000000000000000000000000000093
:406E00000000000000000000000000000000000000000000000000000000000000000000000000000000000000000000000000000000000000000000000000000000000052
:406E40000000000000000000000000000000000000000000000000000000000000000000000000000000000000000000000000000000000000080000201300256117802694
:406E800001008026010080260100802620138026C20C8026E00E8026A40A8026631710068C0880266E06806D6C06802F2002106F008080262002806F008080262002806F4D
:406EC0002002806F211A40FE00008026022210660080106E0182802620138026C80C8026E60E8026AA0A8026611710068C0880266E06806D6C06802F2002106F0080802649
:406F00002002806F008080262002806F2002806F211A40FE00008026002210660080106E01828026000000000000000000000000000000000000000000000000000000001A
:406F40000000000000000000000000000000000000000000000000000000000000000000000000000000000000000000000000000000000000000000011121314161536355
:406F8000730000000809010105070704040000004300494E4600696E66004E414E006E616E0030003031323334353637383941424344454600303132333435363738396179
:406FC000626364656600496E66696E697479004E614E00504F534958002E000000000000000000000000F03F000000000000244000000000000059400000000000408F405A
:40700000000000000088C34000000000006AF8400000000080842E4100000000D01263410000000084D797410000000065CDCD41000000205FA00242000000E87648374235
:40704000000000A2941A6D42000040E59C30A2420000901EC4BCD64200003426F56B0C430080E03779C3414300A0D8855734764300C84E676DC1AB43003D9160E458E1432E
:40708000408CB5781DAF154450EFE2D6E41A4B4492D54D06CFF08044F64AE1C7022DB544B49DD9794378EA440080E03779C34143176E05B5B5B89346F5F93FE9034F384D8C
:4070C000321D30F94877825A3CBF737FDD4F157505000000190000007D000000232D302B2000686C4C0065666745464700000000F8B500BFF8BC08BC9E4670474D00000084
:40710000391B0000F8B500BFF8BC08BC9E46704729000000287100000881FF1F18010000C88100000000000000000000AAAAAAAAF87F00000827010028F9060078980D001E
:407140002003000020030000B4680000C8680000E80300207F8000000F0000000000E880D0010100420000008014EF03FFFF0000FF000000202020202020202020202020E5
:4071800020202020FF000000FF00000020202020202020202020202020202020FF000000000000000000000000000000000000000000000000000000000000000000000052
:4071C000906F000000000000000000000000000000000000000000000000000000000000000000000000000000000000000000000000000000000000000000000000000090
:407200008081FF1FD96F0000E1700000E1700000E1700000E1700000E1700000E1700000E1700000E1700000E1700000FFFFFFFFFFFFFFFFFFFFFFFFFFFF0000000000001C
